{
  "address": "0x72Ca9cC692264c699bE2D2d8FCAafEfbc27b1c47",
  "abi": [
    {
      "anonymous": false,
      "inputs": [
        {
          "indexed": true,
          "internalType": "address",
          "name": "owner",
          "type": "address"
        },
        {
          "indexed": true,
          "internalType": "address",
          "name": "spender",
          "type": "address"
        },
        {
          "indexed": false,
          "internalType": "uint256",
          "name": "value",
          "type": "uint256"
        }
      ],
      "name": "Approval",
      "type": "event"
    },
    {
      "anonymous": false,
      "inputs": [
        {
          "indexed": true,
          "internalType": "address",
          "name": "addedBurner",
          "type": "address"
        },
        {
          "indexed": true,
          "internalType": "address",
          "name": "addedBy",
          "type": "address"
        }
      ],
      "name": "BurnerAdded",
      "type": "event"
    },
    {
      "anonymous": false,
      "inputs": [
        {
          "indexed": true,
          "internalType": "address",
          "name": "removedBurner",
          "type": "address"
        },
        {
          "indexed": true,
          "internalType": "address",
          "name": "removedBy",
          "type": "address"
        }
      ],
      "name": "BurnerRemoved",
      "type": "event"
    },
    {
      "anonymous": false,
      "inputs": [
        {
          "indexed": true,
          "internalType": "address",
          "name": "delegator",
          "type": "address"
        },
        {
          "indexed": true,
          "internalType": "address",
          "name": "fromDelegate",
          "type": "address"
        },
        {
          "indexed": true,
          "internalType": "address",
          "name": "toDelegate",
          "type": "address"
        }
      ],
      "name": "DelegateChanged",
      "type": "event"
    },
    {
      "anonymous": false,
      "inputs": [
        {
          "indexed": true,
          "internalType": "address",
          "name": "delegate",
          "type": "address"
        },
        {
          "indexed": false,
          "internalType": "uint256",
          "name": "previousBalance",
          "type": "uint256"
        },
        {
          "indexed": false,
          "internalType": "uint256",
          "name": "newBalance",
          "type": "uint256"
        }
      ],
      "name": "DelegateVotesChanged",
      "type": "event"
    },
    {
      "anonymous": false,
      "inputs": [
        {
          "indexed": false,
          "internalType": "uint8",
          "name": "version",
          "type": "uint8"
        }
      ],
      "name": "Initialized",
      "type": "event"
    },
    {
      "anonymous": false,
      "inputs": [
        {
          "indexed": true,
          "internalType": "address",
          "name": "addedMinter",
          "type": "address"
        },
        {
          "indexed": true,
          "internalType": "address",
          "name": "addedBy",
          "type": "address"
        }
      ],
      "name": "MinterAdded",
      "type": "event"
    },
    {
      "anonymous": false,
      "inputs": [
        {
          "indexed": true,
          "internalType": "address",
          "name": "removedMinter",
          "type": "address"
        },
        {
          "indexed": true,
          "internalType": "address",
          "name": "removedBy",
          "type": "address"
        }
      ],
      "name": "MinterRemoved",
      "type": "event"
    },
    {
      "anonymous": false,
      "inputs": [
        {
          "indexed": true,
          "internalType": "address",
          "name": "addedOwner",
          "type": "address"
        },
        {
          "indexed": true,
          "internalType": "address",
          "name": "addedBy",
          "type": "address"
        }
      ],
      "name": "OwnerAdded",
      "type": "event"
    },
    {
      "anonymous": false,
      "inputs": [
        {
          "indexed": true,
          "internalType": "address",
          "name": "removedOwner",
          "type": "address"
        },
        {
          "indexed": true,
          "internalType": "address",
          "name": "removedBy",
          "type": "address"
        }
      ],
      "name": "OwnerRemoved",
      "type": "event"
    },
    {
      "anonymous": false,
      "inputs": [
        {
          "indexed": true,
          "internalType": "address",
          "name": "from",
          "type": "address"
        },
        {
          "indexed": true,
          "internalType": "address",
          "name": "to",
          "type": "address"
        },
        {
          "indexed": false,
          "internalType": "uint256",
          "name": "value",
          "type": "uint256"
        }
      ],
      "name": "Transfer",
      "type": "event"
    },
    {
      "inputs": [],
      "name": "DOMAIN_SEPARATOR",
      "outputs": [
        {
          "internalType": "bytes32",
          "name": "",
          "type": "bytes32"
        }
      ],
      "stateMutability": "view",
      "type": "function"
    },
    {
      "inputs": [
        {
          "internalType": "address",
          "name": "account",
          "type": "address"
        }
      ],
      "name": "addBurner",
      "outputs": [],
      "stateMutability": "nonpayable",
      "type": "function"
    },
    {
      "inputs": [
        {
          "internalType": "address",
          "name": "account",
          "type": "address"
        }
      ],
      "name": "addMinter",
      "outputs": [],
      "stateMutability": "nonpayable",
      "type": "function"
    },
    {
      "inputs": [
        {
          "internalType": "address",
          "name": "account",
          "type": "address"
        }
      ],
      "name": "addOwner",
      "outputs": [],
      "stateMutability": "nonpayable",
      "type": "function"
    },
    {
      "inputs": [
        {
          "internalType": "address",
          "name": "owner",
          "type": "address"
        },
        {
          "internalType": "address",
          "name": "spender",
          "type": "address"
        }
      ],
      "name": "allowance",
      "outputs": [
        {
          "internalType": "uint256",
          "name": "",
          "type": "uint256"
        }
      ],
      "stateMutability": "view",
      "type": "function"
    },
    {
      "inputs": [
        {
          "internalType": "address",
          "name": "spender",
          "type": "address"
        },
        {
          "internalType": "uint256",
          "name": "amount",
          "type": "uint256"
        }
      ],
      "name": "approve",
      "outputs": [
        {
          "internalType": "bool",
          "name": "",
          "type": "bool"
        }
      ],
      "stateMutability": "nonpayable",
      "type": "function"
    },
    {
      "inputs": [
        {
          "internalType": "address",
          "name": "account",
          "type": "address"
        }
      ],
      "name": "balanceOf",
      "outputs": [
        {
          "internalType": "uint256",
          "name": "",
          "type": "uint256"
        }
      ],
      "stateMutability": "view",
      "type": "function"
    },
    {
      "inputs": [
        {
          "internalType": "uint256",
          "name": "amount",
          "type": "uint256"
        }
      ],
      "name": "burn",
      "outputs": [],
      "stateMutability": "nonpayable",
      "type": "function"
    },
    {
      "inputs": [
        {
          "internalType": "address",
          "name": "account",
          "type": "address"
        },
        {
          "internalType": "uint256",
          "name": "amount",
          "type": "uint256"
        }
      ],
      "name": "burnFrom",
      "outputs": [],
      "stateMutability": "nonpayable",
      "type": "function"
    },
    {
      "inputs": [
        {
          "internalType": "address",
          "name": "account",
          "type": "address"
        },
        {
          "internalType": "uint32",
          "name": "pos",
          "type": "uint32"
        }
      ],
      "name": "checkpoints",
      "outputs": [
        {
          "components": [
            {
              "internalType": "uint32",
              "name": "fromBlock",
              "type": "uint32"
            },
            {
              "internalType": "uint224",
              "name": "votes",
              "type": "uint224"
            }
          ],
          "internalType": "struct ERC20VotesUpgradeable.Checkpoint",
          "name": "",
          "type": "tuple"
        }
      ],
      "stateMutability": "view",
      "type": "function"
    },
    {
      "inputs": [],
      "name": "decimals",
      "outputs": [
        {
          "internalType": "uint8",
          "name": "",
          "type": "uint8"
        }
      ],
      "stateMutability": "view",
      "type": "function"
    },
    {
      "inputs": [
        {
          "internalType": "address",
          "name": "spender",
          "type": "address"
        },
        {
          "internalType": "uint256",
          "name": "subtractedValue",
          "type": "uint256"
        }
      ],
      "name": "decreaseAllowance",
      "outputs": [
        {
          "internalType": "bool",
          "name": "",
          "type": "bool"
        }
      ],
      "stateMutability": "nonpayable",
      "type": "function"
    },
    {
      "inputs": [
        {
          "internalType": "address",
          "name": "delegatee",
          "type": "address"
        }
      ],
      "name": "delegate",
      "outputs": [],
      "stateMutability": "nonpayable",
      "type": "function"
    },
    {
      "inputs": [
        {
          "internalType": "address",
          "name": "delegatee",
          "type": "address"
        },
        {
          "internalType": "uint256",
          "name": "nonce",
          "type": "uint256"
        },
        {
          "internalType": "uint256",
          "name": "expiry",
          "type": "uint256"
        },
        {
          "internalType": "uint8",
          "name": "v",
          "type": "uint8"
        },
        {
          "internalType": "bytes32",
          "name": "r",
          "type": "bytes32"
        },
        {
          "internalType": "bytes32",
          "name": "s",
          "type": "bytes32"
        }
      ],
      "name": "delegateBySig",
      "outputs": [],
      "stateMutability": "nonpayable",
      "type": "function"
    },
    {
      "inputs": [
        {
          "internalType": "address",
          "name": "account",
          "type": "address"
        }
      ],
      "name": "delegates",
      "outputs": [
        {
          "internalType": "address",
          "name": "",
          "type": "address"
        }
      ],
      "stateMutability": "view",
      "type": "function"
    },
    {
      "inputs": [
        {
          "internalType": "uint256",
          "name": "blockNumber",
          "type": "uint256"
        }
      ],
      "name": "getPastTotalSupply",
      "outputs": [
        {
          "internalType": "uint256",
          "name": "",
          "type": "uint256"
        }
      ],
      "stateMutability": "view",
      "type": "function"
    },
    {
      "inputs": [
        {
          "internalType": "address",
          "name": "account",
          "type": "address"
        },
        {
          "internalType": "uint256",
          "name": "blockNumber",
          "type": "uint256"
        }
      ],
      "name": "getPastVotes",
      "outputs": [
        {
          "internalType": "uint256",
          "name": "",
          "type": "uint256"
        }
      ],
      "stateMutability": "view",
      "type": "function"
    },
    {
      "inputs": [
        {
          "internalType": "address",
          "name": "account",
          "type": "address"
        }
      ],
      "name": "getVotes",
      "outputs": [
        {
          "internalType": "uint256",
          "name": "",
          "type": "uint256"
        }
      ],
      "stateMutability": "view",
      "type": "function"
    },
    {
      "inputs": [
        {
          "internalType": "address",
          "name": "spender",
          "type": "address"
        },
        {
          "internalType": "uint256",
          "name": "addedValue",
          "type": "uint256"
        }
      ],
      "name": "increaseAllowance",
      "outputs": [
        {
          "internalType": "bool",
          "name": "",
          "type": "bool"
        }
      ],
      "stateMutability": "nonpayable",
      "type": "function"
    },
    {
      "inputs": [
        {
          "internalType": "uint256",
          "name": "initialSupply",
          "type": "uint256"
        }
      ],
      "name": "initialize",
      "outputs": [],
      "stateMutability": "nonpayable",
      "type": "function"
    },
    {
      "inputs": [
        {
          "internalType": "address",
          "name": "account",
          "type": "address"
        }
      ],
      "name": "isBurner",
      "outputs": [
        {
          "internalType": "bool",
          "name": "",
          "type": "bool"
        }
      ],
      "stateMutability": "view",
      "type": "function"
    },
    {
      "inputs": [
        {
          "internalType": "address",
          "name": "account",
          "type": "address"
        }
      ],
      "name": "isMinter",
      "outputs": [
        {
          "internalType": "bool",
          "name": "",
          "type": "bool"
        }
      ],
      "stateMutability": "view",
      "type": "function"
    },
    {
      "inputs": [
        {
          "internalType": "address",
          "name": "account",
          "type": "address"
        }
      ],
      "name": "isOwner",
      "outputs": [
        {
          "internalType": "bool",
          "name": "",
          "type": "bool"
        }
      ],
      "stateMutability": "view",
      "type": "function"
    },
    {
      "inputs": [
        {
          "internalType": "address",
          "name": "to",
          "type": "address"
        },
        {
          "internalType": "uint256",
          "name": "amount",
          "type": "uint256"
        }
      ],
      "name": "mint",
      "outputs": [],
      "stateMutability": "nonpayable",
      "type": "function"
    },
    {
      "inputs": [],
      "name": "name",
      "outputs": [
        {
          "internalType": "string",
          "name": "",
          "type": "string"
        }
      ],
      "stateMutability": "view",
      "type": "function"
    },
    {
      "inputs": [
        {
          "internalType": "address",
          "name": "owner",
          "type": "address"
        }
      ],
      "name": "nonces",
      "outputs": [
        {
          "internalType": "uint256",
          "name": "",
          "type": "uint256"
        }
      ],
      "stateMutability": "view",
      "type": "function"
    },
    {
      "inputs": [
        {
          "internalType": "address",
          "name": "account",
          "type": "address"
        }
      ],
      "name": "numCheckpoints",
      "outputs": [
        {
          "internalType": "uint32",
          "name": "",
          "type": "uint32"
        }
      ],
      "stateMutability": "view",
      "type": "function"
    },
    {
      "inputs": [
        {
          "internalType": "address",
          "name": "owner",
          "type": "address"
        },
        {
          "internalType": "address",
          "name": "spender",
          "type": "address"
        },
        {
          "internalType": "uint256",
          "name": "value",
          "type": "uint256"
        },
        {
          "internalType": "uint256",
          "name": "deadline",
          "type": "uint256"
        },
        {
          "internalType": "uint8",
          "name": "v",
          "type": "uint8"
        },
        {
          "internalType": "bytes32",
          "name": "r",
          "type": "bytes32"
        },
        {
          "internalType": "bytes32",
          "name": "s",
          "type": "bytes32"
        }
      ],
      "name": "permit",
      "outputs": [],
      "stateMutability": "nonpayable",
      "type": "function"
    },
    {
      "inputs": [
        {
          "internalType": "address",
          "name": "account",
          "type": "address"
        }
      ],
      "name": "removeBurner",
      "outputs": [],
      "stateMutability": "nonpayable",
      "type": "function"
    },
    {
      "inputs": [
        {
          "internalType": "address",
          "name": "account",
          "type": "address"
        }
      ],
      "name": "removeMinter",
      "outputs": [],
      "stateMutability": "nonpayable",
      "type": "function"
    },
    {
      "inputs": [
        {
          "internalType": "address",
          "name": "account",
          "type": "address"
        }
      ],
      "name": "removeOwner",
      "outputs": [],
      "stateMutability": "nonpayable",
      "type": "function"
    },
    {
      "inputs": [],
      "name": "symbol",
      "outputs": [
        {
          "internalType": "string",
          "name": "",
          "type": "string"
        }
      ],
      "stateMutability": "view",
      "type": "function"
    },
    {
      "inputs": [],
      "name": "totalSupply",
      "outputs": [
        {
          "internalType": "uint256",
          "name": "",
          "type": "uint256"
        }
      ],
      "stateMutability": "view",
      "type": "function"
    },
    {
      "inputs": [
        {
          "internalType": "address",
          "name": "to",
          "type": "address"
        },
        {
          "internalType": "uint256",
          "name": "amount",
          "type": "uint256"
        }
      ],
      "name": "transfer",
      "outputs": [
        {
          "internalType": "bool",
          "name": "",
          "type": "bool"
        }
      ],
      "stateMutability": "nonpayable",
      "type": "function"
    },
    {
      "inputs": [
        {
          "internalType": "address",
          "name": "from",
          "type": "address"
        },
        {
          "internalType": "address",
          "name": "to",
          "type": "address"
        },
        {
          "internalType": "uint256",
          "name": "amount",
          "type": "uint256"
        }
      ],
      "name": "transferFrom",
      "outputs": [
        {
          "internalType": "bool",
          "name": "",
          "type": "bool"
        }
      ],
      "stateMutability": "nonpayable",
      "type": "function"
    }
  ],
  "transactionHash": "0x289d204f79a99a9dd639f411fa9bd70d11bc196cc1f5c107db1d191c9384be5c",
  "args": [],
  "numDeployments": 1,
  "solcInputHash": "c27eebfc664315e4f99240b7fb48dc1a",
  "bytecode": "0x608060405234801561001057600080fd5b50612895806100206000396000f3fe608060405234801561001057600080fd5b50600436106102115760003560e01c80636fcfff4511610125578063a457c2d7116100ad578063d505accf1161007c578063d505accf146104ae578063dd62ed3e146104c1578063f1127ed8146104d4578063f44637ba14610511578063fe4b84df1461052457600080fd5b8063a457c2d714610462578063a9059cbb14610475578063aa271e1a14610488578063c3cda5201461049b57600080fd5b80637ecebe00116100f45780637ecebe001461040e5780638e539e8c1461042157806395d89b4114610434578063983b2d561461043c5780639ab24eb01461044f57600080fd5b80636fcfff45146103975780637065cb48146103bf57806370a08231146103d257806379cc6790146103fb57600080fd5b8063313ce567116101a857806340c10f191161017757806340c10f191461030757806342966c681461031a5780634334614a1461032d578063587cde1e146103405780635c19a95c1461038457600080fd5b8063313ce567146102ca5780633644e515146102d957806339509351146102e15780633a46b1a8146102f457600080fd5b806318160ddd116101e457806318160ddd1461027f57806323b872dd146102915780632f54bf6e146102a45780633092afd5146102b757600080fd5b8063028468581461021657806306fdde031461022b578063095ea7b314610249578063173825d91461026c575b600080fd5b6102296102243660046123b6565b610537565b005b610233610571565b60405161024091906123d1565b60405180910390f35b61025c61025736600461241f565b610603565b6040519015158152602001610240565b61022961027a3660046123b6565b61061d565b6035545b604051908152602001610240565b61025c61029f366004612449565b61064b565b61025c6102b23660046123b6565b61066f565b6102296102c53660046123b6565b61067d565b60405160128152602001610240565b6102836106ab565b61025c6102ef36600461241f565b6106ba565b61028361030236600461241f565b6106dc565b61022961031536600461241f565b610756565b610229610328366004612485565b6107d2565b61025c61033b3660046123b6565b61084a565b61036c61034e3660046123b6565b6001600160a01b03908116600090815260fe60205260409020541690565b6040516001600160a01b039091168152602001610240565b6102296103923660046123b6565b610858565b6103aa6103a53660046123b6565b610862565b60405163ffffffff9091168152602001610240565b6102296103cd3660046123b6565b610884565b6102836103e03660046123b6565b6001600160a01b031660009081526033602052604090205490565b61022961040936600461241f565b6108b2565b61028361041c3660046123b6565b6108c7565b61028361042f366004612485565b6108e5565b610233610942565b61022961044a3660046123b6565b610951565b61028361045d3660046123b6565b61097f565b61025c61047036600461241f565b610a06565b61025c61048336600461241f565b610a81565b61025c6104963660046123b6565b610a8f565b6102296104a93660046124af565b610a9d565b6102296104bc366004612507565b610bd3565b6102836104cf366004612571565b610d37565b6104e76104e23660046125a4565b610d62565b60408051825163ffffffff1681526020928301516001600160e01b03169281019290925201610240565b61022961051f3660046123b6565b610de6565b610229610532366004612485565b610e14565b6105403361066f565b6105655760405162461bcd60e51b815260040161055c906125e4565b60405180910390fd5b61056e81610fb4565b50565b60606036805461058090612632565b80601f01602080910402602001604051908101604052809291908181526020018280546105ac90612632565b80156105f95780601f106105ce576101008083540402835291602001916105f9565b820191906000526020600020905b8154815290600101906020018083116105dc57829003601f168201915b5050505050905090565b600033610611818585610ff9565b60019150505b92915050565b6106263361066f565b6106425760405162461bcd60e51b815260040161055c906125e4565b61056e8161111d565b600033610659858285611162565b6106648585856111dc565b506001949350505050565b6000610617610130836113b0565b6106863361066f565b6106a25760405162461bcd60e51b815260040161055c906125e4565b61056e81611433565b60006106b5611478565b905090565b6000336106118185856106cd8383610d37565b6106d7919061267c565b610ff9565b600043821061072d5760405162461bcd60e51b815260206004820152601f60248201527f4552433230566f7465733a20626c6f636b206e6f7420796574206d696e656400604482015260640161055c565b6001600160a01b038316600090815260ff6020526040902061074f90836114f3565b9392505050565b61075f33610a8f565b6107c45760405162461bcd60e51b815260206004820152603060248201527f4d696e746572526f6c653a2063616c6c657220646f6573206e6f74206861766560448201526f20746865204d696e74657220726f6c6560801b606482015260840161055c565b6107ce82826115b0565b5050565b6107db3361084a565b6108405760405162461bcd60e51b815260206004820152603060248201527f4275726e6572526f6c653a2063616c6c657220646f6573206e6f74206861766560448201526f20746865204275726e657220726f6c6560801b606482015260840161055c565b61056e33826115ba565b6000610617610194836113b0565b61056e33826115c4565b6001600160a01b038116600090815260ff60205260408120546106179061163e565b61088d3361066f565b6108a95760405162461bcd60e51b815260040161055c906125e4565b61056e816116a7565b6108bd823383611162565b6107ce82826115ba565b6001600160a01b038116600090815260cb6020526040812054610617565b60004382106109365760405162461bcd60e51b815260206004820152601f60248201527f4552433230566f7465733a20626c6f636b206e6f7420796574206d696e656400604482015260640161055c565b610617610100836114f3565b60606037805461058090612632565b61095a3361066f565b6109765760405162461bcd60e51b815260040161055c906125e4565b61056e816116ec565b6001600160a01b038116600090815260ff602052604081205480156109f3576001600160a01b038316600090815260ff602052604090206109c160018361268f565b815481106109d1576109d16126a2565b60009182526020909120015464010000000090046001600160e01b03166109f6565b60005b6001600160e01b03169392505050565b60003381610a148286610d37565b905083811015610a745760405162461bcd60e51b815260206004820152602560248201527f45524332303a2064656372656173656420616c6c6f77616e63652062656c6f77604482015264207a65726f60d81b606482015260840161055c565b6106648286868403610ff9565b6000336106118185856111dc565b6000610617610162836113b0565b83421115610aed5760405162461bcd60e51b815260206004820152601d60248201527f4552433230566f7465733a207369676e61747572652065787069726564000000604482015260640161055c565b604080517fe48329057bfd03d55e49b547132e39cffd9c1820ad7b9d4c5307691425d15adf60208201526001600160a01b038816918101919091526060810186905260808101859052600090610b6790610b5f9060a00160405160208183030381529060405280519060200120611731565b85858561177f565b9050610b72816117a7565b8614610bc05760405162461bcd60e51b815260206004820152601960248201527f4552433230566f7465733a20696e76616c6964206e6f6e636500000000000000604482015260640161055c565b610bca81886115c4565b50505050505050565b83421115610c235760405162461bcd60e51b815260206004820152601d60248201527f45524332305065726d69743a206578706972656420646561646c696e65000000604482015260640161055c565b60007f6e71edae12b1b97f4d1f60370fef10105fa2faae0126114a169c64845d6126c9888888610c528c6117a7565b6040805160208101969096526001600160a01b0394851690860152929091166060840152608083015260a082015260c0810186905260e0016040516020818303038152906040528051906020012090506000610cad82611731565b90506000610cbd8287878761177f565b9050896001600160a01b0316816001600160a01b031614610d205760405162461bcd60e51b815260206004820152601e60248201527f45524332305065726d69743a20696e76616c6964207369676e61747572650000604482015260640161055c565b610d2b8a8a8a610ff9565b50505050505050505050565b6001600160a01b03918216600090815260346020908152604080832093909416825291909152205490565b60408051808201909152600080825260208201526001600160a01b038316600090815260ff60205260409020805463ffffffff8416908110610da657610da66126a2565b60009182526020918290206040805180820190915291015463ffffffff8116825264010000000090046001600160e01b0316918101919091529392505050565b610def3361066f565b610e0b5760405162461bcd60e51b815260040161055c906125e4565b61056e816117cf565b600054610100900460ff1615808015610e345750600054600160ff909116105b80610e4e5750303b158015610e4e575060005460ff166001145b610eb15760405162461bcd60e51b815260206004820152602e60248201527f496e697469616c697a61626c653a20636f6e747261637420697320616c72656160448201526d191e481a5b9a5d1a585b1a5e995960921b606482015260840161055c565b6000805460ff191660011790558015610ed4576000805461ff0019166101001790555b610f1c6040518060400160405280600b81526020016a23b7b63232b72a37b5b2b760a91b8152506040518060400160405280600381526020016211d31160ea1b815250611814565b610f24611845565b610f506040518060400160405280600b81526020016a23b7b63232b72a37b5b2b760a91b81525061186e565b610f58611845565b610f61336116a7565b610f6b33836115b0565b80156107ce576000805461ff0019169055604051600181527f7f26b83ff96e1f2b6a682f133852f6798a09c465da95921460cefb38474024989060200160405180910390a15050565b610fc0610194826118b8565b60405133906001600160a01b038316907f85222465e0d438163a28671b59fc9ebeb03bf39f880ddd36c8315da7512b31c090600090a350565b6001600160a01b03831661105b5760405162461bcd60e51b8152602060048201526024808201527f45524332303a20617070726f76652066726f6d20746865207a65726f206164646044820152637265737360e01b606482015260840161055c565b6001600160a01b0382166110bc5760405162461bcd60e51b815260206004820152602260248201527f45524332303a20617070726f766520746f20746865207a65726f206164647265604482015261737360f01b606482015260840161055c565b6001600160a01b0383811660008181526034602090815260408083209487168084529482529182902085905590518481527f8c5be1e5ebec7d5bd14f71427d1e84f3dd0314c0f7b2291e5b200ac8c7c3b925910160405180910390a3505050565b611129610130826118b8565b60405133906001600160a01b038316907fe594d081b4382713733fe631966432c9cea5199afb2db5c3c1931f9f9300367990600090a350565b600061116e8484610d37565b905060001981146111d657818110156111c95760405162461bcd60e51b815260206004820152601d60248201527f45524332303a20696e73756666696369656e7420616c6c6f77616e6365000000604482015260640161055c565b6111d68484848403610ff9565b50505050565b6001600160a01b0383166112405760405162461bcd60e51b815260206004820152602560248201527f45524332303a207472616e736665722066726f6d20746865207a65726f206164604482015264647265737360d81b606482015260840161055c565b6001600160a01b0382166112a25760405162461bcd60e51b815260206004820152602360248201527f45524332303a207472616e7366657220746f20746865207a65726f206164647260448201526265737360e81b606482015260840161055c565b6001600160a01b0383166000908152603360205260409020548181101561131a5760405162461bcd60e51b815260206004820152602660248201527f45524332303a207472616e7366657220616d6f756e7420657863656564732062604482015265616c616e636560d01b606482015260840161055c565b6001600160a01b0380851660009081526033602052604080822085850390559185168152908120805484929061135190849061267c565b92505081905550826001600160a01b0316846001600160a01b03167fddf252ad1be2c89b69c2b068fc378daa952ba7f163c4a11628f55a4df523b3ef8460405161139d91815260200190565b60405180910390a36111d684848461193f565b60006001600160a01b0382166114135760405162461bcd60e51b815260206004820152602260248201527f526f6c65733a206163636f756e7420697320746865207a65726f206164647265604482015261737360f01b606482015260840161055c565b506001600160a01b03166000908152602091909152604090205460ff1690565b61143f610162826118b8565b60405133906001600160a01b038316907f4b5ef9a786cf64a7d82ebcf2d5132667edc9faef4ac36260d9a9e52c526b623290600090a350565b60006106b57f8b73c3c69bb8fe3d512ecc4cf759cc79239f7b179b0ffacaa9a75d522b39400f6114a760975490565b6098546040805160208101859052908101839052606081018290524660808201523060a082015260009060c0016040516020818303038152906040528051906020012090509392505050565b8154600090815b8181101561155757600061150e828461194a565b905084868281548110611523576115236126a2565b60009182526020909120015463ffffffff16111561154357809250611551565b61154e81600161267c565b91505b506114fa565b811561159b578461156960018461268f565b81548110611579576115796126a2565b60009182526020909120015464010000000090046001600160e01b031661159e565b60005b6001600160e01b031695945050505050565b6107ce8282611965565b6107ce82826119f0565b6001600160a01b03828116600081815260fe6020818152604080842080546033845282862054949093528787166001600160a01b03198416811790915590519190951694919391928592917f3134e8a2e6d97e929a7e54011ea5485d7d196dd5f0ba4d4ef95803e8e3fc257f9190a46111d6828483611a09565b600063ffffffff8211156116a35760405162461bcd60e51b815260206004820152602660248201527f53616665436173743a2076616c756520646f65736e27742066697420696e203360448201526532206269747360d01b606482015260840161055c565b5090565b6116b361013082611b46565b60405133906001600160a01b038316907fc82bdbbf677a2462f2a7e22e4ba9abd209496b69cd7b868b3b1d28f76e09a40a90600090a350565b6116f861016282611b46565b60405133906001600160a01b038316907f3c091dafb1d99e4a4c333024492eac3b2cd8bf921a3dd547c937db33be307bb890600090a350565b600061061761173e611478565b8360405161190160f01b6020820152602281018390526042810182905260009060620160405160208183030381529060405280519060200120905092915050565b600080600061179087878787611c0e565b9150915061179d81611cfb565b5095945050505050565b6001600160a01b038116600090815260cb602052604090208054600181018255905b50919050565b6117db61019482611b46565b60405133906001600160a01b038316907f86515ebaad527298e98929c064c075f5a2604cc80afc0db29e73c01a36f8e98c90600090a350565b600054610100900460ff1661183b5760405162461bcd60e51b815260040161055c906126b8565b6107ce8282611eb1565b600054610100900460ff1661186c5760405162461bcd60e51b815260040161055c906126b8565b565b600054610100900460ff166118955760405162461bcd60e51b815260040161055c906126b8565b61056e81604051806040016040528060018152602001603160f81b815250611ef1565b6118c282826113b0565b6119185760405162461bcd60e51b815260206004820152602160248201527f526f6c65733a206163636f756e7420646f6573206e6f74206861766520726f6c6044820152606560f81b606482015260840161055c565b6001600160a01b0316600090815260209190915260409020805460ff19169055565b505050565b61193a838383611f32565b60006119596002848418612703565b61074f9084841661267c565b61196f8282611f64565b6035546001600160e01b0310156119e15760405162461bcd60e51b815260206004820152603060248201527f4552433230566f7465733a20746f74616c20737570706c79207269736b73206f60448201526f766572666c6f77696e6720766f74657360801b606482015260840161055c565b6111d661010061204b83612057565b6119fa82826121d0565b6111d661010061232583612057565b816001600160a01b0316836001600160a01b031614158015611a2b5750600081115b1561193a576001600160a01b03831615611ab9576001600160a01b038316600090815260ff602052604081208190611a669061232585612057565b91509150846001600160a01b03167fdec2bacdd2f05b59de34da9b523dff8be42e5e38e818c82fdb0bae774387a7248383604051611aae929190918252602082015260400190565b60405180910390a250505b6001600160a01b0382161561193a576001600160a01b038216600090815260ff602052604081208190611aef9061204b85612057565b91509150836001600160a01b03167fdec2bacdd2f05b59de34da9b523dff8be42e5e38e818c82fdb0bae774387a7248383604051611b37929190918252602082015260400190565b60405180910390a25050505050565b6001600160a01b038116611b925760405162461bcd60e51b8152602060048201526013602482015272496e76616c696420307830206164647265737360681b604482015260640161055c565b611b9c82826113b0565b15611be95760405162461bcd60e51b815260206004820152601f60248201527f526f6c65733a206163636f756e7420616c72656164792068617320726f6c6500604482015260640161055c565b6001600160a01b0316600090815260209190915260409020805460ff19166001179055565b6000807f7fffffffffffffffffffffffffffffff5d576e7357a4501ddfe92f46681b20a0831115611c455750600090506003611cf2565b8460ff16601b14158015611c5d57508460ff16601c14155b15611c6e5750600090506004611cf2565b6040805160008082526020820180845289905260ff881692820192909252606081018690526080810185905260019060a0016020604051602081039080840390855afa158015611cc2573d6000803e3d6000fd5b5050604051601f1901519150506001600160a01b038116611ceb57600060019250925050611cf2565b9150600090505b94509492505050565b6000816004811115611d0f57611d0f612725565b03611d175750565b6001816004811115611d2b57611d2b612725565b03611d785760405162461bcd60e51b815260206004820152601860248201527f45434453413a20696e76616c6964207369676e61747572650000000000000000604482015260640161055c565b6002816004811115611d8c57611d8c612725565b03611dd95760405162461bcd60e51b815260206004820152601f60248201527f45434453413a20696e76616c6964207369676e6174757265206c656e67746800604482015260640161055c565b6003816004811115611ded57611ded612725565b03611e455760405162461bcd60e51b815260206004820152602260248201527f45434453413a20696e76616c6964207369676e6174757265202773272076616c604482015261756560f01b606482015260840161055c565b6004816004811115611e5957611e59612725565b0361056e5760405162461bcd60e51b815260206004820152602260248201527f45434453413a20696e76616c6964207369676e6174757265202776272076616c604482015261756560f01b606482015260840161055c565b600054610100900460ff16611ed85760405162461bcd60e51b815260040161055c906126b8565b6036611ee4838261279f565b50603761193a828261279f565b600054610100900460ff16611f185760405162461bcd60e51b815260040161055c906126b8565b815160209283012081519190920120609791909155609855565b6001600160a01b03838116600090815260fe602052604080822054858416835291205461193a92918216911683611a09565b6001600160a01b038216611fba5760405162461bcd60e51b815260206004820152601f60248201527f45524332303a206d696e7420746f20746865207a65726f206164647265737300604482015260640161055c565b8060356000828254611fcc919061267c565b90915550506001600160a01b03821660009081526033602052604081208054839290611ff990849061267c565b90915550506040518181526001600160a01b038316906000907fddf252ad1be2c89b69c2b068fc378daa952ba7f163c4a11628f55a4df523b3ef9060200160405180910390a36107ce6000838361193f565b600061074f828461267c565b8254600090819080156120a2578561207060018361268f565b81548110612080576120806126a2565b60009182526020909120015464010000000090046001600160e01b03166120a5565b60005b6001600160e01b031692506120be83858763ffffffff16565b91506000811180156120fc575043866120d860018461268f565b815481106120e8576120e86126a2565b60009182526020909120015463ffffffff16145b1561215c5761210a82612331565b8661211660018461268f565b81548110612126576121266126a2565b9060005260206000200160000160046101000a8154816001600160e01b0302191690836001600160e01b031602179055506121c7565b8560405180604001604052806121714361163e565b63ffffffff16815260200161218585612331565b6001600160e01b0390811690915282546001810184556000938452602093849020835194909301519091166401000000000263ffffffff909316929092179101555b50935093915050565b6001600160a01b0382166122305760405162461bcd60e51b815260206004820152602160248201527f45524332303a206275726e2066726f6d20746865207a65726f206164647265736044820152607360f81b606482015260840161055c565b6001600160a01b038216600090815260336020526040902054818110156122a45760405162461bcd60e51b815260206004820152602260248201527f45524332303a206275726e20616d6f756e7420657863656564732062616c616e604482015261636560f01b606482015260840161055c565b6001600160a01b03831660009081526033602052604081208383039055603580548492906122d390849061268f565b90915550506040518281526000906001600160a01b038516907fddf252ad1be2c89b69c2b068fc378daa952ba7f163c4a11628f55a4df523b3ef9060200160405180910390a361193a8360008461193f565b600061074f828461268f565b60006001600160e01b038211156116a35760405162461bcd60e51b815260206004820152602760248201527f53616665436173743a2076616c756520646f65736e27742066697420696e20326044820152663234206269747360c81b606482015260840161055c565b80356001600160a01b03811681146123b157600080fd5b919050565b6000602082840312156123c857600080fd5b61074f8261239a565b600060208083528351808285015260005b818110156123fe578581018301518582016040015282016123e2565b506000604082860101526040601f19601f8301168501019250505092915050565b6000806040838503121561243257600080fd5b61243b8361239a565b946020939093013593505050565b60008060006060848603121561245e57600080fd5b6124678461239a565b92506124756020850161239a565b9150604084013590509250925092565b60006020828403121561249757600080fd5b5035919050565b803560ff811681146123b157600080fd5b60008060008060008060c087890312156124c857600080fd5b6124d18761239a565b955060208701359450604087013593506124ed6060880161249e565b92506080870135915060a087013590509295509295509295565b600080600080600080600060e0888a03121561252257600080fd5b61252b8861239a565b96506125396020890161239a565b955060408801359450606088013593506125556080890161249e565b925060a0880135915060c0880135905092959891949750929550565b6000806040838503121561258457600080fd5b61258d8361239a565b915061259b6020840161239a565b90509250929050565b600080604083850312156125b757600080fd5b6125c08361239a565b9150602083013563ffffffff811681146125d957600080fd5b809150509250929050565b6020808252602e908201527f4f776e6572526f6c653a2063616c6c657220646f6573206e6f7420686176652060408201526d746865204f776e657220726f6c6560901b606082015260800190565b600181811c9082168061264657607f821691505b6020821081036117c957634e487b7160e01b600052602260045260246000fd5b634e487b7160e01b600052601160045260246000fd5b8082018082111561061757610617612666565b8181038181111561061757610617612666565b634e487b7160e01b600052603260045260246000fd5b6020808252602b908201527f496e697469616c697a61626c653a20636f6e7472616374206973206e6f74206960408201526a6e697469616c697a696e6760a81b606082015260800190565b60008261272057634e487b7160e01b600052601260045260246000fd5b500490565b634e487b7160e01b600052602160045260246000fd5b634e487b7160e01b600052604160045260246000fd5b601f82111561193a57600081815260208120601f850160051c810160208610156127785750805b601f850160051c820191505b8181101561279757828155600101612784565b505050505050565b815167ffffffffffffffff8111156127b9576127b961273b565b6127cd816127c78454612632565b84612751565b602080601f83116001811461280257600084156127ea5750858301515b600019600386901b1c1916600185901b178555612797565b600085815260208120601f198616915b8281101561283157888601518255948401946001909101908401612812565b508582101561284f5787850151600019600388901b60f8161c191681555b5050505050600190811b0190555056fea2646970667358221220a3cefd5b9b7daeb68315aee10dfeb46dacd41ffb5608c4ab88018cb8f631096364736f6c63430008100033",
  "devdoc": {
    "custom:security-contact": "security@golden.co",
    "kind": "dev",
    "methods": {
      "DOMAIN_SEPARATOR()": {
        "details": "See {IERC20Permit-DOMAIN_SEPARATOR}."
      },
      "allowance(address,address)": {
        "details": "See {IERC20-allowance}."
      },
      "approve(address,uint256)": {
        "details": "See {IERC20-approve}. NOTE: If `amount` is the maximum `uint256`, the allowance is not updated on `transferFrom`. This is semantically equivalent to an infinite approval. Requirements: - `spender` cannot be the zero address."
      },
      "balanceOf(address)": {
        "details": "See {IERC20-balanceOf}."
      },
      "burn(uint256)": {
        "details": "Destroys `amount` tokens from the caller. See {ERC20-_burn}."
      },
      "burnFrom(address,uint256)": {
        "details": "Destroys `amount` tokens from `account`, deducting from the caller's allowance. See {ERC20-_burn} and {ERC20-allowance}. Requirements: - the caller must have allowance for ``accounts``'s tokens of at least `amount`."
      },
      "checkpoints(address,uint32)": {
        "details": "Get the `pos`-th checkpoint for `account`."
      },
      "decimals()": {
        "details": "Returns the number of decimals used to get its user representation. For example, if `decimals` equals `2`, a balance of `505` tokens should be displayed to a user as `5.05` (`505 / 10 ** 2`). Tokens usually opt for a value of 18, imitating the relationship between Ether and Wei. This is the value {ERC20} uses, unless this function is overridden; NOTE: This information is only used for _display_ purposes: it in no way affects any of the arithmetic of the contract, including {IERC20-balanceOf} and {IERC20-transfer}."
      },
      "decreaseAllowance(address,uint256)": {
        "details": "Atomically decreases the allowance granted to `spender` by the caller. This is an alternative to {approve} that can be used as a mitigation for problems described in {IERC20-approve}. Emits an {Approval} event indicating the updated allowance. Requirements: - `spender` cannot be the zero address. - `spender` must have allowance for the caller of at least `subtractedValue`."
      },
      "delegate(address)": {
        "details": "Delegate votes from the sender to `delegatee`."
      },
      "delegateBySig(address,uint256,uint256,uint8,bytes32,bytes32)": {
        "details": "Delegates votes from signer to `delegatee`"
      },
      "delegates(address)": {
        "details": "Get the address `account` is currently delegating to."
      },
      "getPastTotalSupply(uint256)": {
        "details": "Retrieve the `totalSupply` at the end of `blockNumber`. Note, this value is the sum of all balances. It is but NOT the sum of all the delegated votes! Requirements: - `blockNumber` must have been already mined"
      },
      "getPastVotes(address,uint256)": {
        "details": "Retrieve the number of votes for `account` at the end of `blockNumber`. Requirements: - `blockNumber` must have been already mined"
      },
      "getVotes(address)": {
        "details": "Gets the current votes balance for `account`"
      },
      "increaseAllowance(address,uint256)": {
        "details": "Atomically increases the allowance granted to `spender` by the caller. This is an alternative to {approve} that can be used as a mitigation for problems described in {IERC20-approve}. Emits an {Approval} event indicating the updated allowance. Requirements: - `spender` cannot be the zero address."
      },
      "name()": {
        "details": "Returns the name of the token."
      },
      "nonces(address)": {
        "details": "See {IERC20Permit-nonces}."
      },
      "numCheckpoints(address)": {
        "details": "Get number of checkpoints for `account`."
      },
      "permit(address,address,uint256,uint256,uint8,bytes32,bytes32)": {
        "details": "See {IERC20Permit-permit}."
      },
      "symbol()": {
        "details": "Returns the symbol of the token, usually a shorter version of the name."
      },
      "totalSupply()": {
        "details": "See {IERC20-totalSupply}."
      },
      "transfer(address,uint256)": {
        "details": "See {IERC20-transfer}. Requirements: - `to` cannot be the zero address. - the caller must have a balance of at least `amount`."
      },
      "transferFrom(address,address,uint256)": {
        "details": "See {IERC20-transferFrom}. Emits an {Approval} event indicating the updated allowance. This is not required by the EIP. See the note at the beginning of {ERC20}. NOTE: Does not update the allowance if the current allowance is the maximum `uint256`. Requirements: - `from` and `to` cannot be the zero address. - `from` must have a balance of at least `amount`. - the caller must have allowance for ``from``'s tokens of at least `amount`."
      }
    },
    "version": 1
  },
  "userdoc": {
    "kind": "user",
    "methods": {},
    "version": 1
  },
  "storageLayout": {
    "storage": [
      {
        "astId": 629,
        "contract": "contracts/token/GoldenToken.sol:GoldenToken",
        "label": "_initialized",
        "offset": 0,
        "slot": "0",
        "type": "t_uint8"
      },
      {
        "astId": 632,
        "contract": "contracts/token/GoldenToken.sol:GoldenToken",
        "label": "_initializing",
        "offset": 1,
        "slot": "0",
        "type": "t_bool"
      },
      {
        "astId": 3772,
        "contract": "contracts/token/GoldenToken.sol:GoldenToken",
        "label": "__gap",
        "offset": 0,
        "slot": "1",
        "type": "t_array(t_uint256)50_storage"
      },
      {
        "astId": 792,
        "contract": "contracts/token/GoldenToken.sol:GoldenToken",
        "label": "_balances",
        "offset": 0,
        "slot": "51",
        "type": "t_mapping(t_address,t_uint256)"
      },
      {
        "astId": 798,
        "contract": "contracts/token/GoldenToken.sol:GoldenToken",
        "label": "_allowances",
        "offset": 0,
        "slot": "52",
        "type": "t_mapping(t_address,t_mapping(t_address,t_uint256))"
      },
      {
        "astId": 800,
        "contract": "contracts/token/GoldenToken.sol:GoldenToken",
        "label": "_totalSupply",
        "offset": 0,
        "slot": "53",
        "type": "t_uint256"
      },
      {
        "astId": 802,
        "contract": "contracts/token/GoldenToken.sol:GoldenToken",
        "label": "_name",
        "offset": 0,
        "slot": "54",
        "type": "t_string_storage"
      },
      {
        "astId": 804,
        "contract": "contracts/token/GoldenToken.sol:GoldenToken",
        "label": "_symbol",
        "offset": 0,
        "slot": "55",
        "type": "t_string_storage"
      },
      {
        "astId": 1383,
        "contract": "contracts/token/GoldenToken.sol:GoldenToken",
        "label": "__gap",
        "offset": 0,
        "slot": "56",
        "type": "t_array(t_uint256)45_storage"
      },
      {
        "astId": 1525,
        "contract": "contracts/token/GoldenToken.sol:GoldenToken",
        "label": "__gap",
        "offset": 0,
        "slot": "101",
        "type": "t_array(t_uint256)50_storage"
      },
      {
        "astId": 4470,
        "contract": "contracts/token/GoldenToken.sol:GoldenToken",
        "label": "_HASHED_NAME",
        "offset": 0,
        "slot": "151",
        "type": "t_bytes32"
      },
      {
        "astId": 4472,
        "contract": "contracts/token/GoldenToken.sol:GoldenToken",
        "label": "_HASHED_VERSION",
        "offset": 0,
        "slot": "152",
        "type": "t_bytes32"
      },
      {
        "astId": 4610,
        "contract": "contracts/token/GoldenToken.sol:GoldenToken",
        "label": "__gap",
        "offset": 0,
        "slot": "153",
        "type": "t_array(t_uint256)50_storage"
      },
      {
        "astId": 2234,
        "contract": "contracts/token/GoldenToken.sol:GoldenToken",
        "label": "_nonces",
        "offset": 0,
        "slot": "203",
        "type": "t_mapping(t_address,t_struct(Counter)3779_storage)"
      },
      {
        "astId": 2242,
        "contract": "contracts/token/GoldenToken.sol:GoldenToken",
        "label": "_PERMIT_TYPEHASH_DEPRECATED_SLOT",
        "offset": 0,
        "slot": "204",
        "type": "t_bytes32"
      },
      {
        "astId": 2398,
        "contract": "contracts/token/GoldenToken.sol:GoldenToken",
        "label": "__gap",
        "offset": 0,
        "slot": "205",
        "type": "t_array(t_uint256)49_storage"
      },
      {
        "astId": 1567,
        "contract": "contracts/token/GoldenToken.sol:GoldenToken",
        "label": "_delegates",
        "offset": 0,
        "slot": "254",
        "type": "t_mapping(t_address,t_address)"
      },
      {
        "astId": 1573,
        "contract": "contracts/token/GoldenToken.sol:GoldenToken",
        "label": "_checkpoints",
        "offset": 0,
        "slot": "255",
        "type": "t_mapping(t_address,t_array(t_struct(Checkpoint)1558_storage)dyn_storage)"
      },
      {
        "astId": 1577,
        "contract": "contracts/token/GoldenToken.sol:GoldenToken",
        "label": "_totalSupplyCheckpoints",
        "offset": 0,
        "slot": "256",
        "type": "t_array(t_struct(Checkpoint)1558_storage)dyn_storage"
      },
      {
        "astId": 2182,
        "contract": "contracts/token/GoldenToken.sol:GoldenToken",
        "label": "__gap",
        "offset": 0,
        "slot": "257",
        "type": "t_array(t_uint256)47_storage"
      },
      {
        "astId": 15955,
        "contract": "contracts/token/GoldenToken.sol:GoldenToken",
        "label": "_owners",
        "offset": 0,
        "slot": "304",
        "type": "t_struct(Role)15952_storage"
      },
      {
        "astId": 16134,
        "contract": "contracts/token/GoldenToken.sol:GoldenToken",
        "label": "__gap",
        "offset": 0,
        "slot": "305",
        "type": "t_array(t_uint256)49_storage"
      },
      {
        "astId": 15845,
        "contract": "contracts/token/GoldenToken.sol:GoldenToken",
        "label": "_minters",
        "offset": 0,
        "slot": "354",
        "type": "t_struct(Role)15952_storage"
      },
      {
        "astId": 15932,
        "contract": "contracts/token/GoldenToken.sol:GoldenToken",
        "label": "__gap",
        "offset": 0,
        "slot": "355",
        "type": "t_array(t_uint256)49_storage"
      },
      {
        "astId": 15737,
        "contract": "contracts/token/GoldenToken.sol:GoldenToken",
        "label": "_burners",
        "offset": 0,
        "slot": "404",
        "type": "t_struct(Role)15952_storage"
      },
      {
        "astId": 15824,
        "contract": "contracts/token/GoldenToken.sol:GoldenToken",
        "label": "__gap",
        "offset": 0,
        "slot": "405",
        "type": "t_array(t_uint256)49_storage"
      }
    ],
    "types": {
      "t_address": {
        "encoding": "inplace",
        "label": "address",
        "numberOfBytes": "20"
      },
      "t_array(t_struct(Checkpoint)1558_storage)dyn_storage": {
        "base": "t_struct(Checkpoint)1558_storage",
        "encoding": "dynamic_array",
        "label": "struct ERC20VotesUpgradeable.Checkpoint[]",
        "numberOfBytes": "32"
      },
      "t_array(t_uint256)45_storage": {
        "base": "t_uint256",
        "encoding": "inplace",
        "label": "uint256[45]",
        "numberOfBytes": "1440"
      },
      "t_array(t_uint256)47_storage": {
        "base": "t_uint256",
        "encoding": "inplace",
        "label": "uint256[47]",
        "numberOfBytes": "1504"
      },
      "t_array(t_uint256)49_storage": {
        "base": "t_uint256",
        "encoding": "inplace",
        "label": "uint256[49]",
        "numberOfBytes": "1568"
      },
      "t_array(t_uint256)50_storage": {
        "base": "t_uint256",
        "encoding": "inplace",
        "label": "uint256[50]",
        "numberOfBytes": "1600"
      },
      "t_bool": {
        "encoding": "inplace",
        "label": "bool",
        "numberOfBytes": "1"
      },
      "t_bytes32": {
        "encoding": "inplace",
        "label": "bytes32",
        "numberOfBytes": "32"
      },
      "t_mapping(t_address,t_address)": {
        "encoding": "mapping",
        "key": "t_address",
        "label": "mapping(address => address)",
        "numberOfBytes": "32",
        "value": "t_address"
      },
      "t_mapping(t_address,t_array(t_struct(Checkpoint)1558_storage)dyn_storage)": {
        "encoding": "mapping",
        "key": "t_address",
        "label": "mapping(address => struct ERC20VotesUpgradeable.Checkpoint[])",
        "numberOfBytes": "32",
        "value": "t_array(t_struct(Checkpoint)1558_storage)dyn_storage"
      },
      "t_mapping(t_address,t_bool)": {
        "encoding": "mapping",
        "key": "t_address",
        "label": "mapping(address => bool)",
        "numberOfBytes": "32",
        "value": "t_bool"
      },
      "t_mapping(t_address,t_mapping(t_address,t_uint256))": {
        "encoding": "mapping",
        "key": "t_address",
        "label": "mapping(address => mapping(address => uint256))",
        "numberOfBytes": "32",
        "value": "t_mapping(t_address,t_uint256)"
      },
      "t_mapping(t_address,t_struct(Counter)3779_storage)": {
        "encoding": "mapping",
        "key": "t_address",
        "label": "mapping(address => struct CountersUpgradeable.Counter)",
        "numberOfBytes": "32",
        "value": "t_struct(Counter)3779_storage"
      },
      "t_mapping(t_address,t_uint256)": {
        "encoding": "mapping",
        "key": "t_address",
        "label": "mapping(address => uint256)",
        "numberOfBytes": "32",
        "value": "t_uint256"
      },
      "t_string_storage": {
        "encoding": "bytes",
        "label": "string",
        "numberOfBytes": "32"
      },
      "t_struct(Checkpoint)1558_storage": {
        "encoding": "inplace",
        "label": "struct ERC20VotesUpgradeable.Checkpoint",
        "members": [
          {
            "astId": 1555,
            "contract": "contracts/token/GoldenToken.sol:GoldenToken",
            "label": "fromBlock",
            "offset": 0,
            "slot": "0",
            "type": "t_uint32"
          },
          {
            "astId": 1557,
            "contract": "contracts/token/GoldenToken.sol:GoldenToken",
            "label": "votes",
            "offset": 4,
            "slot": "0",
            "type": "t_uint224"
          }
        ],
        "numberOfBytes": "32"
      },
      "t_struct(Counter)3779_storage": {
        "encoding": "inplace",
        "label": "struct CountersUpgradeable.Counter",
        "members": [
          {
            "astId": 3778,
            "contract": "contracts/token/GoldenToken.sol:GoldenToken",
            "label": "_value",
            "offset": 0,
            "slot": "0",
            "type": "t_uint256"
          }
        ],
        "numberOfBytes": "32"
      },
      "t_struct(Role)15952_storage": {
        "encoding": "inplace",
        "label": "struct OwnerRole.Role",
        "members": [
          {
            "astId": 15951,
            "contract": "contracts/token/GoldenToken.sol:GoldenToken",
            "label": "members",
            "offset": 0,
            "slot": "0",
            "type": "t_mapping(t_address,t_bool)"
          }
        ],
        "numberOfBytes": "32"
      },
      "t_uint224": {
        "encoding": "inplace",
        "label": "uint224",
        "numberOfBytes": "28"
      },
      "t_uint256": {
        "encoding": "inplace",
        "label": "uint256",
        "numberOfBytes": "32"
      },
      "t_uint32": {
        "encoding": "inplace",
        "label": "uint32",
        "numberOfBytes": "4"
      },
      "t_uint8": {
        "encoding": "inplace",
        "label": "uint8",
        "numberOfBytes": "1"
      }
    }
  }
}