{
  "address": "0x81CBa4C8fD047767e654eecf7aA8dFfAe7855041",
  "abi": [
    {
      "inputs": [
        {
          "internalType": "contract IVotes",
          "name": "_tokenAddress",
          "type": "address"
        }
      ],
      "stateMutability": "nonpayable",
      "type": "constructor"
    },
    {
      "inputs": [],
      "name": "Empty",
      "type": "error"
    },
    {
      "anonymous": false,
      "inputs": [
        {
          "indexed": false,
          "internalType": "uint256",
          "name": "proposalId",
          "type": "uint256"
        }
      ],
      "name": "ProposalCanceled",
      "type": "event"
    },
    {
      "anonymous": false,
      "inputs": [
        {
          "indexed": false,
          "internalType": "uint256",
          "name": "proposalId",
          "type": "uint256"
        },
        {
          "indexed": false,
          "internalType": "address",
          "name": "proposer",
          "type": "address"
        },
        {
          "indexed": false,
          "internalType": "address[]",
          "name": "targets",
          "type": "address[]"
        },
        {
          "indexed": false,
          "internalType": "uint256[]",
          "name": "values",
          "type": "uint256[]"
        },
        {
          "indexed": false,
          "internalType": "string[]",
          "name": "signatures",
          "type": "string[]"
        },
        {
          "indexed": false,
          "internalType": "bytes[]",
          "name": "calldatas",
          "type": "bytes[]"
        },
        {
          "indexed": false,
          "internalType": "uint256",
          "name": "startBlock",
          "type": "uint256"
        },
        {
          "indexed": false,
          "internalType": "uint256",
          "name": "endBlock",
          "type": "uint256"
        },
        {
          "indexed": false,
          "internalType": "string",
          "name": "description",
          "type": "string"
        }
      ],
      "name": "ProposalCreated",
      "type": "event"
    },
    {
      "anonymous": false,
      "inputs": [
        {
          "indexed": false,
          "internalType": "uint256",
          "name": "proposalId",
          "type": "uint256"
        }
      ],
      "name": "ProposalExecuted",
      "type": "event"
    },
    {
      "anonymous": false,
      "inputs": [
        {
          "indexed": false,
          "internalType": "uint256",
          "name": "oldProposalThreshold",
          "type": "uint256"
        },
        {
          "indexed": false,
          "internalType": "uint256",
          "name": "newProposalThreshold",
          "type": "uint256"
        }
      ],
      "name": "ProposalThresholdSet",
      "type": "event"
    },
    {
      "anonymous": false,
      "inputs": [
        {
          "indexed": false,
          "internalType": "uint256",
          "name": "oldQuorumNumerator",
          "type": "uint256"
        },
        {
          "indexed": false,
          "internalType": "uint256",
          "name": "newQuorumNumerator",
          "type": "uint256"
        }
      ],
      "name": "QuorumNumeratorUpdated",
      "type": "event"
    },
    {
      "anonymous": false,
      "inputs": [
        {
          "indexed": true,
          "internalType": "address",
          "name": "voter",
          "type": "address"
        },
        {
          "indexed": false,
          "internalType": "uint256",
          "name": "proposalId",
          "type": "uint256"
        },
        {
          "indexed": false,
          "internalType": "uint8",
          "name": "support",
          "type": "uint8"
        },
        {
          "indexed": false,
          "internalType": "uint256",
          "name": "weight",
          "type": "uint256"
        },
        {
          "indexed": false,
          "internalType": "string",
          "name": "reason",
          "type": "string"
        }
      ],
      "name": "VoteCast",
      "type": "event"
    },
    {
      "anonymous": false,
      "inputs": [
        {
          "indexed": true,
          "internalType": "address",
          "name": "voter",
          "type": "address"
        },
        {
          "indexed": false,
          "internalType": "uint256",
          "name": "proposalId",
          "type": "uint256"
        },
        {
          "indexed": false,
          "internalType": "uint8",
          "name": "support",
          "type": "uint8"
        },
        {
          "indexed": false,
          "internalType": "uint256",
          "name": "weight",
          "type": "uint256"
        },
        {
          "indexed": false,
          "internalType": "string",
          "name": "reason",
          "type": "string"
        },
        {
          "indexed": false,
          "internalType": "bytes",
          "name": "params",
          "type": "bytes"
        }
      ],
      "name": "VoteCastWithParams",
      "type": "event"
    },
    {
      "anonymous": false,
      "inputs": [
        {
          "indexed": false,
          "internalType": "uint256",
          "name": "oldVotingDelay",
          "type": "uint256"
        },
        {
          "indexed": false,
          "internalType": "uint256",
          "name": "newVotingDelay",
          "type": "uint256"
        }
      ],
      "name": "VotingDelaySet",
      "type": "event"
    },
    {
      "anonymous": false,
      "inputs": [
        {
          "indexed": false,
          "internalType": "uint256",
          "name": "oldVotingPeriod",
          "type": "uint256"
        },
        {
          "indexed": false,
          "internalType": "uint256",
          "name": "newVotingPeriod",
          "type": "uint256"
        }
      ],
      "name": "VotingPeriodSet",
      "type": "event"
    },
    {
      "inputs": [],
      "name": "BALLOT_TYPEHASH",
      "outputs": [
        {
          "internalType": "bytes32",
          "name": "",
          "type": "bytes32"
        }
      ],
      "stateMutability": "view",
      "type": "function"
    },
    {
      "inputs": [],
      "name": "COUNTING_MODE",
      "outputs": [
        {
          "internalType": "string",
          "name": "",
          "type": "string"
        }
      ],
      "stateMutability": "pure",
      "type": "function"
    },
    {
      "inputs": [],
      "name": "EXTENDED_BALLOT_TYPEHASH",
      "outputs": [
        {
          "internalType": "bytes32",
          "name": "",
          "type": "bytes32"
        }
      ],
      "stateMutability": "view",
      "type": "function"
    },
    {
      "inputs": [
        {
          "internalType": "uint256",
          "name": "proposalId",
          "type": "uint256"
        },
        {
          "internalType": "uint8",
          "name": "support",
          "type": "uint8"
        }
      ],
      "name": "castVote",
      "outputs": [
        {
          "internalType": "uint256",
          "name": "",
          "type": "uint256"
        }
      ],
      "stateMutability": "nonpayable",
      "type": "function"
    },
    {
      "inputs": [
        {
          "internalType": "uint256",
          "name": "proposalId",
          "type": "uint256"
        },
        {
          "internalType": "uint8",
          "name": "support",
          "type": "uint8"
        },
        {
          "internalType": "uint8",
          "name": "v",
          "type": "uint8"
        },
        {
          "internalType": "bytes32",
          "name": "r",
          "type": "bytes32"
        },
        {
          "internalType": "bytes32",
          "name": "s",
          "type": "bytes32"
        }
      ],
      "name": "castVoteBySig",
      "outputs": [
        {
          "internalType": "uint256",
          "name": "",
          "type": "uint256"
        }
      ],
      "stateMutability": "nonpayable",
      "type": "function"
    },
    {
      "inputs": [
        {
          "internalType": "uint256",
          "name": "proposalId",
          "type": "uint256"
        },
        {
          "internalType": "uint8",
          "name": "support",
          "type": "uint8"
        },
        {
          "internalType": "string",
          "name": "reason",
          "type": "string"
        }
      ],
      "name": "castVoteWithReason",
      "outputs": [
        {
          "internalType": "uint256",
          "name": "",
          "type": "uint256"
        }
      ],
      "stateMutability": "nonpayable",
      "type": "function"
    },
    {
      "inputs": [
        {
          "internalType": "uint256",
          "name": "proposalId",
          "type": "uint256"
        },
        {
          "internalType": "uint8",
          "name": "support",
          "type": "uint8"
        },
        {
          "internalType": "string",
          "name": "reason",
          "type": "string"
        },
        {
          "internalType": "bytes",
          "name": "params",
          "type": "bytes"
        }
      ],
      "name": "castVoteWithReasonAndParams",
      "outputs": [
        {
          "internalType": "uint256",
          "name": "",
          "type": "uint256"
        }
      ],
      "stateMutability": "nonpayable",
      "type": "function"
    },
    {
      "inputs": [
        {
          "internalType": "uint256",
          "name": "proposalId",
          "type": "uint256"
        },
        {
          "internalType": "uint8",
          "name": "support",
          "type": "uint8"
        },
        {
          "internalType": "string",
          "name": "reason",
          "type": "string"
        },
        {
          "internalType": "bytes",
          "name": "params",
          "type": "bytes"
        },
        {
          "internalType": "uint8",
          "name": "v",
          "type": "uint8"
        },
        {
          "internalType": "bytes32",
          "name": "r",
          "type": "bytes32"
        },
        {
          "internalType": "bytes32",
          "name": "s",
          "type": "bytes32"
        }
      ],
      "name": "castVoteWithReasonAndParamsBySig",
      "outputs": [
        {
          "internalType": "uint256",
          "name": "",
          "type": "uint256"
        }
      ],
      "stateMutability": "nonpayable",
      "type": "function"
    },
    {
      "inputs": [
        {
          "internalType": "address[]",
          "name": "targets",
          "type": "address[]"
        },
        {
          "internalType": "uint256[]",
          "name": "values",
          "type": "uint256[]"
        },
        {
          "internalType": "bytes[]",
          "name": "calldatas",
          "type": "bytes[]"
        },
        {
          "internalType": "bytes32",
          "name": "descriptionHash",
          "type": "bytes32"
        }
      ],
      "name": "execute",
      "outputs": [
        {
          "internalType": "uint256",
          "name": "",
          "type": "uint256"
        }
      ],
      "stateMutability": "payable",
      "type": "function"
    },
    {
      "inputs": [
        {
          "internalType": "address",
          "name": "account",
          "type": "address"
        },
        {
          "internalType": "uint256",
          "name": "blockNumber",
          "type": "uint256"
        }
      ],
      "name": "getVotes",
      "outputs": [
        {
          "internalType": "uint256",
          "name": "",
          "type": "uint256"
        }
      ],
      "stateMutability": "view",
      "type": "function"
    },
    {
      "inputs": [
        {
          "internalType": "address",
          "name": "account",
          "type": "address"
        },
        {
          "internalType": "uint256",
          "name": "blockNumber",
          "type": "uint256"
        },
        {
          "internalType": "bytes",
          "name": "params",
          "type": "bytes"
        }
      ],
      "name": "getVotesWithParams",
      "outputs": [
        {
          "internalType": "uint256",
          "name": "",
          "type": "uint256"
        }
      ],
      "stateMutability": "view",
      "type": "function"
    },
    {
      "inputs": [
        {
          "internalType": "uint256",
          "name": "proposalId",
          "type": "uint256"
        },
        {
          "internalType": "address",
          "name": "account",
          "type": "address"
        }
      ],
      "name": "hasVoted",
      "outputs": [
        {
          "internalType": "bool",
          "name": "",
          "type": "bool"
        }
      ],
      "stateMutability": "view",
      "type": "function"
    },
    {
      "inputs": [
        {
          "internalType": "address[]",
          "name": "targets",
          "type": "address[]"
        },
        {
          "internalType": "uint256[]",
          "name": "values",
          "type": "uint256[]"
        },
        {
          "internalType": "bytes[]",
          "name": "calldatas",
          "type": "bytes[]"
        },
        {
          "internalType": "bytes32",
          "name": "descriptionHash",
          "type": "bytes32"
        }
      ],
      "name": "hashProposal",
      "outputs": [
        {
          "internalType": "uint256",
          "name": "",
          "type": "uint256"
        }
      ],
      "stateMutability": "pure",
      "type": "function"
    },
    {
      "inputs": [],
      "name": "name",
      "outputs": [
        {
          "internalType": "string",
          "name": "",
          "type": "string"
        }
      ],
      "stateMutability": "view",
      "type": "function"
    },
    {
      "inputs": [
        {
          "internalType": "address",
          "name": "",
          "type": "address"
        },
        {
          "internalType": "address",
          "name": "",
          "type": "address"
        },
        {
          "internalType": "uint256[]",
          "name": "",
          "type": "uint256[]"
        },
        {
          "internalType": "uint256[]",
          "name": "",
          "type": "uint256[]"
        },
        {
          "internalType": "bytes",
          "name": "",
          "type": "bytes"
        }
      ],
      "name": "onERC1155BatchReceived",
      "outputs": [
        {
          "internalType": "bytes4",
          "name": "",
          "type": "bytes4"
        }
      ],
      "stateMutability": "nonpayable",
      "type": "function"
    },
    {
      "inputs": [
        {
          "internalType": "address",
          "name": "",
          "type": "address"
        },
        {
          "internalType": "address",
          "name": "",
          "type": "address"
        },
        {
          "internalType": "uint256",
          "name": "",
          "type": "uint256"
        },
        {
          "internalType": "uint256",
          "name": "",
          "type": "uint256"
        },
        {
          "internalType": "bytes",
          "name": "",
          "type": "bytes"
        }
      ],
      "name": "onERC1155Received",
      "outputs": [
        {
          "internalType": "bytes4",
          "name": "",
          "type": "bytes4"
        }
      ],
      "stateMutability": "nonpayable",
      "type": "function"
    },
    {
      "inputs": [
        {
          "internalType": "address",
          "name": "",
          "type": "address"
        },
        {
          "internalType": "address",
          "name": "",
          "type": "address"
        },
        {
          "internalType": "uint256",
          "name": "",
          "type": "uint256"
        },
        {
          "internalType": "bytes",
          "name": "",
          "type": "bytes"
        }
      ],
      "name": "onERC721Received",
      "outputs": [
        {
          "internalType": "bytes4",
          "name": "",
          "type": "bytes4"
        }
      ],
      "stateMutability": "nonpayable",
      "type": "function"
    },
    {
      "inputs": [
        {
          "internalType": "uint256",
          "name": "proposalId",
          "type": "uint256"
        }
      ],
      "name": "proposalDeadline",
      "outputs": [
        {
          "internalType": "uint256",
          "name": "",
          "type": "uint256"
        }
      ],
      "stateMutability": "view",
      "type": "function"
    },
    {
      "inputs": [
        {
          "internalType": "uint256",
          "name": "proposalId",
          "type": "uint256"
        }
      ],
      "name": "proposalSnapshot",
      "outputs": [
        {
          "internalType": "uint256",
          "name": "",
          "type": "uint256"
        }
      ],
      "stateMutability": "view",
      "type": "function"
    },
    {
      "inputs": [],
      "name": "proposalThreshold",
      "outputs": [
        {
          "internalType": "uint256",
          "name": "",
          "type": "uint256"
        }
      ],
      "stateMutability": "view",
      "type": "function"
    },
    {
      "inputs": [
        {
          "internalType": "uint256",
          "name": "proposalId",
          "type": "uint256"
        }
      ],
      "name": "proposalVotes",
      "outputs": [
        {
          "internalType": "uint256",
          "name": "againstVotes",
          "type": "uint256"
        },
        {
          "internalType": "uint256",
          "name": "forVotes",
          "type": "uint256"
        },
        {
          "internalType": "uint256",
          "name": "abstainVotes",
          "type": "uint256"
        }
      ],
      "stateMutability": "view",
      "type": "function"
    },
    {
      "inputs": [
        {
          "internalType": "address[]",
          "name": "targets",
          "type": "address[]"
        },
        {
          "internalType": "uint256[]",
          "name": "values",
          "type": "uint256[]"
        },
        {
          "internalType": "bytes[]",
          "name": "calldatas",
          "type": "bytes[]"
        },
        {
          "internalType": "string",
          "name": "description",
          "type": "string"
        }
      ],
      "name": "propose",
      "outputs": [
        {
          "internalType": "uint256",
          "name": "",
          "type": "uint256"
        }
      ],
      "stateMutability": "nonpayable",
      "type": "function"
    },
    {
      "inputs": [
        {
          "internalType": "uint256",
          "name": "blockNumber",
          "type": "uint256"
        }
      ],
      "name": "quorum",
      "outputs": [
        {
          "internalType": "uint256",
          "name": "",
          "type": "uint256"
        }
      ],
      "stateMutability": "view",
      "type": "function"
    },
    {
      "inputs": [],
      "name": "quorumDenominator",
      "outputs": [
        {
          "internalType": "uint256",
          "name": "",
          "type": "uint256"
        }
      ],
      "stateMutability": "view",
      "type": "function"
    },
    {
      "inputs": [
        {
          "internalType": "uint256",
          "name": "blockNumber",
          "type": "uint256"
        }
      ],
      "name": "quorumNumerator",
      "outputs": [
        {
          "internalType": "uint256",
          "name": "",
          "type": "uint256"
        }
      ],
      "stateMutability": "view",
      "type": "function"
    },
    {
      "inputs": [],
      "name": "quorumNumerator",
      "outputs": [
        {
          "internalType": "uint256",
          "name": "",
          "type": "uint256"
        }
      ],
      "stateMutability": "view",
      "type": "function"
    },
    {
      "inputs": [
        {
          "internalType": "address",
          "name": "target",
          "type": "address"
        },
        {
          "internalType": "uint256",
          "name": "value",
          "type": "uint256"
        },
        {
          "internalType": "bytes",
          "name": "data",
          "type": "bytes"
        }
      ],
      "name": "relay",
      "outputs": [],
      "stateMutability": "nonpayable",
      "type": "function"
    },
    {
      "inputs": [
        {
          "internalType": "uint256",
          "name": "newProposalThreshold",
          "type": "uint256"
        }
      ],
      "name": "setProposalThreshold",
      "outputs": [],
      "stateMutability": "nonpayable",
      "type": "function"
    },
    {
      "inputs": [
        {
          "internalType": "uint256",
          "name": "newVotingDelay",
          "type": "uint256"
        }
      ],
      "name": "setVotingDelay",
      "outputs": [],
      "stateMutability": "nonpayable",
      "type": "function"
    },
    {
      "inputs": [
        {
          "internalType": "uint256",
          "name": "newVotingPeriod",
          "type": "uint256"
        }
      ],
      "name": "setVotingPeriod",
      "outputs": [],
      "stateMutability": "nonpayable",
      "type": "function"
    },
    {
      "inputs": [
        {
          "internalType": "uint256",
          "name": "proposalId",
          "type": "uint256"
        }
      ],
      "name": "state",
      "outputs": [
        {
          "internalType": "enum IGovernor.ProposalState",
          "name": "",
          "type": "uint8"
        }
      ],
      "stateMutability": "view",
      "type": "function"
    },
    {
      "inputs": [
        {
          "internalType": "bytes4",
          "name": "interfaceId",
          "type": "bytes4"
        }
      ],
      "name": "supportsInterface",
      "outputs": [
        {
          "internalType": "bool",
          "name": "",
          "type": "bool"
        }
      ],
      "stateMutability": "view",
      "type": "function"
    },
    {
      "inputs": [],
      "name": "token",
      "outputs": [
        {
          "internalType": "contract IVotes",
          "name": "",
          "type": "address"
        }
      ],
      "stateMutability": "view",
      "type": "function"
    },
    {
      "inputs": [
        {
          "internalType": "uint256",
          "name": "newQuorumNumerator",
          "type": "uint256"
        }
      ],
      "name": "updateQuorumNumerator",
      "outputs": [],
      "stateMutability": "nonpayable",
      "type": "function"
    },
    {
      "inputs": [],
      "name": "version",
      "outputs": [
        {
          "internalType": "string",
          "name": "",
          "type": "string"
        }
      ],
      "stateMutability": "view",
      "type": "function"
    },
    {
      "inputs": [],
      "name": "votingDelay",
      "outputs": [
        {
          "internalType": "uint256",
          "name": "",
          "type": "uint256"
        }
      ],
      "stateMutability": "view",
      "type": "function"
    },
    {
      "inputs": [],
      "name": "votingPeriod",
      "outputs": [
        {
          "internalType": "uint256",
          "name": "",
          "type": "uint256"
        }
      ],
      "stateMutability": "view",
      "type": "function"
    },
    {
      "stateMutability": "payable",
      "type": "receive"
    }
  ],
  "transactionHash": "0x1f1957842244bc7e3719354347b0da6b14cad516b0f31a9e7e0dd1efd4046afd",
  "args": [
    "0xD30962A74Ac3A521adA8c11927A9fb52A0635E21"
  ],
  "numDeployments": 1,
  "solcInputHash": "9fba84aa292fd83cec2047bb0acdb4b0",
  "bytecode": "0x6101606040523480156200001257600080fd5b5060405162003d1338038062003d138339810160408190526200003591620006eb565b60048161199161b2fa60006040518060400160405280601481526020017f476f6c64656e536368656d61476f7665726e6f7200000000000000000000000081525080620000876200016b60201b60201c565b815160209283012081519183019190912060e08290526101008190524660a0818152604080517f8b73c3c69bb8fe3d512ecc4cf759cc79239f7b179b0ffacaa9a75d522b39400f818801819052818301969096526060810194909452608080850193909352308483018190528151808603909301835260c094850190915281519190950120905291909152610120526000620001248282620007c2565b506200013290508362000186565b6200013d82620001c7565b62000148816200026e565b5050506001600160a01b0316610140526200016381620002af565b5050620008cc565b6040805180820190915260018152603160f81b602082015290565b60045460408051918252602082018390527fc565b045403dc03c2eea82b81a0465edad9e2e7fc4d97e11421c209da93d7a93910160405180910390a1600455565b600081116200022d5760405162461bcd60e51b815260206004820152602760248201527f476f7665726e6f7253657474696e67733a20766f74696e6720706572696f6420604482015266746f6f206c6f7760c81b60648201526084015b60405180910390fd5b60055460408051918252602082018390527f7e3f7f0708a84de9203036abaa450dccc85ad5ff52f78c170f3edb55cf5e8828910160405180910390a1600555565b60065460408051918252602082018390527fccb45da8d5717e6c4544694297c4ba5cf151d455c9bb0ed4fc7a38411bc05461910160405180910390a1600655565b6064811115620003345760405162461bcd60e51b815260206004820152604360248201527f476f7665726e6f72566f74657351756f72756d4672616374696f6e3a2071756f60448201527f72756d4e756d657261746f72206f7665722071756f72756d44656e6f6d696e616064820152623a37b960e91b608482015260a40162000224565b60006200034062000427565b90508015801590620003525750600954155b15620003cd5760096000016040518060400160405280600063ffffffff1681526020016200038b846200045660201b620013471760201c565b6001600160e01b0390811690915282546001810184556000938452602093849020835194909301519091166401000000000263ffffffff909316929092179101555b620003e8826009620004c560201b620013b41790919060201c565b505060408051828152602081018490527f0553476bf02ef2726e8ce5ced78d63e26e602e4a2257b1f559418e24b4633997910160405180910390a15050565b600954600090156200044f576200044a60096200062160201b620014df1760201c565b905090565b5060085490565b60006001600160e01b03821115620004c15760405162461bcd60e51b815260206004820152602760248201527f53616665436173743a2076616c756520646f65736e27742066697420696e20326044820152663234206269747360c81b606482015260840162000224565b5090565b8154600090819081620004d88662000621565b90506000821180156200051c57504386620004f56001856200088e565b81548110620005085762000508620008b6565b60009182526020909120015463ffffffff16145b15620005905762000538856200045660201b620013471760201c565b86620005466001856200088e565b81548110620005595762000559620008b6565b9060005260206000200160000160046101000a8154816001600160e01b0302191690836001600160e01b0316021790555062000618565b856000016040518060400160405280620005b5436200068460201b6200153b1760201c565b63ffffffff168152602001620005d6886200045660201b620013471760201c565b6001600160e01b0390811690915282546001810184556000938452602093849020835194909301519091166401000000000263ffffffff909316929092179101555b95939450505050565b805460009080156200067157826200063b6001836200088e565b815481106200064e576200064e620008b6565b60009182526020909120015464010000000090046001600160e01b031662000674565b60005b6001600160e01b03169392505050565b600063ffffffff821115620004c15760405162461bcd60e51b815260206004820152602660248201527f53616665436173743a2076616c756520646f65736e27742066697420696e203360448201526532206269747360d01b606482015260840162000224565b600060208284031215620006fe57600080fd5b81516001600160a01b03811681146200071657600080fd5b9392505050565b634e487b7160e01b600052604160045260246000fd5b600181811c908216806200074857607f821691505b6020821081036200076957634e487b7160e01b600052602260045260246000fd5b50919050565b601f821115620007bd57600081815260208120601f850160051c81016020861015620007985750805b601f850160051c820191505b81811015620007b957828155600101620007a4565b5050505b505050565b81516001600160401b03811115620007de57620007de6200071d565b620007f681620007ef845462000733565b846200076f565b602080601f8311600181146200082e5760008415620008155750858301515b600019600386901b1c1916600185901b178555620007b9565b600085815260208120601f198616915b828110156200085f578886015182559484019460019091019084016200083e565b50858210156200087e5787850151600019600388901b60f8161c191681555b5050505050600190811b01905550565b81810381811115620008b057634e487b7160e01b600052601160045260246000fd5b92915050565b634e487b7160e01b600052603260045260246000fd5b60805160a05160c05160e0516101005161012051610140516133de620009356000396000818161079e01528181611d0c0152611ea401526000611fb50152600061200401526000611fdf01526000611f3801526000611f6201526000611f8c01526133de6000f3fe60806040526004361061021e5760003560e01c806370b0f66011610123578063c28bc2fa116100ab578063eb9019d41161006f578063eb9019d414610700578063ece40cc114610720578063f23a6e6114610740578063f8ce560a1461076c578063fc0c546a1461078c57600080fd5b8063c28bc2fa14610626578063c59057e414610646578063dd4e2ba514610666578063deaaa7cc146106ac578063ea0217cf146106e057600080fd5b80639a802a6d116100f25780639a802a6d14610590578063a7713a70146105b0578063b58131b0146105c5578063bc197c81146105da578063c01f9e371461060657600080fd5b806370b0f6601461051c5780637b3c71d31461053c5780637d5e81e21461055c57806397c3d3341461057c57600080fd5b80633932abb1116101a6578063544ffc9c11610175578063544ffc9c1461043d57806354fd4d501461049257806356781388146104bc5780635f398a14146104dc57806360c4247f146104fc57600080fd5b80633932abb1146103915780633bccf4fd146103a65780633e4f49e6146103c657806343859632146103f357600080fd5b806306fdde03116101ed57806306fdde03146102c4578063150b7a02146102e65780632656227d1461032a5780632d63f6931461033d5780632fe3e2611461035d57600080fd5b806301ffc9a71461022c57806302a251a314610261578063034201811461028457806306f3f9e6146102a457600080fd5b3661022757005b005b600080fd5b34801561023857600080fd5b5061024c610247366004612625565b6107d8565b60405190151581526020015b60405180910390f35b34801561026d57600080fd5b50610276610845565b604051908152602001610258565b34801561029057600080fd5b5061027661029f366004612763565b610855565b3480156102b057600080fd5b506102256102bf366004612809565b61094d565b3480156102d057600080fd5b506102d9610998565b6040516102589190612872565b3480156102f257600080fd5b5061031161030136600461289c565b630a85bd0160e11b949350505050565b6040516001600160e01b03199091168152602001610258565b610276610338366004612a72565b610a2a565b34801561034957600080fd5b50610276610358366004612809565b610b51565b34801561036957600080fd5b506102767fb3b3f3b703cd84ce352197dcff232b1b5d3cfb2025ce47cf04742d0651f1af8881565b34801561039d57600080fd5b50610276610b88565b3480156103b257600080fd5b506102766103c1366004612b01565b610b93565b3480156103d257600080fd5b506103e66103e1366004612809565b610c09565b6040516102589190612b65565b3480156103ff57600080fd5b5061024c61040e366004612b8d565b60008281526007602090815260408083206001600160a01b038516845260030190915290205460ff1692915050565b34801561044957600080fd5b50610477610458366004612809565b6000908152600760205260409020805460018201546002909201549092565b60408051938452602084019290925290820152606001610258565b34801561049e57600080fd5b506040805180820190915260018152603160f81b60208201526102d9565b3480156104c857600080fd5b506102766104d7366004612bb9565b610d18565b3480156104e857600080fd5b506102766104f7366004612bdc565b610d41565b34801561050857600080fd5b50610276610517366004612809565b610d8b565b34801561052857600080fd5b50610225610537366004612809565b610e23565b34801561054857600080fd5b50610276610557366004612c5f565b610e62565b34801561056857600080fd5b50610276610577366004612cb8565b610eb4565b34801561058857600080fd5b506064610276565b34801561059c57600080fd5b506102766105ab366004612d6c565b611177565b3480156105bc57600080fd5b5061027661118e565b3480156105d157600080fd5b506102766111aa565b3480156105e657600080fd5b506103116105f5366004612dc2565b63bc197c8160e01b95945050505050565b34801561061257600080fd5b50610276610621366004612809565b6111b5565b34801561063257600080fd5b50610225610641366004612e51565b6111e4565b34801561065257600080fd5b50610276610661366004612a72565b611263565b34801561067257600080fd5b506040805180820190915260208082527f737570706f72743d627261766f2671756f72756d3d666f722c6162737461696e908201526102d9565b3480156106b857600080fd5b506102767f150214d74d59b7d1e90c73fc22ef3d991dd0a76b046543d4d80ab92d2a50328f81565b3480156106ec57600080fd5b506102256106fb366004612809565b61129d565b34801561070c57600080fd5b5061027661071b366004612e92565b6112dc565b34801561072c57600080fd5b5061022561073b366004612809565b6112fd565b34801561074c57600080fd5b5061031161075b366004612ebc565b63f23a6e6160e01b95945050505050565b34801561077857600080fd5b50610276610787366004612809565b61133c565b34801561079857600080fd5b506107c07f000000000000000000000000000000000000000000000000000000000000000081565b6040516001600160a01b039091168152602001610258565b60006001600160e01b0319821663bf26d89760e01b148061080957506001600160e01b031982166379dd796f60e01b145b8061082457506001600160e01b03198216630271189760e51b145b8061083f57506301ffc9a760e01b6001600160e01b03198316145b92915050565b600061085060055490565b905090565b6000806108f96108f17fb3b3f3b703cd84ce352197dcff232b1b5d3cfb2025ce47cf04742d0651f1af888c8c8c8c604051610891929190612f20565b60405180910390208b805190602001206040516020016108d6959493929190948552602085019390935260ff9190911660408401526060830152608082015260a00190565b604051602081830303815290604052805190602001206115a0565b8686866115ee565b905061093f8a828b8b8b8080601f0160208091040260200160405190810160405280939291908181526020018383808284376000920191909152508d925061160c915050565b9a9950505050505050505050565b3330146109755760405162461bcd60e51b815260040161096c90612f30565b60405180910390fd5b61098c565b806109856002611771565b0361097a57505b610995816117f0565b50565b6060600080546109a790612f67565b80601f01602080910402602001604051908101604052809291908181526020018280546109d390612f67565b8015610a205780601f106109f557610100808354040283529160200191610a20565b820191906000526020600020905b815481529060010190602001808311610a0357829003601f168201915b5050505050905090565b600080610a3986868686611263565b90506000610a4682610c09565b90506004816007811115610a5c57610a5c612b4f565b1480610a7957506005816007811115610a7757610a77612b4f565b145b610acf5760405162461bcd60e51b815260206004820152602160248201527f476f7665726e6f723a2070726f706f73616c206e6f74207375636365737366756044820152601b60fa1b606482015260840161096c565b600082815260016020818152604092839020600201805460ff191690921790915590518381527f712ae1383f79ac853f8d882153778e0260ef8f03b504e2866e0593e04d2b291f910160405180910390a1610b2d828888888861193d565b610b3a82888888886119c9565b610b47828888888861193d565b5095945050505050565b60008181526001602090815260408083208151928301909152546001600160401b0316908190525b6001600160401b031692915050565b600061085060045490565b604080517f150214d74d59b7d1e90c73fc22ef3d991dd0a76b046543d4d80ab92d2a50328f602082015290810186905260ff851660608201526000908190610be1906108f1906080016108d6565b9050610bfe87828860405180602001604052806000815250611ac8565b979650505050505050565b6000818152600160205260408120600281015460ff1615610c2d5750600792915050565b6002810154610100900460ff1615610c485750600292915050565b6000610c5384610b51565b905080600003610ca55760405162461bcd60e51b815260206004820152601d60248201527f476f7665726e6f723a20756e6b6e6f776e2070726f706f73616c206964000000604482015260640161096c565b438110610cb6575060009392505050565b6000610cc1856111b5565b9050438110610cd557506001949350505050565b610cde85611af4565b8015610cfd575060008581526007602052604090208054600190910154115b15610d0d57506004949350505050565b506003949350505050565b600080339050610d3984828560405180602001604052806000815250611ac8565b949350505050565b600080339050610bfe87828888888080601f0160208091040260200160405190810160405280939291908181526020018383808284376000920191909152508a925061160c915050565b600954600090808203610da2575050600854919050565b60006009610db1600184612fb7565b81548110610dc157610dc1612fca565b60009182526020918290206040805180820190915291015463ffffffff81168083526401000000009091046001600160e01b03169282019290925291508410610e1857602001516001600160e01b03169392505050565b610d39600985611b2b565b333014610e425760405162461bcd60e51b815260040161096c90612f30565b610e59565b80610e526002611771565b03610e4757505b61099581611c3a565b600080339050610eaa86828787878080601f016020809104026020016040519081016040528093929190818152602001838380828437600092019190915250611ac892505050565b9695505050505050565b6000610ebe6111aa565b610ecd3361071b600143612fb7565b1015610f355760405162461bcd60e51b815260206004820152603160248201527f476f7665726e6f723a2070726f706f73657220766f7465732062656c6f7720706044820152701c9bdc1bdcd85b081d1a1c995cda1bdb19607a1b606482015260840161096c565b6000610f4a8686868680519060200120611263565b90508451865114610f6d5760405162461bcd60e51b815260040161096c90612fe0565b8351865114610f8e5760405162461bcd60e51b815260040161096c90612fe0565b6000865111610fdf5760405162461bcd60e51b815260206004820152601860248201527f476f7665726e6f723a20656d7074792070726f706f73616c0000000000000000604482015260640161096c565b600081815260016020908152604091829020825191820190925281546001600160401b0316908190521561105f5760405162461bcd60e51b815260206004820152602160248201527f476f7665726e6f723a2070726f706f73616c20616c72656164792065786973746044820152607360f81b606482015260840161096c565b600061107161106c610b88565b611c7b565b61107a43611c7b565b6110849190613021565b9050600061109361106c610845565b61109d9083613021565b835467ffffffffffffffff19166001600160401b038416178455905060018301805467ffffffffffffffff19166001600160401b0383161790557f7d84a6263ae0d98d3329bd7b46bb4e8d6f98cd35a7adb45c274c8b7fd5ebd5e084338b8b8d516001600160401b03811115611115576111156126a6565b60405190808252806020026020018201604052801561114857816020015b60608152602001906001900390816111335790505b508c88888e6040516111629998979695949392919061310e565b60405180910390a15091979650505050505050565b6000611184848484611ce3565b90505b9392505050565b600954600090156111a35761085060096114df565b5060085490565b600061085060065490565b60008181526001602081815260408084208151928301909152909101546001600160401b031690819052610b79565b3330146112035760405162461bcd60e51b815260040161096c90612f30565b61121a565b806112136002611771565b0361120857505b61125c8483838080601f016020809104026020016040519081016040528093929190818152602001838380828437600092019190915250889250611d79915050565b5050505050565b60008484848460405160200161127c94939291906131fd565b60408051601f19818403018152919052805160209091012095945050505050565b3330146112bc5760405162461bcd60e51b815260040161096c90612f30565b6112d3565b806112cc6002611771565b036112c157505b61099581611d9f565b600061118783836112f860408051602081019091526000815290565b611ce3565b33301461131c5760405162461bcd60e51b815260040161096c90612f30565b611333565b8061132c6002611771565b0361132157505b61099581611e40565b600061083f82611e81565b60006001600160e01b038211156113b05760405162461bcd60e51b815260206004820152602760248201527f53616665436173743a2076616c756520646f65736e27742066697420696e20326044820152663234206269747360c81b606482015260840161096c565b5090565b81546000908190816113c5866114df565b9050600082118015611403575043866113df600185612fb7565b815481106113ef576113ef612fca565b60009182526020909120015463ffffffff16145b156114635761141185611347565b8661141d600185612fb7565b8154811061142d5761142d612fca565b9060005260206000200160000160046101000a8154816001600160e01b0302191690836001600160e01b031602179055506114d1565b85600001604051806040016040528061147b4361153b565b63ffffffff16815260200161148f88611347565b6001600160e01b0390811690915282546001810184556000938452602093849020835194909301519091166401000000000263ffffffff909316929092179101555b9250839150505b9250929050565b8054600090801561152857826114f6600183612fb7565b8154811061150657611506612fca565b60009182526020909120015464010000000090046001600160e01b031661152b565b60005b6001600160e01b03169392505050565b600063ffffffff8211156113b05760405162461bcd60e51b815260206004820152602660248201527f53616665436173743a2076616c756520646f65736e27742066697420696e203360448201526532206269747360d01b606482015260840161096c565b600061083f6115ad611f2b565b8360405161190160f01b6020820152602281018390526042810182905260009060620160405160208183030381529060405280519060200120905092915050565b60008060006115ff87878787612052565b91509150610b478161213f565b600085815260016020819052604082209061162688610c09565b600781111561163757611637612b4f565b146116905760405162461bcd60e51b815260206004820152602360248201527f476f7665726e6f723a20766f7465206e6f742063757272656e746c792061637460448201526269766560e81b606482015260840161096c565b604080516020810190915281546001600160401b0316908190526000906116b990889086611ce3565b90506116c888888884886122f5565b835160000361171d57866001600160a01b03167fb8e138887d0aa13bab447e82de9d5c1777041ecd21ca36ba824ff1e6c07ddda4898884896040516117109493929190613248565b60405180910390a2610bfe565b866001600160a01b03167fe2babfbac5889a709b63bb7f598b324e08bc5a4fb9ec647fb3cbc9ec07eb8712898884898960405161175e959493929190613270565b60405180910390a2979650505050505050565b600061178c8254600f81810b600160801b909204900b131590565b156117aa57604051631ed9509560e11b815260040160405180910390fd5b508054600f0b6000818152600180840160205260408220805492905583546fffffffffffffffffffffffffffffffff191692016001600160801b03169190911790915590565b60648111156118735760405162461bcd60e51b815260206004820152604360248201527f476f7665726e6f72566f74657351756f72756d4672616374696f6e3a2071756f60448201527f72756d4e756d657261746f72206f7665722071756f72756d44656e6f6d696e616064820152623a37b960e91b608482015260a40161096c565b600061187d61118e565b9050801580159061188e5750600954155b156118f3576040805180820190915260008152600990602081016118b184611347565b6001600160e01b0390811690915282546001810184556000938452602093849020835194909301519091166401000000000263ffffffff909316929092179101555b6118fe6009836113b4565b505060408051828152602081018490527f0553476bf02ef2726e8ce5ced78d63e26e602e4a2257b1f559418e24b4633997910160405180910390a15050565b61125c565b84518110156119c157306001600160a01b031685828151811061196757611967612fca565b60200260200101516001600160a01b0316036119b1576119b183828151811061199257611992612fca565b602002602001015180519060200120600261246f90919063ffffffff16565b6119ba816132b6565b9050611942565b505050505050565b600060405180606001604052806027815260200161335960279139905060005b8551811015611abf57600080878381518110611a0757611a07612fca565b60200260200101516001600160a01b0316878481518110611a2a57611a2a612fca565b6020026020010151878581518110611a4457611a44612fca565b6020026020010151604051611a5991906132cf565b60006040518083038185875af1925050503d8060008114611a96576040519150601f19603f3d011682016040523d82523d6000602084013e611a9b565b606091505b5091509150611aab8282866124ab565b50505080611ab8906132b6565b90506119e9565b50505050505050565b6000611aeb85858585611ae660408051602081019091526000815290565b61160c565b95945050505050565b600081815260076020526040812060028101546001820154611b1691906132eb565b611b2261078785610b51565b11159392505050565b6000438210611b7c5760405162461bcd60e51b815260206004820181905260248201527f436865636b706f696e74733a20626c6f636b206e6f7420796574206d696e6564604482015260640161096c565b825460005b81811015611be1576000611b9582846124e4565b905084866000018281548110611bad57611bad612fca565b60009182526020909120015463ffffffff161115611bcd57809250611bdb565b611bd88160016132eb565b91505b50611b81565b8115611c255784611bf3600184612fb7565b81548110611c0357611c03612fca565b60009182526020909120015464010000000090046001600160e01b0316611c28565b60005b6001600160e01b031695945050505050565b60045460408051918252602082018390527fc565b045403dc03c2eea82b81a0465edad9e2e7fc4d97e11421c209da93d7a93910160405180910390a1600455565b60006001600160401b038211156113b05760405162461bcd60e51b815260206004820152602660248201527f53616665436173743a2076616c756520646f65736e27742066697420696e203660448201526534206269747360d01b606482015260840161096c565b604051630748d63560e31b81526001600160a01b038481166004830152602482018490526000917f000000000000000000000000000000000000000000000000000000000000000090911690633a46b1a890604401602060405180830381865afa158015611d55573d6000803e3d6000fd5b505050506040513d601f19601f8201168201806040525081019061118491906132fe565b6060611184848484604051806060016040528060298152602001613380602991396124ff565b60008111611dff5760405162461bcd60e51b815260206004820152602760248201527f476f7665726e6f7253657474696e67733a20766f74696e6720706572696f6420604482015266746f6f206c6f7760c81b606482015260840161096c565b60055460408051918252602082018390527f7e3f7f0708a84de9203036abaa450dccc85ad5ff52f78c170f3edb55cf5e8828910160405180910390a1600555565b60065460408051918252602082018390527fccb45da8d5717e6c4544694297c4ba5cf151d455c9bb0ed4fc7a38411bc05461910160405180910390a1600655565b60006064611e8e83610d8b565b604051632394e7a360e21b8152600481018590527f00000000000000000000000000000000000000000000000000000000000000006001600160a01b031690638e539e8c90602401602060405180830381865afa158015611ef3573d6000803e3d6000fd5b505050506040513d601f19601f82011682018060405250810190611f1791906132fe565b611f219190613317565b61083f9190613336565b6000306001600160a01b037f000000000000000000000000000000000000000000000000000000000000000016148015611f8457507f000000000000000000000000000000000000000000000000000000000000000046145b15611fae57507f000000000000000000000000000000000000000000000000000000000000000090565b50604080517f00000000000000000000000000000000000000000000000000000000000000006020808301919091527f0000000000000000000000000000000000000000000000000000000000000000828401527f000000000000000000000000000000000000000000000000000000000000000060608301524660808301523060a0808401919091528351808403909101815260c0909201909252805191012090565b6000807f7fffffffffffffffffffffffffffffff5d576e7357a4501ddfe92f46681b20a08311156120895750600090506003612136565b8460ff16601b141580156120a157508460ff16601c14155b156120b25750600090506004612136565b6040805160008082526020820180845289905260ff881692820192909252606081018690526080810185905260019060a0016020604051602081039080840390855afa158015612106573d6000803e3d6000fd5b5050604051601f1901519150506001600160a01b03811661212f57600060019250925050612136565b9150600090505b94509492505050565b600081600481111561215357612153612b4f565b0361215b5750565b600181600481111561216f5761216f612b4f565b036121bc5760405162461bcd60e51b815260206004820152601860248201527f45434453413a20696e76616c6964207369676e61747572650000000000000000604482015260640161096c565b60028160048111156121d0576121d0612b4f565b0361221d5760405162461bcd60e51b815260206004820152601f60248201527f45434453413a20696e76616c6964207369676e6174757265206c656e67746800604482015260640161096c565b600381600481111561223157612231612b4f565b036122895760405162461bcd60e51b815260206004820152602260248201527f45434453413a20696e76616c6964207369676e6174757265202773272076616c604482015261756560f01b606482015260840161096c565b600481600481111561229d5761229d612b4f565b036109955760405162461bcd60e51b815260206004820152602260248201527f45434453413a20696e76616c6964207369676e6174757265202776272076616c604482015261756560f01b606482015260840161096c565b60008581526007602090815260408083206001600160a01b0388168452600381019092529091205460ff161561237d5760405162461bcd60e51b815260206004820152602760248201527f476f7665726e6f72566f74696e6753696d706c653a20766f746520616c726561604482015266191e4818d85cdd60ca1b606482015260840161096c565b6001600160a01b03851660009081526003820160205260409020805460ff1916600117905560ff84166123c957828160000160008282546123be91906132eb565b909155506119c19050565b60001960ff8516016123e957828160010160008282546123be91906132eb565b60011960ff85160161240957828160020160008282546123be91906132eb565b60405162461bcd60e51b815260206004820152603560248201527f476f7665726e6f72566f74696e6753696d706c653a20696e76616c69642076616044820152746c756520666f7220656e756d20566f74655479706560581b606482015260840161096c565b8154600160801b90819004600f0b6000818152600180860160205260409091209390935583546001600160801b03908116939091011602179055565b606083156124ba575081611187565b8251156124ca5782518084602001fd5b8160405162461bcd60e51b815260040161096c9190612872565b60006124f36002848418613336565b611187908484166132eb565b6060824710156125605760405162461bcd60e51b815260206004820152602660248201527f416464726573733a20696e73756666696369656e742062616c616e636520666f6044820152651c8818d85b1b60d21b606482015260840161096c565b6001600160a01b0385163b6125b75760405162461bcd60e51b815260206004820152601d60248201527f416464726573733a2063616c6c20746f206e6f6e2d636f6e7472616374000000604482015260640161096c565b600080866001600160a01b031685876040516125d391906132cf565b60006040518083038185875af1925050503d8060008114612610576040519150601f19603f3d011682016040523d82523d6000602084013e612615565b606091505b5091509150610bfe8282866124ab565b60006020828403121561263757600080fd5b81356001600160e01b03198116811461118757600080fd5b803560ff8116811461266057600080fd5b919050565b60008083601f84011261267757600080fd5b5081356001600160401b0381111561268e57600080fd5b6020830191508360208285010111156114d857600080fd5b634e487b7160e01b600052604160045260246000fd5b604051601f8201601f191681016001600160401b03811182821017156126e4576126e46126a6565b604052919050565b60006001600160401b03831115612705576127056126a6565b612718601f8401601f19166020016126bc565b905082815283838301111561272c57600080fd5b828260208301376000602084830101529392505050565b600082601f83011261275457600080fd5b611187838335602085016126ec565b60008060008060008060008060e0898b03121561277f57600080fd5b8835975061278f60208a0161264f565b965060408901356001600160401b03808211156127ab57600080fd5b6127b78c838d01612665565b909850965060608b01359150808211156127d057600080fd5b506127dd8b828c01612743565b9450506127ec60808a0161264f565b925060a0890135915060c089013590509295985092959890939650565b60006020828403121561281b57600080fd5b5035919050565b60005b8381101561283d578181015183820152602001612825565b50506000910152565b6000815180845261285e816020860160208601612822565b601f01601f19169290920160200192915050565b6020815260006111876020830184612846565b80356001600160a01b038116811461266057600080fd5b600080600080608085870312156128b257600080fd5b6128bb85612885565b93506128c960208601612885565b92506040850135915060608501356001600160401b038111156128eb57600080fd5b6128f787828801612743565b91505092959194509250565b60006001600160401b0382111561291c5761291c6126a6565b5060051b60200190565b600082601f83011261293757600080fd5b8135602061294c61294783612903565b6126bc565b82815260059290921b8401810191818101908684111561296b57600080fd5b8286015b8481101561298d5761298081612885565b835291830191830161296f565b509695505050505050565b600082601f8301126129a957600080fd5b813560206129b961294783612903565b82815260059290921b840181019181810190868411156129d857600080fd5b8286015b8481101561298d57803583529183019183016129dc565b600082601f830112612a0457600080fd5b81356020612a1461294783612903565b82815260059290921b84018101918181019086841115612a3357600080fd5b8286015b8481101561298d5780356001600160401b03811115612a565760008081fd5b612a648986838b0101612743565b845250918301918301612a37565b60008060008060808587031215612a8857600080fd5b84356001600160401b0380821115612a9f57600080fd5b612aab88838901612926565b95506020870135915080821115612ac157600080fd5b612acd88838901612998565b94506040870135915080821115612ae357600080fd5b50612af0878288016129f3565b949793965093946060013593505050565b600080600080600060a08688031215612b1957600080fd5b85359450612b296020870161264f565b9350612b376040870161264f565b94979396509394606081013594506080013592915050565b634e487b7160e01b600052602160045260246000fd5b6020810160088310612b8757634e487b7160e01b600052602160045260246000fd5b91905290565b60008060408385031215612ba057600080fd5b82359150612bb060208401612885565b90509250929050565b60008060408385031215612bcc57600080fd5b82359150612bb06020840161264f565b600080600080600060808688031215612bf457600080fd5b85359450612c046020870161264f565b935060408601356001600160401b0380821115612c2057600080fd5b612c2c89838a01612665565b90955093506060880135915080821115612c4557600080fd5b50612c5288828901612743565b9150509295509295909350565b60008060008060608587031215612c7557600080fd5b84359350612c856020860161264f565b925060408501356001600160401b03811115612ca057600080fd5b612cac87828801612665565b95989497509550505050565b60008060008060808587031215612cce57600080fd5b84356001600160401b0380821115612ce557600080fd5b612cf188838901612926565b95506020870135915080821115612d0757600080fd5b612d1388838901612998565b94506040870135915080821115612d2957600080fd5b612d35888389016129f3565b93506060870135915080821115612d4b57600080fd5b508501601f81018713612d5d57600080fd5b6128f7878235602084016126ec565b600080600060608486031215612d8157600080fd5b612d8a84612885565b92506020840135915060408401356001600160401b03811115612dac57600080fd5b612db886828701612743565b9150509250925092565b600080600080600060a08688031215612dda57600080fd5b612de386612885565b9450612df160208701612885565b935060408601356001600160401b0380821115612e0d57600080fd5b612e1989838a01612998565b94506060880135915080821115612e2f57600080fd5b612e3b89838a01612998565b93506080880135915080821115612c4557600080fd5b60008060008060608587031215612e6757600080fd5b612e7085612885565b93506020850135925060408501356001600160401b03811115612ca057600080fd5b60008060408385031215612ea557600080fd5b612eae83612885565b946020939093013593505050565b600080600080600060a08688031215612ed457600080fd5b612edd86612885565b9450612eeb60208701612885565b9350604086013592506060860135915060808601356001600160401b03811115612f1457600080fd5b612c5288828901612743565b8183823760009101908152919050565b60208082526018908201527f476f7665726e6f723a206f6e6c79476f7665726e616e63650000000000000000604082015260600190565b600181811c90821680612f7b57607f821691505b602082108103612f9b57634e487b7160e01b600052602260045260246000fd5b50919050565b634e487b7160e01b600052601160045260246000fd5b8181038181111561083f5761083f612fa1565b634e487b7160e01b600052603260045260246000fd5b60208082526021908201527f476f7665726e6f723a20696e76616c69642070726f706f73616c206c656e67746040820152600d60fb1b606082015260800190565b6001600160401b0381811683821601908082111561304157613041612fa1565b5092915050565b600081518084526020808501945080840160005b838110156130815781516001600160a01b03168752958201959082019060010161305c565b509495945050505050565b600081518084526020808501945080840160005b83811015613081578151875295820195908201906001016130a0565b6000815180845260208085019450848260051b860182860160005b858110156131015783830389526130ef838351612846565b988501989250908401906001016130d7565b5090979650505050505050565b60006101208b8352602060018060a01b038c16818501528160408501526131378285018c613048565b9150838203606085015261314b828b61308c565b915083820360808501528189518084528284019150828160051b850101838c0160005b8381101561319c57601f1987840301855261318a838351612846565b9486019492509085019060010161316e565b505086810360a08801526131b0818c6130bc565b9450505050506131cb60c08401876001600160401b03169052565b6001600160401b03851660e08401528281036101008401526131ed8185612846565b9c9b505050505050505050505050565b6080815260006132106080830187613048565b8281036020840152613222818761308c565b9050828103604084015261323681866130bc565b91505082606083015295945050505050565b84815260ff84166020820152826040820152608060608201526000610eaa6080830184612846565b85815260ff8516602082015283604082015260a06060820152600061329860a0830185612846565b82810360808401526132aa8185612846565b98975050505050505050565b6000600182016132c8576132c8612fa1565b5060010190565b600082516132e1818460208701612822565b9190910192915050565b8082018082111561083f5761083f612fa1565b60006020828403121561331057600080fd5b5051919050565b600081600019048311821515161561333157613331612fa1565b500290565b60008261335357634e487b7160e01b600052601260045260246000fd5b50049056fe476f7665726e6f723a2063616c6c20726576657274656420776974686f7574206d657373616765416464726573733a206c6f772d6c6576656c2063616c6c20776974682076616c7565206661696c6564a2646970667358221220adf658cc3890565cc93cdb4acb989f540c1d8918627fa272593d118366777eea64736f6c63430008100033",
  "devdoc": {
    "custom:security-contact": "security@golden.com",
    "errors": {
      "Empty()": [
        {
          "details": "An operation (e.g. {front}) couldn't be completed due to the queue being empty."
        }
      ]
    },
    "kind": "dev",
    "methods": {
      "COUNTING_MODE()": {
        "details": "See {IGovernor-COUNTING_MODE}."
      },
      "castVote(uint256,uint8)": {
        "details": "See {IGovernor-castVote}."
      },
      "castVoteBySig(uint256,uint8,uint8,bytes32,bytes32)": {
        "details": "See {IGovernor-castVoteBySig}."
      },
      "castVoteWithReason(uint256,uint8,string)": {
        "details": "See {IGovernor-castVoteWithReason}."
      },
      "castVoteWithReasonAndParams(uint256,uint8,string,bytes)": {
        "details": "See {IGovernor-castVoteWithReasonAndParams}."
      },
      "castVoteWithReasonAndParamsBySig(uint256,uint8,string,bytes,uint8,bytes32,bytes32)": {
        "details": "See {IGovernor-castVoteWithReasonAndParamsBySig}."
      },
      "execute(address[],uint256[],bytes[],bytes32)": {
        "details": "See {IGovernor-execute}."
      },
      "getVotes(address,uint256)": {
        "details": "See {IGovernor-getVotes}."
      },
      "getVotesWithParams(address,uint256,bytes)": {
        "details": "See {IGovernor-getVotesWithParams}."
      },
      "hasVoted(uint256,address)": {
        "details": "See {IGovernor-hasVoted}."
      },
      "hashProposal(address[],uint256[],bytes[],bytes32)": {
        "details": "See {IGovernor-hashProposal}. The proposal id is produced by hashing the ABI encoded `targets` array, the `values` array, the `calldatas` array and the descriptionHash (bytes32 which itself is the keccak256 hash of the description string). This proposal id can be produced from the proposal data which is part of the {ProposalCreated} event. It can even be computed in advance, before the proposal is submitted. Note that the chainId and the governor address are not part of the proposal id computation. Consequently, the same proposal (with same operation and same description) will have the same id if submitted on multiple governors across multiple networks. This also means that in order to execute the same operation twice (on the same governor) the proposer will have to change the description in order to avoid proposal id conflicts."
      },
      "name()": {
        "details": "See {IGovernor-name}."
      },
      "onERC1155BatchReceived(address,address,uint256[],uint256[],bytes)": {
        "details": "See {IERC1155Receiver-onERC1155BatchReceived}."
      },
      "onERC1155Received(address,address,uint256,uint256,bytes)": {
        "details": "See {IERC1155Receiver-onERC1155Received}."
      },
      "onERC721Received(address,address,uint256,bytes)": {
        "details": "See {IERC721Receiver-onERC721Received}."
      },
      "proposalDeadline(uint256)": {
        "details": "See {IGovernor-proposalDeadline}."
      },
      "proposalSnapshot(uint256)": {
        "details": "See {IGovernor-proposalSnapshot}."
      },
      "proposalVotes(uint256)": {
        "details": "Accessor to the internal vote counts."
      },
      "propose(address[],uint256[],bytes[],string)": {
        "details": "See {IGovernor-propose}."
      },
      "quorumDenominator()": {
        "details": "Returns the quorum denominator. Defaults to 100, but may be overridden."
      },
      "quorumNumerator()": {
        "details": "Returns the current quorum numerator. See {quorumDenominator}."
      },
      "quorumNumerator(uint256)": {
        "details": "Returns the quorum numerator at a specific block number. See {quorumDenominator}."
      },
      "relay(address,uint256,bytes)": {
        "details": "Relays a transaction or function call to an arbitrary target. In cases where the governance executor is some contract other than the governor itself, like when using a timelock, this function can be invoked in a governance proposal to recover tokens or Ether that was sent to the governor contract by mistake. Note that if the executor is simply the governor itself, use of `relay` is redundant."
      },
      "setProposalThreshold(uint256)": {
        "details": "Update the proposal threshold. This operation can only be performed through a governance proposal. Emits a {ProposalThresholdSet} event."
      },
      "setVotingDelay(uint256)": {
        "details": "Update the voting delay. This operation can only be performed through a governance proposal. Emits a {VotingDelaySet} event."
      },
      "setVotingPeriod(uint256)": {
        "details": "Update the voting period. This operation can only be performed through a governance proposal. Emits a {VotingPeriodSet} event."
      },
      "state(uint256)": {
        "details": "See {IGovernor-state}."
      },
      "supportsInterface(bytes4)": {
        "details": "See {IERC165-supportsInterface}."
      },
      "updateQuorumNumerator(uint256)": {
        "details": "Changes the quorum numerator. Emits a {QuorumNumeratorUpdated} event. Requirements: - Must be called through a governance proposal. - New numerator must be smaller or equal to the denominator."
      },
      "version()": {
        "details": "See {IGovernor-version}."
      }
    },
    "version": 1
  },
  "userdoc": {
    "kind": "user",
    "methods": {},
    "version": 1
  },
  "storageLayout": {
    "storage": [
      {
        "astId": 7258,
        "contract": "contracts/GoldenSchemaGovernor.sol:GoldenSchemaGovernor",
        "label": "_name",
        "offset": 0,
        "slot": "0",
        "type": "t_string_storage"
      },
      {
        "astId": 7263,
        "contract": "contracts/GoldenSchemaGovernor.sol:GoldenSchemaGovernor",
        "label": "_proposals",
        "offset": 0,
        "slot": "1",
        "type": "t_mapping(t_uint256,t_struct(ProposalCore)7256_storage)"
      },
      {
        "astId": 7266,
        "contract": "contracts/GoldenSchemaGovernor.sol:GoldenSchemaGovernor",
        "label": "_governanceCall",
        "offset": 0,
        "slot": "2",
        "type": "t_struct(Bytes32Deque)13595_storage"
      },
      {
        "astId": 9026,
        "contract": "contracts/GoldenSchemaGovernor.sol:GoldenSchemaGovernor",
        "label": "_votingDelay",
        "offset": 0,
        "slot": "4",
        "type": "t_uint256"
      },
      {
        "astId": 9028,
        "contract": "contracts/GoldenSchemaGovernor.sol:GoldenSchemaGovernor",
        "label": "_votingPeriod",
        "offset": 0,
        "slot": "5",
        "type": "t_uint256"
      },
      {
        "astId": 9030,
        "contract": "contracts/GoldenSchemaGovernor.sol:GoldenSchemaGovernor",
        "label": "_proposalThreshold",
        "offset": 0,
        "slot": "6",
        "type": "t_uint256"
      },
      {
        "astId": 8818,
        "contract": "contracts/GoldenSchemaGovernor.sol:GoldenSchemaGovernor",
        "label": "_proposalVotes",
        "offset": 0,
        "slot": "7",
        "type": "t_mapping(t_uint256,t_struct(ProposalVote)8813_storage)"
      },
      {
        "astId": 9252,
        "contract": "contracts/GoldenSchemaGovernor.sol:GoldenSchemaGovernor",
        "label": "_quorumNumerator",
        "offset": 0,
        "slot": "8",
        "type": "t_uint256"
      },
      {
        "astId": 9255,
        "contract": "contracts/GoldenSchemaGovernor.sol:GoldenSchemaGovernor",
        "label": "_quorumNumeratorHistory",
        "offset": 0,
        "slot": "9",
        "type": "t_struct(History)9888_storage"
      }
    ],
    "types": {
      "t_address": {
        "encoding": "inplace",
        "label": "address",
        "numberOfBytes": "20"
      },
      "t_array(t_struct(Checkpoint)9883_storage)dyn_storage": {
        "base": "t_struct(Checkpoint)9883_storage",
        "encoding": "dynamic_array",
        "label": "struct Checkpoints.Checkpoint[]",
        "numberOfBytes": "32"
      },
      "t_bool": {
        "encoding": "inplace",
        "label": "bool",
        "numberOfBytes": "1"
      },
      "t_bytes32": {
        "encoding": "inplace",
        "label": "bytes32",
        "numberOfBytes": "32"
      },
      "t_int128": {
        "encoding": "inplace",
        "label": "int128",
        "numberOfBytes": "16"
      },
      "t_mapping(t_address,t_bool)": {
        "encoding": "mapping",
        "key": "t_address",
        "label": "mapping(address => bool)",
        "numberOfBytes": "32",
        "value": "t_bool"
      },
      "t_mapping(t_int128,t_bytes32)": {
        "encoding": "mapping",
        "key": "t_int128",
        "label": "mapping(int128 => bytes32)",
        "numberOfBytes": "32",
        "value": "t_bytes32"
      },
      "t_mapping(t_uint256,t_struct(ProposalCore)7256_storage)": {
        "encoding": "mapping",
        "key": "t_uint256",
        "label": "mapping(uint256 => struct Governor.ProposalCore)",
        "numberOfBytes": "32",
        "value": "t_struct(ProposalCore)7256_storage"
      },
      "t_mapping(t_uint256,t_struct(ProposalVote)8813_storage)": {
        "encoding": "mapping",
        "key": "t_uint256",
        "label": "mapping(uint256 => struct GovernorCountingSimple.ProposalVote)",
        "numberOfBytes": "32",
        "value": "t_struct(ProposalVote)8813_storage"
      },
      "t_string_storage": {
        "encoding": "bytes",
        "label": "string",
        "numberOfBytes": "32"
      },
      "t_struct(BlockNumber)10540_storage": {
        "encoding": "inplace",
        "label": "struct Timers.BlockNumber",
        "members": [
          {
            "astId": 10539,
            "contract": "contracts/GoldenSchemaGovernor.sol:GoldenSchemaGovernor",
            "label": "_deadline",
            "offset": 0,
            "slot": "0",
            "type": "t_uint64"
          }
        ],
        "numberOfBytes": "32"
      },
      "t_struct(Bytes32Deque)13595_storage": {
        "encoding": "inplace",
        "label": "struct DoubleEndedQueue.Bytes32Deque",
        "members": [
          {
            "astId": 13588,
            "contract": "contracts/GoldenSchemaGovernor.sol:GoldenSchemaGovernor",
            "label": "_begin",
            "offset": 0,
            "slot": "0",
            "type": "t_int128"
          },
          {
            "astId": 13590,
            "contract": "contracts/GoldenSchemaGovernor.sol:GoldenSchemaGovernor",
            "label": "_end",
            "offset": 16,
            "slot": "0",
            "type": "t_int128"
          },
          {
            "astId": 13594,
            "contract": "contracts/GoldenSchemaGovernor.sol:GoldenSchemaGovernor",
            "label": "_data",
            "offset": 0,
            "slot": "1",
            "type": "t_mapping(t_int128,t_bytes32)"
          }
        ],
        "numberOfBytes": "64"
      },
      "t_struct(Checkpoint)9883_storage": {
        "encoding": "inplace",
        "label": "struct Checkpoints.Checkpoint",
        "members": [
          {
            "astId": 9880,
            "contract": "contracts/GoldenSchemaGovernor.sol:GoldenSchemaGovernor",
            "label": "_blockNumber",
            "offset": 0,
            "slot": "0",
            "type": "t_uint32"
          },
          {
            "astId": 9882,
            "contract": "contracts/GoldenSchemaGovernor.sol:GoldenSchemaGovernor",
            "label": "_value",
            "offset": 4,
            "slot": "0",
            "type": "t_uint224"
          }
        ],
        "numberOfBytes": "32"
      },
      "t_struct(History)9888_storage": {
        "encoding": "inplace",
        "label": "struct Checkpoints.History",
        "members": [
          {
            "astId": 9887,
            "contract": "contracts/GoldenSchemaGovernor.sol:GoldenSchemaGovernor",
            "label": "_checkpoints",
            "offset": 0,
            "slot": "0",
            "type": "t_array(t_struct(Checkpoint)9883_storage)dyn_storage"
          }
        ],
        "numberOfBytes": "32"
      },
      "t_struct(ProposalCore)7256_storage": {
        "encoding": "inplace",
        "label": "struct Governor.ProposalCore",
        "members": [
          {
            "astId": 7248,
            "contract": "contracts/GoldenSchemaGovernor.sol:GoldenSchemaGovernor",
            "label": "voteStart",
            "offset": 0,
            "slot": "0",
            "type": "t_struct(BlockNumber)10540_storage"
          },
          {
            "astId": 7251,
            "contract": "contracts/GoldenSchemaGovernor.sol:GoldenSchemaGovernor",
            "label": "voteEnd",
            "offset": 0,
            "slot": "1",
            "type": "t_struct(BlockNumber)10540_storage"
          },
          {
            "astId": 7253,
            "contract": "contracts/GoldenSchemaGovernor.sol:GoldenSchemaGovernor",
            "label": "executed",
            "offset": 0,
            "slot": "2",
            "type": "t_bool"
          },
          {
            "astId": 7255,
            "contract": "contracts/GoldenSchemaGovernor.sol:GoldenSchemaGovernor",
            "label": "canceled",
            "offset": 1,
            "slot": "2",
            "type": "t_bool"
          }
        ],
        "numberOfBytes": "96"
      },
      "t_struct(ProposalVote)8813_storage": {
        "encoding": "inplace",
        "label": "struct GovernorCountingSimple.ProposalVote",
        "members": [
          {
            "astId": 8804,
            "contract": "contracts/GoldenSchemaGovernor.sol:GoldenSchemaGovernor",
            "label": "againstVotes",
            "offset": 0,
            "slot": "0",
            "type": "t_uint256"
          },
          {
            "astId": 8806,
            "contract": "contracts/GoldenSchemaGovernor.sol:GoldenSchemaGovernor",
            "label": "forVotes",
            "offset": 0,
            "slot": "1",
            "type": "t_uint256"
          },
          {
            "astId": 8808,
            "contract": "contracts/GoldenSchemaGovernor.sol:GoldenSchemaGovernor",
            "label": "abstainVotes",
            "offset": 0,
            "slot": "2",
            "type": "t_uint256"
          },
          {
            "astId": 8812,
            "contract": "contracts/GoldenSchemaGovernor.sol:GoldenSchemaGovernor",
            "label": "hasVoted",
            "offset": 0,
            "slot": "3",
            "type": "t_mapping(t_address,t_bool)"
          }
        ],
        "numberOfBytes": "128"
      },
      "t_uint224": {
        "encoding": "inplace",
        "label": "uint224",
        "numberOfBytes": "28"
      },
      "t_uint256": {
        "encoding": "inplace",
        "label": "uint256",
        "numberOfBytes": "32"
      },
      "t_uint32": {
        "encoding": "inplace",
        "label": "uint32",
        "numberOfBytes": "4"
      },
      "t_uint64": {
        "encoding": "inplace",
        "label": "uint64",
        "numberOfBytes": "8"
      }
    }
  }
}