{"address":"0x3055E25D8a39737B79452b39Cd47EDa29E95B90f","bytecode":"0x60a060405234801561001057600080fd5b50604051610c71380380610c7183398101604081905261002f916100a3565b818161003a33610053565b6001600160a01b03909116608052600155506100dd9050565b600080546001600160a01b038381166001600160a01b0319831681178455604051919092169283917f8be0079c531659141344cd1fd0a4f28419497f9722a3daafe3b4186f6b6457e09190a35050565b600080604083850312156100b657600080fd5b82516001600160a01b03811681146100cd57600080fd5b6020939093015192949293505050565b608051610b6461010d6000396000818161014c01528181610254015281816102ec01526103800152610b646000f3fe608060405234801561001057600080fd5b50600436106100935760003560e01c8063715018a611610066578063715018a6146100e45780638da5cb5b146100ec5780639e34070f14610111578063f2fde38b14610134578063fc0c546a1461014757600080fd5b80632e7ba6ef146100985780632eb4a7ab146100ad5780633ccfd60b146100c95780634783f0ef146100d1575b600080fd5b6100ab6100a636600461093a565b61016e565b005b6100b660015481565b6040519081526020015b60405180910390f35b6100ab6102cc565b6100ab6100df3660046109d1565b6103e0565b6100ab6103ec565b6000546001600160a01b03165b6040516001600160a01b0390911681526020016100c0565b61012461011f3660046109d1565b610400565b60405190151581526020016100c0565b6100ab6101423660046109ea565b610441565b6100f97f000000000000000000000000000000000000000000000000000000000000000081565b61017785610400565b1561019557604051630c8d9eab60e31b815260040160405180910390fd5b60408051602081018790526bffffffffffffffffffffffff19606087901b1691810191909152605481018490526000906074016040516020818303038152906040528051906020012090506102218383808060200260200160405190810160405280939291908181526020018383602002808284376000920191909152505060015491508490506104bc565b61023e576040516309bde33960e01b815260040160405180910390fd5b610247866104d4565b61027b6001600160a01b037f0000000000000000000000000000000000000000000000000000000000000000168686610512565b604080518781526001600160a01b03871660208201529081018590527f4ec90e965519d92681267467f775ada5bd214aa92c0dc93d90a5e880ce9ed0269060600160405180910390a1505050505050565b6102d4610569565b6040516370a0823160e01b81523060048201526000907f00000000000000000000000000000000000000000000000000000000000000006001600160a01b0316906370a0823190602401602060405180830381865afa15801561033b573d6000803e3d6000fd5b505050506040513d601f19601f8201168201806040525081019061035f9190610a05565b90506103a76103766000546001600160a01b031690565b6001600160a01b037f0000000000000000000000000000000000000000000000000000000000000000169083610512565b60405181815233907f7084f5476618d8e60b11ef0d7d3f06914655adb8793e28ff7f018d4c76d505d5906020015b60405180910390a250565b6103e9816105c3565b50565b6103f4610569565b6103fe6000610602565b565b60008061040f61010084610a34565b9050600061041f61010085610a48565b60009283526002602052604090922054600190921b9182169091149392505050565b610449610569565b6001600160a01b0381166104b35760405162461bcd60e51b815260206004820152602660248201527f4f776e61626c653a206e6577206f776e657220697320746865207a65726f206160448201526564647265737360d01b60648201526084015b60405180910390fd5b6103e981610602565b6000826104c98584610652565b1490505b9392505050565b60006104e261010083610a34565b905060006104f261010084610a48565b6000928352600260205260409092208054600190931b9092179091555050565b604080516001600160a01b038416602482015260448082018490528251808303909101815260649091019091526020810180516001600160e01b031663a9059cbb60e01b17905261056490849061069f565b505050565b6000546001600160a01b031633146103fe5760405162461bcd60e51b815260206004820181905260248201527f4f776e61626c653a2063616c6c6572206973206e6f7420746865206f776e657260448201526064016104aa565b6105cb610569565b600181905560405133815281907f2d3b238aa223af835b06f5ddeb56c45951f7cf4a29ab728434765ef33cb7598f906020016103d5565b600080546001600160a01b038381166001600160a01b0319831681178455604051919092169283917f8be0079c531659141344cd1fd0a4f28419497f9722a3daafe3b4186f6b6457e09190a35050565b600081815b8451811015610697576106838286838151811061067657610676610a5c565b6020026020010151610771565b91508061068f81610a72565b915050610657565b509392505050565b60006106f4826040518060400160405280602081526020017f5361666545524332303a206c6f772d6c6576656c2063616c6c206661696c6564815250856001600160a01b031661079d9092919063ffffffff16565b80519091501561056457808060200190518101906107129190610a99565b6105645760405162461bcd60e51b815260206004820152602a60248201527f5361666545524332303a204552433230206f7065726174696f6e20646964206e6044820152691bdd081cdd58d8d9595960b21b60648201526084016104aa565b600081831061078d5760008281526020849052604090206104cd565b5060009182526020526040902090565b60606107ac84846000856107b4565b949350505050565b6060824710156108155760405162461bcd60e51b815260206004820152602660248201527f416464726573733a20696e73756666696369656e742062616c616e636520666f6044820152651c8818d85b1b60d21b60648201526084016104aa565b6001600160a01b0385163b61086c5760405162461bcd60e51b815260206004820152601d60248201527f416464726573733a2063616c6c20746f206e6f6e2d636f6e747261637400000060448201526064016104aa565b600080866001600160a01b031685876040516108889190610adf565b60006040518083038185875af1925050503d80600081146108c5576040519150601f19603f3d011682016040523d82523d6000602084013e6108ca565b606091505b50915091506108da8282866108e5565b979650505050505050565b606083156108f45750816104cd565b8251156109045782518084602001fd5b8160405162461bcd60e51b81526004016104aa9190610afb565b80356001600160a01b038116811461093557600080fd5b919050565b60008060008060006080868803121561095257600080fd5b853594506109626020870161091e565b935060408601359250606086013567ffffffffffffffff8082111561098657600080fd5b818801915088601f83011261099a57600080fd5b8135818111156109a957600080fd5b8960208260051b85010111156109be57600080fd5b9699959850939650602001949392505050565b6000602082840312156109e357600080fd5b5035919050565b6000602082840312156109fc57600080fd5b6104cd8261091e565b600060208284031215610a1757600080fd5b5051919050565b634e487b7160e01b600052601260045260246000fd5b600082610a4357610a43610a1e565b500490565b600082610a5757610a57610a1e565b500690565b634e487b7160e01b600052603260045260246000fd5b600060018201610a9257634e487b7160e01b600052601160045260246000fd5b5060010190565b600060208284031215610aab57600080fd5b815180151581146104cd57600080fd5b60005b83811015610ad6578181015183820152602001610abe565b50506000910152565b60008251610af1818460208701610abb565b9190910192915050565b6020815260008251806020840152610b1a816040850160208701610abb565b601f01601f1916919091016040019291505056fea2646970667358221220b8159124b2c8508d012954c2861cdcb46fea87fec367e2d99f4baa358d4ec26564736f6c63430008100033","abi":[{"inputs":[{"internalType":"address","name":"token_","type":"address"},{"internalType":"bytes32","name":"merkleRoot_","type":"bytes32"}],"stateMutability":"nonpayable","type":"constructor"},{"inputs":[],"name":"AlreadyClaimed","type":"error"},{"inputs":[],"name":"InvalidProof","type":"error"},{"anonymous":false,"inputs":[{"indexed":false,"internalType":"uint256","name":"index","type":"uint256"},{"indexed":false,"internalType":"address","name":"account","type":"address"},{"indexed":false,"internalType":"uint256","name":"amount","type":"uint256"}],"name":"Claimed","type":"event"},{"anonymous":false,"inputs":[{"indexed":false,"internalType":"address","name":"owner","type":"address"},{"indexed":true,"internalType":"bytes32","name":"merkleRoot","type":"bytes32"}],"name":"MerkleRootUpdated","type":"event"},{"anonymous":false,"inputs":[{"indexed":true,"internalType":"address","name":"previousOwner","type":"address"},{"indexed":true,"internalType":"address","name":"newOwner","type":"address"}],"name":"OwnershipTransferred","type":"event"},{"anonymous":false,"inputs":[{"indexed":true,"internalType":"address","name":"withdrawnBy","type":"address"},{"indexed":false,"internalType":"uint256","name":"amount","type":"uint256"}],"name":"Withdrawn","type":"event"},{"inputs":[{"internalType":"uint256","name":"index","type":"uint256"},{"internalType":"address","name":"account","type":"address"},{"internalType":"uint256","name":"amount","type":"uint256"},{"internalType":"bytes32[]","name":"merkleProof","type":"bytes32[]"}],"name":"claim","outputs":[],"stateMutability":"nonpayable","type":"function"},{"inputs":[{"internalType":"uint256","name":"index","type":"uint256"}],"name":"isClaimed","outputs":[{"internalType":"bool","name":"","type":"bool"}],"stateMutability":"view","type":"function"},{"inputs":[],"name":"merkleRoot","outputs":[{"internalType":"bytes32","name":"","type":"bytes32"}],"stateMutability":"view","type":"function"},{"inputs":[],"name":"owner","outputs":[{"internalType":"address","name":"","type":"address"}],"stateMutability":"view","type":"function"},{"inputs":[],"name":"renounceOwnership","outputs":[],"stateMutability":"nonpayable","type":"function"},{"inputs":[],"name":"token","outputs":[{"internalType":"address","name":"","type":"address"}],"stateMutability":"view","type":"function"},{"inputs":[{"internalType":"address","name":"newOwner","type":"address"}],"name":"transferOwnership","outputs":[],"stateMutability":"nonpayable","type":"function"},{"inputs":[{"internalType":"bytes32","name":"merkleRoot_","type":"bytes32"}],"name":"updateMerkleRoot","outputs":[],"stateMutability":"nonpayable","type":"function"},{"inputs":[],"name":"withdraw","outputs":[],"stateMutability":"nonpayable","type":"function"}]}