{
  "address": "0xC21639Afe0CEbC325724cfBc6b3B51706996A756",
  "abi": [
    {
      "anonymous": false,
      "inputs": [
        {
          "indexed": false,
          "internalType": "uint8",
          "name": "version",
          "type": "uint8"
        }
      ],
      "name": "Initialized",
      "type": "event"
    },
    {
      "anonymous": false,
      "inputs": [
        {
          "indexed": false,
          "internalType": "uint256",
          "name": "minimumStaking",
          "type": "uint256"
        }
      ],
      "name": "MinimumStakingChanged",
      "type": "event"
    },
    {
      "anonymous": false,
      "inputs": [
        {
          "indexed": true,
          "internalType": "address",
          "name": "previousOwner",
          "type": "address"
        },
        {
          "indexed": true,
          "internalType": "address",
          "name": "newOwner",
          "type": "address"
        }
      ],
      "name": "OwnershipTransferred",
      "type": "event"
    },
    {
      "anonymous": false,
      "inputs": [
        {
          "indexed": true,
          "internalType": "address",
          "name": "account",
          "type": "address"
        },
        {
          "indexed": false,
          "internalType": "uint256",
          "name": "amount",
          "type": "uint256"
        },
        {
          "indexed": false,
          "internalType": "uint256",
          "name": "lockedUntil",
          "type": "uint256"
        }
      ],
      "name": "Received",
      "type": "event"
    },
    {
      "anonymous": false,
      "inputs": [
        {
          "indexed": false,
          "internalType": "uint256",
          "name": "stakingPeriod",
          "type": "uint256"
        }
      ],
      "name": "StakingPeriodChanged",
      "type": "event"
    },
    {
      "anonymous": false,
      "inputs": [
        {
          "indexed": false,
          "internalType": "address",
          "name": "tokenAddress",
          "type": "address"
        },
        {
          "indexed": false,
          "internalType": "uint256",
          "name": "amount",
          "type": "uint256"
        }
      ],
      "name": "TokensRecovered",
      "type": "event"
    },
    {
      "anonymous": false,
      "inputs": [
        {
          "indexed": true,
          "internalType": "address",
          "name": "account",
          "type": "address"
        },
        {
          "indexed": false,
          "internalType": "uint256",
          "name": "amount",
          "type": "uint256"
        }
      ],
      "name": "Withdrawn",
      "type": "event"
    },
    {
      "inputs": [
        {
          "internalType": "address",
          "name": "",
          "type": "address"
        }
      ],
      "name": "balances",
      "outputs": [
        {
          "internalType": "uint256",
          "name": "",
          "type": "uint256"
        }
      ],
      "stateMutability": "view",
      "type": "function"
    },
    {
      "inputs": [
        {
          "internalType": "uint256",
          "name": "minimumStaking_",
          "type": "uint256"
        },
        {
          "internalType": "uint256",
          "name": "stakingPeriod_",
          "type": "uint256"
        }
      ],
      "name": "initialize",
      "outputs": [],
      "stateMutability": "nonpayable",
      "type": "function"
    },
    {
      "inputs": [
        {
          "internalType": "address",
          "name": "",
          "type": "address"
        }
      ],
      "name": "lockedUntilBlock",
      "outputs": [
        {
          "internalType": "uint256",
          "name": "",
          "type": "uint256"
        }
      ],
      "stateMutability": "view",
      "type": "function"
    },
    {
      "inputs": [],
      "name": "minimumStaking",
      "outputs": [
        {
          "internalType": "uint256",
          "name": "",
          "type": "uint256"
        }
      ],
      "stateMutability": "view",
      "type": "function"
    },
    {
      "inputs": [],
      "name": "owner",
      "outputs": [
        {
          "internalType": "address",
          "name": "",
          "type": "address"
        }
      ],
      "stateMutability": "view",
      "type": "function"
    },
    {
      "inputs": [
        {
          "internalType": "address",
          "name": "tokenAddress",
          "type": "address"
        }
      ],
      "name": "recoverERC20",
      "outputs": [],
      "stateMutability": "nonpayable",
      "type": "function"
    },
    {
      "inputs": [],
      "name": "renounceOwnership",
      "outputs": [],
      "stateMutability": "nonpayable",
      "type": "function"
    },
    {
      "inputs": [
        {
          "internalType": "uint256",
          "name": "minimumStaking_",
          "type": "uint256"
        }
      ],
      "name": "setMinimumStaking",
      "outputs": [],
      "stateMutability": "nonpayable",
      "type": "function"
    },
    {
      "inputs": [
        {
          "internalType": "uint256",
          "name": "stakingPeriod_",
          "type": "uint256"
        }
      ],
      "name": "setStakingPeriod",
      "outputs": [],
      "stateMutability": "nonpayable",
      "type": "function"
    },
    {
      "inputs": [],
      "name": "stakingPeriod",
      "outputs": [
        {
          "internalType": "uint256",
          "name": "",
          "type": "uint256"
        }
      ],
      "stateMutability": "view",
      "type": "function"
    },
    {
      "inputs": [
        {
          "internalType": "address",
          "name": "newOwner",
          "type": "address"
        }
      ],
      "name": "transferOwnership",
      "outputs": [],
      "stateMutability": "nonpayable",
      "type": "function"
    },
    {
      "inputs": [],
      "name": "withdraw",
      "outputs": [],
      "stateMutability": "nonpayable",
      "type": "function"
    },
    {
      "stateMutability": "payable",
      "type": "receive"
    }
  ],
  "transactionHash": "0xc9dc6e3dd6f261711374b6cfbe553b271ae81d65c04ecda818201c444497296f",
  "args": [],
  "numDeployments": 1,
  "solcInputHash": "addb41f964008101f2fb522d68890caf",
  "bytecode": "0x608060405234801561001057600080fd5b50610c78806100206000396000f3fe6080604052600436106100ab5760003560e01c8063957d778011610064578063957d7780146102825780639e8c708e146102a2578063c03d5b47146102c2578063d479ed71146102d8578063e4a30116146102ee578063f2fde38b1461030e57600080fd5b806327e235e3146101a15780633ccfd60b146101e157806351229f16146101f8578063583daf6e14610225578063715018a6146102455780638da5cb5b1461025a57600080fd5b3661019c57606754339034908110156101035760405162461bcd60e51b815260206004820152601560248201527426b4b71029ba30b5b4b733903b34b7b630ba34b7b760591b60448201526064015b60405180910390fd5b6001600160a01b0382166000908152606560205260408120805483929061012b908490610a98565b90915550506068546000906101409043610a98565b6001600160a01b038416600081815260666020908152604091829020849055815186815290810184905292935090917f74cf3d18d0ddca79038197ad0dd2c7fa5005ef61a5d1ed190e8a8a437e2fcf10910160405180910390a2005b600080fd5b3480156101ad57600080fd5b506101ce6101bc366004610abf565b60656020526000908152604090205481565b6040519081526020015b60405180910390f35b3480156101ed57600080fd5b506101f661032e565b005b34801561020457600080fd5b506101ce610213366004610abf565b60666020526000908152604090205481565b34801561023157600080fd5b506101f6610240366004610aef565b610526565b34801561025157600080fd5b506101f661056a565b34801561026657600080fd5b506033546040516001600160a01b0390911681526020016101d8565b34801561028e57600080fd5b506101f661029d366004610aef565b61057e565b3480156102ae57600080fd5b506101f66102bd366004610abf565b6105bb565b3480156102ce57600080fd5b506101ce60685481565b3480156102e457600080fd5b506101ce60675481565b3480156102fa57600080fd5b506101f6610309366004610b08565b61074c565b34801561031a57600080fd5b506101f6610329366004610abf565b610865565b3360008181526065602090815260409182902054825180840190935260078352661858d8dbdd5b9d60ca1b918301919091529061036b90836108de565b61039360405180604001604052806006815260200165185b5bdd5b9d60d21b81525082610927565b600081116103d05760405162461bcd60e51b815260206004820152600a602482015269139bdd0814dd185ad95960b21b60448201526064016100fa565b6001600160a01b03821660009081526066602052604090205443116104375760405162461bcd60e51b815260206004820152601960248201527f4c6f636b2074696d6520686173206e6f7420657870697265640000000000000060448201526064016100fa565b6001600160a01b0382166000818152606560205260408082208290555190919083908381818185875af1925050503d8060008114610491576040519150601f19603f3d011682016040523d82523d6000602084013e610496565b606091505b50509050806104de5760405162461bcd60e51b81526020600482015260146024820152732330b4b632b2103a379039b2b7321032ba3432b960611b60448201526064016100fa565b826001600160a01b03167f7084f5476618d8e60b11ef0d7d3f06914655adb8793e28ff7f018d4c76d505d58360405161051991815260200190565b60405180910390a2505050565b61052e61096c565b60678190556040518181527f5760a1f06604eac3c83c17c630047ffd012e8ba1c01634f0978ad54cf6dcd7b1906020015b60405180910390a150565b61057261096c565b61057c60006109c6565b565b61058661096c565b60688190556040518181527f0637078273a6ae66b3e557bfdec66084fbec260f11eb57e920f7007c241be9479060200161055f565b6105c361096c565b6040516370a0823160e01b815230600482015281906000906001600160a01b038316906370a0823190602401602060405180830381865afa15801561060c573d6000803e3d6000fd5b505050506040513d601f19601f820116820180604052508101906106309190610b2a565b9050816001600160a01b031663a9059cbb6106536033546001600160a01b031690565b6040516001600160e01b031960e084901b1681526001600160a01b039091166004820152602481018490526044016020604051808303816000875af11580156106a0573d6000803e3d6000fd5b505050506040513d601f19601f820116820180604052508101906106c49190610b43565b6107045760405162461bcd60e51b81526020600482015260116024820152702330b4b632b2103a37903932b1b7bb32b960791b60448201526064016100fa565b604080516001600160a01b0385168152602081018390527f46d2e6e71fc567877b817ff3d940571f989d4ee4d40f2b70806d36e738feef6f91015b60405180910390a1505050565b600054610100900460ff161580801561076c5750600054600160ff909116105b806107865750303b158015610786575060005460ff166001145b6107e95760405162461bcd60e51b815260206004820152602e60248201527f496e697469616c697a61626c653a20636f6e747261637420697320616c72656160448201526d191e481a5b9a5d1a585b1a5e995960921b60648201526084016100fa565b6000805460ff19166001179055801561080c576000805461ff0019166101001790555b610814610a18565b606783905560688290558015610860576000805461ff0019169055604051600181527f7f26b83ff96e1f2b6a682f133852f6798a09c465da95921460cefb38474024989060200161073f565b505050565b61086d61096c565b6001600160a01b0381166108d25760405162461bcd60e51b815260206004820152602660248201527f4f776e61626c653a206e6577206f776e657220697320746865207a65726f206160448201526564647265737360d01b60648201526084016100fa565b6108db816109c6565b50565b61092382826040516024016108f4929190610bab565b60408051601f198184030181529190526020810180516001600160e01b031663319af33360e01b179052610a47565b5050565b610923828260405160240161093d929190610bd5565b60408051601f198184030181529190526020810180516001600160e01b0316632d839cb360e21b179052610a47565b6033546001600160a01b0316331461057c5760405162461bcd60e51b815260206004820181905260248201527f4f776e61626c653a2063616c6c6572206973206e6f7420746865206f776e657260448201526064016100fa565b603380546001600160a01b038381166001600160a01b0319831681179093556040519116919082907f8be0079c531659141344cd1fd0a4f28419497f9722a3daafe3b4186f6b6457e090600090a35050565b600054610100900460ff16610a3f5760405162461bcd60e51b81526004016100fa90610bf7565b61057c610a68565b80516a636f6e736f6c652e6c6f67602083016000808483855afa5050505050565b600054610100900460ff16610a8f5760405162461bcd60e51b81526004016100fa90610bf7565b61057c336109c6565b80820180821115610ab957634e487b7160e01b600052601160045260246000fd5b92915050565b600060208284031215610ad157600080fd5b81356001600160a01b0381168114610ae857600080fd5b9392505050565b600060208284031215610b0157600080fd5b5035919050565b60008060408385031215610b1b57600080fd5b50508035926020909101359150565b600060208284031215610b3c57600080fd5b5051919050565b600060208284031215610b5557600080fd5b81518015158114610ae857600080fd5b6000815180845260005b81811015610b8b57602081850181015186830182015201610b6f565b506000602082860101526020601f19601f83011685010191505092915050565b604081526000610bbe6040830185610b65565b905060018060a01b03831660208301529392505050565b604081526000610be86040830185610b65565b90508260208301529392505050565b6020808252602b908201527f496e697469616c697a61626c653a20636f6e7472616374206973206e6f74206960408201526a6e697469616c697a696e6760a81b60608201526080019056fea26469706673582212208ec30366a92b103dbb01b67e0bf3341846b35e501d0ca37acef3b1babb8b5a2f64736f6c63430008100033",
  "devdoc": {
    "kind": "dev",
    "methods": {
      "owner()": {
        "details": "Returns the address of the current owner."
      },
      "renounceOwnership()": {
        "details": "Leaves the contract without owner. It will not be possible to call `onlyOwner` functions anymore. Can only be called by the current owner. NOTE: Renouncing ownership will leave the contract without an owner, thereby removing any functionality that is only available to the owner."
      },
      "transferOwnership(address)": {
        "details": "Transfers ownership of the contract to a new account (`newOwner`). Can only be called by the current owner."
      }
    },
    "version": 1
  },
  "userdoc": {
    "kind": "user",
    "methods": {
      "recoverERC20(address)": {
        "notice": "If anyone accidentally sends tokens to this contract, this function can be used to recover the funds and then send them to the claiming user."
      }
    },
    "version": 1
  },
  "storageLayout": {
    "storage": [
      {
        "astId": 629,
        "contract": "contracts/staking/EthStaking.sol:EthStaking",
        "label": "_initialized",
        "offset": 0,
        "slot": "0",
        "type": "t_uint8"
      },
      {
        "astId": 632,
        "contract": "contracts/staking/EthStaking.sol:EthStaking",
        "label": "_initializing",
        "offset": 1,
        "slot": "0",
        "type": "t_bool"
      },
      {
        "astId": 3772,
        "contract": "contracts/staking/EthStaking.sol:EthStaking",
        "label": "__gap",
        "offset": 0,
        "slot": "1",
        "type": "t_array(t_uint256)50_storage"
      },
      {
        "astId": 423,
        "contract": "contracts/staking/EthStaking.sol:EthStaking",
        "label": "_owner",
        "offset": 0,
        "slot": "51",
        "type": "t_address"
      },
      {
        "astId": 543,
        "contract": "contracts/staking/EthStaking.sol:EthStaking",
        "label": "__gap",
        "offset": 0,
        "slot": "52",
        "type": "t_array(t_uint256)49_storage"
      },
      {
        "astId": 17347,
        "contract": "contracts/staking/EthStaking.sol:EthStaking",
        "label": "balances",
        "offset": 0,
        "slot": "101",
        "type": "t_mapping(t_address,t_uint256)"
      },
      {
        "astId": 17351,
        "contract": "contracts/staking/EthStaking.sol:EthStaking",
        "label": "lockedUntilBlock",
        "offset": 0,
        "slot": "102",
        "type": "t_mapping(t_address,t_uint256)"
      },
      {
        "astId": 17353,
        "contract": "contracts/staking/EthStaking.sol:EthStaking",
        "label": "minimumStaking",
        "offset": 0,
        "slot": "103",
        "type": "t_uint256"
      },
      {
        "astId": 17355,
        "contract": "contracts/staking/EthStaking.sol:EthStaking",
        "label": "stakingPeriod",
        "offset": 0,
        "slot": "104",
        "type": "t_uint256"
      }
    ],
    "types": {
      "t_address": {
        "encoding": "inplace",
        "label": "address",
        "numberOfBytes": "20"
      },
      "t_array(t_uint256)49_storage": {
        "base": "t_uint256",
        "encoding": "inplace",
        "label": "uint256[49]",
        "numberOfBytes": "1568"
      },
      "t_array(t_uint256)50_storage": {
        "base": "t_uint256",
        "encoding": "inplace",
        "label": "uint256[50]",
        "numberOfBytes": "1600"
      },
      "t_bool": {
        "encoding": "inplace",
        "label": "bool",
        "numberOfBytes": "1"
      },
      "t_mapping(t_address,t_uint256)": {
        "encoding": "mapping",
        "key": "t_address",
        "label": "mapping(address => uint256)",
        "numberOfBytes": "32",
        "value": "t_uint256"
      },
      "t_uint256": {
        "encoding": "inplace",
        "label": "uint256",
        "numberOfBytes": "32"
      },
      "t_uint8": {
        "encoding": "inplace",
        "label": "uint8",
        "numberOfBytes": "1"
      }
    }
  }
}