{
  "address": "0x71a18B21F6A8AB6be146000C83c517b6B93444FF",
  "abi": [
    {
      "inputs": [
        {
          "internalType": "contract IVotes",
          "name": "_tokenAddress",
          "type": "address"
        }
      ],
      "stateMutability": "nonpayable",
      "type": "constructor"
    },
    {
      "inputs": [],
      "name": "Empty",
      "type": "error"
    },
    {
      "anonymous": false,
      "inputs": [
        {
          "indexed": false,
          "internalType": "uint256",
          "name": "proposalId",
          "type": "uint256"
        }
      ],
      "name": "ProposalCanceled",
      "type": "event"
    },
    {
      "anonymous": false,
      "inputs": [
        {
          "indexed": false,
          "internalType": "uint256",
          "name": "proposalId",
          "type": "uint256"
        },
        {
          "indexed": false,
          "internalType": "address",
          "name": "proposer",
          "type": "address"
        },
        {
          "indexed": false,
          "internalType": "address[]",
          "name": "targets",
          "type": "address[]"
        },
        {
          "indexed": false,
          "internalType": "uint256[]",
          "name": "values",
          "type": "uint256[]"
        },
        {
          "indexed": false,
          "internalType": "string[]",
          "name": "signatures",
          "type": "string[]"
        },
        {
          "indexed": false,
          "internalType": "bytes[]",
          "name": "calldatas",
          "type": "bytes[]"
        },
        {
          "indexed": false,
          "internalType": "uint256",
          "name": "startBlock",
          "type": "uint256"
        },
        {
          "indexed": false,
          "internalType": "uint256",
          "name": "endBlock",
          "type": "uint256"
        },
        {
          "indexed": false,
          "internalType": "string",
          "name": "description",
          "type": "string"
        }
      ],
      "name": "ProposalCreated",
      "type": "event"
    },
    {
      "anonymous": false,
      "inputs": [
        {
          "indexed": false,
          "internalType": "uint256",
          "name": "proposalId",
          "type": "uint256"
        }
      ],
      "name": "ProposalExecuted",
      "type": "event"
    },
    {
      "anonymous": false,
      "inputs": [
        {
          "indexed": false,
          "internalType": "uint256",
          "name": "oldProposalThreshold",
          "type": "uint256"
        },
        {
          "indexed": false,
          "internalType": "uint256",
          "name": "newProposalThreshold",
          "type": "uint256"
        }
      ],
      "name": "ProposalThresholdSet",
      "type": "event"
    },
    {
      "anonymous": false,
      "inputs": [
        {
          "indexed": false,
          "internalType": "uint256",
          "name": "oldQuorumNumerator",
          "type": "uint256"
        },
        {
          "indexed": false,
          "internalType": "uint256",
          "name": "newQuorumNumerator",
          "type": "uint256"
        }
      ],
      "name": "QuorumNumeratorUpdated",
      "type": "event"
    },
    {
      "anonymous": false,
      "inputs": [
        {
          "indexed": true,
          "internalType": "address",
          "name": "voter",
          "type": "address"
        },
        {
          "indexed": false,
          "internalType": "uint256",
          "name": "proposalId",
          "type": "uint256"
        },
        {
          "indexed": false,
          "internalType": "uint8",
          "name": "support",
          "type": "uint8"
        },
        {
          "indexed": false,
          "internalType": "uint256",
          "name": "weight",
          "type": "uint256"
        },
        {
          "indexed": false,
          "internalType": "string",
          "name": "reason",
          "type": "string"
        }
      ],
      "name": "VoteCast",
      "type": "event"
    },
    {
      "anonymous": false,
      "inputs": [
        {
          "indexed": true,
          "internalType": "address",
          "name": "voter",
          "type": "address"
        },
        {
          "indexed": false,
          "internalType": "uint256",
          "name": "proposalId",
          "type": "uint256"
        },
        {
          "indexed": false,
          "internalType": "uint8",
          "name": "support",
          "type": "uint8"
        },
        {
          "indexed": false,
          "internalType": "uint256",
          "name": "weight",
          "type": "uint256"
        },
        {
          "indexed": false,
          "internalType": "string",
          "name": "reason",
          "type": "string"
        },
        {
          "indexed": false,
          "internalType": "bytes",
          "name": "params",
          "type": "bytes"
        }
      ],
      "name": "VoteCastWithParams",
      "type": "event"
    },
    {
      "anonymous": false,
      "inputs": [
        {
          "indexed": false,
          "internalType": "uint256",
          "name": "oldVotingDelay",
          "type": "uint256"
        },
        {
          "indexed": false,
          "internalType": "uint256",
          "name": "newVotingDelay",
          "type": "uint256"
        }
      ],
      "name": "VotingDelaySet",
      "type": "event"
    },
    {
      "anonymous": false,
      "inputs": [
        {
          "indexed": false,
          "internalType": "uint256",
          "name": "oldVotingPeriod",
          "type": "uint256"
        },
        {
          "indexed": false,
          "internalType": "uint256",
          "name": "newVotingPeriod",
          "type": "uint256"
        }
      ],
      "name": "VotingPeriodSet",
      "type": "event"
    },
    {
      "inputs": [],
      "name": "BALLOT_TYPEHASH",
      "outputs": [
        {
          "internalType": "bytes32",
          "name": "",
          "type": "bytes32"
        }
      ],
      "stateMutability": "view",
      "type": "function"
    },
    {
      "inputs": [],
      "name": "COUNTING_MODE",
      "outputs": [
        {
          "internalType": "string",
          "name": "",
          "type": "string"
        }
      ],
      "stateMutability": "pure",
      "type": "function"
    },
    {
      "inputs": [],
      "name": "EXTENDED_BALLOT_TYPEHASH",
      "outputs": [
        {
          "internalType": "bytes32",
          "name": "",
          "type": "bytes32"
        }
      ],
      "stateMutability": "view",
      "type": "function"
    },
    {
      "inputs": [
        {
          "internalType": "uint256",
          "name": "proposalId",
          "type": "uint256"
        },
        {
          "internalType": "uint8",
          "name": "support",
          "type": "uint8"
        }
      ],
      "name": "castVote",
      "outputs": [
        {
          "internalType": "uint256",
          "name": "",
          "type": "uint256"
        }
      ],
      "stateMutability": "nonpayable",
      "type": "function"
    },
    {
      "inputs": [
        {
          "internalType": "uint256",
          "name": "proposalId",
          "type": "uint256"
        },
        {
          "internalType": "uint8",
          "name": "support",
          "type": "uint8"
        },
        {
          "internalType": "uint8",
          "name": "v",
          "type": "uint8"
        },
        {
          "internalType": "bytes32",
          "name": "r",
          "type": "bytes32"
        },
        {
          "internalType": "bytes32",
          "name": "s",
          "type": "bytes32"
        }
      ],
      "name": "castVoteBySig",
      "outputs": [
        {
          "internalType": "uint256",
          "name": "",
          "type": "uint256"
        }
      ],
      "stateMutability": "nonpayable",
      "type": "function"
    },
    {
      "inputs": [
        {
          "internalType": "uint256",
          "name": "proposalId",
          "type": "uint256"
        },
        {
          "internalType": "uint8",
          "name": "support",
          "type": "uint8"
        },
        {
          "internalType": "string",
          "name": "reason",
          "type": "string"
        }
      ],
      "name": "castVoteWithReason",
      "outputs": [
        {
          "internalType": "uint256",
          "name": "",
          "type": "uint256"
        }
      ],
      "stateMutability": "nonpayable",
      "type": "function"
    },
    {
      "inputs": [
        {
          "internalType": "uint256",
          "name": "proposalId",
          "type": "uint256"
        },
        {
          "internalType": "uint8",
          "name": "support",
          "type": "uint8"
        },
        {
          "internalType": "string",
          "name": "reason",
          "type": "string"
        },
        {
          "internalType": "bytes",
          "name": "params",
          "type": "bytes"
        }
      ],
      "name": "castVoteWithReasonAndParams",
      "outputs": [
        {
          "internalType": "uint256",
          "name": "",
          "type": "uint256"
        }
      ],
      "stateMutability": "nonpayable",
      "type": "function"
    },
    {
      "inputs": [
        {
          "internalType": "uint256",
          "name": "proposalId",
          "type": "uint256"
        },
        {
          "internalType": "uint8",
          "name": "support",
          "type": "uint8"
        },
        {
          "internalType": "string",
          "name": "reason",
          "type": "string"
        },
        {
          "internalType": "bytes",
          "name": "params",
          "type": "bytes"
        },
        {
          "internalType": "uint8",
          "name": "v",
          "type": "uint8"
        },
        {
          "internalType": "bytes32",
          "name": "r",
          "type": "bytes32"
        },
        {
          "internalType": "bytes32",
          "name": "s",
          "type": "bytes32"
        }
      ],
      "name": "castVoteWithReasonAndParamsBySig",
      "outputs": [
        {
          "internalType": "uint256",
          "name": "",
          "type": "uint256"
        }
      ],
      "stateMutability": "nonpayable",
      "type": "function"
    },
    {
      "inputs": [
        {
          "internalType": "address[]",
          "name": "targets",
          "type": "address[]"
        },
        {
          "internalType": "uint256[]",
          "name": "values",
          "type": "uint256[]"
        },
        {
          "internalType": "bytes[]",
          "name": "calldatas",
          "type": "bytes[]"
        },
        {
          "internalType": "bytes32",
          "name": "descriptionHash",
          "type": "bytes32"
        }
      ],
      "name": "execute",
      "outputs": [
        {
          "internalType": "uint256",
          "name": "",
          "type": "uint256"
        }
      ],
      "stateMutability": "payable",
      "type": "function"
    },
    {
      "inputs": [
        {
          "internalType": "address",
          "name": "account",
          "type": "address"
        },
        {
          "internalType": "uint256",
          "name": "blockNumber",
          "type": "uint256"
        }
      ],
      "name": "getVotes",
      "outputs": [
        {
          "internalType": "uint256",
          "name": "",
          "type": "uint256"
        }
      ],
      "stateMutability": "view",
      "type": "function"
    },
    {
      "inputs": [
        {
          "internalType": "address",
          "name": "account",
          "type": "address"
        },
        {
          "internalType": "uint256",
          "name": "blockNumber",
          "type": "uint256"
        },
        {
          "internalType": "bytes",
          "name": "params",
          "type": "bytes"
        }
      ],
      "name": "getVotesWithParams",
      "outputs": [
        {
          "internalType": "uint256",
          "name": "",
          "type": "uint256"
        }
      ],
      "stateMutability": "view",
      "type": "function"
    },
    {
      "inputs": [
        {
          "internalType": "uint256",
          "name": "proposalId",
          "type": "uint256"
        },
        {
          "internalType": "address",
          "name": "account",
          "type": "address"
        }
      ],
      "name": "hasVoted",
      "outputs": [
        {
          "internalType": "bool",
          "name": "",
          "type": "bool"
        }
      ],
      "stateMutability": "view",
      "type": "function"
    },
    {
      "inputs": [
        {
          "internalType": "address[]",
          "name": "targets",
          "type": "address[]"
        },
        {
          "internalType": "uint256[]",
          "name": "values",
          "type": "uint256[]"
        },
        {
          "internalType": "bytes[]",
          "name": "calldatas",
          "type": "bytes[]"
        },
        {
          "internalType": "bytes32",
          "name": "descriptionHash",
          "type": "bytes32"
        }
      ],
      "name": "hashProposal",
      "outputs": [
        {
          "internalType": "uint256",
          "name": "",
          "type": "uint256"
        }
      ],
      "stateMutability": "pure",
      "type": "function"
    },
    {
      "inputs": [],
      "name": "name",
      "outputs": [
        {
          "internalType": "string",
          "name": "",
          "type": "string"
        }
      ],
      "stateMutability": "view",
      "type": "function"
    },
    {
      "inputs": [
        {
          "internalType": "address",
          "name": "",
          "type": "address"
        },
        {
          "internalType": "address",
          "name": "",
          "type": "address"
        },
        {
          "internalType": "uint256[]",
          "name": "",
          "type": "uint256[]"
        },
        {
          "internalType": "uint256[]",
          "name": "",
          "type": "uint256[]"
        },
        {
          "internalType": "bytes",
          "name": "",
          "type": "bytes"
        }
      ],
      "name": "onERC1155BatchReceived",
      "outputs": [
        {
          "internalType": "bytes4",
          "name": "",
          "type": "bytes4"
        }
      ],
      "stateMutability": "nonpayable",
      "type": "function"
    },
    {
      "inputs": [
        {
          "internalType": "address",
          "name": "",
          "type": "address"
        },
        {
          "internalType": "address",
          "name": "",
          "type": "address"
        },
        {
          "internalType": "uint256",
          "name": "",
          "type": "uint256"
        },
        {
          "internalType": "uint256",
          "name": "",
          "type": "uint256"
        },
        {
          "internalType": "bytes",
          "name": "",
          "type": "bytes"
        }
      ],
      "name": "onERC1155Received",
      "outputs": [
        {
          "internalType": "bytes4",
          "name": "",
          "type": "bytes4"
        }
      ],
      "stateMutability": "nonpayable",
      "type": "function"
    },
    {
      "inputs": [
        {
          "internalType": "address",
          "name": "",
          "type": "address"
        },
        {
          "internalType": "address",
          "name": "",
          "type": "address"
        },
        {
          "internalType": "uint256",
          "name": "",
          "type": "uint256"
        },
        {
          "internalType": "bytes",
          "name": "",
          "type": "bytes"
        }
      ],
      "name": "onERC721Received",
      "outputs": [
        {
          "internalType": "bytes4",
          "name": "",
          "type": "bytes4"
        }
      ],
      "stateMutability": "nonpayable",
      "type": "function"
    },
    {
      "inputs": [
        {
          "internalType": "uint256",
          "name": "proposalId",
          "type": "uint256"
        }
      ],
      "name": "proposalDeadline",
      "outputs": [
        {
          "internalType": "uint256",
          "name": "",
          "type": "uint256"
        }
      ],
      "stateMutability": "view",
      "type": "function"
    },
    {
      "inputs": [
        {
          "internalType": "uint256",
          "name": "proposalId",
          "type": "uint256"
        }
      ],
      "name": "proposalSnapshot",
      "outputs": [
        {
          "internalType": "uint256",
          "name": "",
          "type": "uint256"
        }
      ],
      "stateMutability": "view",
      "type": "function"
    },
    {
      "inputs": [],
      "name": "proposalThreshold",
      "outputs": [
        {
          "internalType": "uint256",
          "name": "",
          "type": "uint256"
        }
      ],
      "stateMutability": "view",
      "type": "function"
    },
    {
      "inputs": [
        {
          "internalType": "uint256",
          "name": "proposalId",
          "type": "uint256"
        }
      ],
      "name": "proposalVotes",
      "outputs": [
        {
          "internalType": "uint256",
          "name": "againstVotes",
          "type": "uint256"
        },
        {
          "internalType": "uint256",
          "name": "forVotes",
          "type": "uint256"
        },
        {
          "internalType": "uint256",
          "name": "abstainVotes",
          "type": "uint256"
        }
      ],
      "stateMutability": "view",
      "type": "function"
    },
    {
      "inputs": [
        {
          "internalType": "address[]",
          "name": "targets",
          "type": "address[]"
        },
        {
          "internalType": "uint256[]",
          "name": "values",
          "type": "uint256[]"
        },
        {
          "internalType": "bytes[]",
          "name": "calldatas",
          "type": "bytes[]"
        },
        {
          "internalType": "string",
          "name": "description",
          "type": "string"
        }
      ],
      "name": "propose",
      "outputs": [
        {
          "internalType": "uint256",
          "name": "",
          "type": "uint256"
        }
      ],
      "stateMutability": "nonpayable",
      "type": "function"
    },
    {
      "inputs": [
        {
          "internalType": "uint256",
          "name": "blockNumber",
          "type": "uint256"
        }
      ],
      "name": "quorum",
      "outputs": [
        {
          "internalType": "uint256",
          "name": "",
          "type": "uint256"
        }
      ],
      "stateMutability": "view",
      "type": "function"
    },
    {
      "inputs": [],
      "name": "quorumDenominator",
      "outputs": [
        {
          "internalType": "uint256",
          "name": "",
          "type": "uint256"
        }
      ],
      "stateMutability": "view",
      "type": "function"
    },
    {
      "inputs": [],
      "name": "quorumNumerator",
      "outputs": [
        {
          "internalType": "uint256",
          "name": "",
          "type": "uint256"
        }
      ],
      "stateMutability": "view",
      "type": "function"
    },
    {
      "inputs": [
        {
          "internalType": "address",
          "name": "target",
          "type": "address"
        },
        {
          "internalType": "uint256",
          "name": "value",
          "type": "uint256"
        },
        {
          "internalType": "bytes",
          "name": "data",
          "type": "bytes"
        }
      ],
      "name": "relay",
      "outputs": [],
      "stateMutability": "nonpayable",
      "type": "function"
    },
    {
      "inputs": [
        {
          "internalType": "uint256",
          "name": "newProposalThreshold",
          "type": "uint256"
        }
      ],
      "name": "setProposalThreshold",
      "outputs": [],
      "stateMutability": "nonpayable",
      "type": "function"
    },
    {
      "inputs": [
        {
          "internalType": "uint256",
          "name": "newVotingDelay",
          "type": "uint256"
        }
      ],
      "name": "setVotingDelay",
      "outputs": [],
      "stateMutability": "nonpayable",
      "type": "function"
    },
    {
      "inputs": [
        {
          "internalType": "uint256",
          "name": "newVotingPeriod",
          "type": "uint256"
        }
      ],
      "name": "setVotingPeriod",
      "outputs": [],
      "stateMutability": "nonpayable",
      "type": "function"
    },
    {
      "inputs": [
        {
          "internalType": "uint256",
          "name": "proposalId",
          "type": "uint256"
        }
      ],
      "name": "state",
      "outputs": [
        {
          "internalType": "enum IGovernor.ProposalState",
          "name": "",
          "type": "uint8"
        }
      ],
      "stateMutability": "view",
      "type": "function"
    },
    {
      "inputs": [
        {
          "internalType": "bytes4",
          "name": "interfaceId",
          "type": "bytes4"
        }
      ],
      "name": "supportsInterface",
      "outputs": [
        {
          "internalType": "bool",
          "name": "",
          "type": "bool"
        }
      ],
      "stateMutability": "view",
      "type": "function"
    },
    {
      "inputs": [],
      "name": "token",
      "outputs": [
        {
          "internalType": "contract IVotes",
          "name": "",
          "type": "address"
        }
      ],
      "stateMutability": "view",
      "type": "function"
    },
    {
      "inputs": [
        {
          "internalType": "uint256",
          "name": "newQuorumNumerator",
          "type": "uint256"
        }
      ],
      "name": "updateQuorumNumerator",
      "outputs": [],
      "stateMutability": "nonpayable",
      "type": "function"
    },
    {
      "inputs": [],
      "name": "version",
      "outputs": [
        {
          "internalType": "string",
          "name": "",
          "type": "string"
        }
      ],
      "stateMutability": "view",
      "type": "function"
    },
    {
      "inputs": [],
      "name": "votingDelay",
      "outputs": [
        {
          "internalType": "uint256",
          "name": "",
          "type": "uint256"
        }
      ],
      "stateMutability": "view",
      "type": "function"
    },
    {
      "inputs": [],
      "name": "votingPeriod",
      "outputs": [
        {
          "internalType": "uint256",
          "name": "",
          "type": "uint256"
        }
      ],
      "stateMutability": "view",
      "type": "function"
    },
    {
      "stateMutability": "payable",
      "type": "receive"
    }
  ],
  "transactionHash": "0x78f70658f29b450d01cf960eaa91050f682deba54ec3c52de5b82f807258a17e",
  "args": [
    "0x052a4272e2F4400558b62648BcfCC63931E1d44C"
  ],
  "numDeployments": 1,
  "solcInputHash": "9a26dbe1c66cc415b05eada5aa99f2b3",
  "bytecode": "0x6101606040523480156200001257600080fd5b506040516200343938038062003439833981016040819052620000359162000428565b60048161199161b2fa60006040518060400160405280601481526020017f476f6c64656e536368656d61476f7665726e6f7200000000000000000000000081525080620000876200017460201b60201c565b815160208084019190912082518383012060e08290526101008190524660a0818152604080517f8b73c3c69bb8fe3d512ecc4cf759cc79239f7b179b0ffacaa9a75d522b39400f81880181905281830187905260608201869052608082019490945230818401528151808203909301835260c00190528051940193909320919290916080523060c05261012052505082516200012d925060009150602084019062000382565b506200013b9050836200018f565b6200014682620001d0565b620001518162000277565b5050506001600160a01b0316610140526200016c81620002b8565b505062000497565b6040805180820190915260018152603160f81b602082015290565b60045460408051918252602082018390527fc565b045403dc03c2eea82b81a0465edad9e2e7fc4d97e11421c209da93d7a93910160405180910390a1600455565b60008111620002365760405162461bcd60e51b815260206004820152602760248201527f476f7665726e6f7253657474696e67733a20766f74696e6720706572696f6420604482015266746f6f206c6f7760c81b60648201526084015b60405180910390fd5b60055460408051918252602082018390527f7e3f7f0708a84de9203036abaa450dccc85ad5ff52f78c170f3edb55cf5e8828910160405180910390a1600555565b60065460408051918252602082018390527fccb45da8d5717e6c4544694297c4ba5cf151d455c9bb0ed4fc7a38411bc05461910160405180910390a1600655565b60648111156200033d5760405162461bcd60e51b815260206004820152604360248201527f476f7665726e6f72566f74657351756f72756d4672616374696f6e3a2071756f60448201527f72756d4e756d657261746f72206f7665722071756f72756d44656e6f6d696e616064820152623a37b960e91b608482015260a4016200022d565b600880549082905560408051828152602081018490527f0553476bf02ef2726e8ce5ced78d63e26e602e4a2257b1f559418e24b4633997910160405180910390a15050565b82805462000390906200045a565b90600052602060002090601f016020900481019282620003b45760008555620003ff565b82601f10620003cf57805160ff1916838001178555620003ff565b82800160010185558215620003ff579182015b82811115620003ff578251825591602001919060010190620003e2565b506200040d92915062000411565b5090565b5b808211156200040d576000815560010162000412565b6000602082840312156200043b57600080fd5b81516001600160a01b03811681146200045357600080fd5b9392505050565b600181811c908216806200046f57607f821691505b602082108114156200049157634e487b7160e01b600052602260045260246000fd5b50919050565b60805160a05160c05160e051610100516101205161014051612f3962000500600039600081816107730152818161185801526119ea01526000611afb01526000611b4a01526000611b2501526000611a7e01526000611aa801526000611ad20152612f396000f3fe6080604052600436106102135760003560e01c80637b3c71d311610118578063c59057e4116100a0578063eb9019d41161006f578063eb9019d4146106d5578063ece40cc1146106f5578063f23a6e6114610715578063f8ce560a14610741578063fc0c546a1461076157600080fd5b8063c59057e41461061b578063dd4e2ba51461063b578063deaaa7cc14610681578063ea0217cf146106b557600080fd5b8063a7713a70116100e7578063a7713a7014610585578063b58131b01461059a578063bc197c81146105af578063c01f9e37146105db578063c28bc2fa146105fb57600080fd5b80637b3c71d3146105115780637d5e81e21461053157806397c3d334146105515780639a802a6d1461056557600080fd5b80633932abb11161019b578063544ffc9c1161016a578063544ffc9c1461043257806354fd4d501461048757806356781388146104b15780635f398a14146104d157806370b0f660146104f157600080fd5b80633932abb1146103865780633bccf4fd1461039b5780633e4f49e6146103bb57806343859632146103e857600080fd5b806306fdde03116101e257806306fdde03146102b9578063150b7a02146102db5780632656227d1461031f5780632d63f693146103325780632fe3e2611461035257600080fd5b806301ffc9a71461022157806302a251a314610256578063034201811461027957806306f3f9e61461029957600080fd5b3661021c57005b005b600080fd5b34801561022d57600080fd5b5061024161023c36600461215a565b6107ad565b60405190151581526020015b60405180910390f35b34801561026257600080fd5b5061026b61081a565b60405190815260200161024d565b34801561028557600080fd5b5061026b61029436600461229f565b61082a565b3480156102a557600080fd5b5061021a6102b4366004612345565b610922565b3480156102c557600080fd5b506102ce610972565b60405161024d91906123ba565b3480156102e757600080fd5b506103066102f63660046123e4565b630a85bd0160e11b949350505050565b6040516001600160e01b0319909116815260200161024d565b61026b61032d3660046125ba565b610a04565b34801561033e57600080fd5b5061026b61034d366004612345565b610b2b565b34801561035e57600080fd5b5061026b7fb3b3f3b703cd84ce352197dcff232b1b5d3cfb2025ce47cf04742d0651f1af8881565b34801561039257600080fd5b5061026b610b62565b3480156103a757600080fd5b5061026b6103b6366004612649565b610b6d565b3480156103c757600080fd5b506103db6103d6366004612345565b610be3565b60405161024d91906126ad565b3480156103f457600080fd5b506102416104033660046126d5565b60008281526007602090815260408083206001600160a01b038516845260030190915290205460ff1692915050565b34801561043e57600080fd5b5061046c61044d366004612345565b6000908152600760205260409020805460018201546002909201549092565b6040805193845260208401929092529082015260600161024d565b34801561049357600080fd5b506040805180820190915260018152603160f81b60208201526102ce565b3480156104bd57600080fd5b5061026b6104cc366004612701565b610cef565b3480156104dd57600080fd5b5061026b6104ec366004612724565b610d18565b3480156104fd57600080fd5b5061021a61050c366004612345565b610d62565b34801561051d57600080fd5b5061026b61052c3660046127a7565b610da6565b34801561053d57600080fd5b5061026b61054c366004612800565b610df8565b34801561055d57600080fd5b50606461026b565b34801561057157600080fd5b5061026b6105803660046128b4565b6110bb565b34801561059157600080fd5b5060085461026b565b3480156105a657600080fd5b5061026b6110d2565b3480156105bb57600080fd5b506103066105ca36600461290a565b63bc197c8160e01b95945050505050565b3480156105e757600080fd5b5061026b6105f6366004612345565b6110dd565b34801561060757600080fd5b5061021a610616366004612999565b61110c565b34801561062757600080fd5b5061026b6106363660046125ba565b611190565b34801561064757600080fd5b506040805180820190915260208082527f737570706f72743d627261766f2671756f72756d3d666f722c6162737461696e908201526102ce565b34801561068d57600080fd5b5061026b7f150214d74d59b7d1e90c73fc22ef3d991dd0a76b046543d4d80ab92d2a50328f81565b3480156106c157600080fd5b5061021a6106d0366004612345565b6111ca565b3480156106e157600080fd5b5061026b6106f03660046129da565b61120e565b34801561070157600080fd5b5061021a610710366004612345565b61122f565b34801561072157600080fd5b50610306610730366004612a04565b63f23a6e6160e01b95945050505050565b34801561074d57600080fd5b5061026b61075c366004612345565b611273565b34801561076d57600080fd5b506107957f000000000000000000000000000000000000000000000000000000000000000081565b6040516001600160a01b03909116815260200161024d565b60006001600160e01b0319821663bf26d89760e01b14806107de57506001600160e01b031982166379dd796f60e01b145b806107f957506001600160e01b03198216630271189760e51b145b8061081457506301ffc9a760e01b6001600160e01b03198316145b92915050565b600061082560055490565b905090565b6000806108ce6108c67fb3b3f3b703cd84ce352197dcff232b1b5d3cfb2025ce47cf04742d0651f1af888c8c8c8c604051610866929190612a68565b60405180910390208b805190602001206040516020016108ab959493929190948552602085019390935260ff9190911660408401526060830152608082015260a00190565b6040516020818303038152906040528051906020012061127e565b8686866112cc565b90506109148a828b8b8b8080601f0160208091040260200160405190810160405280939291908181526020018383808284376000920191909152508d92506112ea915050565b9a9950505050505050505050565b33301461094a5760405162461bcd60e51b815260040161094190612a78565b60405180910390fd5b610966565b8061095a600261144c565b146109645761094f565b505b61096f816114cb565b50565b60606000805461098190612aaf565b80601f01602080910402602001604051908101604052809291908181526020018280546109ad90612aaf565b80156109fa5780601f106109cf576101008083540402835291602001916109fa565b820191906000526020600020905b8154815290600101906020018083116109dd57829003601f168201915b5050505050905090565b600080610a1386868686611190565b90506000610a2082610be3565b90506004816007811115610a3657610a36612697565b1480610a5357506005816007811115610a5157610a51612697565b145b610aa95760405162461bcd60e51b815260206004820152602160248201527f476f7665726e6f723a2070726f706f73616c206e6f74207375636365737366756044820152601b60fa1b6064820152608401610941565b600082815260016020818152604092839020600201805460ff191690921790915590518381527f712ae1383f79ac853f8d882153778e0260ef8f03b504e2866e0593e04d2b291f910160405180910390a1610b078288888888611593565b610b148288888888611620565b610b218288888888611593565b5095945050505050565b60008181526001602090815260408083208151928301909152546001600160401b0316908190525b6001600160401b031692915050565b600061082560045490565b604080517f150214d74d59b7d1e90c73fc22ef3d991dd0a76b046543d4d80ab92d2a50328f602082015290810186905260ff851660608201526000908190610bbb906108c6906080016108ab565b9050610bd88782886040518060200160405280600081525061171f565b979650505050505050565b6000818152600160205260408120600281015460ff1615610c075750600792915050565b6002810154610100900460ff1615610c225750600292915050565b6000610c2d84610b2b565b905080610c7c5760405162461bcd60e51b815260206004820152601d60248201527f476f7665726e6f723a20756e6b6e6f776e2070726f706f73616c2069640000006044820152606401610941565b438110610c8d575060009392505050565b6000610c98856110dd565b9050438110610cac57506001949350505050565b610cb58561174b565b8015610cd4575060008581526007602052604090208054600190910154115b15610ce457506004949350505050565b506003949350505050565b600080339050610d108482856040518060200160405280600081525061171f565b949350505050565b600080339050610bd887828888888080601f0160208091040260200160405190810160405280939291908181526020018383808284376000920191909152508a92506112ea915050565b333014610d815760405162461bcd60e51b815260040161094190612a78565b610d9d565b80610d91600261144c565b14610d9b57610d86565b505b61096f81611782565b600080339050610dee86828787878080601f01602080910402602001604051908101604052809392919081815260200183838082843760009201919091525061171f92505050565b9695505050505050565b6000610e026110d2565b610e11336106f0600143612b00565b1015610e795760405162461bcd60e51b815260206004820152603160248201527f476f7665726e6f723a2070726f706f73657220766f7465732062656c6f7720706044820152701c9bdc1bdcd85b081d1a1c995cda1bdb19607a1b6064820152608401610941565b6000610e8e8686868680519060200120611190565b90508451865114610eb15760405162461bcd60e51b815260040161094190612b17565b8351865114610ed25760405162461bcd60e51b815260040161094190612b17565b6000865111610f235760405162461bcd60e51b815260206004820152601860248201527f476f7665726e6f723a20656d7074792070726f706f73616c00000000000000006044820152606401610941565b600081815260016020908152604091829020825191820190925281546001600160401b03169081905215610fa35760405162461bcd60e51b815260206004820152602160248201527f476f7665726e6f723a2070726f706f73616c20616c72656164792065786973746044820152607360f81b6064820152608401610941565b6000610fb5610fb0610b62565b6117c3565b610fbe436117c3565b610fc89190612b58565b90506000610fd7610fb061081a565b610fe19083612b58565b835467ffffffffffffffff19166001600160401b038416178455905060018301805467ffffffffffffffff19166001600160401b0383161790557f7d84a6263ae0d98d3329bd7b46bb4e8d6f98cd35a7adb45c274c8b7fd5ebd5e084338b8b8d516001600160401b03811115611059576110596121e2565b60405190808252806020026020018201604052801561108c57816020015b60608152602001906001900390816110775790505b508c88888e6040516110a699989796959493929190612c4c565b60405180910390a15091979650505050505050565b60006110c884848461182f565b90505b9392505050565b600061082560065490565b60008181526001602081815260408084208151928301909152909101546001600160401b031690819052610b53565b33301461112b5760405162461bcd60e51b815260040161094190612a78565b611147565b8061113b600261144c565b1461114557611130565b505b6111898483838080601f0160208091040260200160405190810160405280939291908181526020018383808284376000920191909152508892506118c5915050565b5050505050565b6000848484846040516020016111a99493929190612d3b565b60408051601f19818403018152919052805160209091012095945050505050565b3330146111e95760405162461bcd60e51b815260040161094190612a78565b611205565b806111f9600261144c565b14611203576111ee565b505b61096f816118eb565b60006110cb838361122a60408051602081019091526000815290565b61182f565b33301461124e5760405162461bcd60e51b815260040161094190612a78565b61126a565b8061125e600261144c565b1461126857611253565b505b61096f8161198c565b6000610814826119cd565b600061081461128b611a71565b8360405161190160f01b6020820152602281018390526042810182905260009060620160405160208183030381529060405280519060200120905092915050565b60008060006112dd87878787611b98565b91509150610b2181611c85565b600085815260016020819052604082209061130488610be3565b600781111561131557611315612697565b1461136e5760405162461bcd60e51b815260206004820152602360248201527f476f7665726e6f723a20766f7465206e6f742063757272656e746c792061637460448201526269766560e81b6064820152608401610941565b604080516020810190915281546001600160401b0316908190526000906113979088908661182f565b90506113a68888888488611e40565b83516113f857866001600160a01b03167fb8e138887d0aa13bab447e82de9d5c1777041ecd21ca36ba824ff1e6c07ddda4898884896040516113eb9493929190612d86565b60405180910390a2610bd8565b866001600160a01b03167fe2babfbac5889a709b63bb7f598b324e08bc5a4fb9ec647fb3cbc9ec07eb87128988848989604051611439959493929190612dae565b60405180910390a2979650505050505050565b60006114678254600f81810b600160801b909204900b131590565b1561148557604051631ed9509560e11b815260040160405180910390fd5b508054600f0b6000818152600180840160205260408220805492905583546fffffffffffffffffffffffffffffffff191692016001600160801b03169190911790915590565b606481111561154e5760405162461bcd60e51b815260206004820152604360248201527f476f7665726e6f72566f74657351756f72756d4672616374696f6e3a2071756f60448201527f72756d4e756d657261746f72206f7665722071756f72756d44656e6f6d696e616064820152623a37b960e91b608482015260a401610941565b600880549082905560408051828152602081018490527f0553476bf02ef2726e8ce5ced78d63e26e602e4a2257b1f559418e24b4633997910160405180910390a15050565b611189565b845181101561161857306001600160a01b03168582815181106115bd576115bd612df4565b60200260200101516001600160a01b03161415611608576116088382815181106115e9576115e9612df4565b6020026020010151805190602001206002611fbf90919063ffffffff16565b61161181612e0a565b9050611598565b505050505050565b6000604051806060016040528060278152602001612eb460279139905060005b85518110156117165760008087838151811061165e5761165e612df4565b60200260200101516001600160a01b031687848151811061168157611681612df4565b602002602001015187858151811061169b5761169b612df4565b60200260200101516040516116b09190612e25565b60006040518083038185875af1925050503d80600081146116ed576040519150601f19603f3d011682016040523d82523d6000602084013e6116f2565b606091505b5091509150611702828286611ffb565b5050508061170f90612e0a565b9050611640565b50505050505050565b60006117428585858561173d60408051602081019091526000815290565b6112ea565b95945050505050565b60008181526007602052604081206002810154600182015461176d9190612e41565b61177961075c85610b2b565b11159392505050565b60045460408051918252602082018390527fc565b045403dc03c2eea82b81a0465edad9e2e7fc4d97e11421c209da93d7a93910160405180910390a1600455565b60006001600160401b0382111561182b5760405162461bcd60e51b815260206004820152602660248201527f53616665436173743a2076616c756520646f65736e27742066697420696e203660448201526534206269747360d01b6064820152608401610941565b5090565b604051630748d63560e31b81526001600160a01b038481166004830152602482018490526000917f000000000000000000000000000000000000000000000000000000000000000090911690633a46b1a890604401602060405180830381865afa1580156118a1573d6000803e3d6000fd5b505050506040513d601f19601f820116820180604052508101906110c89190612e59565b60606110c8848484604051806060016040528060298152602001612edb60299139612034565b6000811161194b5760405162461bcd60e51b815260206004820152602760248201527f476f7665726e6f7253657474696e67733a20766f74696e6720706572696f6420604482015266746f6f206c6f7760c81b6064820152608401610941565b60055460408051918252602082018390527f7e3f7f0708a84de9203036abaa450dccc85ad5ff52f78c170f3edb55cf5e8828910160405180910390a1600555565b60065460408051918252602082018390527fccb45da8d5717e6c4544694297c4ba5cf151d455c9bb0ed4fc7a38411bc05461910160405180910390a1600655565b60006064600854604051632394e7a360e21b8152600481018590527f00000000000000000000000000000000000000000000000000000000000000006001600160a01b031690638e539e8c90602401602060405180830381865afa158015611a39573d6000803e3d6000fd5b505050506040513d601f19601f82011682018060405250810190611a5d9190612e59565b611a679190612e72565b6108149190612e91565b6000306001600160a01b037f000000000000000000000000000000000000000000000000000000000000000016148015611aca57507f000000000000000000000000000000000000000000000000000000000000000046145b15611af457507f000000000000000000000000000000000000000000000000000000000000000090565b50604080517f00000000000000000000000000000000000000000000000000000000000000006020808301919091527f0000000000000000000000000000000000000000000000000000000000000000828401527f000000000000000000000000000000000000000000000000000000000000000060608301524660808301523060a0808401919091528351808403909101815260c0909201909252805191012090565b6000807f7fffffffffffffffffffffffffffffff5d576e7357a4501ddfe92f46681b20a0831115611bcf5750600090506003611c7c565b8460ff16601b14158015611be757508460ff16601c14155b15611bf85750600090506004611c7c565b6040805160008082526020820180845289905260ff881692820192909252606081018690526080810185905260019060a0016020604051602081039080840390855afa158015611c4c573d6000803e3d6000fd5b5050604051601f1901519150506001600160a01b038116611c7557600060019250925050611c7c565b9150600090505b94509492505050565b6000816004811115611c9957611c99612697565b1415611ca25750565b6001816004811115611cb657611cb6612697565b1415611d045760405162461bcd60e51b815260206004820152601860248201527f45434453413a20696e76616c6964207369676e617475726500000000000000006044820152606401610941565b6002816004811115611d1857611d18612697565b1415611d665760405162461bcd60e51b815260206004820152601f60248201527f45434453413a20696e76616c6964207369676e6174757265206c656e677468006044820152606401610941565b6003816004811115611d7a57611d7a612697565b1415611dd35760405162461bcd60e51b815260206004820152602260248201527f45434453413a20696e76616c6964207369676e6174757265202773272076616c604482015261756560f01b6064820152608401610941565b6004816004811115611de757611de7612697565b141561096f5760405162461bcd60e51b815260206004820152602260248201527f45434453413a20696e76616c6964207369676e6174757265202776272076616c604482015261756560f01b6064820152608401610941565b60008581526007602090815260408083206001600160a01b0388168452600381019092529091205460ff1615611ec85760405162461bcd60e51b815260206004820152602760248201527f476f7665726e6f72566f74696e6753696d706c653a20766f746520616c726561604482015266191e4818d85cdd60ca1b6064820152608401610941565b6001600160a01b03851660009081526003820160205260408120805460ff1916600117905560ff168460ff161415611f195782816000016000828254611f0e9190612e41565b909155506116189050565b60ff841660011415611f395782816001016000828254611f0e9190612e41565b60ff841660021415611f595782816002016000828254611f0e9190612e41565b60405162461bcd60e51b815260206004820152603560248201527f476f7665726e6f72566f74696e6753696d706c653a20696e76616c69642076616044820152746c756520666f7220656e756d20566f74655479706560581b6064820152608401610941565b8154600160801b90819004600f0b6000818152600180860160205260409091209390935583546001600160801b03908116939091011602179055565b6060831561200a5750816110cb565b82511561201a5782518084602001fd5b8160405162461bcd60e51b815260040161094191906123ba565b6060824710156120955760405162461bcd60e51b815260206004820152602660248201527f416464726573733a20696e73756666696369656e742062616c616e636520666f6044820152651c8818d85b1b60d21b6064820152608401610941565b6001600160a01b0385163b6120ec5760405162461bcd60e51b815260206004820152601d60248201527f416464726573733a2063616c6c20746f206e6f6e2d636f6e74726163740000006044820152606401610941565b600080866001600160a01b031685876040516121089190612e25565b60006040518083038185875af1925050503d8060008114612145576040519150601f19603f3d011682016040523d82523d6000602084013e61214a565b606091505b5091509150610bd8828286611ffb565b60006020828403121561216c57600080fd5b81356001600160e01b0319811681146110cb57600080fd5b803560ff8116811461219557600080fd5b919050565b60008083601f8401126121ac57600080fd5b5081356001600160401b038111156121c357600080fd5b6020830191508360208285010111156121db57600080fd5b9250929050565b634e487b7160e01b600052604160045260246000fd5b604051601f8201601f191681016001600160401b0381118282101715612220576122206121e2565b604052919050565b60006001600160401b03831115612241576122416121e2565b612254601f8401601f19166020016121f8565b905082815283838301111561226857600080fd5b828260208301376000602084830101529392505050565b600082601f83011261229057600080fd5b6110cb83833560208501612228565b60008060008060008060008060e0898b0312156122bb57600080fd5b883597506122cb60208a01612184565b965060408901356001600160401b03808211156122e757600080fd5b6122f38c838d0161219a565b909850965060608b013591508082111561230c57600080fd5b506123198b828c0161227f565b94505061232860808a01612184565b925060a0890135915060c089013590509295985092959890939650565b60006020828403121561235757600080fd5b5035919050565b60005b83811015612379578181015183820152602001612361565b83811115612388576000848401525b50505050565b600081518084526123a681602086016020860161235e565b601f01601f19169290920160200192915050565b6020815260006110cb602083018461238e565b80356001600160a01b038116811461219557600080fd5b600080600080608085870312156123fa57600080fd5b612403856123cd565b9350612411602086016123cd565b92506040850135915060608501356001600160401b0381111561243357600080fd5b61243f8782880161227f565b91505092959194509250565b60006001600160401b03821115612464576124646121e2565b5060051b60200190565b600082601f83011261247f57600080fd5b8135602061249461248f8361244b565b6121f8565b82815260059290921b840181019181810190868411156124b357600080fd5b8286015b848110156124d5576124c8816123cd565b83529183019183016124b7565b509695505050505050565b600082601f8301126124f157600080fd5b8135602061250161248f8361244b565b82815260059290921b8401810191818101908684111561252057600080fd5b8286015b848110156124d55780358352918301918301612524565b600082601f83011261254c57600080fd5b8135602061255c61248f8361244b565b82815260059290921b8401810191818101908684111561257b57600080fd5b8286015b848110156124d55780356001600160401b0381111561259e5760008081fd5b6125ac8986838b010161227f565b84525091830191830161257f565b600080600080608085870312156125d057600080fd5b84356001600160401b03808211156125e757600080fd5b6125f38883890161246e565b9550602087013591508082111561260957600080fd5b612615888389016124e0565b9450604087013591508082111561262b57600080fd5b506126388782880161253b565b949793965093946060013593505050565b600080600080600060a0868803121561266157600080fd5b8535945061267160208701612184565b935061267f60408701612184565b94979396509394606081013594506080013592915050565b634e487b7160e01b600052602160045260246000fd5b60208101600883106126cf57634e487b7160e01b600052602160045260246000fd5b91905290565b600080604083850312156126e857600080fd5b823591506126f8602084016123cd565b90509250929050565b6000806040838503121561271457600080fd5b823591506126f860208401612184565b60008060008060006080868803121561273c57600080fd5b8535945061274c60208701612184565b935060408601356001600160401b038082111561276857600080fd5b61277489838a0161219a565b9095509350606088013591508082111561278d57600080fd5b5061279a8882890161227f565b9150509295509295909350565b600080600080606085870312156127bd57600080fd5b843593506127cd60208601612184565b925060408501356001600160401b038111156127e857600080fd5b6127f48782880161219a565b95989497509550505050565b6000806000806080858703121561281657600080fd5b84356001600160401b038082111561282d57600080fd5b6128398883890161246e565b9550602087013591508082111561284f57600080fd5b61285b888389016124e0565b9450604087013591508082111561287157600080fd5b61287d8883890161253b565b9350606087013591508082111561289357600080fd5b508501601f810187136128a557600080fd5b61243f87823560208401612228565b6000806000606084860312156128c957600080fd5b6128d2846123cd565b92506020840135915060408401356001600160401b038111156128f457600080fd5b6129008682870161227f565b9150509250925092565b600080600080600060a0868803121561292257600080fd5b61292b866123cd565b9450612939602087016123cd565b935060408601356001600160401b038082111561295557600080fd5b61296189838a016124e0565b9450606088013591508082111561297757600080fd5b61298389838a016124e0565b9350608088013591508082111561278d57600080fd5b600080600080606085870312156129af57600080fd5b6129b8856123cd565b93506020850135925060408501356001600160401b038111156127e857600080fd5b600080604083850312156129ed57600080fd5b6129f6836123cd565b946020939093013593505050565b600080600080600060a08688031215612a1c57600080fd5b612a25866123cd565b9450612a33602087016123cd565b9350604086013592506060860135915060808601356001600160401b03811115612a5c57600080fd5b61279a8882890161227f565b8183823760009101908152919050565b60208082526018908201527f476f7665726e6f723a206f6e6c79476f7665726e616e63650000000000000000604082015260600190565b600181811c90821680612ac357607f821691505b60208210811415612ae457634e487b7160e01b600052602260045260246000fd5b50919050565b634e487b7160e01b600052601160045260246000fd5b600082821015612b1257612b12612aea565b500390565b60208082526021908201527f476f7665726e6f723a20696e76616c69642070726f706f73616c206c656e67746040820152600d60fb1b606082015260800190565b60006001600160401b03808316818516808303821115612b7a57612b7a612aea565b01949350505050565b600081518084526020808501945080840160005b83811015612bbc5781516001600160a01b031687529582019590820190600101612b97565b509495945050505050565b600081518084526020808501945080840160005b83811015612bbc57815187529582019590820190600101612bdb565b600081518084526020808501808196508360051b8101915082860160005b85811015612c3f578284038952612c2d84835161238e565b98850198935090840190600101612c15565b5091979650505050505050565b60006101208b8352602060018060a01b038c1681850152816040850152612c758285018c612b83565b91508382036060850152612c89828b612bc7565b915083820360808501528189518084528284019150828160051b850101838c0160005b83811015612cda57601f19878403018552612cc883835161238e565b94860194925090850190600101612cac565b505086810360a0880152612cee818c612bf7565b945050505050612d0960c08401876001600160401b03169052565b6001600160401b03851660e0840152828103610100840152612d2b818561238e565b9c9b505050505050505050505050565b608081526000612d4e6080830187612b83565b8281036020840152612d608187612bc7565b90508281036040840152612d748186612bf7565b91505082606083015295945050505050565b84815260ff84166020820152826040820152608060608201526000610dee608083018461238e565b85815260ff8516602082015283604082015260a060608201526000612dd660a083018561238e565b8281036080840152612de8818561238e565b98975050505050505050565b634e487b7160e01b600052603260045260246000fd5b6000600019821415612e1e57612e1e612aea565b5060010190565b60008251612e3781846020870161235e565b9190910192915050565b60008219821115612e5457612e54612aea565b500190565b600060208284031215612e6b57600080fd5b5051919050565b6000816000190483118215151615612e8c57612e8c612aea565b500290565b600082612eae57634e487b7160e01b600052601260045260246000fd5b50049056fe476f7665726e6f723a2063616c6c20726576657274656420776974686f7574206d657373616765416464726573733a206c6f772d6c6576656c2063616c6c20776974682076616c7565206661696c6564a26469706673582212200b9213dbe8024c164b1d6fc242de5a289f109b7ad85f4b45d5af0490c807020864736f6c634300080b0033",
  "devdoc": {
    "custom:security-contact": "security@golden.com",
    "errors": {
      "Empty()": [
        {
          "details": "An operation (e.g. {front}) couldn't be completed due to the queue being empty."
        }
      ]
    },
    "kind": "dev",
    "methods": {
      "COUNTING_MODE()": {
        "details": "See {IGovernor-COUNTING_MODE}."
      },
      "castVote(uint256,uint8)": {
        "details": "See {IGovernor-castVote}."
      },
      "castVoteBySig(uint256,uint8,uint8,bytes32,bytes32)": {
        "details": "See {IGovernor-castVoteBySig}."
      },
      "castVoteWithReason(uint256,uint8,string)": {
        "details": "See {IGovernor-castVoteWithReason}."
      },
      "castVoteWithReasonAndParams(uint256,uint8,string,bytes)": {
        "details": "See {IGovernor-castVoteWithReasonAndParams}."
      },
      "castVoteWithReasonAndParamsBySig(uint256,uint8,string,bytes,uint8,bytes32,bytes32)": {
        "details": "See {IGovernor-castVoteWithReasonAndParamsBySig}."
      },
      "execute(address[],uint256[],bytes[],bytes32)": {
        "details": "See {IGovernor-execute}."
      },
      "getVotes(address,uint256)": {
        "details": "See {IGovernor-getVotes}."
      },
      "getVotesWithParams(address,uint256,bytes)": {
        "details": "See {IGovernor-getVotesWithParams}."
      },
      "hasVoted(uint256,address)": {
        "details": "See {IGovernor-hasVoted}."
      },
      "hashProposal(address[],uint256[],bytes[],bytes32)": {
        "details": "See {IGovernor-hashProposal}. The proposal id is produced by hashing the RLC encoded `targets` array, the `values` array, the `calldatas` array and the descriptionHash (bytes32 which itself is the keccak256 hash of the description string). This proposal id can be produced from the proposal data which is part of the {ProposalCreated} event. It can even be computed in advance, before the proposal is submitted. Note that the chainId and the governor address are not part of the proposal id computation. Consequently, the same proposal (with same operation and same description) will have the same id if submitted on multiple governors across multiple networks. This also means that in order to execute the same operation twice (on the same governor) the proposer will have to change the description in order to avoid proposal id conflicts."
      },
      "name()": {
        "details": "See {IGovernor-name}."
      },
      "onERC1155BatchReceived(address,address,uint256[],uint256[],bytes)": {
        "details": "See {IERC1155Receiver-onERC1155BatchReceived}."
      },
      "onERC1155Received(address,address,uint256,uint256,bytes)": {
        "details": "See {IERC1155Receiver-onERC1155Received}."
      },
      "onERC721Received(address,address,uint256,bytes)": {
        "details": "See {IERC721Receiver-onERC721Received}."
      },
      "proposalDeadline(uint256)": {
        "details": "See {IGovernor-proposalDeadline}."
      },
      "proposalSnapshot(uint256)": {
        "details": "See {IGovernor-proposalSnapshot}."
      },
      "proposalVotes(uint256)": {
        "details": "Accessor to the internal vote counts."
      },
      "propose(address[],uint256[],bytes[],string)": {
        "details": "See {IGovernor-propose}."
      },
      "quorumDenominator()": {
        "details": "Returns the quorum denominator. Defaults to 100, but may be overridden."
      },
      "quorumNumerator()": {
        "details": "Returns the current quorum numerator. See {quorumDenominator}."
      },
      "relay(address,uint256,bytes)": {
        "details": "Relays a transaction or function call to an arbitrary target. In cases where the governance executor is some contract other than the governor itself, like when using a timelock, this function can be invoked in a governance proposal to recover tokens or Ether that was sent to the governor contract by mistake. Note that if the executor is simply the governor itself, use of `relay` is redundant."
      },
      "setProposalThreshold(uint256)": {
        "details": "Update the proposal threshold. This operation can only be performed through a governance proposal. Emits a {ProposalThresholdSet} event."
      },
      "setVotingDelay(uint256)": {
        "details": "Update the voting delay. This operation can only be performed through a governance proposal. Emits a {VotingDelaySet} event."
      },
      "setVotingPeriod(uint256)": {
        "details": "Update the voting period. This operation can only be performed through a governance proposal. Emits a {VotingPeriodSet} event."
      },
      "state(uint256)": {
        "details": "See {IGovernor-state}."
      },
      "supportsInterface(bytes4)": {
        "details": "See {IERC165-supportsInterface}."
      },
      "updateQuorumNumerator(uint256)": {
        "details": "Changes the quorum numerator. Emits a {QuorumNumeratorUpdated} event. Requirements: - Must be called through a governance proposal. - New numerator must be smaller or equal to the denominator."
      },
      "version()": {
        "details": "See {IGovernor-version}."
      }
    },
    "version": 1
  },
  "userdoc": {
    "kind": "user",
    "methods": {},
    "version": 1
  },
  "storageLayout": {
    "storage": [
      {
        "astId": 164,
        "contract": "contracts/GoldenSchemaGovernor.sol:GoldenSchemaGovernor",
        "label": "_name",
        "offset": 0,
        "slot": "0",
        "type": "t_string_storage"
      },
      {
        "astId": 169,
        "contract": "contracts/GoldenSchemaGovernor.sol:GoldenSchemaGovernor",
        "label": "_proposals",
        "offset": 0,
        "slot": "1",
        "type": "t_mapping(t_uint256,t_struct(ProposalCore)162_storage)"
      },
      {
        "astId": 172,
        "contract": "contracts/GoldenSchemaGovernor.sol:GoldenSchemaGovernor",
        "label": "_governanceCall",
        "offset": 0,
        "slot": "2",
        "type": "t_struct(Bytes32Deque)4131_storage"
      },
      {
        "astId": 1932,
        "contract": "contracts/GoldenSchemaGovernor.sol:GoldenSchemaGovernor",
        "label": "_votingDelay",
        "offset": 0,
        "slot": "4",
        "type": "t_uint256"
      },
      {
        "astId": 1934,
        "contract": "contracts/GoldenSchemaGovernor.sol:GoldenSchemaGovernor",
        "label": "_votingPeriod",
        "offset": 0,
        "slot": "5",
        "type": "t_uint256"
      },
      {
        "astId": 1936,
        "contract": "contracts/GoldenSchemaGovernor.sol:GoldenSchemaGovernor",
        "label": "_proposalThreshold",
        "offset": 0,
        "slot": "6",
        "type": "t_uint256"
      },
      {
        "astId": 1724,
        "contract": "contracts/GoldenSchemaGovernor.sol:GoldenSchemaGovernor",
        "label": "_proposalVotes",
        "offset": 0,
        "slot": "7",
        "type": "t_mapping(t_uint256,t_struct(ProposalVote)1719_storage)"
      },
      {
        "astId": 2152,
        "contract": "contracts/GoldenSchemaGovernor.sol:GoldenSchemaGovernor",
        "label": "_quorumNumerator",
        "offset": 0,
        "slot": "8",
        "type": "t_uint256"
      }
    ],
    "types": {
      "t_address": {
        "encoding": "inplace",
        "label": "address",
        "numberOfBytes": "20"
      },
      "t_bool": {
        "encoding": "inplace",
        "label": "bool",
        "numberOfBytes": "1"
      },
      "t_bytes32": {
        "encoding": "inplace",
        "label": "bytes32",
        "numberOfBytes": "32"
      },
      "t_int128": {
        "encoding": "inplace",
        "label": "int128",
        "numberOfBytes": "16"
      },
      "t_mapping(t_address,t_bool)": {
        "encoding": "mapping",
        "key": "t_address",
        "label": "mapping(address => bool)",
        "numberOfBytes": "32",
        "value": "t_bool"
      },
      "t_mapping(t_int128,t_bytes32)": {
        "encoding": "mapping",
        "key": "t_int128",
        "label": "mapping(int128 => bytes32)",
        "numberOfBytes": "32",
        "value": "t_bytes32"
      },
      "t_mapping(t_uint256,t_struct(ProposalCore)162_storage)": {
        "encoding": "mapping",
        "key": "t_uint256",
        "label": "mapping(uint256 => struct Governor.ProposalCore)",
        "numberOfBytes": "32",
        "value": "t_struct(ProposalCore)162_storage"
      },
      "t_mapping(t_uint256,t_struct(ProposalVote)1719_storage)": {
        "encoding": "mapping",
        "key": "t_uint256",
        "label": "mapping(uint256 => struct GovernorCountingSimple.ProposalVote)",
        "numberOfBytes": "32",
        "value": "t_struct(ProposalVote)1719_storage"
      },
      "t_string_storage": {
        "encoding": "bytes",
        "label": "string",
        "numberOfBytes": "32"
      },
      "t_struct(BlockNumber)3019_storage": {
        "encoding": "inplace",
        "label": "struct Timers.BlockNumber",
        "members": [
          {
            "astId": 3018,
            "contract": "contracts/GoldenSchemaGovernor.sol:GoldenSchemaGovernor",
            "label": "_deadline",
            "offset": 0,
            "slot": "0",
            "type": "t_uint64"
          }
        ],
        "numberOfBytes": "32"
      },
      "t_struct(Bytes32Deque)4131_storage": {
        "encoding": "inplace",
        "label": "struct DoubleEndedQueue.Bytes32Deque",
        "members": [
          {
            "astId": 4124,
            "contract": "contracts/GoldenSchemaGovernor.sol:GoldenSchemaGovernor",
            "label": "_begin",
            "offset": 0,
            "slot": "0",
            "type": "t_int128"
          },
          {
            "astId": 4126,
            "contract": "contracts/GoldenSchemaGovernor.sol:GoldenSchemaGovernor",
            "label": "_end",
            "offset": 16,
            "slot": "0",
            "type": "t_int128"
          },
          {
            "astId": 4130,
            "contract": "contracts/GoldenSchemaGovernor.sol:GoldenSchemaGovernor",
            "label": "_data",
            "offset": 0,
            "slot": "1",
            "type": "t_mapping(t_int128,t_bytes32)"
          }
        ],
        "numberOfBytes": "64"
      },
      "t_struct(ProposalCore)162_storage": {
        "encoding": "inplace",
        "label": "struct Governor.ProposalCore",
        "members": [
          {
            "astId": 154,
            "contract": "contracts/GoldenSchemaGovernor.sol:GoldenSchemaGovernor",
            "label": "voteStart",
            "offset": 0,
            "slot": "0",
            "type": "t_struct(BlockNumber)3019_storage"
          },
          {
            "astId": 157,
            "contract": "contracts/GoldenSchemaGovernor.sol:GoldenSchemaGovernor",
            "label": "voteEnd",
            "offset": 0,
            "slot": "1",
            "type": "t_struct(BlockNumber)3019_storage"
          },
          {
            "astId": 159,
            "contract": "contracts/GoldenSchemaGovernor.sol:GoldenSchemaGovernor",
            "label": "executed",
            "offset": 0,
            "slot": "2",
            "type": "t_bool"
          },
          {
            "astId": 161,
            "contract": "contracts/GoldenSchemaGovernor.sol:GoldenSchemaGovernor",
            "label": "canceled",
            "offset": 1,
            "slot": "2",
            "type": "t_bool"
          }
        ],
        "numberOfBytes": "96"
      },
      "t_struct(ProposalVote)1719_storage": {
        "encoding": "inplace",
        "label": "struct GovernorCountingSimple.ProposalVote",
        "members": [
          {
            "astId": 1710,
            "contract": "contracts/GoldenSchemaGovernor.sol:GoldenSchemaGovernor",
            "label": "againstVotes",
            "offset": 0,
            "slot": "0",
            "type": "t_uint256"
          },
          {
            "astId": 1712,
            "contract": "contracts/GoldenSchemaGovernor.sol:GoldenSchemaGovernor",
            "label": "forVotes",
            "offset": 0,
            "slot": "1",
            "type": "t_uint256"
          },
          {
            "astId": 1714,
            "contract": "contracts/GoldenSchemaGovernor.sol:GoldenSchemaGovernor",
            "label": "abstainVotes",
            "offset": 0,
            "slot": "2",
            "type": "t_uint256"
          },
          {
            "astId": 1718,
            "contract": "contracts/GoldenSchemaGovernor.sol:GoldenSchemaGovernor",
            "label": "hasVoted",
            "offset": 0,
            "slot": "3",
            "type": "t_mapping(t_address,t_bool)"
          }
        ],
        "numberOfBytes": "128"
      },
      "t_uint256": {
        "encoding": "inplace",
        "label": "uint256",
        "numberOfBytes": "32"
      },
      "t_uint64": {
        "encoding": "inplace",
        "label": "uint64",
        "numberOfBytes": "8"
      }
    }
  }
}