{
  "address": "0x2134f83FfF4d97B3FB83a20746087E39d60aA554",
  "abi": [
    {
      "inputs": [
        {
          "internalType": "uint256",
          "name": "initialSupply",
          "type": "uint256"
        }
      ],
      "stateMutability": "nonpayable",
      "type": "constructor"
    },
    {
      "anonymous": false,
      "inputs": [
        {
          "indexed": true,
          "internalType": "address",
          "name": "owner",
          "type": "address"
        },
        {
          "indexed": true,
          "internalType": "address",
          "name": "spender",
          "type": "address"
        },
        {
          "indexed": false,
          "internalType": "uint256",
          "name": "value",
          "type": "uint256"
        }
      ],
      "name": "Approval",
      "type": "event"
    },
    {
      "anonymous": false,
      "inputs": [
        {
          "indexed": true,
          "internalType": "address",
          "name": "delegator",
          "type": "address"
        },
        {
          "indexed": true,
          "internalType": "address",
          "name": "fromDelegate",
          "type": "address"
        },
        {
          "indexed": true,
          "internalType": "address",
          "name": "toDelegate",
          "type": "address"
        }
      ],
      "name": "DelegateChanged",
      "type": "event"
    },
    {
      "anonymous": false,
      "inputs": [
        {
          "indexed": true,
          "internalType": "address",
          "name": "delegate",
          "type": "address"
        },
        {
          "indexed": false,
          "internalType": "uint256",
          "name": "previousBalance",
          "type": "uint256"
        },
        {
          "indexed": false,
          "internalType": "uint256",
          "name": "newBalance",
          "type": "uint256"
        }
      ],
      "name": "DelegateVotesChanged",
      "type": "event"
    },
    {
      "anonymous": false,
      "inputs": [
        {
          "indexed": true,
          "internalType": "address",
          "name": "previousOwner",
          "type": "address"
        },
        {
          "indexed": true,
          "internalType": "address",
          "name": "newOwner",
          "type": "address"
        }
      ],
      "name": "OwnershipTransferred",
      "type": "event"
    },
    {
      "anonymous": false,
      "inputs": [
        {
          "indexed": false,
          "internalType": "address",
          "name": "account",
          "type": "address"
        }
      ],
      "name": "Paused",
      "type": "event"
    },
    {
      "anonymous": false,
      "inputs": [
        {
          "indexed": true,
          "internalType": "address",
          "name": "from",
          "type": "address"
        },
        {
          "indexed": true,
          "internalType": "address",
          "name": "to",
          "type": "address"
        },
        {
          "indexed": false,
          "internalType": "uint256",
          "name": "value",
          "type": "uint256"
        }
      ],
      "name": "Transfer",
      "type": "event"
    },
    {
      "anonymous": false,
      "inputs": [
        {
          "indexed": false,
          "internalType": "address",
          "name": "account",
          "type": "address"
        }
      ],
      "name": "Unpaused",
      "type": "event"
    },
    {
      "inputs": [],
      "name": "DOMAIN_SEPARATOR",
      "outputs": [
        {
          "internalType": "bytes32",
          "name": "",
          "type": "bytes32"
        }
      ],
      "stateMutability": "view",
      "type": "function"
    },
    {
      "inputs": [
        {
          "internalType": "address",
          "name": "owner",
          "type": "address"
        },
        {
          "internalType": "address",
          "name": "spender",
          "type": "address"
        }
      ],
      "name": "allowance",
      "outputs": [
        {
          "internalType": "uint256",
          "name": "",
          "type": "uint256"
        }
      ],
      "stateMutability": "view",
      "type": "function"
    },
    {
      "inputs": [
        {
          "internalType": "address",
          "name": "spender",
          "type": "address"
        },
        {
          "internalType": "uint256",
          "name": "amount",
          "type": "uint256"
        }
      ],
      "name": "approve",
      "outputs": [
        {
          "internalType": "bool",
          "name": "",
          "type": "bool"
        }
      ],
      "stateMutability": "nonpayable",
      "type": "function"
    },
    {
      "inputs": [
        {
          "internalType": "address",
          "name": "account",
          "type": "address"
        }
      ],
      "name": "balanceOf",
      "outputs": [
        {
          "internalType": "uint256",
          "name": "",
          "type": "uint256"
        }
      ],
      "stateMutability": "view",
      "type": "function"
    },
    {
      "inputs": [
        {
          "internalType": "address",
          "name": "account",
          "type": "address"
        },
        {
          "internalType": "uint32",
          "name": "pos",
          "type": "uint32"
        }
      ],
      "name": "checkpoints",
      "outputs": [
        {
          "components": [
            {
              "internalType": "uint32",
              "name": "fromBlock",
              "type": "uint32"
            },
            {
              "internalType": "uint224",
              "name": "votes",
              "type": "uint224"
            }
          ],
          "internalType": "struct ERC20Votes.Checkpoint",
          "name": "",
          "type": "tuple"
        }
      ],
      "stateMutability": "view",
      "type": "function"
    },
    {
      "inputs": [],
      "name": "decimals",
      "outputs": [
        {
          "internalType": "uint8",
          "name": "",
          "type": "uint8"
        }
      ],
      "stateMutability": "view",
      "type": "function"
    },
    {
      "inputs": [
        {
          "internalType": "address",
          "name": "spender",
          "type": "address"
        },
        {
          "internalType": "uint256",
          "name": "subtractedValue",
          "type": "uint256"
        }
      ],
      "name": "decreaseAllowance",
      "outputs": [
        {
          "internalType": "bool",
          "name": "",
          "type": "bool"
        }
      ],
      "stateMutability": "nonpayable",
      "type": "function"
    },
    {
      "inputs": [
        {
          "internalType": "address",
          "name": "delegatee",
          "type": "address"
        }
      ],
      "name": "delegate",
      "outputs": [],
      "stateMutability": "nonpayable",
      "type": "function"
    },
    {
      "inputs": [
        {
          "internalType": "address",
          "name": "delegatee",
          "type": "address"
        },
        {
          "internalType": "uint256",
          "name": "nonce",
          "type": "uint256"
        },
        {
          "internalType": "uint256",
          "name": "expiry",
          "type": "uint256"
        },
        {
          "internalType": "uint8",
          "name": "v",
          "type": "uint8"
        },
        {
          "internalType": "bytes32",
          "name": "r",
          "type": "bytes32"
        },
        {
          "internalType": "bytes32",
          "name": "s",
          "type": "bytes32"
        }
      ],
      "name": "delegateBySig",
      "outputs": [],
      "stateMutability": "nonpayable",
      "type": "function"
    },
    {
      "inputs": [
        {
          "internalType": "address",
          "name": "account",
          "type": "address"
        }
      ],
      "name": "delegates",
      "outputs": [
        {
          "internalType": "address",
          "name": "",
          "type": "address"
        }
      ],
      "stateMutability": "view",
      "type": "function"
    },
    {
      "inputs": [
        {
          "internalType": "uint256",
          "name": "blockNumber",
          "type": "uint256"
        }
      ],
      "name": "getPastTotalSupply",
      "outputs": [
        {
          "internalType": "uint256",
          "name": "",
          "type": "uint256"
        }
      ],
      "stateMutability": "view",
      "type": "function"
    },
    {
      "inputs": [
        {
          "internalType": "address",
          "name": "account",
          "type": "address"
        },
        {
          "internalType": "uint256",
          "name": "blockNumber",
          "type": "uint256"
        }
      ],
      "name": "getPastVotes",
      "outputs": [
        {
          "internalType": "uint256",
          "name": "",
          "type": "uint256"
        }
      ],
      "stateMutability": "view",
      "type": "function"
    },
    {
      "inputs": [
        {
          "internalType": "address",
          "name": "account",
          "type": "address"
        }
      ],
      "name": "getStakeVotes",
      "outputs": [
        {
          "internalType": "uint256",
          "name": "",
          "type": "uint256"
        }
      ],
      "stateMutability": "view",
      "type": "function"
    },
    {
      "inputs": [
        {
          "internalType": "address",
          "name": "account",
          "type": "address"
        }
      ],
      "name": "getVotes",
      "outputs": [
        {
          "internalType": "uint256",
          "name": "",
          "type": "uint256"
        }
      ],
      "stateMutability": "view",
      "type": "function"
    },
    {
      "inputs": [
        {
          "internalType": "address",
          "name": "spender",
          "type": "address"
        },
        {
          "internalType": "uint256",
          "name": "addedValue",
          "type": "uint256"
        }
      ],
      "name": "increaseAllowance",
      "outputs": [
        {
          "internalType": "bool",
          "name": "",
          "type": "bool"
        }
      ],
      "stateMutability": "nonpayable",
      "type": "function"
    },
    {
      "inputs": [],
      "name": "name",
      "outputs": [
        {
          "internalType": "string",
          "name": "",
          "type": "string"
        }
      ],
      "stateMutability": "view",
      "type": "function"
    },
    {
      "inputs": [
        {
          "internalType": "address",
          "name": "owner",
          "type": "address"
        }
      ],
      "name": "nonces",
      "outputs": [
        {
          "internalType": "uint256",
          "name": "",
          "type": "uint256"
        }
      ],
      "stateMutability": "view",
      "type": "function"
    },
    {
      "inputs": [
        {
          "internalType": "address",
          "name": "account",
          "type": "address"
        }
      ],
      "name": "numCheckpoints",
      "outputs": [
        {
          "internalType": "uint32",
          "name": "",
          "type": "uint32"
        }
      ],
      "stateMutability": "view",
      "type": "function"
    },
    {
      "inputs": [],
      "name": "owner",
      "outputs": [
        {
          "internalType": "address",
          "name": "",
          "type": "address"
        }
      ],
      "stateMutability": "view",
      "type": "function"
    },
    {
      "inputs": [],
      "name": "pause",
      "outputs": [],
      "stateMutability": "nonpayable",
      "type": "function"
    },
    {
      "inputs": [],
      "name": "paused",
      "outputs": [
        {
          "internalType": "bool",
          "name": "",
          "type": "bool"
        }
      ],
      "stateMutability": "view",
      "type": "function"
    },
    {
      "inputs": [
        {
          "internalType": "address",
          "name": "owner",
          "type": "address"
        },
        {
          "internalType": "address",
          "name": "spender",
          "type": "address"
        },
        {
          "internalType": "uint256",
          "name": "value",
          "type": "uint256"
        },
        {
          "internalType": "uint256",
          "name": "deadline",
          "type": "uint256"
        },
        {
          "internalType": "uint8",
          "name": "v",
          "type": "uint8"
        },
        {
          "internalType": "bytes32",
          "name": "r",
          "type": "bytes32"
        },
        {
          "internalType": "bytes32",
          "name": "s",
          "type": "bytes32"
        }
      ],
      "name": "permit",
      "outputs": [],
      "stateMutability": "nonpayable",
      "type": "function"
    },
    {
      "inputs": [],
      "name": "renounceOwnership",
      "outputs": [],
      "stateMutability": "nonpayable",
      "type": "function"
    },
    {
      "inputs": [
        {
          "internalType": "address",
          "name": "account",
          "type": "address"
        },
        {
          "internalType": "uint256",
          "name": "amount",
          "type": "uint256"
        }
      ],
      "name": "slash",
      "outputs": [],
      "stateMutability": "nonpayable",
      "type": "function"
    },
    {
      "inputs": [
        {
          "internalType": "uint256",
          "name": "amount",
          "type": "uint256"
        }
      ],
      "name": "stake",
      "outputs": [],
      "stateMutability": "payable",
      "type": "function"
    },
    {
      "inputs": [
        {
          "internalType": "address",
          "name": "account",
          "type": "address"
        }
      ],
      "name": "stakeOf",
      "outputs": [
        {
          "internalType": "uint256",
          "name": "",
          "type": "uint256"
        }
      ],
      "stateMutability": "view",
      "type": "function"
    },
    {
      "inputs": [],
      "name": "symbol",
      "outputs": [
        {
          "internalType": "string",
          "name": "",
          "type": "string"
        }
      ],
      "stateMutability": "view",
      "type": "function"
    },
    {
      "inputs": [],
      "name": "totalSupply",
      "outputs": [
        {
          "internalType": "uint256",
          "name": "",
          "type": "uint256"
        }
      ],
      "stateMutability": "view",
      "type": "function"
    },
    {
      "inputs": [
        {
          "internalType": "address",
          "name": "to",
          "type": "address"
        },
        {
          "internalType": "uint256",
          "name": "amount",
          "type": "uint256"
        }
      ],
      "name": "transfer",
      "outputs": [
        {
          "internalType": "bool",
          "name": "",
          "type": "bool"
        }
      ],
      "stateMutability": "nonpayable",
      "type": "function"
    },
    {
      "inputs": [
        {
          "internalType": "address",
          "name": "from",
          "type": "address"
        },
        {
          "internalType": "address",
          "name": "to",
          "type": "address"
        },
        {
          "internalType": "uint256",
          "name": "amount",
          "type": "uint256"
        }
      ],
      "name": "transferFrom",
      "outputs": [
        {
          "internalType": "bool",
          "name": "",
          "type": "bool"
        }
      ],
      "stateMutability": "nonpayable",
      "type": "function"
    },
    {
      "inputs": [
        {
          "internalType": "address",
          "name": "newOwner",
          "type": "address"
        }
      ],
      "name": "transferOwnership",
      "outputs": [],
      "stateMutability": "nonpayable",
      "type": "function"
    },
    {
      "inputs": [],
      "name": "unpause",
      "outputs": [],
      "stateMutability": "nonpayable",
      "type": "function"
    },
    {
      "inputs": [
        {
          "internalType": "uint256",
          "name": "amount",
          "type": "uint256"
        }
      ],
      "name": "unstake",
      "outputs": [],
      "stateMutability": "nonpayable",
      "type": "function"
    }
  ],
  "transactionHash": "0xdb9bce84693cf01a38c8a6a34308b89409e6b846d64733b0add23fc74660080a",
  "args": [
    "1000000000000000000000000000"
  ],
  "numDeployments": 5,
  "solcInputHash": "799bdf16d0c0544e522886a1b40ab837",
  "bytecode": "0x6101406040523480156200001257600080fd5b5060405162002dc238038062002dc283398101604081905262000035916200091b565b6040518060400160405280600b81526020016a23b7b63232b72a37b5b2b760a91b81525080604051806040016040528060018152602001603160f81b8152506040518060400160405280600b81526020016a23b7b63232b72a37b5b2b760a91b8152506040518060400160405280600381526020016211d31160ea1b8152508160039080519060200190620000cc9291906200087f565b508051620000e29060049060208401906200087f565b505050620000ff620000f9620001af60201b60201c565b620001b3565b6005805460ff60a01b19169055815160209283012081519183019190912060e08290526101008190524660a0818152604080517f8b73c3c69bb8fe3d512ecc4cf759cc79239f7b179b0ffacaa9a75d522b39400f818801819052818301969096526060810194909452608080850193909352308483018190528151808603909301835260c0948501909152815191909501209052919091526101205250620001a8338262000205565b50620009d3565b3390565b600580546001600160a01b038381166001600160a01b0319831681179093556040519116919082907f8be0079c531659141344cd1fd0a4f28419497f9722a3daafe3b4186f6b6457e090600090a35050565b6200021c82826200022060201b62000f1b1760201c565b5050565b620002378282620002d760201b62000fab1760201c565b6001600160e01b036200024b620003d48216565b1115620002b85760405162461bcd60e51b815260206004820152603060248201527f4552433230566f7465733a20746f74616c20737570706c79207269736b73206f60448201526f766572666c6f77696e6720766f74657360801b60648201526084015b60405180910390fd5b620002d1600a6200109e620003da60201b1783620003ef565b50505050565b6001600160a01b0382166200032f5760405162461bcd60e51b815260206004820152601f60248201527f45524332303a206d696e7420746f20746865207a65726f2061646472657373006044820152606401620002af565b6200033d60008383620005a1565b80600260008282546200035191906200094b565b90915550506001600160a01b03821660009081526020819052604081208054839290620003809084906200094b565b90915550506040518181526001600160a01b038316906000907fddf252ad1be2c89b69c2b068fc378daa952ba7f163c4a11628f55a4df523b3ef9060200160405180910390a36200021c6000838362000614565b60025490565b6000620003e882846200094b565b9392505050565b8254600090819080156200044157856200040b60018362000966565b815481106200041e576200041e62000980565b60009182526020909120015464010000000090046001600160e01b031662000444565b60005b6001600160e01b031692506200045b83858760201c565b91506000811180156200049f575043866200047860018462000966565b815481106200048b576200048b62000980565b60009182526020909120015463ffffffff16145b156200051357620004bb826200062c60201b620010aa1760201c565b86620004c960018462000966565b81548110620004dc57620004dc62000980565b9060005260206000200160000160046101000a8154816001600160e01b0302191690836001600160e01b0316021790555062000598565b85604051806040016040528062000535436200069b60201b620011171760201c565b63ffffffff16815260200162000556856200062c60201b620010aa1760201c565b6001600160e01b0390811690915282546001810184556000938452602093849020835194909301519091166401000000000263ffffffff909316929092179101555b50935093915050565b620005b5600554600160a01b900460ff1690565b15620005f75760405162461bcd60e51b815260206004820152601060248201526f14185d5cd8589b194e881c185d5cd95960821b6044820152606401620002af565b6200060f8383836200060f60201b620006d61760201c565b505050565b6200060f8383836200070260201b6200117c1760201c565b60006001600160e01b03821115620006975760405162461bcd60e51b815260206004820152602760248201527f53616665436173743a2076616c756520646f65736e27742066697420696e20326044820152663234206269747360c81b6064820152608401620002af565b5090565b600063ffffffff821115620006975760405162461bcd60e51b815260206004820152602660248201527f53616665436173743a2076616c756520646f65736e27742066697420696e203360448201526532206269747360d01b6064820152608401620002af565b6200071a8383836200060f60201b620006d61760201c565b6001600160a01b038381166000908152600860205260408082205485841683529120546200060f92918216911683818314801590620007595750600081115b156200060f576001600160a01b03831615620007e6576001600160a01b038316600090815260096020908152604082208291620007a3919062000871901b620011ae1785620003ef565b91509150846001600160a01b031660008051602062002da28339815191528383604051620007db929190918252602082015260400190565b60405180910390a250505b6001600160a01b038216156200060f576001600160a01b0382166000908152600960209081526040822082916200082a9190620003da901b6200109e1785620003ef565b91509150836001600160a01b031660008051602062002da2833981519152838360405162000862929190918252602082015260400190565b60405180910390a25050505050565b6000620003e8828462000966565b8280546200088d9062000996565b90600052602060002090601f016020900481019282620008b15760008555620008fc565b82601f10620008cc57805160ff1916838001178555620008fc565b82800160010185558215620008fc579182015b82811115620008fc578251825591602001919060010190620008df565b50620006979291505b8082111562000697576000815560010162000905565b6000602082840312156200092e57600080fd5b5051919050565b634e487b7160e01b600052601160045260246000fd5b6000821982111562000961576200096162000935565b500190565b6000828210156200097b576200097b62000935565b500390565b634e487b7160e01b600052603260045260246000fd5b600181811c90821680620009ab57607f821691505b60208210811415620009cd57634e487b7160e01b600052602260045260246000fd5b50919050565b60805160a05160c05160e051610100516101205161237f62000a2360003960006115bb0152600061160a015260006115e50152600061153e0152600061156801526000611592015261237f6000f3fe6080604052600436106101ee5760003560e01c80636fcfff451161010d5780639ab24eb0116100a0578063c3cda5201161006f578063c3cda52014610596578063d505accf146105b6578063dd62ed3e146105d6578063f1127ed8146105f6578063f2fde38b1461064057600080fd5b80639ab24eb014610523578063a457c2d714610543578063a694fc3a14610563578063a9059cbb1461057657600080fd5b80638456cb59116100dc5780638456cb59146104bb5780638da5cb5b146104d05780638e539e8c146104ee57806395d89b411461050e57600080fd5b80636fcfff451461041b57806370a0823114610450578063715018a6146104865780637ecebe001461049b57600080fd5b8063395093511161018557806355d3d27d1161015457806355d3d27d14610355578063587cde1e1461038b5780635c19a95c146103dc5780635c975abb146103fc57600080fd5b806339509351146103005780633a46b1a8146103205780633f4ba83a14610340578063426233601461035557600080fd5b806323b872dd116101c157806323b872dd1461028f5780632e17de78146102af578063313ce567146102cf5780633644e515146102eb57600080fd5b806302fb4d85146101f357806306fdde0314610215578063095ea7b31461024057806318160ddd14610270575b600080fd5b3480156101ff57600080fd5b5061021361020e366004612017565b610660565b005b34801561022157600080fd5b5061022a6106db565b6040516102379190612041565b60405180910390f35b34801561024c57600080fd5b5061026061025b366004612017565b61076d565b6040519015158152602001610237565b34801561027c57600080fd5b506002545b604051908152602001610237565b34801561029b57600080fd5b506102606102aa366004612096565b610785565b3480156102bb57600080fd5b506102136102ca3660046120d2565b6107a9565b3480156102db57600080fd5b5060405160128152602001610237565b3480156102f757600080fd5b50610281610845565b34801561030c57600080fd5b5061026061031b366004612017565b610854565b34801561032c57600080fd5b5061028161033b366004612017565b610876565b34801561034c57600080fd5b506102136108f0565b34801561036157600080fd5b506102816103703660046120eb565b6001600160a01b03166000908152600b602052604090205490565b34801561039757600080fd5b506103c46103a63660046120eb565b6001600160a01b039081166000908152600860205260409020541690565b6040516001600160a01b039091168152602001610237565b3480156103e857600080fd5b506102136103f73660046120eb565b610924565b34801561040857600080fd5b50600554600160a01b900460ff16610260565b34801561042757600080fd5b5061043b6104363660046120eb565b610931565b60405163ffffffff9091168152602001610237565b34801561045c57600080fd5b5061028161046b3660046120eb565b6001600160a01b031660009081526020819052604090205490565b34801561049257600080fd5b50610213610959565b3480156104a757600080fd5b506102816104b63660046120eb565b61098d565b3480156104c757600080fd5b506102136109ab565b3480156104dc57600080fd5b506005546001600160a01b03166103c4565b3480156104fa57600080fd5b506102816105093660046120d2565b6109dd565b34801561051a57600080fd5b5061022a610a39565b34801561052f57600080fd5b5061028161053e3660046120eb565b610a48565b34801561054f57600080fd5b5061026061055e366004612017565b610a74565b6102136105713660046120d2565b610aef565b34801561058257600080fd5b50610260610591366004612017565b610b2c565b3480156105a257600080fd5b506102136105b1366004612117565b610b3a565b3480156105c257600080fd5b506102136105d136600461216f565b610c70565b3480156105e257600080fd5b506102816105f13660046121d9565b610dd4565b34801561060257600080fd5b5061061661061136600461220c565b610dff565b60408051825163ffffffff1681526020928301516001600160e01b03169281019290925201610237565b34801561064c57600080fd5b5061021361065b3660046120eb565b610e83565b6005546001600160a01b031633146106935760405162461bcd60e51b815260040161068a9061224c565b60405180910390fd5b6001600160a01b0382166000908152600b6020526040812080548392906106bb908490612297565b90915550506005546106d6906001600160a01b031682610b2c565b505050565b6060600380546106ea906122ae565b80601f0160208091040260200160405190810160405280929190818152602001828054610716906122ae565b80156107635780601f1061073857610100808354040283529160200191610763565b820191906000526020600020905b81548152906001019060200180831161074657829003601f168201915b5050505050905090565b60003361077b8185856111ba565b5060019392505050565b6000336107938582856112de565b61079e858585611352565b506001949350505050565b336000818152600b60205260409020548211156108085760405162461bcd60e51b815260206004820152601860248201527f5374616b696e673a20657863656564732062616c616e63650000000000000000604482015260640161068a565b6001600160a01b0381166000908152600b602052604081208054849290610830908490612297565b909155506108419050308284611352565b5050565b600061084f611531565b905090565b60003361077b8185856108678383610dd4565b61087191906122e3565b6111ba565b60004382106108c75760405162461bcd60e51b815260206004820152601f60248201527f4552433230566f7465733a20626c6f636b206e6f7420796574206d696e656400604482015260640161068a565b6001600160a01b03831660009081526009602052604090206108e99083611658565b9392505050565b6005546001600160a01b0316331461091a5760405162461bcd60e51b815260040161068a9061224c565b610922611715565b565b61092e33826117b2565b50565b6001600160a01b03811660009081526009602052604081205461095390611117565b92915050565b6005546001600160a01b031633146109835760405162461bcd60e51b815260040161068a9061224c565b610922600061182b565b6001600160a01b038116600090815260066020526040812054610953565b6005546001600160a01b031633146109d55760405162461bcd60e51b815260040161068a9061224c565b61092261187d565b6000438210610a2e5760405162461bcd60e51b815260206004820152601f60248201527f4552433230566f7465733a20626c6f636b206e6f7420796574206d696e656400604482015260640161068a565b610953600a83611658565b6060600480546106ea906122ae565b6001600160a01b0381166000908152600b6020526040812054610a6a83611905565b61095391906122e3565b60003381610a828286610dd4565b905083811015610ae25760405162461bcd60e51b815260206004820152602560248201527f45524332303a2064656372656173656420616c6c6f77616e63652062656c6f77604482015264207a65726f60d81b606482015260840161068a565b61079e82868684036111ba565b33610afa3083610b2c565b506001600160a01b0381166000908152600b602052604081208054849290610b239084906122e3565b90915550505050565b60003361077b818585611352565b83421115610b8a5760405162461bcd60e51b815260206004820152601d60248201527f4552433230566f7465733a207369676e61747572652065787069726564000000604482015260640161068a565b604080517fe48329057bfd03d55e49b547132e39cffd9c1820ad7b9d4c5307691425d15adf60208201526001600160a01b038816918101919091526060810186905260808101859052600090610c0490610bfc9060a0016040516020818303038152906040528051906020012061198c565b8585856119da565b9050610c0f81611a02565b8614610c5d5760405162461bcd60e51b815260206004820152601960248201527f4552433230566f7465733a20696e76616c6964206e6f6e636500000000000000604482015260640161068a565b610c6781886117b2565b50505050505050565b83421115610cc05760405162461bcd60e51b815260206004820152601d60248201527f45524332305065726d69743a206578706972656420646561646c696e65000000604482015260640161068a565b60007f6e71edae12b1b97f4d1f60370fef10105fa2faae0126114a169c64845d6126c9888888610cef8c611a02565b6040805160208101969096526001600160a01b0394851690860152929091166060840152608083015260a082015260c0810186905260e0016040516020818303038152906040528051906020012090506000610d4a8261198c565b90506000610d5a828787876119da565b9050896001600160a01b0316816001600160a01b031614610dbd5760405162461bcd60e51b815260206004820152601e60248201527f45524332305065726d69743a20696e76616c6964207369676e61747572650000604482015260640161068a565b610dc88a8a8a6111ba565b50505050505050505050565b6001600160a01b03918216600090815260016020908152604080832093909416825291909152205490565b60408051808201909152600080825260208201526001600160a01b0383166000908152600960205260409020805463ffffffff8416908110610e4357610e436122fb565b60009182526020918290206040805180820190915291015463ffffffff8116825264010000000090046001600160e01b0316918101919091529392505050565b6005546001600160a01b03163314610ead5760405162461bcd60e51b815260040161068a9061224c565b6001600160a01b038116610f125760405162461bcd60e51b815260206004820152602660248201527f4f776e61626c653a206e6577206f776e657220697320746865207a65726f206160448201526564647265737360d01b606482015260840161068a565b61092e8161182b565b610f258282610fab565b6002546001600160e01b031015610f975760405162461bcd60e51b815260206004820152603060248201527f4552433230566f7465733a20746f74616c20737570706c79207269736b73206f60448201526f766572666c6f77696e6720766f74657360801b606482015260840161068a565b610fa5600a61109e83611a2a565b50505050565b6001600160a01b0382166110015760405162461bcd60e51b815260206004820152601f60248201527f45524332303a206d696e7420746f20746865207a65726f206164647265737300604482015260640161068a565b61100d60008383611ba3565b806002600082825461101f91906122e3565b90915550506001600160a01b0382166000908152602081905260408120805483929061104c9084906122e3565b90915550506040518181526001600160a01b038316906000907fddf252ad1be2c89b69c2b068fc378daa952ba7f163c4a11628f55a4df523b3ef9060200160405180910390a361084160008383611bf0565b60006108e982846122e3565b60006001600160e01b038211156111135760405162461bcd60e51b815260206004820152602760248201527f53616665436173743a2076616c756520646f65736e27742066697420696e20326044820152663234206269747360c81b606482015260840161068a565b5090565b600063ffffffff8211156111135760405162461bcd60e51b815260206004820152602660248201527f53616665436173743a2076616c756520646f65736e27742066697420696e203360448201526532206269747360d01b606482015260840161068a565b6001600160a01b038381166000908152600860205260408082205485841683529120546106d692918216911683611bfb565b60006108e98284612297565b6001600160a01b03831661121c5760405162461bcd60e51b8152602060048201526024808201527f45524332303a20617070726f76652066726f6d20746865207a65726f206164646044820152637265737360e01b606482015260840161068a565b6001600160a01b03821661127d5760405162461bcd60e51b815260206004820152602260248201527f45524332303a20617070726f766520746f20746865207a65726f206164647265604482015261737360f01b606482015260840161068a565b6001600160a01b0383811660008181526001602090815260408083209487168084529482529182902085905590518481527f8c5be1e5ebec7d5bd14f71427d1e84f3dd0314c0f7b2291e5b200ac8c7c3b925910160405180910390a3505050565b60006112ea8484610dd4565b90506000198114610fa557818110156113455760405162461bcd60e51b815260206004820152601d60248201527f45524332303a20696e73756666696369656e7420616c6c6f77616e6365000000604482015260640161068a565b610fa584848484036111ba565b6001600160a01b0383166113b65760405162461bcd60e51b815260206004820152602560248201527f45524332303a207472616e736665722066726f6d20746865207a65726f206164604482015264647265737360d81b606482015260840161068a565b6001600160a01b0382166114185760405162461bcd60e51b815260206004820152602360248201527f45524332303a207472616e7366657220746f20746865207a65726f206164647260448201526265737360e81b606482015260840161068a565b611423838383611ba3565b6001600160a01b0383166000908152602081905260409020548181101561149b5760405162461bcd60e51b815260206004820152602660248201527f45524332303a207472616e7366657220616d6f756e7420657863656564732062604482015265616c616e636560d01b606482015260840161068a565b6001600160a01b038085166000908152602081905260408082208585039055918516815290812080548492906114d29084906122e3565b92505081905550826001600160a01b0316846001600160a01b03167fddf252ad1be2c89b69c2b068fc378daa952ba7f163c4a11628f55a4df523b3ef8460405161151e91815260200190565b60405180910390a3610fa5848484611bf0565b6000306001600160a01b037f00000000000000000000000000000000000000000000000000000000000000001614801561158a57507f000000000000000000000000000000000000000000000000000000000000000046145b156115b457507f000000000000000000000000000000000000000000000000000000000000000090565b50604080517f00000000000000000000000000000000000000000000000000000000000000006020808301919091527f0000000000000000000000000000000000000000000000000000000000000000828401527f000000000000000000000000000000000000000000000000000000000000000060608301524660808301523060a0808401919091528351808403909101815260c0909201909252805191012090565b8154600090815b818110156116bc5760006116738284611d38565b905084868281548110611688576116886122fb565b60009182526020909120015463ffffffff1611156116a8578092506116b6565b6116b38160016122e3565b91505b5061165f565b811561170057846116ce600184612297565b815481106116de576116de6122fb565b60009182526020909120015464010000000090046001600160e01b0316611703565b60005b6001600160e01b031695945050505050565b600554600160a01b900460ff166117655760405162461bcd60e51b815260206004820152601460248201527314185d5cd8589b194e881b9bdd081c185d5cd95960621b604482015260640161068a565b6005805460ff60a01b191690557f5db9ee0a495bf2e6ff9c91a7834c1ba4fdd244a5e8aa4e537bd38aeae4b073aa335b6040516001600160a01b03909116815260200160405180910390a1565b6001600160a01b038281166000818152600860208181526040808420805485845282862054949093528787166001600160a01b03198416811790915590519190951694919391928592917f3134e8a2e6d97e929a7e54011ea5485d7d196dd5f0ba4d4ef95803e8e3fc257f9190a4610fa5828483611bfb565b600580546001600160a01b038381166001600160a01b0319831681179093556040519116919082907f8be0079c531659141344cd1fd0a4f28419497f9722a3daafe3b4186f6b6457e090600090a35050565b600554600160a01b900460ff16156118ca5760405162461bcd60e51b815260206004820152601060248201526f14185d5cd8589b194e881c185d5cd95960821b604482015260640161068a565b6005805460ff60a01b1916600160a01b1790557f62e78cea01bee320cd4e420270b5ea74000d11b0c9f74754ebdbfc544b05a2586117953390565b6001600160a01b0381166000908152600960205260408120548015611979576001600160a01b0383166000908152600960205260409020611947600183612297565b81548110611957576119576122fb565b60009182526020909120015464010000000090046001600160e01b031661197c565b60005b6001600160e01b03169392505050565b6000610953611999611531565b8360405161190160f01b6020820152602281018390526042810182905260009060620160405160208183030381529060405280519060200120905092915050565b60008060006119eb87878787611d53565b915091506119f881611e40565b5095945050505050565b6001600160a01b03811660009081526006602052604090208054600181018255905b50919050565b825460009081908015611a755785611a43600183612297565b81548110611a5357611a536122fb565b60009182526020909120015464010000000090046001600160e01b0316611a78565b60005b6001600160e01b03169250611a9183858763ffffffff16565b9150600081118015611acf57504386611aab600184612297565b81548110611abb57611abb6122fb565b60009182526020909120015463ffffffff16145b15611b2f57611add826110aa565b86611ae9600184612297565b81548110611af957611af96122fb565b9060005260206000200160000160046101000a8154816001600160e01b0302191690836001600160e01b03160217905550611b9a565b856040518060400160405280611b4443611117565b63ffffffff168152602001611b58856110aa565b6001600160e01b0390811690915282546001810184556000938452602093849020835194909301519091166401000000000263ffffffff909316929092179101555b50935093915050565b600554600160a01b900460ff16156106d65760405162461bcd60e51b815260206004820152601060248201526f14185d5cd8589b194e881c185d5cd95960821b604482015260640161068a565b6106d683838361117c565b816001600160a01b0316836001600160a01b031614158015611c1d5750600081115b156106d6576001600160a01b03831615611cab576001600160a01b03831660009081526009602052604081208190611c58906111ae85611a2a565b91509150846001600160a01b03167fdec2bacdd2f05b59de34da9b523dff8be42e5e38e818c82fdb0bae774387a7248383604051611ca0929190918252602082015260400190565b60405180910390a250505b6001600160a01b038216156106d6576001600160a01b03821660009081526009602052604081208190611ce19061109e85611a2a565b91509150836001600160a01b03167fdec2bacdd2f05b59de34da9b523dff8be42e5e38e818c82fdb0bae774387a7248383604051611d29929190918252602082015260400190565b60405180910390a25050505050565b6000611d476002848418612311565b6108e9908484166122e3565b6000807f7fffffffffffffffffffffffffffffff5d576e7357a4501ddfe92f46681b20a0831115611d8a5750600090506003611e37565b8460ff16601b14158015611da257508460ff16601c14155b15611db35750600090506004611e37565b6040805160008082526020820180845289905260ff881692820192909252606081018690526080810185905260019060a0016020604051602081039080840390855afa158015611e07573d6000803e3d6000fd5b5050604051601f1901519150506001600160a01b038116611e3057600060019250925050611e37565b9150600090505b94509492505050565b6000816004811115611e5457611e54612333565b1415611e5d5750565b6001816004811115611e7157611e71612333565b1415611ebf5760405162461bcd60e51b815260206004820152601860248201527f45434453413a20696e76616c6964207369676e61747572650000000000000000604482015260640161068a565b6002816004811115611ed357611ed3612333565b1415611f215760405162461bcd60e51b815260206004820152601f60248201527f45434453413a20696e76616c6964207369676e6174757265206c656e67746800604482015260640161068a565b6003816004811115611f3557611f35612333565b1415611f8e5760405162461bcd60e51b815260206004820152602260248201527f45434453413a20696e76616c6964207369676e6174757265202773272076616c604482015261756560f01b606482015260840161068a565b6004816004811115611fa257611fa2612333565b141561092e5760405162461bcd60e51b815260206004820152602260248201527f45434453413a20696e76616c6964207369676e6174757265202776272076616c604482015261756560f01b606482015260840161068a565b80356001600160a01b038116811461201257600080fd5b919050565b6000806040838503121561202a57600080fd5b61203383611ffb565b946020939093013593505050565b600060208083528351808285015260005b8181101561206e57858101830151858201604001528201612052565b81811115612080576000604083870101525b50601f01601f1916929092016040019392505050565b6000806000606084860312156120ab57600080fd5b6120b484611ffb565b92506120c260208501611ffb565b9150604084013590509250925092565b6000602082840312156120e457600080fd5b5035919050565b6000602082840312156120fd57600080fd5b6108e982611ffb565b803560ff8116811461201257600080fd5b60008060008060008060c0878903121561213057600080fd5b61213987611ffb565b9550602087013594506040870135935061215560608801612106565b92506080870135915060a087013590509295509295509295565b600080600080600080600060e0888a03121561218a57600080fd5b61219388611ffb565b96506121a160208901611ffb565b955060408801359450606088013593506121bd60808901612106565b925060a0880135915060c0880135905092959891949750929550565b600080604083850312156121ec57600080fd5b6121f583611ffb565b915061220360208401611ffb565b90509250929050565b6000806040838503121561221f57600080fd5b61222883611ffb565b9150602083013563ffffffff8116811461224157600080fd5b809150509250929050565b6020808252818101527f4f776e61626c653a2063616c6c6572206973206e6f7420746865206f776e6572604082015260600190565b634e487b7160e01b600052601160045260246000fd5b6000828210156122a9576122a9612281565b500390565b600181811c908216806122c257607f821691505b60208210811415611a2457634e487b7160e01b600052602260045260246000fd5b600082198211156122f6576122f6612281565b500190565b634e487b7160e01b600052603260045260246000fd5b60008261232e57634e487b7160e01b600052601260045260246000fd5b500490565b634e487b7160e01b600052602160045260246000fdfea2646970667358221220cdc2a4eb2d5196790355cc817ed76024144eee1ee2ebea0e78d4345e8bbb8b2564736f6c634300080b0033dec2bacdd2f05b59de34da9b523dff8be42e5e38e818c82fdb0bae774387a724",
  "devdoc": {
    "custom:security-contact": "security@golden.com",
    "kind": "dev",
    "methods": {
      "DOMAIN_SEPARATOR()": {
        "details": "See {IERC20Permit-DOMAIN_SEPARATOR}."
      },
      "allowance(address,address)": {
        "details": "See {IERC20-allowance}."
      },
      "approve(address,uint256)": {
        "details": "See {IERC20-approve}. NOTE: If `amount` is the maximum `uint256`, the allowance is not updated on `transferFrom`. This is semantically equivalent to an infinite approval. Requirements: - `spender` cannot be the zero address."
      },
      "balanceOf(address)": {
        "details": "See {IERC20-balanceOf}."
      },
      "checkpoints(address,uint32)": {
        "details": "Get the `pos`-th checkpoint for `account`."
      },
      "decimals()": {
        "details": "Returns the number of decimals used to get its user representation. For example, if `decimals` equals `2`, a balance of `505` tokens should be displayed to a user as `5.05` (`505 / 10 ** 2`). Tokens usually opt for a value of 18, imitating the relationship between Ether and Wei. This is the value {ERC20} uses, unless this function is overridden; NOTE: This information is only used for _display_ purposes: it in no way affects any of the arithmetic of the contract, including {IERC20-balanceOf} and {IERC20-transfer}."
      },
      "decreaseAllowance(address,uint256)": {
        "details": "Atomically decreases the allowance granted to `spender` by the caller. This is an alternative to {approve} that can be used as a mitigation for problems described in {IERC20-approve}. Emits an {Approval} event indicating the updated allowance. Requirements: - `spender` cannot be the zero address. - `spender` must have allowance for the caller of at least `subtractedValue`."
      },
      "delegate(address)": {
        "details": "Delegate votes from the sender to `delegatee`."
      },
      "delegateBySig(address,uint256,uint256,uint8,bytes32,bytes32)": {
        "details": "Delegates votes from signer to `delegatee`"
      },
      "delegates(address)": {
        "details": "Get the address `account` is currently delegating to."
      },
      "getPastTotalSupply(uint256)": {
        "details": "Retrieve the `totalSupply` at the end of `blockNumber`. Note, this value is the sum of all balances. It is but NOT the sum of all the delegated votes! Requirements: - `blockNumber` must have been already mined"
      },
      "getPastVotes(address,uint256)": {
        "details": "Retrieve the number of votes for `account` at the end of `blockNumber`. Requirements: - `blockNumber` must have been already mined"
      },
      "getVotes(address)": {
        "details": "Gets the current votes balance for `account`"
      },
      "increaseAllowance(address,uint256)": {
        "details": "Atomically increases the allowance granted to `spender` by the caller. This is an alternative to {approve} that can be used as a mitigation for problems described in {IERC20-approve}. Emits an {Approval} event indicating the updated allowance. Requirements: - `spender` cannot be the zero address."
      },
      "name()": {
        "details": "Returns the name of the token."
      },
      "nonces(address)": {
        "details": "See {IERC20Permit-nonces}."
      },
      "numCheckpoints(address)": {
        "details": "Get number of checkpoints for `account`."
      },
      "owner()": {
        "details": "Returns the address of the current owner."
      },
      "paused()": {
        "details": "Returns true if the contract is paused, and false otherwise."
      },
      "permit(address,address,uint256,uint256,uint8,bytes32,bytes32)": {
        "details": "See {IERC20Permit-permit}."
      },
      "renounceOwnership()": {
        "details": "Leaves the contract without owner. It will not be possible to call `onlyOwner` functions anymore. Can only be called by the current owner. NOTE: Renouncing ownership will leave the contract without an owner, thereby removing any functionality that is only available to the owner."
      },
      "symbol()": {
        "details": "Returns the symbol of the token, usually a shorter version of the name."
      },
      "totalSupply()": {
        "details": "See {IERC20-totalSupply}."
      },
      "transfer(address,uint256)": {
        "details": "See {IERC20-transfer}. Requirements: - `to` cannot be the zero address. - the caller must have a balance of at least `amount`."
      },
      "transferFrom(address,address,uint256)": {
        "details": "See {IERC20-transferFrom}. Emits an {Approval} event indicating the updated allowance. This is not required by the EIP. See the note at the beginning of {ERC20}. NOTE: Does not update the allowance if the current allowance is the maximum `uint256`. Requirements: - `from` and `to` cannot be the zero address. - `from` must have a balance of at least `amount`. - the caller must have allowance for ``from``'s tokens of at least `amount`."
      },
      "transferOwnership(address)": {
        "details": "Transfers ownership of the contract to a new account (`newOwner`). Can only be called by the current owner."
      }
    },
    "version": 1
  },
  "userdoc": {
    "kind": "user",
    "methods": {},
    "version": 1
  },
  "storageLayout": {
    "storage": [
      {
        "astId": 2478,
        "contract": "contracts/GoldenToken.sol:GoldenToken",
        "label": "_balances",
        "offset": 0,
        "slot": "0",
        "type": "t_mapping(t_address,t_uint256)"
      },
      {
        "astId": 2484,
        "contract": "contracts/GoldenToken.sol:GoldenToken",
        "label": "_allowances",
        "offset": 0,
        "slot": "1",
        "type": "t_mapping(t_address,t_mapping(t_address,t_uint256))"
      },
      {
        "astId": 2486,
        "contract": "contracts/GoldenToken.sol:GoldenToken",
        "label": "_totalSupply",
        "offset": 0,
        "slot": "2",
        "type": "t_uint256"
      },
      {
        "astId": 2488,
        "contract": "contracts/GoldenToken.sol:GoldenToken",
        "label": "_name",
        "offset": 0,
        "slot": "3",
        "type": "t_string_storage"
      },
      {
        "astId": 2490,
        "contract": "contracts/GoldenToken.sol:GoldenToken",
        "label": "_symbol",
        "offset": 0,
        "slot": "4",
        "type": "t_string_storage"
      },
      {
        "astId": 7,
        "contract": "contracts/GoldenToken.sol:GoldenToken",
        "label": "_owner",
        "offset": 0,
        "slot": "5",
        "type": "t_address"
      },
      {
        "astId": 2347,
        "contract": "contracts/GoldenToken.sol:GoldenToken",
        "label": "_paused",
        "offset": 20,
        "slot": "5",
        "type": "t_bool"
      },
      {
        "astId": 3811,
        "contract": "contracts/GoldenToken.sol:GoldenToken",
        "label": "_nonces",
        "offset": 0,
        "slot": "6",
        "type": "t_mapping(t_address,t_struct(Counter)4337_storage)"
      },
      {
        "astId": 3819,
        "contract": "contracts/GoldenToken.sol:GoldenToken",
        "label": "_PERMIT_TYPEHASH_DEPRECATED_SLOT",
        "offset": 0,
        "slot": "7",
        "type": "t_bytes32"
      },
      {
        "astId": 3152,
        "contract": "contracts/GoldenToken.sol:GoldenToken",
        "label": "_delegates",
        "offset": 0,
        "slot": "8",
        "type": "t_mapping(t_address,t_address)"
      },
      {
        "astId": 3158,
        "contract": "contracts/GoldenToken.sol:GoldenToken",
        "label": "_checkpoints",
        "offset": 0,
        "slot": "9",
        "type": "t_mapping(t_address,t_array(t_struct(Checkpoint)3143_storage)dyn_storage)"
      },
      {
        "astId": 3162,
        "contract": "contracts/GoldenToken.sol:GoldenToken",
        "label": "_totalSupplyCheckpoints",
        "offset": 0,
        "slot": "10",
        "type": "t_array(t_struct(Checkpoint)3143_storage)dyn_storage"
      },
      {
        "astId": 6565,
        "contract": "contracts/GoldenToken.sol:GoldenToken",
        "label": "_stakes",
        "offset": 0,
        "slot": "11",
        "type": "t_mapping(t_address,t_uint256)"
      }
    ],
    "types": {
      "t_address": {
        "encoding": "inplace",
        "label": "address",
        "numberOfBytes": "20"
      },
      "t_array(t_struct(Checkpoint)3143_storage)dyn_storage": {
        "base": "t_struct(Checkpoint)3143_storage",
        "encoding": "dynamic_array",
        "label": "struct ERC20Votes.Checkpoint[]",
        "numberOfBytes": "32"
      },
      "t_bool": {
        "encoding": "inplace",
        "label": "bool",
        "numberOfBytes": "1"
      },
      "t_bytes32": {
        "encoding": "inplace",
        "label": "bytes32",
        "numberOfBytes": "32"
      },
      "t_mapping(t_address,t_address)": {
        "encoding": "mapping",
        "key": "t_address",
        "label": "mapping(address => address)",
        "numberOfBytes": "32",
        "value": "t_address"
      },
      "t_mapping(t_address,t_array(t_struct(Checkpoint)3143_storage)dyn_storage)": {
        "encoding": "mapping",
        "key": "t_address",
        "label": "mapping(address => struct ERC20Votes.Checkpoint[])",
        "numberOfBytes": "32",
        "value": "t_array(t_struct(Checkpoint)3143_storage)dyn_storage"
      },
      "t_mapping(t_address,t_mapping(t_address,t_uint256))": {
        "encoding": "mapping",
        "key": "t_address",
        "label": "mapping(address => mapping(address => uint256))",
        "numberOfBytes": "32",
        "value": "t_mapping(t_address,t_uint256)"
      },
      "t_mapping(t_address,t_struct(Counter)4337_storage)": {
        "encoding": "mapping",
        "key": "t_address",
        "label": "mapping(address => struct Counters.Counter)",
        "numberOfBytes": "32",
        "value": "t_struct(Counter)4337_storage"
      },
      "t_mapping(t_address,t_uint256)": {
        "encoding": "mapping",
        "key": "t_address",
        "label": "mapping(address => uint256)",
        "numberOfBytes": "32",
        "value": "t_uint256"
      },
      "t_string_storage": {
        "encoding": "bytes",
        "label": "string",
        "numberOfBytes": "32"
      },
      "t_struct(Checkpoint)3143_storage": {
        "encoding": "inplace",
        "label": "struct ERC20Votes.Checkpoint",
        "members": [
          {
            "astId": 3140,
            "contract": "contracts/GoldenToken.sol:GoldenToken",
            "label": "fromBlock",
            "offset": 0,
            "slot": "0",
            "type": "t_uint32"
          },
          {
            "astId": 3142,
            "contract": "contracts/GoldenToken.sol:GoldenToken",
            "label": "votes",
            "offset": 4,
            "slot": "0",
            "type": "t_uint224"
          }
        ],
        "numberOfBytes": "32"
      },
      "t_struct(Counter)4337_storage": {
        "encoding": "inplace",
        "label": "struct Counters.Counter",
        "members": [
          {
            "astId": 4336,
            "contract": "contracts/GoldenToken.sol:GoldenToken",
            "label": "_value",
            "offset": 0,
            "slot": "0",
            "type": "t_uint256"
          }
        ],
        "numberOfBytes": "32"
      },
      "t_uint224": {
        "encoding": "inplace",
        "label": "uint224",
        "numberOfBytes": "28"
      },
      "t_uint256": {
        "encoding": "inplace",
        "label": "uint256",
        "numberOfBytes": "32"
      },
      "t_uint32": {
        "encoding": "inplace",
        "label": "uint32",
        "numberOfBytes": "4"
      }
    }
  }
}