{
  "address": "0x279BA8703b75869Fa1ADb7bD40C793020A71596C",
  "abi": [
    {
      "inputs": [
        {
          "components": [
            {
              "internalType": "bytes16",
              "name": "predicateID",
              "type": "bytes16"
            },
            {
              "internalType": "bytes32",
              "name": "latestCID",
              "type": "bytes32"
            }
          ],
          "internalType": "struct GoldenSchema.Predicate[]",
          "name": "initialPredicates",
          "type": "tuple[]"
        }
      ],
      "stateMutability": "nonpayable",
      "type": "constructor"
    },
    {
      "anonymous": false,
      "inputs": [
        {
          "indexed": true,
          "internalType": "address",
          "name": "previousOwner",
          "type": "address"
        },
        {
          "indexed": true,
          "internalType": "address",
          "name": "newOwner",
          "type": "address"
        }
      ],
      "name": "OwnershipTransferred",
      "type": "event"
    },
    {
      "anonymous": false,
      "inputs": [
        {
          "indexed": true,
          "internalType": "bytes16",
          "name": "predicateID",
          "type": "bytes16"
        },
        {
          "indexed": true,
          "internalType": "bytes32",
          "name": "latestCID",
          "type": "bytes32"
        }
      ],
      "name": "PredicateAdded",
      "type": "event"
    },
    {
      "anonymous": false,
      "inputs": [
        {
          "indexed": true,
          "internalType": "bytes16",
          "name": "predicateID",
          "type": "bytes16"
        },
        {
          "indexed": true,
          "internalType": "bytes32",
          "name": "latestCID",
          "type": "bytes32"
        }
      ],
      "name": "PredicateRemoved",
      "type": "event"
    },
    {
      "anonymous": false,
      "inputs": [
        {
          "indexed": true,
          "internalType": "bytes16",
          "name": "predicateID",
          "type": "bytes16"
        },
        {
          "indexed": true,
          "internalType": "bytes32",
          "name": "latestCID",
          "type": "bytes32"
        }
      ],
      "name": "PredicateUpdated",
      "type": "event"
    },
    {
      "inputs": [
        {
          "internalType": "bytes16",
          "name": "predicateID",
          "type": "bytes16"
        },
        {
          "internalType": "bytes32",
          "name": "predicateCID",
          "type": "bytes32"
        }
      ],
      "name": "addPredicate",
      "outputs": [],
      "stateMutability": "nonpayable",
      "type": "function"
    },
    {
      "inputs": [],
      "name": "owner",
      "outputs": [
        {
          "internalType": "address",
          "name": "",
          "type": "address"
        }
      ],
      "stateMutability": "view",
      "type": "function"
    },
    {
      "inputs": [
        {
          "internalType": "bytes16",
          "name": "",
          "type": "bytes16"
        }
      ],
      "name": "predicateIDToLatestCID",
      "outputs": [
        {
          "internalType": "bytes32",
          "name": "",
          "type": "bytes32"
        }
      ],
      "stateMutability": "view",
      "type": "function"
    },
    {
      "inputs": [],
      "name": "predicates",
      "outputs": [
        {
          "components": [
            {
              "internalType": "bytes16",
              "name": "predicateID",
              "type": "bytes16"
            },
            {
              "internalType": "bytes32",
              "name": "latestCID",
              "type": "bytes32"
            }
          ],
          "internalType": "struct GoldenSchema.Predicate[]",
          "name": "",
          "type": "tuple[]"
        }
      ],
      "stateMutability": "view",
      "type": "function"
    },
    {
      "inputs": [
        {
          "internalType": "bytes16",
          "name": "predicateID",
          "type": "bytes16"
        }
      ],
      "name": "removePredicate",
      "outputs": [],
      "stateMutability": "nonpayable",
      "type": "function"
    },
    {
      "inputs": [],
      "name": "renounceOwnership",
      "outputs": [],
      "stateMutability": "nonpayable",
      "type": "function"
    },
    {
      "inputs": [
        {
          "internalType": "address",
          "name": "newOwner",
          "type": "address"
        }
      ],
      "name": "transferOwnership",
      "outputs": [],
      "stateMutability": "nonpayable",
      "type": "function"
    },
    {
      "inputs": [
        {
          "internalType": "bytes16",
          "name": "predicateID",
          "type": "bytes16"
        },
        {
          "internalType": "bytes32",
          "name": "predicateCID",
          "type": "bytes32"
        }
      ],
      "name": "updatePredicate",
      "outputs": [],
      "stateMutability": "nonpayable",
      "type": "function"
    }
  ],
  "transactionHash": "0x4cddc0b03af73b1060f4821def39f32452140c025216c589e47a7910dc6ea6a6",
  "args": [
    [
      [
        "0xbb463b8bb76c4f6a972665ab5730b69b",
        "0x4b48dfb69a095a7421c55685c4e0103f3528146a830d9c100d7e29a585d017a7"
      ],
      [
        "0x3104de39071c47b886b4d62ccc4a4fa6",
        "0x909c6028c740f7302911b36bdd18d73208f0a7b95b020391848ac97e75399428"
      ],
      [
        "0x71ad3d9ee211472ba16d861737c57ecd",
        "0x6d85215e8e71388c72057f93b941682b5d2f923c37d60576c1d037ee7757d73b"
      ],
      [
        "0x4b4ff1c9a0534bc387ef0713453f9992",
        "0xbcb7549cf587a187c6d1a7526a0d48c7b345c3188ef4387a79f7d2a3c60ae808"
      ],
      [
        "0x6b95b113e33141bb8e3145b198a41ea8",
        "0x3ec90a6b7cb0c6c7e797c562f25c81c53cc01761dae7bfdfed62269911d512c8"
      ],
      [
        "0x7e593c0c457a464d9dd28e1fc5a8b116",
        "0x1ca14480941235fc81e9901c9440a8d5c0c5dad183efb6aa72870b0a8911c72f"
      ],
      [
        "0x1e49b96df641422691f0ed42e6de742e",
        "0xb011d2bf47c6d638c8014b93e8a0a278f99d3abd524b663c7d04ad0d2228aaf8"
      ],
      [
        "0x27897e2f5d0840fe904d0b0647fa2ff4",
        "0xa34c9cb97a4ba136548561c44656fac601a7d13225fc3c3d4ef4c61417747ace"
      ],
      [
        "0x71f46d7f6667460090bfeb82fbba8e17",
        "0x3abfa2b295e2b7d3b592c3627fe98d3fda91c6e30b5e7149d459bdde4b2b8fca"
      ],
      [
        "0x7f15d7885df14ff3a5e54c9e8e2c57af",
        "0x6b6442334f3ad7a7404b66a6329799d0649d35c9df58356d0100844db5c11a2d"
      ],
      [
        "0x92ae90d8d4f6476b940989b7d1b846c0",
        "0xb3ebe2768f5e305e6f87e75c1254478ea13a74a91adc89680679879b2540ea08"
      ],
      [
        "0xdb5923661c4c4087821e44699ddd29b6",
        "0x4b819a2a6af8ba1615906910eaf7d9adbf9f6e46c611d3096d094a3309de0409"
      ],
      [
        "0x9934d828963f403aa0da7a52e0224ef5",
        "0xa017b013cf3402706285353480ab30f6ae941b58b7d961782edd4af34c68832f"
      ],
      [
        "0xfa39c1f2bf0645e98995da919472deb8",
        "0xabbc7e3e40f514090fdc8783cea68af553dc216888b215314f24d7a9d1dacb51"
      ],
      [
        "0x1d7d64c5c4a1488991c42d2da0424dcc",
        "0x23d9580f1503f4ff359d5e8b47ab5535c15729855903be3bac8582dc1eb2c1e4"
      ],
      [
        "0xfb06b90352af4a799126f2589c2ca881",
        "0x626a50aa0590dc61eabdbda8d67243875eaf0a3d4c4bf8e4ff00f1abe6ab27ef"
      ],
      [
        "0xf348c532bffd4ad1b79c34258d05c1cd",
        "0x2f1bed692cf59db03adf960f194ace1c38e2c43763cff388d5a579323ad27cac"
      ],
      [
        "0xe3d0cfb43ec14ef2ae0893fa07aa27dc",
        "0xc2ba8b5f0d3583cde9b7b298a6c5e46b9340b703226d72bb5ba9388c7d5ea1a6"
      ],
      [
        "0x33461e27545443c3b30088c02a96c280",
        "0xd572ec8fabcb00a21a191ec7b958a1bd22a2ee434ea906b02050b6ad309092c9"
      ],
      [
        "0xfacb73aa82db45ffbd875ce7983d8ca2",
        "0x68c686941281ab3a804ee338e0315441dd26c92aa1d1e61c2c911cd5c4270bc3"
      ],
      [
        "0x68d490c8d8d34efe9670390df48e1ad6",
        "0x4aaf70584e3812fbc1378517523c2e43d7015810a8a99ecc3ae26a5dd74e1ee6"
      ],
      [
        "0x5bbcbd49c2554a6bb84adc076849650d",
        "0x9f00e0c7a823700b69a3c33ef44e47ba4cdc12611164810cddaf646660e480ef"
      ],
      [
        "0x14fa743c816142e8a92f5c29c70e87f8",
        "0x938c36338ecf7a479bc4879d7d1302c9414444f6dcf6009e2230a222d4c68581"
      ],
      [
        "0x36d1a264da264a1a8f0e726543749a5f",
        "0x5fefc4522f8f2373c75e03f812e782faf280e8bdb5c5cc46bf44afca904147d8"
      ],
      [
        "0x12acb8fe05734ca88cc1180cc6ba3486",
        "0xbbf08911f3100fe62c9687174ac2de709db6d6d7d6af029dd9fbc232b803fd72"
      ],
      [
        "0x8c4d6279199f4e469ef78702bad1e152",
        "0x620078e1ccf0e8504b2f91a094e5e332da340a2bb7172c78481e3b8ed31973b9"
      ],
      [
        "0x5387126afa274a428c7fbf813a6a893d",
        "0x70d25c0ac926c8dcc5271fa826551a633ea685f1f3ae0b8106d2a7bf8238ce45"
      ],
      [
        "0xa27218b86a4d47bb95b65a55334fac1c",
        "0xed75a27c6da5d1c8f53240ba52dd5b7aaf0fedc542947c166e0b7c627f0be22b"
      ],
      [
        "0x606272614e6c4ebf8879914576ade417",
        "0x15c598ea3d2629b8f77f1a4dbdea5c8e0fea946de79d991150fb4d2a557cf7d7"
      ],
      [
        "0x7f3869c17dc9448690456bade487a49d",
        "0xbf1155f6371f82e5d0beb11c5bf1f5b15204e55e269bc1fd4cc0bbe44a254bd9"
      ],
      [
        "0x0a87e99634b446ba909a70ab67b1f811",
        "0xcfee440c5ecd1445995d0cdffcfcbd6b9bed0afd0909db6bf1ef05fa0152163f"
      ],
      [
        "0xe4f94b98c56a4bd2a9fd5fd11603e7e8",
        "0xd0095c511ef59ff79bd3c52c1f3bda3193da01ed68b5607ec5aa88a243edee1a"
      ],
      [
        "0x94a8d215ce324379b18e2aebf0794882",
        "0x275b16005a1176937a4960e5ea6aab2d6a9e786e8165ed19239a197d49dcf8bf"
      ],
      [
        "0x42cb158be83645ed9b56034668b8f05a",
        "0x0dd0bc0eaa3af6f2826ba72f7bd70e11178dfe3a41901ffa89e1bf3d3a8cfebe"
      ],
      [
        "0xc090be246c3545d88a8132e57a3d48dd",
        "0x1d4fc069ab075c2cec5113ffb184bf8f97abd10898cb14d6ac32fb91eef8d18b"
      ],
      [
        "0xfa1a5ac7480c4e44a545b0f3dd9d24bf",
        "0x5a2fc2b917fde474d1870885af7f419c67b8ba9ac7b9b4cd588be8af59e770bd"
      ],
      [
        "0x2f30a94ecd5e496fbec801bfb01da128",
        "0xe40f8b810f0ca98a01c807cb7e0724141cecfdb4c80fa3891b4ad47416058e25"
      ],
      [
        "0x9cb6d628a0f848b09828253596b6ad00",
        "0xbc22a1ecff94b39735770a2a88346fd797acc3320d547917c3abaebb2a3d38a5"
      ],
      [
        "0x1551ee2af6a04a4bb322d98d3a696cf3",
        "0xd6a3061d9096bbf3d59d9cdde2eade7e6d10acf304c9e4cf37d008014e333289"
      ],
      [
        "0x0efd04411ffc4e308806e58c434770c8",
        "0x7c306d34ebf7b7a2a84080775d1f12fde150546447ebd95a3d3839c3cd56c70f"
      ],
      [
        "0xb996dfba6f3b458ebb9861939160fd88",
        "0xd44525a59cfb36fb69bf2e3a165727f5b5b9e2f91f59faf72667711dd9bb2f31"
      ],
      [
        "0xc094b0f7d34c4f5e86b3801da1c82091",
        "0x2f2a4e0b0b257ded8937853ab96256395d7a7d073ad1705165e3b526c1e83b24"
      ],
      [
        "0x896c9d73a08b44ae8e4e2a02e5c1e546",
        "0x888e0914c91aa2320de755b6d5ed96d655081333e9f725e1a1faae4771f9d8fa"
      ],
      [
        "0x78142d143ffa4250a92a23f6bfceca62",
        "0x126a0ac698ece1f3f622d2262fd5172adeb70ac9a56ea2f4dd0ef7f05f1a9f01"
      ],
      [
        "0x230c95f8f6744c08bc07773d5a6f198a",
        "0xc6ec5d7f53dcad11bbac4deceb2ef2c47c9ed29d613134a51b46ddad79fb9f65"
      ],
      [
        "0xedff5e5b1f4f469eabcc02eb9c5e4b67",
        "0xddf7ec81b71897e6f7194fa4ab6016bdc54fa315f30728d4404942f1f41e01b4"
      ],
      [
        "0xcc4fdda93f19453bb417e691a771314f",
        "0xd6ec527c605ec10b2d1924cd08b9ee21e27d03ae3508fb5f365ce77417879695"
      ],
      [
        "0xa0dc896f72b84d4eb9c3a447adfcf0e0",
        "0x37cb2cd63e13a2b1ccaa5903c0dbfc1c81744251b59d45809472b1a332c0a172"
      ],
      [
        "0xfc693d4754aa4c9f8c73971637692e71",
        "0x81af2c5f2f941c184f9f7c7c327ff8e9a59523c790dcdafcbc3ea31ed2790a27"
      ],
      [
        "0xa91e59fd5bda423488235fa614773ca2",
        "0xe617ede26927c774eeb9ec06bfee326d7e0df7a00614ee2a07ea84973bd44998"
      ],
      [
        "0x1a2e507274ed40438c29d6e85b2fbd1a",
        "0x6a6ce50d4fdabaa3c5cbfae36133678611d51d46ebd25a5b5bea52e70b810827"
      ],
      [
        "0x50f7f0261a214bdfb7eef6f6a8697740",
        "0xddc77a58697100c12355a0f7dd2e0ccf4dc73063f0521cdeec6095f251a7c589"
      ],
      [
        "0xd4f75a00f5174afa88390add73e29f3b",
        "0x7cd7c2498677e52819052c52849d2c7ef164a55ee37a113d48b1582cf1abe3cd"
      ]
    ]
  ],
  "numDeployments": 2,
  "solcInputHash": "f3d2d9704914823dcffc568bb9c5c0e3",
  "bytecode": "0x60806040523480156200001157600080fd5b5060405162000e8638038062000e8683398101604081905262000034916200034d565b6200003f33620000d5565b805160005b81811015620000cc57620000b78382815181106200007257634e487b7160e01b600052603260045260246000fd5b6020026020010151600001518483815181106200009f57634e487b7160e01b600052603260045260246000fd5b6020026020010151602001516200012560201b60201c565b80620000c38162000498565b91505062000044565b505050620004d6565b600080546001600160a01b038381166001600160a01b0319831681178455604051919092169283917f8be0079c531659141344cd1fd0a4f28419497f9722a3daafe3b4186f6b6457e09190a35050565b6200012f62000192565b6200014a826001620001f460201b6200041f1790919060201c565b6001600160801b03198216600081815260036020526040808220849055518392917fddbd9c69ad18561fc7cf11ff7be612fea0c255ddacedce5a41dd21a65a24ae8591a35050565b6000546001600160a01b03163314620001f25760405162461bcd60e51b815260206004820181905260248201527f4f776e61626c653a2063616c6c6572206973206e6f7420746865206f776e657260448201526064015b60405180910390fd5b565b620002008282620002c0565b15620002625760405162461bcd60e51b815260206004820152602a60248201527f427974657331365365743a206b657920616c726561647920657869737473206960448201526937103a34329039b2ba1760b11b6064820152608401620001e9565b600182810180546001600160801b0319841660009081526020958652604081208290558184018355918252939020600284040180546001600160801b03949092166010026101000a9384021990911660809290921c92909202179055565b6001820154600090620002d65750600062000347565b6001600160801b0319821660008181526020859052604090205460018501805490919081106200031657634e487b7160e01b600052603260045260246000fd5b90600052602060002090600291828204019190066010029054906101000a900460801b6001600160801b0319161490505b92915050565b6000602080838503121562000360578182fd5b82516001600160401b038082111562000377578384fd5b818501915085601f8301126200038b578384fd5b815181811115620003a057620003a0620004c0565b620003b0848260051b0162000465565b8181528481019250838501600683901b85018601891015620003d0578687fd5b8694505b828510156200042e57604080828b031215620003ee578788fd5b620003f86200043a565b82516001600160801b0319811681146200041057898afd5b815282880151888201528552600195909501949386019301620003d4565b50979650505050505050565b604080519081016001600160401b03811182821017156200045f576200045f620004c0565b60405290565b604051601f8201601f191681016001600160401b0381118282101715620004905762000490620004c0565b604052919050565b6000600019821415620004b957634e487b7160e01b81526011600452602481fd5b5060010190565b634e487b7160e01b600052604160045260246000fd5b6109a080620004e66000396000f3fe608060405234801561001057600080fd5b50600436106100885760003560e01c80638da5cb5b1161005b5780638da5cb5b146100db578063b4112e40146100f6578063d6b7636314610124578063f2fde38b1461013757600080fd5b806338b7a7d51461008d5780633c3efab4146100a2578063702f1f5d146100c0578063715018a6146100d3575b600080fd5b6100a061009b3660046108a0565b61014a565b005b6100aa61019a565b6040516100b791906108c9565b60405180910390f35b6100a06100ce3660046108a0565b6102d9565b6100a0610334565b6000546040516001600160a01b0390911681526020016100b7565b610116610104366004610886565b60036020526000908152604090205481565b6040519081526020016100b7565b6100a0610132366004610886565b610348565b6100a0610145366004610858565b6103a1565b6101526104e7565b6001600160801b03198216600081815260036020526040808220849055518392917f115c3e1d5164e8f7d3fc558e8a290f058c709114555eed7426c3c3b9d7d7318591a35050565b60025460609060009067ffffffffffffffff8111156101c957634e487b7160e01b600052604160045260246000fd5b60405190808252806020026020018201604052801561020e57816020015b60408051808201909152600080825260208201528152602001906001900390816101e75790505b50905060005b81518110156102d357610228600182610541565b82828151811061024857634e487b7160e01b600052603260045260246000fd5b60209081029190910101516001600160801b0319909116905260036000610270600184610541565b6001600160801b0319166001600160801b0319168152602001908152602001600020548282815181106102b357634e487b7160e01b600052603260045260246000fd5b6020908102919091018101510152806102cb81610939565b915050610214565b50919050565b6102e16104e7565b6102ec60018361041f565b6001600160801b03198216600081815260036020526040808220849055518392917fddbd9c69ad18561fc7cf11ff7be612fea0c255ddacedce5a41dd21a65a24ae8591a35050565b61033c6104e7565b6103466000610592565b565b6103506104e7565b61035b6001826105e2565b6001600160801b031981166000818152600360205260408082205490519092917f0792080f73e0f4bd6ee184076e9f0924507e65f2aa6517aef7b6abd9bc45b96291a350565b6103a96104e7565b6001600160a01b0381166104135760405162461bcd60e51b815260206004820152602660248201527f4f776e61626c653a206e6577206f776e657220697320746865207a65726f206160448201526564647265737360d01b60648201526084015b60405180910390fd5b61041c81610592565b50565b61042982826107b5565b156104895760405162461bcd60e51b815260206004820152602a60248201527f427974657331365365743a206b657920616c726561647920657869737473206960448201526937103a34329039b2ba1760b11b606482015260840161040a565b600182810180546001600160801b0319841660009081526020958652604081208290558184018355918252939020600284040180546001600160801b03949092166010026101000a9384021990911660809290921c92909202179055565b6000546001600160a01b031633146103465760405162461bcd60e51b815260206004820181905260248201527f4f776e61626c653a2063616c6c6572206973206e6f7420746865206f776e6572604482015260640161040a565b600082600101828154811061056657634e487b7160e01b600052603260045260246000fd5b90600052602060002090600291828204019190066010029054906101000a900460801b90505b92915050565b600080546001600160a01b038381166001600160a01b0319831681178455604051919092169283917f8be0079c531659141344cd1fd0a4f28419497f9722a3daafe3b4186f6b6457e09190a35050565b6105ec82826107b5565b61064b5760405162461bcd60e51b815260206004820152602a60248201527f427974657331365365743a206b657920646f6573206e6f74206578697374206960448201526937103a34329039b2ba1760b11b606482015260840161040a565b6000600161065a846001015490565b6106649190610922565b6001600160801b031983166000908152602085905260409020549091508082146107435760008460010183815481106106ad57634e487b7160e01b600052603260045260246000fd5b6000918252602080832060028304015460019283166010026101000a900460801b6001600160801b0319811684529088905260409092208490558601805491925082918490811061070e57634e487b7160e01b600052603260045260246000fd5b90600052602060002090600291828204019190066010026101000a8154816001600160801b03021916908360801c0217905550505b6001600160801b031983166000908152602085905260408120556001840180548061077e57634e487b7160e01b600052603160045260246000fd5b60008281526020902060026000199092019182040180546001600160801b03601060018516026101000a0219169055905550505050565b60018201546000906107c95750600061058c565b6001600160801b03198216600081815260208590526040902054600185018054909190811061080857634e487b7160e01b600052603260045260246000fd5b6000918252602090912060028204015460019091166010026101000a900460801b6001600160801b031916149392505050565b80356001600160801b03198116811461085357600080fd5b919050565b600060208284031215610869578081fd5b81356001600160a01b038116811461087f578182fd5b9392505050565b600060208284031215610897578081fd5b61087f8261083b565b600080604083850312156108b2578081fd5b6108bb8361083b565b946020939093013593505050565b602080825282518282018190526000919060409081850190868401855b8281101561091557815180516001600160801b03191685528601518685015292840192908501906001016108e6565b5091979650505050505050565b60008282101561093457610934610954565b500390565b600060001982141561094d5761094d610954565b5060010190565b634e487b7160e01b600052601160045260246000fdfea2646970667358221220f92dc177ef752ff5b0ecc59b905f16803e10aff744bc413f1a77b5df64d477a364736f6c63430008040033",
  "devdoc": {
    "custom:security-contact": "security@golden.com",
    "kind": "dev",
    "methods": {
      "owner()": {
        "details": "Returns the address of the current owner."
      },
      "renounceOwnership()": {
        "details": "Leaves the contract without owner. It will not be possible to call `onlyOwner` functions anymore. Can only be called by the current owner. NOTE: Renouncing ownership will leave the contract without an owner, thereby removing any functionality that is only available to the owner."
      },
      "transferOwnership(address)": {
        "details": "Transfers ownership of the contract to a new account (`newOwner`). Can only be called by the current owner."
      }
    },
    "version": 1
  },
  "userdoc": {
    "kind": "user",
    "methods": {},
    "version": 1
  },
  "storageLayout": {
    "storage": [
      {
        "astId": 5571,
        "contract": "contracts/GoldenSchema.sol:GoldenSchema",
        "label": "_owner",
        "offset": 0,
        "slot": "0",
        "type": "t_address"
      },
      {
        "astId": 12335,
        "contract": "contracts/GoldenSchema.sol:GoldenSchema",
        "label": "_predicateIDs",
        "offset": 0,
        "slot": "1",
        "type": "t_struct(Set)13702_storage"
      },
      {
        "astId": 12339,
        "contract": "contracts/GoldenSchema.sol:GoldenSchema",
        "label": "predicateIDToLatestCID",
        "offset": 0,
        "slot": "3",
        "type": "t_mapping(t_bytes16,t_bytes32)"
      }
    ],
    "types": {
      "t_address": {
        "encoding": "inplace",
        "label": "address",
        "numberOfBytes": "20"
      },
      "t_array(t_bytes16)dyn_storage": {
        "base": "t_bytes16",
        "encoding": "dynamic_array",
        "label": "bytes16[]",
        "numberOfBytes": "32"
      },
      "t_bytes16": {
        "encoding": "inplace",
        "label": "bytes16",
        "numberOfBytes": "16"
      },
      "t_bytes32": {
        "encoding": "inplace",
        "label": "bytes32",
        "numberOfBytes": "32"
      },
      "t_mapping(t_bytes16,t_bytes32)": {
        "encoding": "mapping",
        "key": "t_bytes16",
        "label": "mapping(bytes16 => bytes32)",
        "numberOfBytes": "32",
        "value": "t_bytes32"
      },
      "t_mapping(t_bytes16,t_uint256)": {
        "encoding": "mapping",
        "key": "t_bytes16",
        "label": "mapping(bytes16 => uint256)",
        "numberOfBytes": "32",
        "value": "t_uint256"
      },
      "t_struct(Set)13702_storage": {
        "encoding": "inplace",
        "label": "struct Bytes16Set.Set",
        "members": [
          {
            "astId": 13698,
            "contract": "contracts/GoldenSchema.sol:GoldenSchema",
            "label": "keyPointers",
            "offset": 0,
            "slot": "0",
            "type": "t_mapping(t_bytes16,t_uint256)"
          },
          {
            "astId": 13701,
            "contract": "contracts/GoldenSchema.sol:GoldenSchema",
            "label": "keyList",
            "offset": 0,
            "slot": "1",
            "type": "t_array(t_bytes16)dyn_storage"
          }
        ],
        "numberOfBytes": "64"
      },
      "t_uint256": {
        "encoding": "inplace",
        "label": "uint256",
        "numberOfBytes": "32"
      }
    }
  }
}