{
  "address": "0x659C2409493C368CD8DA7544B1084B3728B1e1Aa",
  "abi": [
    {
      "inputs": [
        {
          "components": [
            {
              "internalType": "bytes16",
              "name": "predicateID",
              "type": "bytes16"
            },
            {
              "internalType": "bytes32",
              "name": "latestCID",
              "type": "bytes32"
            }
          ],
          "internalType": "struct GoldenSchema.Predicate[]",
          "name": "initialPredicates",
          "type": "tuple[]"
        },
        {
          "components": [
            {
              "internalType": "bytes16",
              "name": "entityTypeID",
              "type": "bytes16"
            },
            {
              "internalType": "bytes32",
              "name": "latestCID",
              "type": "bytes32"
            }
          ],
          "internalType": "struct GoldenSchema.EntityType[]",
          "name": "initialEntityTypes",
          "type": "tuple[]"
        }
      ],
      "stateMutability": "nonpayable",
      "type": "constructor"
    },
    {
      "anonymous": false,
      "inputs": [
        {
          "indexed": true,
          "internalType": "bytes16",
          "name": "entityTypeID",
          "type": "bytes16"
        },
        {
          "indexed": true,
          "internalType": "bytes32",
          "name": "latestCID",
          "type": "bytes32"
        }
      ],
      "name": "EntityTypeAdded",
      "type": "event"
    },
    {
      "anonymous": false,
      "inputs": [
        {
          "indexed": true,
          "internalType": "bytes16",
          "name": "entityTypeID",
          "type": "bytes16"
        },
        {
          "indexed": true,
          "internalType": "bytes32",
          "name": "latestCID",
          "type": "bytes32"
        }
      ],
      "name": "EntityTypeRemoved",
      "type": "event"
    },
    {
      "anonymous": false,
      "inputs": [
        {
          "indexed": true,
          "internalType": "bytes16",
          "name": "entityTypeID",
          "type": "bytes16"
        },
        {
          "indexed": true,
          "internalType": "bytes32",
          "name": "latestCID",
          "type": "bytes32"
        }
      ],
      "name": "EntityTypeUpdated",
      "type": "event"
    },
    {
      "anonymous": false,
      "inputs": [
        {
          "indexed": true,
          "internalType": "address",
          "name": "previousOwner",
          "type": "address"
        },
        {
          "indexed": true,
          "internalType": "address",
          "name": "newOwner",
          "type": "address"
        }
      ],
      "name": "OwnershipTransferred",
      "type": "event"
    },
    {
      "anonymous": false,
      "inputs": [
        {
          "indexed": true,
          "internalType": "bytes16",
          "name": "predicateID",
          "type": "bytes16"
        },
        {
          "indexed": true,
          "internalType": "bytes32",
          "name": "latestCID",
          "type": "bytes32"
        }
      ],
      "name": "PredicateAdded",
      "type": "event"
    },
    {
      "anonymous": false,
      "inputs": [
        {
          "indexed": true,
          "internalType": "bytes16",
          "name": "predicateID",
          "type": "bytes16"
        },
        {
          "indexed": true,
          "internalType": "bytes32",
          "name": "latestCID",
          "type": "bytes32"
        }
      ],
      "name": "PredicateRemoved",
      "type": "event"
    },
    {
      "anonymous": false,
      "inputs": [
        {
          "indexed": true,
          "internalType": "bytes16",
          "name": "predicateID",
          "type": "bytes16"
        },
        {
          "indexed": true,
          "internalType": "bytes32",
          "name": "latestCID",
          "type": "bytes32"
        }
      ],
      "name": "PredicateUpdated",
      "type": "event"
    },
    {
      "inputs": [
        {
          "internalType": "bytes16",
          "name": "entityTypeID",
          "type": "bytes16"
        },
        {
          "internalType": "bytes32",
          "name": "entityTypeCID",
          "type": "bytes32"
        }
      ],
      "name": "addEntityType",
      "outputs": [],
      "stateMutability": "nonpayable",
      "type": "function"
    },
    {
      "inputs": [
        {
          "internalType": "bytes16",
          "name": "predicateID",
          "type": "bytes16"
        },
        {
          "internalType": "bytes32",
          "name": "predicateCID",
          "type": "bytes32"
        }
      ],
      "name": "addPredicate",
      "outputs": [],
      "stateMutability": "nonpayable",
      "type": "function"
    },
    {
      "inputs": [
        {
          "internalType": "bytes16",
          "name": "",
          "type": "bytes16"
        }
      ],
      "name": "entityTypeIDToLatestCID",
      "outputs": [
        {
          "internalType": "bytes32",
          "name": "",
          "type": "bytes32"
        }
      ],
      "stateMutability": "view",
      "type": "function"
    },
    {
      "inputs": [],
      "name": "entityTypes",
      "outputs": [
        {
          "components": [
            {
              "internalType": "bytes16",
              "name": "entityTypeID",
              "type": "bytes16"
            },
            {
              "internalType": "bytes32",
              "name": "latestCID",
              "type": "bytes32"
            }
          ],
          "internalType": "struct GoldenSchema.EntityType[]",
          "name": "",
          "type": "tuple[]"
        }
      ],
      "stateMutability": "view",
      "type": "function"
    },
    {
      "inputs": [],
      "name": "owner",
      "outputs": [
        {
          "internalType": "address",
          "name": "",
          "type": "address"
        }
      ],
      "stateMutability": "view",
      "type": "function"
    },
    {
      "inputs": [
        {
          "internalType": "bytes16",
          "name": "",
          "type": "bytes16"
        }
      ],
      "name": "predicateIDToLatestCID",
      "outputs": [
        {
          "internalType": "bytes32",
          "name": "",
          "type": "bytes32"
        }
      ],
      "stateMutability": "view",
      "type": "function"
    },
    {
      "inputs": [],
      "name": "predicates",
      "outputs": [
        {
          "components": [
            {
              "internalType": "bytes16",
              "name": "predicateID",
              "type": "bytes16"
            },
            {
              "internalType": "bytes32",
              "name": "latestCID",
              "type": "bytes32"
            }
          ],
          "internalType": "struct GoldenSchema.Predicate[]",
          "name": "",
          "type": "tuple[]"
        }
      ],
      "stateMutability": "view",
      "type": "function"
    },
    {
      "inputs": [
        {
          "internalType": "bytes16",
          "name": "entityTypeID",
          "type": "bytes16"
        }
      ],
      "name": "removeEntityType",
      "outputs": [],
      "stateMutability": "nonpayable",
      "type": "function"
    },
    {
      "inputs": [
        {
          "internalType": "bytes16",
          "name": "predicateID",
          "type": "bytes16"
        }
      ],
      "name": "removePredicate",
      "outputs": [],
      "stateMutability": "nonpayable",
      "type": "function"
    },
    {
      "inputs": [],
      "name": "renounceOwnership",
      "outputs": [],
      "stateMutability": "nonpayable",
      "type": "function"
    },
    {
      "inputs": [
        {
          "internalType": "address",
          "name": "newOwner",
          "type": "address"
        }
      ],
      "name": "transferOwnership",
      "outputs": [],
      "stateMutability": "nonpayable",
      "type": "function"
    },
    {
      "inputs": [
        {
          "internalType": "bytes16",
          "name": "entityTypeID",
          "type": "bytes16"
        },
        {
          "internalType": "bytes32",
          "name": "entityTypeCID",
          "type": "bytes32"
        }
      ],
      "name": "updateEntityType",
      "outputs": [],
      "stateMutability": "nonpayable",
      "type": "function"
    },
    {
      "inputs": [
        {
          "internalType": "bytes16",
          "name": "predicateID",
          "type": "bytes16"
        },
        {
          "internalType": "bytes32",
          "name": "predicateCID",
          "type": "bytes32"
        }
      ],
      "name": "updatePredicate",
      "outputs": [],
      "stateMutability": "nonpayable",
      "type": "function"
    }
  ],
  "transactionHash": "0x32388d6554e5cfe70d599430ead784637095b546b89e614932387066e03e931d",
  "args": [
    [
      [
        "0xbb463b8bb76c4f6a972665ab5730b69b",
        "0x4b48dfb69a095a7421c55685c4e0103f3528146a830d9c100d7e29a585d017a7"
      ],
      [
        "0x3104de39071c47b886b4d62ccc4a4fa6",
        "0xa51ec9925db01ad77f0cb4c572366afdfc991f725a711cbf8cb23d7ed73bd875"
      ],
      [
        "0x71ad3d9ee211472ba16d861737c57ecd",
        "0x57c23912c92ed61f44bf89a6871c02a6b955a013b7ed84966728f25e60c1dfb0"
      ],
      [
        "0x4b4ff1c9a0534bc387ef0713453f9992",
        "0x4af162669f3a89e85efa50124f8f1073a046a080778a3aec84ecfbecc5bce49c"
      ],
      [
        "0x6b95b113e33141bb8e3145b198a41ea8",
        "0x31883837ca5c8485aa0be4ea250a9935bcb429d8436a57744ad91eb7e8ec971e"
      ],
      [
        "0x7e593c0c457a464d9dd28e1fc5a8b116",
        "0x1ca14480941235fc81e9901c9440a8d5c0c5dad183efb6aa72870b0a8911c72f"
      ],
      [
        "0x1e49b96df641422691f0ed42e6de742e",
        "0xb011d2bf47c6d638c8014b93e8a0a278f99d3abd524b663c7d04ad0d2228aaf8"
      ],
      [
        "0x27897e2f5d0840fe904d0b0647fa2ff4",
        "0xa34c9cb97a4ba136548561c44656fac601a7d13225fc3c3d4ef4c61417747ace"
      ],
      [
        "0x71f46d7f6667460090bfeb82fbba8e17",
        "0x3abfa2b295e2b7d3b592c3627fe98d3fda91c6e30b5e7149d459bdde4b2b8fca"
      ],
      [
        "0x7f15d7885df14ff3a5e54c9e8e2c57af",
        "0x6b6442334f3ad7a7404b66a6329799d0649d35c9df58356d0100844db5c11a2d"
      ],
      [
        "0x92ae90d8d4f6476b940989b7d1b846c0",
        "0xb3ebe2768f5e305e6f87e75c1254478ea13a74a91adc89680679879b2540ea08"
      ],
      [
        "0xdb5923661c4c4087821e44699ddd29b6",
        "0x4b819a2a6af8ba1615906910eaf7d9adbf9f6e46c611d3096d094a3309de0409"
      ],
      [
        "0x9934d828963f403aa0da7a52e0224ef5",
        "0xa017b013cf3402706285353480ab30f6ae941b58b7d961782edd4af34c68832f"
      ],
      [
        "0xfa39c1f2bf0645e98995da919472deb8",
        "0xabbc7e3e40f514090fdc8783cea68af553dc216888b215314f24d7a9d1dacb51"
      ],
      [
        "0x1d7d64c5c4a1488991c42d2da0424dcc",
        "0x23d9580f1503f4ff359d5e8b47ab5535c15729855903be3bac8582dc1eb2c1e4"
      ],
      [
        "0xfb06b90352af4a799126f2589c2ca881",
        "0x626a50aa0590dc61eabdbda8d67243875eaf0a3d4c4bf8e4ff00f1abe6ab27ef"
      ],
      [
        "0xf348c532bffd4ad1b79c34258d05c1cd",
        "0x2f1bed692cf59db03adf960f194ace1c38e2c43763cff388d5a579323ad27cac"
      ],
      [
        "0xe3d0cfb43ec14ef2ae0893fa07aa27dc",
        "0xc2ba8b5f0d3583cde9b7b298a6c5e46b9340b703226d72bb5ba9388c7d5ea1a6"
      ],
      [
        "0x33461e27545443c3b30088c02a96c280",
        "0xd572ec8fabcb00a21a191ec7b958a1bd22a2ee434ea906b02050b6ad309092c9"
      ],
      [
        "0xfacb73aa82db45ffbd875ce7983d8ca2",
        "0x68c686941281ab3a804ee338e0315441dd26c92aa1d1e61c2c911cd5c4270bc3"
      ],
      [
        "0x68d490c8d8d34efe9670390df48e1ad6",
        "0x4aaf70584e3812fbc1378517523c2e43d7015810a8a99ecc3ae26a5dd74e1ee6"
      ],
      [
        "0x5bbcbd49c2554a6bb84adc076849650d",
        "0x9f00e0c7a823700b69a3c33ef44e47ba4cdc12611164810cddaf646660e480ef"
      ],
      [
        "0x14fa743c816142e8a92f5c29c70e87f8",
        "0x938c36338ecf7a479bc4879d7d1302c9414444f6dcf6009e2230a222d4c68581"
      ],
      [
        "0x36d1a264da264a1a8f0e726543749a5f",
        "0x5fefc4522f8f2373c75e03f812e782faf280e8bdb5c5cc46bf44afca904147d8"
      ],
      [
        "0x12acb8fe05734ca88cc1180cc6ba3486",
        "0xbbf08911f3100fe62c9687174ac2de709db6d6d7d6af029dd9fbc232b803fd72"
      ],
      [
        "0x8c4d6279199f4e469ef78702bad1e152",
        "0x620078e1ccf0e8504b2f91a094e5e332da340a2bb7172c78481e3b8ed31973b9"
      ],
      [
        "0x5387126afa274a428c7fbf813a6a893d",
        "0x70d25c0ac926c8dcc5271fa826551a633ea685f1f3ae0b8106d2a7bf8238ce45"
      ],
      [
        "0xa27218b86a4d47bb95b65a55334fac1c",
        "0xed75a27c6da5d1c8f53240ba52dd5b7aaf0fedc542947c166e0b7c627f0be22b"
      ],
      [
        "0x606272614e6c4ebf8879914576ade417",
        "0x15c598ea3d2629b8f77f1a4dbdea5c8e0fea946de79d991150fb4d2a557cf7d7"
      ],
      [
        "0x7f3869c17dc9448690456bade487a49d",
        "0xbf1155f6371f82e5d0beb11c5bf1f5b15204e55e269bc1fd4cc0bbe44a254bd9"
      ],
      [
        "0x0a87e99634b446ba909a70ab67b1f811",
        "0x50b5d9caf7b8393cd5e0001125ca9e9d645c729204a150327caab6bbd244daae"
      ],
      [
        "0xe4f94b98c56a4bd2a9fd5fd11603e7e8",
        "0x9353d757aec160473b18aa821e26a4eacbe07bdd7e947072ab6a726afe29d26c"
      ],
      [
        "0x94a8d215ce324379b18e2aebf0794882",
        "0xdb0ae2ae3a9a9a6e1c5880c8d951d3e4ff6bbb43479beb693ea80231f1eb2765"
      ],
      [
        "0x42cb158be83645ed9b56034668b8f05a",
        "0x0dd0bc0eaa3af6f2826ba72f7bd70e11178dfe3a41901ffa89e1bf3d3a8cfebe"
      ],
      [
        "0xc090be246c3545d88a8132e57a3d48dd",
        "0x36660a22962dd460ca8f5ac465ebcf4f0059df736a71f245fe81a0e8a6da7046"
      ],
      [
        "0xfa1a5ac7480c4e44a545b0f3dd9d24bf",
        "0xa59e59e5f9c12a2e4cdb2ddff5875480d9738eb1537259b10c7a0e97146d8d90"
      ],
      [
        "0x2f30a94ecd5e496fbec801bfb01da128",
        "0xf20296cca92b4bd8315d3c3f97b0d8dba075c446a397e35d1f513652f2a3a236"
      ],
      [
        "0x9cb6d628a0f848b09828253596b6ad00",
        "0x8ec2f5374ce86551690326a2a8dbc4716abe185bbee6b06c2a80ec12f0d20a2c"
      ],
      [
        "0x1551ee2af6a04a4bb322d98d3a696cf3",
        "0xa04be115c88bd5113085cbea68822ed541cde242dee0a853e4fd3bd7183b9beb"
      ],
      [
        "0x0efd04411ffc4e308806e58c434770c8",
        "0xf4c0b44c8bce2055c704423d338b8089ceae52c3c798251f89b96f199b400e0c"
      ],
      [
        "0xb996dfba6f3b458ebb9861939160fd88",
        "0x8587d9717f3ac17bf3d70c0db60bd58d7a0befd5bf147326f70ca72fa42a54f3"
      ],
      [
        "0xc094b0f7d34c4f5e86b3801da1c82091",
        "0x2f2a4e0b0b257ded8937853ab96256395d7a7d073ad1705165e3b526c1e83b24"
      ],
      [
        "0x896c9d73a08b44ae8e4e2a02e5c1e546",
        "0x888e0914c91aa2320de755b6d5ed96d655081333e9f725e1a1faae4771f9d8fa"
      ],
      [
        "0x78142d143ffa4250a92a23f6bfceca62",
        "0xcb9858822746690b82825f06a3ca06b00751a1bc47be0d973436f4499bb350a9"
      ],
      [
        "0x230c95f8f6744c08bc07773d5a6f198a",
        "0xb94de835919127307a789d354bbffbcbc6fd47fcfec2a911de86d4bf3866d610"
      ],
      [
        "0xedff5e5b1f4f469eabcc02eb9c5e4b67",
        "0xd15477a44762fc99415d2d76a136ed42db9bd133167b66f5de0d5ff70df4a1e5"
      ],
      [
        "0xcc4fdda93f19453bb417e691a771314f",
        "0x1ec36616b3f011505d78c7b13a38a9d3e922fe48a4bede2368169de5b4033aed"
      ],
      [
        "0xa0dc896f72b84d4eb9c3a447adfcf0e0",
        "0xebf3d4918990223a19b9286d8e40f0098c937293fa1d18aa6aa59d9ce4095ea7"
      ],
      [
        "0xfc693d4754aa4c9f8c73971637692e71",
        "0x7c3aeafaf9024a496da99f2cb0aa42c534c0ce48a71942cbd586d5f0860b55b2"
      ],
      [
        "0xa91e59fd5bda423488235fa614773ca2",
        "0xdf0afe6af5e0c7c8e8d1da3af24b60d423f10421c2514a2e6c1d35e9c7429e1d"
      ],
      [
        "0x1a2e507274ed40438c29d6e85b2fbd1a",
        "0x3e2abb01950f52c8357cd015b8668a2637c1124945dd1b4ef451459bf1a8245d"
      ],
      [
        "0x50f7f0261a214bdfb7eef6f6a8697740",
        "0x4315d1c12e4a4fda667eff9e92ab2445554d30c626244739aacd2ed7df2736c5"
      ],
      [
        "0xd4f75a00f5174afa88390add73e29f3b",
        "0xd61dab6b6fa548104c704213508419cfef6b35f6011bd601470df4cad2d6ac25"
      ],
      [
        "0x69e9e6d7f011432b86c7e484c828c1f7",
        "0xb87bcb376df76c17fd946776cf22293511b1b6a3258c43558cf4b2386b8ed686"
      ],
      [
        "0x09dec05552d842e69fc056ecac599a8b",
        "0x8bd77441ed748ea5810a1135ae732128ab651e2a346a84b657e87a372453ee81"
      ],
      [
        "0xcc4df1f397e54062ac74f77242bfd76f",
        "0x0a169fc95511ed9f03f78b8845034523a23bf37fac5140cbdcf8227461caf405"
      ],
      [
        "0x558771a6bffc49ec9e96c2f8c5b57123",
        "0x631b57e766f14c1144346adf9718c02f362e18b7bbe40504e6db1867bd5c710e"
      ],
      [
        "0xd5e99b151e3446febbffd000420eea60",
        "0x33f6f40eec8c11d3ef493e83e03af95661ea3c43b6cca62ba84ad381bf19410e"
      ],
      [
        "0xa980fe342bc0447793bb6508656d4e56",
        "0x4d6967cfa9e8c4bd0c9a11159a98b775dd06ad7b6e84166b7842b3330aff71d5"
      ],
      [
        "0x4f0e69b1a30f4fb59d601fe4443e258d",
        "0x8e24f3cbcb900ccc07f423fcc4f877e39da95cb221bdc97c427f7251b84efcb6"
      ],
      [
        "0x8ccfda1eb9cc44e9bfeb18bf98cc3330",
        "0x58f66167acc1230e63e9ecfb5d3d5a7537996c8d66cfcdd781eb7205b3d7cc69"
      ],
      [
        "0x369352425e49452381f2cb74492a5927",
        "0x26d39761376def1e87e58fc338e4f4af37833a392dc79efb38a8356f89d15892"
      ],
      [
        "0x24fc4f6dc56d4879ac7a76503341798b",
        "0x3c7f96637f07d71dd664a3face7e5b3cfb19a6ca139d598cf2d5858fccb8713d"
      ],
      [
        "0x25e6d22a564c4d6695e364787255b8a0",
        "0x0f1b473ff6268cc021c9875f435b66d3fe692c2841840805f172b0fe3f021575"
      ],
      [
        "0x26fe628b04344cba8536a29f7e4e552c",
        "0xbbb5bac14d4ff5b58d7e89efd04ed996aafa3a0c385aea9feb33e85663db7990"
      ],
      [
        "0xd4f54627aba245aaa5ff546faf07abf5",
        "0x10e3623d5f386e993d615343e2e68fda746399c495186fc0803fb5bc40d60a06"
      ],
      [
        "0x7258475d4d22418291bcc1199de6a009",
        "0x63f6707631b17616f0113991ce63a36dff60dbca18c69d319882b62dd9b3802c"
      ],
      [
        "0xda0b7a6f7f01447a9ddcf2bb8b51c4f9",
        "0x72b877d1bc22a63efc21dcefe99e0d9b3dba6754be2c839434b27c368e746abd"
      ],
      [
        "0xb09862456a0c48f9abae1c1b6f69996f",
        "0x8c732971dd47f7f85956a7c02a63fe37bf763745bbcba923a3fca6c01daad090"
      ],
      [
        "0xa737c8b2ab4444aaa61ae98b87fb9797",
        "0xcce81fe3cd0b8e4878708f24cda6895d9065ca623227610f029c15916b0e2690"
      ],
      [
        "0xdfd1908836ce4219a828428ef38a303c",
        "0x617e4406c070a1fc96ca2e1c8326c83a86feb115b110c6498f72045deb5d1621"
      ],
      [
        "0x4f977eb99d234873a012934c7cb9a6a4",
        "0xfe49437733c5bda9e8b5d7e71936bfd30188edf82cc4931ee73495cd48e27c2f"
      ],
      [
        "0x03744719b7f64316b10593a94f3b53cc",
        "0x43cfe3b7439e216851f95824bd36d0d6d29e71fb21cea59ce9136dd7d173b320"
      ],
      [
        "0x6105470fb87a447dbe7670f453298842",
        "0x931c8644ab3ea3f5e853baf103bd333812b871d38fafd9c1e442b7122bea6daa"
      ],
      [
        "0x08219f1e6c574fad99a3a998038e663d",
        "0xf4e278ab1a5fc97873007ee09b1c97be36379ff7d3766ab8c9d4691dd1d58482"
      ],
      [
        "0x1a3dd7d70eab4471a41e859611f9ed7c",
        "0xcdced2dacec5d921f6a61bc5ac8eaeec025ad86e69f045bfbaf3a570ee5dd17e"
      ],
      [
        "0x87634851cc7647e1a33beb7e8f6acbad",
        "0xc787c3774b776569af544ceb1d00cde2939e553e83822463a977857a312f4887"
      ],
      [
        "0x4386accd542b44e7a1e5ba84700c5239",
        "0x0df40fff77f3ea7f8c2a4e6fe0e9db93a8faf5ec27b4d6d38b36716d1de163d9"
      ],
      [
        "0x2ffa561a18da4986b169f223528c76c7",
        "0xc00a1d05156079fef55ba9467514af40632310bdf7c8a7e9212db996c92fc95e"
      ],
      [
        "0xf7c409b176954a94adaf1b843ee96995",
        "0x280e54927eec498e2886761c3a9ef3815f01066a097245e0c82a29dd31834ec7"
      ],
      [
        "0xe7acb77b8153446795f531cff49134cd",
        "0x32a9a6bd72e5304bc516ab8793847a1172547a8e710a04d7419246dca20a8270"
      ],
      [
        "0x64b90483fa1c4402b20efc5c59ba49b1",
        "0x1e21a71238988f1eab505eb9e7570c322df133f5e6fca74d8c6f6a773eb5639f"
      ],
      [
        "0x578aea9f03394993b61b141ba5aa5d2d",
        "0x0204be5fe2e39883c70979fe3fa0901b6288f3911c56a40c103a38af056bc9d2"
      ],
      [
        "0x15159f2d78854a83a120d154d83baa9d",
        "0x64f393efb4c9136888fd678fd0c31663934e553ef09af8609c84df0774a3cd8a"
      ],
      [
        "0x784e7f11889540d4b86382ccf49c0a1a",
        "0x11aa6a07d8f808be80456cff2386b14312267ab021b0eb6fd630cf4986cab50b"
      ],
      [
        "0x20008465981d407fb08581209577ffea",
        "0xbd0cfaa1298f802eba9f0019b1029f823b8cad850c078931836da87393dbccdc"
      ],
      [
        "0x20b378a947874c158ed7cd41a5339e15",
        "0xbc67752b6979b70860af0cc92bb3c86339ac10c9ad666eacb0494d4fc0878df2"
      ],
      [
        "0xfe2456030eed42ed80686c7831729efc",
        "0x3288a4cfa3c7c4122ee3e365ded39b52c6ee0a28fe79ebead9b1a61081682069"
      ],
      [
        "0xdacb097bb4eb4e30b720be2a2bce01dd",
        "0x9faf2f6bdd2e925173189bb33c79a08a77182d6244e035064fb5d61392477449"
      ],
      [
        "0x37d4158538164e55ac7a528dff0e8dae",
        "0x3a864f4895358b9b37d6328fc0f5759ec08ddeb866d72fb420e0d0295562c3e8"
      ],
      [
        "0xbfa3f0bff5fe43f5a5d5b5301634d299",
        "0xa73658be1c4fd971e471492c6182810516373e1afdf8969cf464474365bc14d6"
      ],
      [
        "0xbff1503259a04de8967766e13725727a",
        "0xfa99adc99ac623963d98c0af7b60c3c7458321d9afefc4fd4abfe45bd5f74a8d"
      ],
      [
        "0x93e1c40dea514c17aaed7d1b1b298d02",
        "0xa2ba3b120ab2bdf5554c72b1b61b4538b3062aba622bce898f7a465664fd98b5"
      ],
      [
        "0xddb8b7ea996b43d3b884b044f51a67d0",
        "0x7da672f219570ba957416572344cae823b88d4bcf5ec8da06a7b81d92e377cdf"
      ],
      [
        "0x0e3e4e651d83453fbbd3a31ac5865999",
        "0x8a46a6b5b3a9e4d85acde6f16b618eba914315a7650101b235f15d08643f7b4b"
      ],
      [
        "0xc23e7f13f2ff4e3a9a212d04462838b1",
        "0xa8ed7d8be7fda351dcd3c337f91348bd6bdb518f535e482ee0b19a8d1b1f45b3"
      ],
      [
        "0xa3b95c3cc217430eacd1053c95093024",
        "0xffaf7606038a294aa1973356616d579e26e9167709ba7f6332981a271111eaf3"
      ],
      [
        "0x3b9532e4bd3041289196dee1ee433bac",
        "0xd51b73a1e24b9b094a5452f7c37cdb114d989d31bc4c6f8c5ff7684a48472571"
      ],
      [
        "0x7725a2f0a0ab41209f94f24a1abde095",
        "0x183667718d699a5a4e908a72edf2dcba4276cd5bbdd2a3cc2bc6a20cb4f07e4b"
      ],
      [
        "0x866bb4b66b3a4b42b16ac6b1f2ec5a59",
        "0x85f33395bc9d8f4e0d39f4df15e4fd40b645e1f7fdb3421553f34bc6265c24a1"
      ],
      [
        "0x047cb8490d0e4c24a4a451e53336b1ea",
        "0xa1a7ceb1bc523c0c989d8f289b998e24855ec6c4bce754a16e552bafaa05bb29"
      ],
      [
        "0x3dbed8c1ebe5453abe9b3530f471527b",
        "0x8e8dec5c87e434e1b1266da685c43e70d6ce7e3b4d836ca80c67d1b96a0041da"
      ]
    ],
    [
      [
        "0x0a9fcc89e14b47af85c38465ca607c29",
        "0x85d6abd36b9e62fafe315b9d3584a98c065dc42c3b2fc1bbac90bb82355c2795"
      ],
      [
        "0x0c4e60545fd848a8817cf6611278f755",
        "0xda0b8430ad2447d39aa231a280c8e94cbfd12789490ec85805f43e9ebe069447"
      ],
      [
        "0x635dd566e3f24bcdbc5195f143b075c7",
        "0x013a9153dd91f6d229e570c385bd82e44a1b86da49c380c79fe33ebded33f932"
      ],
      [
        "0x253b2d4fbdb54e39bd7d26566cf024b0",
        "0x84abfcc996148c07cec9fc5e7657aac6066eea6db02b9b029addf51fda9b1433"
      ]
    ]
  ],
  "numDeployments": 6,
  "solcInputHash": "1601878fe94988669ee9d37508af7e8c",
  "bytecode": "0x60806040523480156200001157600080fd5b506040516200128138038062001281833981016040819052620000349162000506565b6200003f3362000135565b815160005b81811015620000b4576200009f8482815181106200006657620000666200059d565b6020026020010151600001518583815181106200008757620000876200059d565b6020026020010151602001516200018560201b60201c565b80620000ab81620005b3565b91505062000044565b50815160005b818110156200012a5762000115848281518110620000dc57620000dc6200059d565b602002602001015160000151858381518110620000fd57620000fd6200059d565b602002602001015160200151620001f260201b60201c565b806200012181620005b3565b915050620000ba565b5050505050620005db565b600080546001600160a01b038381166001600160a01b0319831681178455604051919092169283917f8be0079c531659141344cd1fd0a4f28419497f9722a3daafe3b4186f6b6457e09190a35050565b6200018f6200025f565b620001aa826001620002c160201b620006bd1790919060201c565b6001600160801b03198216600081815260036020526040808220849055518392917fddbd9c69ad18561fc7cf11ff7be612fea0c255ddacedce5a41dd21a65a24ae8591a35050565b620001fc6200025f565b62000217826004620002c160201b620006bd1790919060201c565b6001600160801b03198216600081815260066020526040808220849055518392917f2f872f7622fa2463de842fdb296dcd8b04e8d9a4c74f9d1bd7fc394e9bbbbc5d91a35050565b6000546001600160a01b03163314620002bf5760405162461bcd60e51b815260206004820181905260248201527f4f776e61626c653a2063616c6c6572206973206e6f7420746865206f776e657260448201526064015b60405180910390fd5b565b620002cd82826200038d565b156200032f5760405162461bcd60e51b815260206004820152602a60248201527f427974657331365365743a206b657920616c726561647920657869737473206960448201526937103a34329039b2ba1760b11b6064820152608401620002b6565b600182810180546001600160801b0319841660009081526020958652604081208290558184018355918252939020600284040180546001600160801b03949092166010026101000a9384021990911660809290921c92909202179055565b60018201546000908103620003a5575060006200040a565b6001600160801b031982166000818152602085905260409020546001850180549091908110620003d957620003d96200059d565b90600052602060002090600291828204019190066010029054906101000a900460801b6001600160801b0319161490505b92915050565b634e487b7160e01b600052604160045260246000fd5b60006001600160401b038084111562000443576200044362000410565b60408051601f19603f8760051b0116810181811084821117156200046b576200046b62000410565b82528581529250600685901b8401602080850190888311156200048d57600080fd5b865b83811015620004f95784818b031215620004a95760008081fd5b84518581018181108882111715620004c557620004c562000410565b865281516001600160801b031981168114620004e15760008081fd5b8152818301518382015283529181019184016200048f565b5050505050509392505050565b600080604083850312156200051a57600080fd5b82516001600160401b03808211156200053257600080fd5b818501915085601f8301126200054757600080fd5b620005588683516020850162000426565b935060208501519150808211156200056f57600080fd5b508301601f810185136200058257600080fd5b620005938582516020840162000426565b9150509250929050565b634e487b7160e01b600052603260045260246000fd5b600060018201620005d457634e487b7160e01b600052601160045260246000fd5b5060010190565b610c9680620005eb6000396000f3fe608060405234801561001057600080fd5b50600436106100cf5760003560e01c8063702f1f5d1161008c578063b4112e4011610066578063b4112e40146101a6578063b988eb12146101c6578063d6b76363146101d9578063f2fde38b146101ec57600080fd5b8063702f1f5d14610170578063715018a6146101835780638da5cb5b1461018b57600080fd5b80632514704c146100d45780632562e43b146100e957806338b7a7d5146101075780633c3efab41461011a578063457401d31461012f5780634c019d211461015d575b600080fd5b6100e76100e2366004610ab2565b6101ff565b005b6100f1610258565b6040516100fe9190610ad4565b60405180910390f35b6100e7610115366004610b35565b61036d565b6101226103bd565b6040516100fe9190610b5f565b61014f61013d366004610ab2565b60066020526000908152604090205481565b6040519081526020016100fe565b6100e761016b366004610b35565b6104cc565b6100e761017e366004610b35565b610527565b6100e7610582565b6000546040516001600160a01b0390911681526020016100fe565b61014f6101b4366004610ab2565b60036020526000908152604090205481565b6100e76101d4366004610b35565b610596565b6100e76101e7366004610ab2565b6105e6565b6100e76101fa366004610bb3565b61063f565b610207610785565b6102126004826107df565b6001600160801b031981166000818152600660205260408082205490519092917f5529e55acb20a6fcca4dbfdd33eeecebc71fbf8f6eeb050ba1a50b66511c48a891a350565b60055460609060009067ffffffffffffffff81111561027957610279610bdc565b6040519080825280602002602001820160405280156102be57816020015b60408051808201909152600080825260208201528152602001906001900390816102975790505b50905060005b8151811015610367576102d8600482610988565b8282815181106102ea576102ea610bf2565b60209081029190910101516001600160801b0319909116905260066000610312600484610988565b6001600160801b0319166001600160801b03191681526020019081526020016000205482828151811061034757610347610bf2565b60209081029190910181015101528061035f81610c1e565b9150506102c4565b50919050565b610375610785565b6001600160801b03198216600081815260036020526040808220849055518392917f115c3e1d5164e8f7d3fc558e8a290f058c709114555eed7426c3c3b9d7d7318591a35050565b60025460609060009067ffffffffffffffff8111156103de576103de610bdc565b60405190808252806020026020018201604052801561042357816020015b60408051808201909152600080825260208201528152602001906001900390816103fc5790505b50905060005b81518110156103675761043d600182610988565b82828151811061044f5761044f610bf2565b60209081029190910101516001600160801b0319909116905260036000610477600184610988565b6001600160801b0319166001600160801b0319168152602001908152602001600020548282815181106104ac576104ac610bf2565b6020908102919091018101510152806104c481610c1e565b915050610429565b6104d4610785565b6104df6004836106bd565b6001600160801b03198216600081815260066020526040808220849055518392917f2f872f7622fa2463de842fdb296dcd8b04e8d9a4c74f9d1bd7fc394e9bbbbc5d91a35050565b61052f610785565b61053a6001836106bd565b6001600160801b03198216600081815260036020526040808220849055518392917fddbd9c69ad18561fc7cf11ff7be612fea0c255ddacedce5a41dd21a65a24ae8591a35050565b61058a610785565b61059460006109cb565b565b61059e610785565b6001600160801b03198216600081815260066020526040808220849055518392917fbeabbc887e1b032117e8c1eb4816b60ee38c9678b75138255a0fb0c505badb5891a35050565b6105ee610785565b6105f96001826107df565b6001600160801b031981166000818152600360205260408082205490519092917f0792080f73e0f4bd6ee184076e9f0924507e65f2aa6517aef7b6abd9bc45b96291a350565b610647610785565b6001600160a01b0381166106b15760405162461bcd60e51b815260206004820152602660248201527f4f776e61626c653a206e6577206f776e657220697320746865207a65726f206160448201526564647265737360d01b60648201526084015b60405180910390fd5b6106ba816109cb565b50565b6106c78282610a1b565b156107275760405162461bcd60e51b815260206004820152602a60248201527f427974657331365365743a206b657920616c726561647920657869737473206960448201526937103a34329039b2ba1760b11b60648201526084016106a8565b600182810180546001600160801b0319841660009081526020958652604081208290558184018355918252939020600284040180546001600160801b03949092166010026101000a9384021990911660809290921c92909202179055565b6000546001600160a01b031633146105945760405162461bcd60e51b815260206004820181905260248201527f4f776e61626c653a2063616c6c6572206973206e6f7420746865206f776e657260448201526064016106a8565b6107e98282610a1b565b6108485760405162461bcd60e51b815260206004820152602a60248201527f427974657331365365743a206b657920646f6573206e6f74206578697374206960448201526937103a34329039b2ba1760b11b60648201526084016106a8565b60006001610857846001015490565b6108619190610c37565b6001600160801b0319831660009081526020859052604090205490915080821461092457600084600101838154811061089c5761089c610bf2565b6000918252602080832060028304015460019283166010026101000a900460801b6001600160801b031981168452908890526040909220849055860180549192508291849081106108ef576108ef610bf2565b90600052602060002090600291828204019190066010026101000a8154816001600160801b03021916908360801c0217905550505b6001600160801b031983166000908152602085905260408120556001840180548061095157610951610c4a565b60008281526020902060026000199092019182040180546001600160801b03601060018516026101000a0219169055905550505050565b600082600101828154811061099f5761099f610bf2565b90600052602060002090600291828204019190066010029054906101000a900460801b90505b92915050565b600080546001600160a01b038381166001600160a01b0319831681178455604051919092169283917f8be0079c531659141344cd1fd0a4f28419497f9722a3daafe3b4186f6b6457e09190a35050565b60018201546000908103610a31575060006109c5565b6001600160801b031982166000818152602085905260409020546001850180549091908110610a6257610a62610bf2565b6000918252602090912060028204015460019091166010026101000a900460801b6001600160801b031916149392505050565b80356001600160801b031981168114610aad57600080fd5b919050565b600060208284031215610ac457600080fd5b610acd82610a95565b9392505050565b602080825282518282018190526000919060409081850190868401855b82811015610b2857610b1884835180516001600160801b0319168252602090810151910152565b9284019290850190600101610af1565b5091979650505050505050565b60008060408385031215610b4857600080fd5b610b5183610a95565b946020939093013593505050565b602080825282518282018190526000919060409081850190868401855b82811015610b2857610ba384835180516001600160801b0319168252602090810151910152565b9284019290850190600101610b7c565b600060208284031215610bc557600080fd5b81356001600160a01b0381168114610acd57600080fd5b634e487b7160e01b600052604160045260246000fd5b634e487b7160e01b600052603260045260246000fd5b634e487b7160e01b600052601160045260246000fd5b600060018201610c3057610c30610c08565b5060010190565b818103818111156109c5576109c5610c08565b634e487b7160e01b600052603160045260246000fdfea264697066735822122081d93a09ed250a6ceb6dcb64cf47570b184ab6f652e38d04970199cd95b394a464736f6c63430008100033",
  "devdoc": {
    "custom:security-contact": "security@golden.com",
    "kind": "dev",
    "methods": {
      "owner()": {
        "details": "Returns the address of the current owner."
      },
      "renounceOwnership()": {
        "details": "Leaves the contract without owner. It will not be possible to call `onlyOwner` functions anymore. Can only be called by the current owner. NOTE: Renouncing ownership will leave the contract without an owner, thereby removing any functionality that is only available to the owner."
      },
      "transferOwnership(address)": {
        "details": "Transfers ownership of the contract to a new account (`newOwner`). Can only be called by the current owner."
      }
    },
    "version": 1
  },
  "userdoc": {
    "kind": "user",
    "methods": {},
    "version": 1
  },
  "storageLayout": {
    "storage": [
      {
        "astId": 7,
        "contract": "contracts/GoldenSchema.sol:GoldenSchema",
        "label": "_owner",
        "offset": 0,
        "slot": "0",
        "type": "t_address"
      },
      {
        "astId": 148,
        "contract": "contracts/GoldenSchema.sol:GoldenSchema",
        "label": "_predicateIDs",
        "offset": 0,
        "slot": "1",
        "type": "t_struct(Set)542_storage"
      },
      {
        "astId": 152,
        "contract": "contracts/GoldenSchema.sol:GoldenSchema",
        "label": "predicateIDToLatestCID",
        "offset": 0,
        "slot": "3",
        "type": "t_mapping(t_bytes16,t_bytes32)"
      },
      {
        "astId": 155,
        "contract": "contracts/GoldenSchema.sol:GoldenSchema",
        "label": "_entityTypeIDs",
        "offset": 0,
        "slot": "4",
        "type": "t_struct(Set)542_storage"
      },
      {
        "astId": 159,
        "contract": "contracts/GoldenSchema.sol:GoldenSchema",
        "label": "entityTypeIDToLatestCID",
        "offset": 0,
        "slot": "6",
        "type": "t_mapping(t_bytes16,t_bytes32)"
      }
    ],
    "types": {
      "t_address": {
        "encoding": "inplace",
        "label": "address",
        "numberOfBytes": "20"
      },
      "t_array(t_bytes16)dyn_storage": {
        "base": "t_bytes16",
        "encoding": "dynamic_array",
        "label": "bytes16[]",
        "numberOfBytes": "32"
      },
      "t_bytes16": {
        "encoding": "inplace",
        "label": "bytes16",
        "numberOfBytes": "16"
      },
      "t_bytes32": {
        "encoding": "inplace",
        "label": "bytes32",
        "numberOfBytes": "32"
      },
      "t_mapping(t_bytes16,t_bytes32)": {
        "encoding": "mapping",
        "key": "t_bytes16",
        "label": "mapping(bytes16 => bytes32)",
        "numberOfBytes": "32",
        "value": "t_bytes32"
      },
      "t_mapping(t_bytes16,t_uint256)": {
        "encoding": "mapping",
        "key": "t_bytes16",
        "label": "mapping(bytes16 => uint256)",
        "numberOfBytes": "32",
        "value": "t_uint256"
      },
      "t_struct(Set)542_storage": {
        "encoding": "inplace",
        "label": "struct Bytes16Set.Set",
        "members": [
          {
            "astId": 538,
            "contract": "contracts/GoldenSchema.sol:GoldenSchema",
            "label": "keyPointers",
            "offset": 0,
            "slot": "0",
            "type": "t_mapping(t_bytes16,t_uint256)"
          },
          {
            "astId": 541,
            "contract": "contracts/GoldenSchema.sol:GoldenSchema",
            "label": "keyList",
            "offset": 0,
            "slot": "1",
            "type": "t_array(t_bytes16)dyn_storage"
          }
        ],
        "numberOfBytes": "64"
      },
      "t_uint256": {
        "encoding": "inplace",
        "label": "uint256",
        "numberOfBytes": "32"
      }
    }
  }
}