{
  "address": "0x1C092DA2664021B38C8b3588F13d1FB9987a2d67",
  "abi": [
    {
      "anonymous": false,
      "inputs": [
        {
          "indexed": true,
          "internalType": "uint256",
          "name": "tokenId",
          "type": "uint256"
        },
        {
          "indexed": false,
          "internalType": "string",
          "name": "entityId",
          "type": "string"
        }
      ],
      "name": "Burned",
      "type": "event"
    },
    {
      "anonymous": false,
      "inputs": [
        {
          "indexed": true,
          "internalType": "string",
          "name": "docId",
          "type": "string"
        },
        {
          "indexed": false,
          "internalType": "uint256",
          "name": "newTotal",
          "type": "uint256"
        }
      ],
      "name": "DocumentAdded",
      "type": "event"
    },
    {
      "anonymous": false,
      "inputs": [
        {
          "indexed": true,
          "internalType": "address",
          "name": "goldenTokenContractAddress",
          "type": "address"
        }
      ],
      "name": "GoldenTokenContractAddressChanged",
      "type": "event"
    },
    {
      "anonymous": false,
      "inputs": [
        {
          "indexed": false,
          "internalType": "uint8",
          "name": "version",
          "type": "uint8"
        }
      ],
      "name": "Initialized",
      "type": "event"
    },
    {
      "anonymous": false,
      "inputs": [
        {
          "indexed": true,
          "internalType": "uint256",
          "name": "tokenId",
          "type": "uint256"
        },
        {
          "indexed": false,
          "internalType": "string",
          "name": "entityId",
          "type": "string"
        }
      ],
      "name": "Minted",
      "type": "event"
    },
    {
      "anonymous": false,
      "inputs": [
        {
          "indexed": true,
          "internalType": "address",
          "name": "previousOwner",
          "type": "address"
        },
        {
          "indexed": true,
          "internalType": "address",
          "name": "newOwner",
          "type": "address"
        }
      ],
      "name": "OwnershipTransferred",
      "type": "event"
    },
    {
      "anonymous": false,
      "inputs": [
        {
          "indexed": true,
          "internalType": "bytes32",
          "name": "role",
          "type": "bytes32"
        },
        {
          "indexed": true,
          "internalType": "bytes32",
          "name": "previousAdminRole",
          "type": "bytes32"
        },
        {
          "indexed": true,
          "internalType": "bytes32",
          "name": "newAdminRole",
          "type": "bytes32"
        }
      ],
      "name": "RoleAdminChanged",
      "type": "event"
    },
    {
      "anonymous": false,
      "inputs": [
        {
          "indexed": true,
          "internalType": "bytes32",
          "name": "role",
          "type": "bytes32"
        },
        {
          "indexed": true,
          "internalType": "address",
          "name": "account",
          "type": "address"
        },
        {
          "indexed": true,
          "internalType": "address",
          "name": "sender",
          "type": "address"
        }
      ],
      "name": "RoleGranted",
      "type": "event"
    },
    {
      "anonymous": false,
      "inputs": [
        {
          "indexed": true,
          "internalType": "bytes32",
          "name": "role",
          "type": "bytes32"
        },
        {
          "indexed": true,
          "internalType": "address",
          "name": "account",
          "type": "address"
        },
        {
          "indexed": true,
          "internalType": "address",
          "name": "sender",
          "type": "address"
        }
      ],
      "name": "RoleRevoked",
      "type": "event"
    },
    {
      "inputs": [],
      "name": "BURNER_ROLE",
      "outputs": [
        {
          "internalType": "bytes32",
          "name": "",
          "type": "bytes32"
        }
      ],
      "stateMutability": "view",
      "type": "function"
    },
    {
      "inputs": [],
      "name": "DEFAULT_ADMIN_ROLE",
      "outputs": [
        {
          "internalType": "bytes32",
          "name": "",
          "type": "bytes32"
        }
      ],
      "stateMutability": "view",
      "type": "function"
    },
    {
      "inputs": [],
      "name": "MINTER_ROLE",
      "outputs": [
        {
          "internalType": "bytes32",
          "name": "",
          "type": "bytes32"
        }
      ],
      "stateMutability": "view",
      "type": "function"
    },
    {
      "inputs": [
        {
          "internalType": "address[]",
          "name": "addresses",
          "type": "address[]"
        }
      ],
      "name": "addBurners",
      "outputs": [],
      "stateMutability": "nonpayable",
      "type": "function"
    },
    {
      "inputs": [
        {
          "internalType": "string",
          "name": "docId",
          "type": "string"
        }
      ],
      "name": "addDocumentId",
      "outputs": [],
      "stateMutability": "nonpayable",
      "type": "function"
    },
    {
      "inputs": [
        {
          "internalType": "address[]",
          "name": "addresses",
          "type": "address[]"
        }
      ],
      "name": "addMinters",
      "outputs": [],
      "stateMutability": "nonpayable",
      "type": "function"
    },
    {
      "inputs": [
        {
          "internalType": "uint256[]",
          "name": "tokenIds",
          "type": "uint256[]"
        }
      ],
      "name": "bulkBurn",
      "outputs": [],
      "stateMutability": "nonpayable",
      "type": "function"
    },
    {
      "inputs": [
        {
          "internalType": "string[]",
          "name": "entities",
          "type": "string[]"
        }
      ],
      "name": "bulkMint",
      "outputs": [],
      "stateMutability": "nonpayable",
      "type": "function"
    },
    {
      "inputs": [
        {
          "internalType": "uint256",
          "name": "tokenId",
          "type": "uint256"
        }
      ],
      "name": "burn",
      "outputs": [],
      "stateMutability": "nonpayable",
      "type": "function"
    },
    {
      "inputs": [
        {
          "internalType": "string",
          "name": "docId",
          "type": "string"
        }
      ],
      "name": "doesDocumentExist",
      "outputs": [
        {
          "internalType": "bool",
          "name": "",
          "type": "bool"
        }
      ],
      "stateMutability": "view",
      "type": "function"
    },
    {
      "inputs": [
        {
          "internalType": "uint256",
          "name": "tokenId",
          "type": "uint256"
        }
      ],
      "name": "exists",
      "outputs": [
        {
          "internalType": "bool",
          "name": "",
          "type": "bool"
        }
      ],
      "stateMutability": "view",
      "type": "function"
    },
    {
      "inputs": [
        {
          "internalType": "uint256",
          "name": "tokenId",
          "type": "uint256"
        }
      ],
      "name": "getEntityId",
      "outputs": [
        {
          "internalType": "string",
          "name": "",
          "type": "string"
        }
      ],
      "stateMutability": "view",
      "type": "function"
    },
    {
      "inputs": [],
      "name": "getLatestDocumentId",
      "outputs": [
        {
          "internalType": "string",
          "name": "",
          "type": "string"
        }
      ],
      "stateMutability": "view",
      "type": "function"
    },
    {
      "inputs": [
        {
          "internalType": "bytes32",
          "name": "role",
          "type": "bytes32"
        }
      ],
      "name": "getRoleAdmin",
      "outputs": [
        {
          "internalType": "bytes32",
          "name": "",
          "type": "bytes32"
        }
      ],
      "stateMutability": "view",
      "type": "function"
    },
    {
      "inputs": [
        {
          "internalType": "string",
          "name": "entityId",
          "type": "string"
        }
      ],
      "name": "getTokenId",
      "outputs": [
        {
          "internalType": "uint256",
          "name": "",
          "type": "uint256"
        }
      ],
      "stateMutability": "view",
      "type": "function"
    },
    {
      "inputs": [],
      "name": "goldenTokenContractAddress",
      "outputs": [
        {
          "internalType": "address",
          "name": "",
          "type": "address"
        }
      ],
      "stateMutability": "view",
      "type": "function"
    },
    {
      "inputs": [
        {
          "internalType": "bytes32",
          "name": "role",
          "type": "bytes32"
        },
        {
          "internalType": "address",
          "name": "account",
          "type": "address"
        }
      ],
      "name": "grantRole",
      "outputs": [],
      "stateMutability": "nonpayable",
      "type": "function"
    },
    {
      "inputs": [
        {
          "internalType": "bytes32",
          "name": "role",
          "type": "bytes32"
        },
        {
          "internalType": "address",
          "name": "account",
          "type": "address"
        }
      ],
      "name": "hasRole",
      "outputs": [
        {
          "internalType": "bool",
          "name": "",
          "type": "bool"
        }
      ],
      "stateMutability": "view",
      "type": "function"
    },
    {
      "inputs": [
        {
          "internalType": "address",
          "name": "_goldenTokenContractAddress",
          "type": "address"
        },
        {
          "internalType": "address[]",
          "name": "minterWallets",
          "type": "address[]"
        }
      ],
      "name": "initialize",
      "outputs": [],
      "stateMutability": "nonpayable",
      "type": "function"
    },
    {
      "inputs": [
        {
          "internalType": "string",
          "name": "entityId",
          "type": "string"
        }
      ],
      "name": "mint",
      "outputs": [
        {
          "internalType": "uint256",
          "name": "",
          "type": "uint256"
        }
      ],
      "stateMutability": "nonpayable",
      "type": "function"
    },
    {
      "inputs": [],
      "name": "name",
      "outputs": [
        {
          "internalType": "string",
          "name": "",
          "type": "string"
        }
      ],
      "stateMutability": "view",
      "type": "function"
    },
    {
      "inputs": [],
      "name": "owner",
      "outputs": [
        {
          "internalType": "address",
          "name": "",
          "type": "address"
        }
      ],
      "stateMutability": "view",
      "type": "function"
    },
    {
      "inputs": [
        {
          "internalType": "address[]",
          "name": "addresses",
          "type": "address[]"
        }
      ],
      "name": "removeBurners",
      "outputs": [],
      "stateMutability": "nonpayable",
      "type": "function"
    },
    {
      "inputs": [
        {
          "internalType": "address[]",
          "name": "addresses",
          "type": "address[]"
        }
      ],
      "name": "removeMinters",
      "outputs": [],
      "stateMutability": "nonpayable",
      "type": "function"
    },
    {
      "inputs": [],
      "name": "renounceOwnership",
      "outputs": [],
      "stateMutability": "nonpayable",
      "type": "function"
    },
    {
      "inputs": [
        {
          "internalType": "bytes32",
          "name": "role",
          "type": "bytes32"
        },
        {
          "internalType": "address",
          "name": "account",
          "type": "address"
        }
      ],
      "name": "renounceRole",
      "outputs": [],
      "stateMutability": "nonpayable",
      "type": "function"
    },
    {
      "inputs": [
        {
          "internalType": "bytes32",
          "name": "role",
          "type": "bytes32"
        },
        {
          "internalType": "address",
          "name": "account",
          "type": "address"
        }
      ],
      "name": "revokeRole",
      "outputs": [],
      "stateMutability": "nonpayable",
      "type": "function"
    },
    {
      "inputs": [
        {
          "internalType": "address",
          "name": "newGoldenTokenContractAddress",
          "type": "address"
        }
      ],
      "name": "setGoldenTokenContractAddress",
      "outputs": [],
      "stateMutability": "nonpayable",
      "type": "function"
    },
    {
      "inputs": [
        {
          "internalType": "bytes4",
          "name": "interfaceId",
          "type": "bytes4"
        }
      ],
      "name": "supportsInterface",
      "outputs": [
        {
          "internalType": "bool",
          "name": "",
          "type": "bool"
        }
      ],
      "stateMutability": "view",
      "type": "function"
    },
    {
      "inputs": [],
      "name": "symbol",
      "outputs": [
        {
          "internalType": "string",
          "name": "",
          "type": "string"
        }
      ],
      "stateMutability": "view",
      "type": "function"
    },
    {
      "inputs": [],
      "name": "totalDocuments",
      "outputs": [
        {
          "internalType": "uint256",
          "name": "",
          "type": "uint256"
        }
      ],
      "stateMutability": "view",
      "type": "function"
    },
    {
      "inputs": [],
      "name": "totalSupply",
      "outputs": [
        {
          "internalType": "uint256",
          "name": "",
          "type": "uint256"
        }
      ],
      "stateMutability": "view",
      "type": "function"
    },
    {
      "inputs": [
        {
          "internalType": "address",
          "name": "newOwner",
          "type": "address"
        }
      ],
      "name": "transferOwnership",
      "outputs": [],
      "stateMutability": "nonpayable",
      "type": "function"
    }
  ],
  "transactionHash": "0xe5e4d0004026470f2da739db9347a2d3d7f93022712e3a24313750f1f7c19509",
  "args": [],
  "numDeployments": 1,
  "solcInputHash": "2df19d23363773807c5f701a88f9c718",
  "bytecode": "0x608060405234801561001057600080fd5b50611ffe806100206000396000f3fe608060405234801561001057600080fd5b50600436106101fb5760003560e01c8063715018a61161011a578063a217fddf116100ad578063d53913931161007c578063d539139314610423578063d547741f14610438578063d85d3d271461044b578063e47d419b1461045e578063f2fde38b1461047157600080fd5b8063a217fddf146103ed578063ab55f1a0146103f5578063b52f451a14610408578063ce1fffec1461041057600080fd5b806391d14854116100e957806391d14854146103ac578063946d9204146103bf57806395d89b41146103d25780639e124d69146103da57600080fd5b8063715018a61461036d57806371e2a657146103755780637e3cdcb2146103885780638da5cb5b1461039b57600080fd5b80633ab84dd9116101925780634f558e79116101615780634f558e791461032b578063553181ec1461033e5780635f260332146103475780635fc1964f1461035a57600080fd5b80633ab84dd9146102c757806342966c68146102da57806346b382e6146102ed5780634d5e504b1461031857600080fd5b8063248a9ca3116101ce578063248a9ca314610267578063282c51f31461028a5780632f2ff15d1461029f57806336568abe146102b457600080fd5b806301ffc9a71461020057806306fdde031461022857806318160ddd1461023d5780631e7663bc14610254575b600080fd5b61021361020e366004611823565b610484565b60405190151581526020015b60405180910390f35b6102306104bb565b60405161021f9190611871565b61024660cc5481565b60405190815260200161021f565b6102466102623660046118a4565b610549565b610246610275366004611916565b60009081526097602052604090206001015490565b610246600080516020611f8983398151915281565b6102b26102ad36600461194b565b610574565b005b6102b26102c236600461194b565b61059e565b6102b26102d53660046119be565b610621565b6102b26102e8366004611916565b61067e565b60c954610300906001600160a01b031681565b6040516001600160a01b03909116815260200161021f565b610213610326366004611a6b565b610824565b610213610339366004611916565b6108c5565b61024660cd5481565b6102b2610355366004611b00565b6108eb565b6102b26103683660046119be565b61098e565b6102b26109eb565b6102b26103833660046119be565b6109ff565b6102b2610396366004611b67565b610a5c565b6033546001600160a01b0316610300565b6102136103ba36600461194b565b610b42565b6102b26103cd366004611ba9565b610b6d565b610230610e6b565b6102b26103e8366004611b67565b610e78565b610246600081565b610230610403366004611916565b610f13565b610230610fb5565b6102b261041e366004611a6b565b611070565b610246600080516020611fa983398151915281565b6102b261044636600461194b565b611117565b610246610459366004611a6b565b61113c565b6102b261046c3660046119be565b611254565b6102b261047f366004611b00565b6112b1565b60006001600160e01b03198216637965db0b60e01b14806104b557506301ffc9a760e01b6001600160e01b03198316145b92915050565b60ca80546104c890611bfc565b80601f01602080910402602001604051908101604052809291908181526020018280546104f490611bfc565b80156105415780601f1061051657610100808354040283529160200191610541565b820191906000526020600020905b81548152906001019060200180831161052457829003601f168201915b505050505081565b600060d0838360405161055d929190611c30565b908152602001604051809103902054905092915050565b60008281526097602052604090206001015461058f8161132a565b6105998383611334565b505050565b6001600160a01b03811633146106135760405162461bcd60e51b815260206004820152602f60248201527f416363657373436f6e74726f6c3a2063616e206f6e6c792072656e6f756e636560448201526e103937b632b9903337b91039b2b63360891b60648201526084015b60405180910390fd5b61061d82826113ba565b5050565b610629611421565b60005b815181101561061d57600082828151811061064957610649611c40565b6020026020010151905061066b600080516020611f898339815191528261147b565b508061067681611c6c565b91505061062c565b600080516020611f898339815191526106968161132a565b600082815260cf6020526040902080546106af90611bfc565b90506000036106f95760405162461bcd60e51b8152602060048201526016602482015275313ab937103737b732bc34b9ba32b73a103a37b5b2b760511b604482015260640161060a565b600082815260cf60205260408120805461071290611bfc565b80601f016020809104026020016040519081016040528092919081815260200182805461073e90611bfc565b801561078b5780601f106107605761010080835404028352916020019161078b565b820191906000526020600020905b81548152906001019060200180831161076e57829003601f168201915b5050505050905060d0816040516107a29190611c85565b90815260200160405180910390206000905560cf600084815260200190815260200160002060006107d391906117d5565b600160cc546107e29190611ca1565b60cc5560405183907f807d972db6803e8ebfe2ba7ce23584b5fbd0ef70584ff004d2184d2ab1d2e0ad90610817908490611871565b60405180910390a2505050565b6000805b60d1548110156108bc57826040516020016108439190611c85565b6040516020818303038152906040528051906020012060d1828154811061086c5761086c611c40565b906000526020600020016040516020016108869190611cb4565b60405160208183030381529060405280519060200120036108aa5750600192915050565b806108b481611c6c565b915050610828565b50600092915050565b600081815260cf6020526040812080548291906108e190611bfc565b9050119050919050565b6108f3611421565b6001600160a01b0381166109445760405162461bcd60e51b815260206004820152601860248201527716995c9bc81859191c995cdcc81b9bdd08185b1b1bddd95960421b604482015260640161060a565b60c980546001600160a01b0319166001600160a01b0383169081179091556040517fe2c34fba7a16caa93431a35c2f08f7f67264f0175978b111d35dbd9e014bb51690600090a250565b610996611421565b60005b815181101561061d5760008282815181106109b6576109b6611c40565b602002602001015190506109d8600080516020611fa9833981519152826113ba565b50806109e381611c6c565b915050610999565b6109f3611421565b6109fd6000611485565b565b610a07611421565b60005b815181101561061d576000828281518110610a2757610a27611c40565b60200260200101519050610a49600080516020611fa98339815191528261147b565b5080610a5481611c6c565b915050610a0a565b600080516020611fa9833981519152610a748161132a565b81610ab35760405162461bcd60e51b815260206004820152600f60248201526e62756c6b4d696e742030204e46547360881b604482015260640161060a565b60005b82811015610b3c576000848483818110610ad257610ad2611c40565b9050602002810190610ae49190611d2a565b8080601f016020809104026020016040519081016040528093929190818152602001838380828437600092019190915250929350610b27925083915061113c9050565b50508080610b3490611c6c565b915050610ab6565b50505050565b60009182526097602090815260408084206001600160a01b0393909316845291905290205460ff1690565b600054610100900460ff1615808015610b8d5750600054600160ff909116105b80610ba75750303b158015610ba7575060005460ff166001145b610c0a5760405162461bcd60e51b815260206004820152602e60248201527f496e697469616c697a61626c653a20636f6e747261637420697320616c72656160448201526d191e481a5b9a5d1a585b1a5e995960921b606482015260840161060a565b6000805460ff191660011790558015610c2d576000805461ff0019166101001790555b6001600160a01b038416610c7e5760405162461bcd60e51b815260206004820152601860248201527716995c9bc81859191c995cdcc81b9bdd08185b1b1bddd95960421b604482015260640161060a565b610c8c60ce80546001019055565b610c946114d7565b610cdf6040518060400160405280600d81526020016c476f6c64656e20456e7469747960981b81525060405180604001604052806004815260200163474c444560e01b815250611506565b60c980546001600160a01b0319166001600160a01b038616179055610d02611537565b610d0d60003361147b565b6000610d1a836001611d71565b67ffffffffffffffff811115610d3257610d32611977565b604051908082528060200260200182016040528015610d5b578160200160208202803683370190505b50905060005b83811015610dcc57848482818110610d7b57610d7b611c40565b9050602002016020810190610d909190611b00565b828281518110610da257610da2611c40565b6001600160a01b039092166020928302919091019091015280610dc481611c6c565b915050610d61565b50338160018351610ddd9190611ca1565b81518110610ded57610ded611c40565b60200260200101906001600160a01b031690816001600160a01b031681525050610e16816109ff565b610e1f81610621565b508015610b3c576000805461ff0019169055604051600181527f7f26b83ff96e1f2b6a682f133852f6798a09c465da95921460cefb38474024989060200160405180910390a150505050565b60cb80546104c890611bfc565b600080516020611f89833981519152610e908161132a565b81610ecf5760405162461bcd60e51b815260206004820152600f60248201526e62756c6b4275726e2030204e46547360881b604482015260640161060a565b60005b82811015610b3c576000848483818110610eee57610eee611c40565b905060200201359050610f008161067e565b5080610f0b81611c6c565b915050610ed2565b600081815260cf60205260409020805460609190610f3090611bfc565b80601f0160208091040260200160405190810160405280929190818152602001828054610f5c90611bfc565b8015610fa95780601f10610f7e57610100808354040283529160200191610fa9565b820191906000526020600020905b815481529060010190602001808311610f8c57829003601f168201915b50505050509050919050565b606060d1600160cd54610fc89190611ca1565b81548110610fd857610fd8611c40565b906000526020600020018054610fed90611bfc565b80601f016020809104026020016040519081016040528092919081815260200182805461101990611bfc565b80156110665780601f1061103b57610100808354040283529160200191611066565b820191906000526020600020905b81548152906001019060200180831161104957829003601f168201915b5050505050905090565b611078611421565b60d180546001810182556000919091527f695fb3134ad82c3b8022bc5464edd0bcc9424ef672b52245dcb6ab2374327ce3016110b48282611dd2565b5060cd80549060006110c583611c6c565b9190505550806040516110d89190611c85565b60405190819003812060cd548252907faf3fa066196f7e740d26c19414028cb0e3a456ed55619f6711e6415f6a3be2109060200160405180910390a250565b6000828152609760205260409020600101546111328161132a565b61059983836113ba565b6000600080516020611fa98339815191526111568161132a565b82516000036111a75760405162461bcd60e51b815260206004820152601860248201527f656e7469747949642063616e6e6f7420626520656d7074790000000000000000604482015260640161060a565b60006111b260ce5490565b90508060d0856040516111c59190611c85565b908152604080516020928190038301902092909255600083815260cf909152206111ef8582611dd2565b506111fe60ce80546001019055565b60cc805490600061120e83611c6c565b9190505550807fadef11a3979b8ceb0573eb6ef0678134a09c23a0d94e5ea47cd18ac3a9fc0194856040516112439190611871565b60405180910390a291505b50919050565b61125c611421565b60005b815181101561061d57600082828151811061127c5761127c611c40565b6020026020010151905061129e600080516020611f89833981519152826113ba565b50806112a981611c6c565b91505061125f565b6112b9611421565b6001600160a01b03811661131e5760405162461bcd60e51b815260206004820152602660248201527f4f776e61626c653a206e6577206f776e657220697320746865207a65726f206160448201526564647265737360d01b606482015260840161060a565b61132781611485565b50565b611327813361155e565b61133e8282610b42565b61061d5760008281526097602090815260408083206001600160a01b03851684529091529020805460ff191660011790556113763390565b6001600160a01b0316816001600160a01b0316837f2f8788117e7eff1d82e926ec794901d17c78024a50270940304540a733656f0d60405160405180910390a45050565b6113c48282610b42565b1561061d5760008281526097602090815260408083206001600160a01b0385168085529252808320805460ff1916905551339285917ff6391f5c32d9c69d2a47ea670b442974b53935d1edc7fd64eb21e047a839171b9190a45050565b6033546001600160a01b031633146109fd5760405162461bcd60e51b815260206004820181905260248201527f4f776e61626c653a2063616c6c6572206973206e6f7420746865206f776e6572604482015260640161060a565b61061d8282611334565b603380546001600160a01b038381166001600160a01b0319831681179093556040519116919082907f8be0079c531659141344cd1fd0a4f28419497f9722a3daafe3b4186f6b6457e090600090a35050565b600054610100900460ff166114fe5760405162461bcd60e51b815260040161060a90611e92565b6109fd6115c2565b600054610100900460ff1661152d5760405162461bcd60e51b815260040161060a90611e92565b61061d82826115f2565b600054610100900460ff166109fd5760405162461bcd60e51b815260040161060a90611e92565b6115688282610b42565b61061d57611580816001600160a01b03166014611632565b61158b836020611632565b60405160200161159c929190611edd565b60408051601f198184030181529082905262461bcd60e51b825261060a91600401611871565b600054610100900460ff166115e95760405162461bcd60e51b815260040161060a90611e92565b6109fd33611485565b600054610100900460ff166116195760405162461bcd60e51b815260040161060a90611e92565b60ca6116258382611dd2565b5060cb6105998282611dd2565b60606000611641836002611f52565b61164c906002611d71565b67ffffffffffffffff81111561166457611664611977565b6040519080825280601f01601f19166020018201604052801561168e576020820181803683370190505b509050600360fc1b816000815181106116a9576116a9611c40565b60200101906001600160f81b031916908160001a905350600f60fb1b816001815181106116d8576116d8611c40565b60200101906001600160f81b031916908160001a90535060006116fc846002611f52565b611707906001611d71565b90505b600181111561177f576f181899199a1a9b1b9c1cb0b131b232b360811b85600f166010811061173b5761173b611c40565b1a60f81b82828151811061175157611751611c40565b60200101906001600160f81b031916908160001a90535060049490941c9361177881611f71565b905061170a565b5083156117ce5760405162461bcd60e51b815260206004820181905260248201527f537472696e67733a20686578206c656e67746820696e73756666696369656e74604482015260640161060a565b9392505050565b5080546117e190611bfc565b6000825580601f106117f1575050565b601f01602090049060005260206000209081019061132791905b8082111561181f576000815560010161180b565b5090565b60006020828403121561183557600080fd5b81356001600160e01b0319811681146117ce57600080fd5b60005b83811015611868578181015183820152602001611850565b50506000910152565b602081526000825180602084015261189081604085016020870161184d565b601f01601f19169190910160400192915050565b600080602083850312156118b757600080fd5b823567ffffffffffffffff808211156118cf57600080fd5b818501915085601f8301126118e357600080fd5b8135818111156118f257600080fd5b86602082850101111561190457600080fd5b60209290920196919550909350505050565b60006020828403121561192857600080fd5b5035919050565b80356001600160a01b038116811461194657600080fd5b919050565b6000806040838503121561195e57600080fd5b8235915061196e6020840161192f565b90509250929050565b634e487b7160e01b600052604160045260246000fd5b604051601f8201601f1916810167ffffffffffffffff811182821017156119b6576119b6611977565b604052919050565b600060208083850312156119d157600080fd5b823567ffffffffffffffff808211156119e957600080fd5b818501915085601f8301126119fd57600080fd5b813581811115611a0f57611a0f611977565b8060051b9150611a2084830161198d565b8181529183018401918481019088841115611a3a57600080fd5b938501935b83851015611a5f57611a508561192f565b82529385019390850190611a3f565b98975050505050505050565b60006020808385031215611a7e57600080fd5b823567ffffffffffffffff80821115611a9657600080fd5b818501915085601f830112611aaa57600080fd5b813581811115611abc57611abc611977565b611ace601f8201601f1916850161198d565b91508082528684828501011115611ae457600080fd5b8084840185840137600090820190930192909252509392505050565b600060208284031215611b1257600080fd5b6117ce8261192f565b60008083601f840112611b2d57600080fd5b50813567ffffffffffffffff811115611b4557600080fd5b6020830191508360208260051b8501011115611b6057600080fd5b9250929050565b60008060208385031215611b7a57600080fd5b823567ffffffffffffffff811115611b9157600080fd5b611b9d85828601611b1b565b90969095509350505050565b600080600060408486031215611bbe57600080fd5b611bc78461192f565b9250602084013567ffffffffffffffff811115611be357600080fd5b611bef86828701611b1b565b9497909650939450505050565b600181811c90821680611c1057607f821691505b60208210810361124e57634e487b7160e01b600052602260045260246000fd5b8183823760009101908152919050565b634e487b7160e01b600052603260045260246000fd5b634e487b7160e01b600052601160045260246000fd5b600060018201611c7e57611c7e611c56565b5060010190565b60008251611c9781846020870161184d565b9190910192915050565b818103818111156104b5576104b5611c56565b6000808354611cc281611bfc565b60018281168015611cda5760018114611cef57611d1e565b60ff1984168752821515830287019450611d1e565b8760005260208060002060005b85811015611d155781548a820152908401908201611cfc565b50505082870194505b50929695505050505050565b6000808335601e19843603018112611d4157600080fd5b83018035915067ffffffffffffffff821115611d5c57600080fd5b602001915036819003821315611b6057600080fd5b808201808211156104b5576104b5611c56565b601f82111561059957600081815260208120601f850160051c81016020861015611dab5750805b601f850160051c820191505b81811015611dca57828155600101611db7565b505050505050565b815167ffffffffffffffff811115611dec57611dec611977565b611e0081611dfa8454611bfc565b84611d84565b602080601f831160018114611e355760008415611e1d5750858301515b600019600386901b1c1916600185901b178555611dca565b600085815260208120601f198616915b82811015611e6457888601518255948401946001909101908401611e45565b5085821015611e825787850151600019600388901b60f8161c191681555b5050505050600190811b01905550565b6020808252602b908201527f496e697469616c697a61626c653a20636f6e7472616374206973206e6f74206960408201526a6e697469616c697a696e6760a81b606082015260800190565b7f416363657373436f6e74726f6c3a206163636f756e7420000000000000000000815260008351611f1581601785016020880161184d565b7001034b99036b4b9b9b4b733903937b6329607d1b6017918401918201528351611f4681602884016020880161184d565b01602801949350505050565b6000816000190483118215151615611f6c57611f6c611c56565b500290565b600081611f8057611f80611c56565b50600019019056fe3c11d16cbaffd01df69ce1c404f6340ee057498f5f00246190ea54220576a8489f2df0fed2c77648de5860a4cc508cd0818c85b8b8a1ab4ceeef8d981c8956a6a2646970667358221220e2837b222c372429a592fd7893802374693b59d673d4a87fc6159d1f5e9d404264736f6c63430008100033",
  "devdoc": {
    "kind": "dev",
    "methods": {
      "exists(uint256)": {
        "details": "Returns whether `tokenId` exists. Tokens can be managed by their owner or approved accounts via {approve} or {setApprovalForAll}. Tokens start existing when they are minted (`_mint`), and stop existing when they are burned (`_burn`)."
      },
      "getRoleAdmin(bytes32)": {
        "details": "Returns the admin role that controls `role`. See {grantRole} and {revokeRole}. To change a role's admin, use {_setRoleAdmin}."
      },
      "grantRole(bytes32,address)": {
        "details": "Grants `role` to `account`. If `account` had not been already granted `role`, emits a {RoleGranted} event. Requirements: - the caller must have ``role``'s admin role. May emit a {RoleGranted} event."
      },
      "hasRole(bytes32,address)": {
        "details": "Returns `true` if `account` has been granted `role`."
      },
      "initialize(address,address[])": {
        "details": "Upgradeable initializer"
      },
      "owner()": {
        "details": "Returns the address of the current owner."
      },
      "renounceOwnership()": {
        "details": "Leaves the contract without owner. It will not be possible to call `onlyOwner` functions anymore. Can only be called by the current owner. NOTE: Renouncing ownership will leave the contract without an owner, thereby removing any functionality that is only available to the owner."
      },
      "renounceRole(bytes32,address)": {
        "details": "Revokes `role` from the calling account. Roles are often managed via {grantRole} and {revokeRole}: this function's purpose is to provide a mechanism for accounts to lose their privileges if they are compromised (such as when a trusted device is misplaced). If the calling account had been revoked `role`, emits a {RoleRevoked} event. Requirements: - the caller must be `account`. May emit a {RoleRevoked} event."
      },
      "revokeRole(bytes32,address)": {
        "details": "Revokes `role` from `account`. If `account` had been granted `role`, emits a {RoleRevoked} event. Requirements: - the caller must have ``role``'s admin role. May emit a {RoleRevoked} event."
      },
      "supportsInterface(bytes4)": {
        "details": "See {IERC165-supportsInterface}."
      },
      "transferOwnership(address)": {
        "details": "Transfers ownership of the contract to a new account (`newOwner`). Can only be called by the current owner."
      }
    },
    "stateVariables": {
      "__gap": {
        "details": "This empty reserved space is put in place to allow future versions to add new variables without shifting down storage in the inheritance chain. See https://docs.openzeppelin.com/contracts/4.x/upgradeable#storage_gaps"
      }
    },
    "version": 1
  },
  "userdoc": {
    "kind": "user",
    "methods": {
      "bulkBurn(uint256[])": {
        "notice": "bulk burn users' NFT."
      },
      "bulkMint(string[])": {
        "notice": "bulk mint users' NFT."
      },
      "doesDocumentExist(string)": {
        "notice": "Expensive loop but good to have"
      }
    },
    "version": 1
  },
  "storageLayout": {
    "storage": [
      {
        "astId": 551,
        "contract": "contracts/nft/GoldenNFT.sol:GoldenNFT",
        "label": "_initialized",
        "offset": 0,
        "slot": "0",
        "type": "t_uint8"
      },
      {
        "astId": 554,
        "contract": "contracts/nft/GoldenNFT.sol:GoldenNFT",
        "label": "_initializing",
        "offset": 1,
        "slot": "0",
        "type": "t_bool"
      },
      {
        "astId": 2032,
        "contract": "contracts/nft/GoldenNFT.sol:GoldenNFT",
        "label": "__gap",
        "offset": 0,
        "slot": "1",
        "type": "t_array(t_uint256)50_storage"
      },
      {
        "astId": 423,
        "contract": "contracts/nft/GoldenNFT.sol:GoldenNFT",
        "label": "_owner",
        "offset": 0,
        "slot": "51",
        "type": "t_address"
      },
      {
        "astId": 543,
        "contract": "contracts/nft/GoldenNFT.sol:GoldenNFT",
        "label": "__gap",
        "offset": 0,
        "slot": "52",
        "type": "t_array(t_uint256)49_storage"
      },
      {
        "astId": 2302,
        "contract": "contracts/nft/GoldenNFT.sol:GoldenNFT",
        "label": "__gap",
        "offset": 0,
        "slot": "101",
        "type": "t_array(t_uint256)50_storage"
      },
      {
        "astId": 39,
        "contract": "contracts/nft/GoldenNFT.sol:GoldenNFT",
        "label": "_roles",
        "offset": 0,
        "slot": "151",
        "type": "t_mapping(t_bytes32,t_struct(RoleData)34_storage)"
      },
      {
        "astId": 338,
        "contract": "contracts/nft/GoldenNFT.sol:GoldenNFT",
        "label": "__gap",
        "offset": 0,
        "slot": "152",
        "type": "t_array(t_uint256)49_storage"
      },
      {
        "astId": 2417,
        "contract": "contracts/nft/GoldenNFT.sol:GoldenNFT",
        "label": "goldenTokenContractAddress",
        "offset": 0,
        "slot": "201",
        "type": "t_address"
      },
      {
        "astId": 2419,
        "contract": "contracts/nft/GoldenNFT.sol:GoldenNFT",
        "label": "name",
        "offset": 0,
        "slot": "202",
        "type": "t_string_storage"
      },
      {
        "astId": 2421,
        "contract": "contracts/nft/GoldenNFT.sol:GoldenNFT",
        "label": "symbol",
        "offset": 0,
        "slot": "203",
        "type": "t_string_storage"
      },
      {
        "astId": 2423,
        "contract": "contracts/nft/GoldenNFT.sol:GoldenNFT",
        "label": "totalSupply",
        "offset": 0,
        "slot": "204",
        "type": "t_uint256"
      },
      {
        "astId": 2425,
        "contract": "contracts/nft/GoldenNFT.sol:GoldenNFT",
        "label": "totalDocuments",
        "offset": 0,
        "slot": "205",
        "type": "t_uint256"
      },
      {
        "astId": 2428,
        "contract": "contracts/nft/GoldenNFT.sol:GoldenNFT",
        "label": "_tokenIds",
        "offset": 0,
        "slot": "206",
        "type": "t_struct(Counter)2321_storage"
      },
      {
        "astId": 2432,
        "contract": "contracts/nft/GoldenNFT.sol:GoldenNFT",
        "label": "_tokenToEntity",
        "offset": 0,
        "slot": "207",
        "type": "t_mapping(t_uint256,t_string_storage)"
      },
      {
        "astId": 2436,
        "contract": "contracts/nft/GoldenNFT.sol:GoldenNFT",
        "label": "_entityToToken",
        "offset": 0,
        "slot": "208",
        "type": "t_mapping(t_string_memory_ptr,t_uint256)"
      },
      {
        "astId": 2440,
        "contract": "contracts/nft/GoldenNFT.sol:GoldenNFT",
        "label": "_docIds",
        "offset": 0,
        "slot": "209",
        "type": "t_array(t_string_storage)dyn_storage"
      },
      {
        "astId": 3087,
        "contract": "contracts/nft/GoldenNFT.sol:GoldenNFT",
        "label": "__gap",
        "offset": 0,
        "slot": "210",
        "type": "t_array(t_uint256)44_storage"
      }
    ],
    "types": {
      "t_address": {
        "encoding": "inplace",
        "label": "address",
        "numberOfBytes": "20"
      },
      "t_array(t_string_storage)dyn_storage": {
        "base": "t_string_storage",
        "encoding": "dynamic_array",
        "label": "string[]",
        "numberOfBytes": "32"
      },
      "t_array(t_uint256)44_storage": {
        "base": "t_uint256",
        "encoding": "inplace",
        "label": "uint256[44]",
        "numberOfBytes": "1408"
      },
      "t_array(t_uint256)49_storage": {
        "base": "t_uint256",
        "encoding": "inplace",
        "label": "uint256[49]",
        "numberOfBytes": "1568"
      },
      "t_array(t_uint256)50_storage": {
        "base": "t_uint256",
        "encoding": "inplace",
        "label": "uint256[50]",
        "numberOfBytes": "1600"
      },
      "t_bool": {
        "encoding": "inplace",
        "label": "bool",
        "numberOfBytes": "1"
      },
      "t_bytes32": {
        "encoding": "inplace",
        "label": "bytes32",
        "numberOfBytes": "32"
      },
      "t_mapping(t_address,t_bool)": {
        "encoding": "mapping",
        "key": "t_address",
        "label": "mapping(address => bool)",
        "numberOfBytes": "32",
        "value": "t_bool"
      },
      "t_mapping(t_bytes32,t_struct(RoleData)34_storage)": {
        "encoding": "mapping",
        "key": "t_bytes32",
        "label": "mapping(bytes32 => struct AccessControlUpgradeable.RoleData)",
        "numberOfBytes": "32",
        "value": "t_struct(RoleData)34_storage"
      },
      "t_mapping(t_string_memory_ptr,t_uint256)": {
        "encoding": "mapping",
        "key": "t_string_memory_ptr",
        "label": "mapping(string => uint256)",
        "numberOfBytes": "32",
        "value": "t_uint256"
      },
      "t_mapping(t_uint256,t_string_storage)": {
        "encoding": "mapping",
        "key": "t_uint256",
        "label": "mapping(uint256 => string)",
        "numberOfBytes": "32",
        "value": "t_string_storage"
      },
      "t_string_memory_ptr": {
        "encoding": "bytes",
        "label": "string",
        "numberOfBytes": "32"
      },
      "t_string_storage": {
        "encoding": "bytes",
        "label": "string",
        "numberOfBytes": "32"
      },
      "t_struct(Counter)2321_storage": {
        "encoding": "inplace",
        "label": "struct Counters.Counter",
        "members": [
          {
            "astId": 2320,
            "contract": "contracts/nft/GoldenNFT.sol:GoldenNFT",
            "label": "_value",
            "offset": 0,
            "slot": "0",
            "type": "t_uint256"
          }
        ],
        "numberOfBytes": "32"
      },
      "t_struct(RoleData)34_storage": {
        "encoding": "inplace",
        "label": "struct AccessControlUpgradeable.RoleData",
        "members": [
          {
            "astId": 31,
            "contract": "contracts/nft/GoldenNFT.sol:GoldenNFT",
            "label": "members",
            "offset": 0,
            "slot": "0",
            "type": "t_mapping(t_address,t_bool)"
          },
          {
            "astId": 33,
            "contract": "contracts/nft/GoldenNFT.sol:GoldenNFT",
            "label": "adminRole",
            "offset": 0,
            "slot": "1",
            "type": "t_bytes32"
          }
        ],
        "numberOfBytes": "64"
      },
      "t_uint256": {
        "encoding": "inplace",
        "label": "uint256",
        "numberOfBytes": "32"
      },
      "t_uint8": {
        "encoding": "inplace",
        "label": "uint8",
        "numberOfBytes": "1"
      }
    }
  }
}