{
  "address": "0x0cd3bEEe072C3875Ce5e5E46122E66E5B4513177",
  "abi": [
    {
      "inputs": [
        {
          "components": [
            {
              "internalType": "bytes16",
              "name": "predicateID",
              "type": "bytes16"
            },
            {
              "internalType": "bytes32",
              "name": "latestCID",
              "type": "bytes32"
            }
          ],
          "internalType": "struct GoldenSchema.Predicate[]",
          "name": "initialPredicates",
          "type": "tuple[]"
        }
      ],
      "stateMutability": "nonpayable",
      "type": "constructor"
    },
    {
      "anonymous": false,
      "inputs": [
        {
          "indexed": true,
          "internalType": "address",
          "name": "previousOwner",
          "type": "address"
        },
        {
          "indexed": true,
          "internalType": "address",
          "name": "newOwner",
          "type": "address"
        }
      ],
      "name": "OwnershipTransferred",
      "type": "event"
    },
    {
      "anonymous": false,
      "inputs": [
        {
          "indexed": true,
          "internalType": "bytes16",
          "name": "predicateID",
          "type": "bytes16"
        },
        {
          "indexed": true,
          "internalType": "bytes32",
          "name": "latestCID",
          "type": "bytes32"
        }
      ],
      "name": "PredicateAdded",
      "type": "event"
    },
    {
      "anonymous": false,
      "inputs": [
        {
          "indexed": true,
          "internalType": "bytes16",
          "name": "predicateID",
          "type": "bytes16"
        },
        {
          "indexed": true,
          "internalType": "bytes32",
          "name": "latestCID",
          "type": "bytes32"
        }
      ],
      "name": "PredicateRemoved",
      "type": "event"
    },
    {
      "anonymous": false,
      "inputs": [
        {
          "indexed": true,
          "internalType": "bytes16",
          "name": "predicateID",
          "type": "bytes16"
        },
        {
          "indexed": true,
          "internalType": "bytes32",
          "name": "latestCID",
          "type": "bytes32"
        }
      ],
      "name": "PredicateUpdated",
      "type": "event"
    },
    {
      "inputs": [
        {
          "internalType": "bytes16",
          "name": "predicateID",
          "type": "bytes16"
        },
        {
          "internalType": "bytes32",
          "name": "predicateCID",
          "type": "bytes32"
        }
      ],
      "name": "addPredicate",
      "outputs": [],
      "stateMutability": "nonpayable",
      "type": "function"
    },
    {
      "inputs": [],
      "name": "owner",
      "outputs": [
        {
          "internalType": "address",
          "name": "",
          "type": "address"
        }
      ],
      "stateMutability": "view",
      "type": "function"
    },
    {
      "inputs": [
        {
          "internalType": "bytes16",
          "name": "",
          "type": "bytes16"
        }
      ],
      "name": "predicateIDToLatestCID",
      "outputs": [
        {
          "internalType": "bytes32",
          "name": "",
          "type": "bytes32"
        }
      ],
      "stateMutability": "view",
      "type": "function"
    },
    {
      "inputs": [],
      "name": "predicates",
      "outputs": [
        {
          "components": [
            {
              "internalType": "bytes16",
              "name": "predicateID",
              "type": "bytes16"
            },
            {
              "internalType": "bytes32",
              "name": "latestCID",
              "type": "bytes32"
            }
          ],
          "internalType": "struct GoldenSchema.Predicate[]",
          "name": "",
          "type": "tuple[]"
        }
      ],
      "stateMutability": "view",
      "type": "function"
    },
    {
      "inputs": [
        {
          "internalType": "bytes16",
          "name": "predicateID",
          "type": "bytes16"
        }
      ],
      "name": "removePredicate",
      "outputs": [],
      "stateMutability": "nonpayable",
      "type": "function"
    },
    {
      "inputs": [],
      "name": "renounceOwnership",
      "outputs": [],
      "stateMutability": "nonpayable",
      "type": "function"
    },
    {
      "inputs": [
        {
          "internalType": "address",
          "name": "newOwner",
          "type": "address"
        }
      ],
      "name": "transferOwnership",
      "outputs": [],
      "stateMutability": "nonpayable",
      "type": "function"
    },
    {
      "inputs": [
        {
          "internalType": "bytes16",
          "name": "predicateID",
          "type": "bytes16"
        },
        {
          "internalType": "bytes32",
          "name": "predicateCID",
          "type": "bytes32"
        }
      ],
      "name": "updatePredicate",
      "outputs": [],
      "stateMutability": "nonpayable",
      "type": "function"
    }
  ],
  "transactionHash": "0x263022f1c7d5b682e9c5faae3022f1e10e6781d20b7a6efeb5b30e3352421bfb",
  "args": [
    [
      [
        "0xbb463b8bb76c4f6a972665ab5730b69b",
        "0x71a6513f0feb8c76c4cadc6d378e8ef3861d5c67d58a28d031c712c5c8d73dd5"
      ],
      [
        "0x3104de39071c47b886b4d62ccc4a4fa6",
        "0x195910f28668ce162faa32c1847a4ae397ff59a7f0a79a7da8cc6e93ffdd91c8"
      ],
      [
        "0x71ad3d9ee211472ba16d861737c57ecd",
        "0x3173a32161d0c63d5254aa7b1f0ecc550e7d6329ad89ae32127e4c386f1ac879"
      ],
      [
        "0x4b4ff1c9a0534bc387ef0713453f9992",
        "0xca515260402848ca7bfaaaf75402137b02a54a6a87380bb0624b88d5a2302a38"
      ],
      [
        "0x6b95b113e33141bb8e3145b198a41ea8",
        "0xea30a6ef2b9f69ef43273c97d33b65d2d4aefff03803771b6e1241b13ca0eb6b"
      ],
      [
        "0x7e593c0c457a464d9dd28e1fc5a8b116",
        "0x1f52abd8a05f929e76b487ecdb50d004fc21490f2647957c9efa9fc22ab98a6e"
      ],
      [
        "0x1e49b96df641422691f0ed42e6de742e",
        "0x1ea7c6d1fd1dc6ea31e29e6b8d58a5cb9f4659c51bba4cbcad86335b39644558"
      ],
      [
        "0x27897e2f5d0840fe904d0b0647fa2ff4",
        "0xc18d627379f13c5ef2d1e4553a9c1d60c4d74aa7a76072346f180ba4c6b6f0c9"
      ],
      [
        "0x71f46d7f6667460090bfeb82fbba8e17",
        "0xe992268eb306608ea48cde05d40bd36ce5db28888dece3a331a583fb7f7ddbaa"
      ],
      [
        "0x7f15d7885df14ff3a5e54c9e8e2c57af",
        "0xbaaa160e22b6d0d3146dbf412904407e4f1889cd68174c2ec054981aa527f0cd"
      ],
      [
        "0x92ae90d8d4f6476b940989b7d1b846c0",
        "0xbbfd7c27ef51bd5afdcb1c9ffac89ace1a89f1a3002648895db45b2619122e70"
      ],
      [
        "0xdb5923661c4c4087821e44699ddd29b6",
        "0x40b2ac17884a92c407247d67b00a10fd15e2695f3b0053c263e345e16828101c"
      ],
      [
        "0x9934d828963f403aa0da7a52e0224ef5",
        "0xd5977e4179bb3be625fa1ef3489b1d739bb481140fe04d79e07cf95e015cb54e"
      ],
      [
        "0xfa39c1f2bf0645e98995da919472deb8",
        "0x82eeda06827d768157be69f6cefa18e29e55c8137e80cfde2e6365e755fc9461"
      ],
      [
        "0x1d7d64c5c4a1488991c42d2da0424dcc",
        "0x2cc9d441e3df659968567e7a872dfe0ad3f223609e43cec306529989b75b3bd5"
      ],
      [
        "0xfb06b90352af4a799126f2589c2ca881",
        "0x31ec0587b080067146199b0b79c7362a6a5d748276ffa85efc54c664d0dc25cc"
      ],
      [
        "0xf348c532bffd4ad1b79c34258d05c1cd",
        "0x914f715ba8d93d1cb09873a2e0a0803c8b502021ac9b99c220dfd59088cf4fe3"
      ],
      [
        "0xe3d0cfb43ec14ef2ae0893fa07aa27dc",
        "0x717dcb1cd763c0be860971d0a2a179a7374a39921d2fb46dc71087d5ddc06866"
      ],
      [
        "0x33461e27545443c3b30088c02a96c280",
        "0xe972ea018b9dc4c491bf22b92f2942128b1f512c9e152e66c25a44d39cb5c278"
      ],
      [
        "0xfacb73aa82db45ffbd875ce7983d8ca2",
        "0xc6fe4bdcebb53d9a779aa321eef3a2c4d62018d7f9f5b611f02cdd6ff6b78405"
      ],
      [
        "0x68d490c8d8d34efe9670390df48e1ad6",
        "0x5a6d8230a4655dd221409c3c3bb64660ad94f7e389311dfd69059b14067e01ec"
      ],
      [
        "0x5bbcbd49c2554a6bb84adc076849650d",
        "0x0a1221c92b680c7ef38d468d13f6fe671a690be5c353b2efe5159a338a02ef2d"
      ],
      [
        "0x14fa743c816142e8a92f5c29c70e87f8",
        "0x7828e4160f8620aca8de19f00daa3bcb93b2ae771954167883ef81b90d10649c"
      ],
      [
        "0x36d1a264da264a1a8f0e726543749a5f",
        "0x95237662c42e3505c39599921efd3f3bfa44a7637f467e119395ee2e012548a9"
      ],
      [
        "0x12acb8fe05734ca88cc1180cc6ba3486",
        "0x28522dd01fc616fcc68125673fa602a38f72cbd3f49b71b45099caf4bc36e90b"
      ],
      [
        "0x8c4d6279199f4e469ef78702bad1e152",
        "0xf83664c1dc9cd08a25176c8bb47a851c6ff0539e06912f755b1a30a4795f798d"
      ],
      [
        "0x5387126afa274a428c7fbf813a6a893d",
        "0xbeefb312eef3d2e827ac608c134778af6860cb9e109b28bdc743196c669619cb"
      ],
      [
        "0xa27218b86a4d47bb95b65a55334fac1c",
        "0x8791b77efc6bb0b8251291489177d5f9cdb04caed959bc41b51a84edff269ea0"
      ],
      [
        "0x606272614e6c4ebf8879914576ade417",
        "0x35e0eecf3330a43266ec9c04da240766f93ca0327427dda17116eca89c6dc939"
      ],
      [
        "0x7f3869c17dc9448690456bade487a49d",
        "0xe32c1d55c46a260b16d6c9ae171c9e77a58228de0c0ecf687864358f64b3d3fe"
      ],
      [
        "0x13a7e8b672704c9981e99d752e0c295c",
        "0xd872cd7aeee6fe9cd653562114f08cea4a0f15ce2169bee0fba26daed3d498be"
      ],
      [
        "0x0a87e99634b446ba909a70ab67b1f811",
        "0xcd2b1bff3c298fe19e4615a3fcd65c173c17c056dc9c63b9dc2d61ddce7f8c78"
      ],
      [
        "0x86a5c5d26d05478899840efae5384784",
        "0x4d6e3d29ecc332ae0a8b6bb20e65cd4e82a378a56e88471023482bf4f1175b1c"
      ],
      [
        "0xe4f94b98c56a4bd2a9fd5fd11603e7e8",
        "0xbd9a9341c4c932743a334fa5c4ddbcdd450698c98b62c8e013c7873b060fa340"
      ],
      [
        "0x94a8d215ce324379b18e2aebf0794882",
        "0x301ea9fb1f69edbb2215c042356b47c7b20efa25eb16a27c51ff1cd1283d402c"
      ],
      [
        "0x42cb158be83645ed9b56034668b8f05a",
        "0xbe0c7e73be3ffca7960d6fee2495297c8f5999d0be00ac934eb46891b12c1c9b"
      ],
      [
        "0xc090be246c3545d88a8132e57a3d48dd",
        "0x2ce233a5d9bd85be8ced82f92ddafab3fe975fe329da8232125afeff201d0257"
      ],
      [
        "0xfa1a5ac7480c4e44a545b0f3dd9d24bf",
        "0xc92698482d0468a02b2a1a7fa45408f4b643afa95d4a9d142ecc46ea8dc995b0"
      ],
      [
        "0x9cb6d628a0f848b09828253596b6ad00",
        "0x6fa7b2944f0c53743dcc3a479d4d2719e9ef069b09621b904cbd8cb2683a20e2"
      ],
      [
        "0x1551ee2af6a04a4bb322d98d3a696cf3",
        "0x2caf0192e719676de610d71ff53a0b0879027823adcd5e342f6098bb31cf6023"
      ],
      [
        "0x0efd04411ffc4e308806e58c434770c8",
        "0x4bdf93a85d46b5bf3ee9bac96138af7077cd49f9bf7adc6a250b36df9ea07fdf"
      ]
    ]
  ],
  "numDeployments": 2,
  "solcInputHash": "9a26dbe1c66cc415b05eada5aa99f2b3",
  "bytecode": "0x60806040523480156200001157600080fd5b5060405162000eed38038062000eed833981016040819052620000349162000391565b6200003f33620000bd565b805160005b81811015620000b4576200009f83828151811062000066576200006662000483565b60200260200101516000015184838151811062000087576200008762000483565b6020026020010151602001516200010d60201b60201c565b80620000ab8162000499565b91505062000044565b505050620004c3565b600080546001600160a01b038381166001600160a01b0319831681178455604051919092169283917f8be0079c531659141344cd1fd0a4f28419497f9722a3daafe3b4186f6b6457e09190a35050565b6000546001600160a01b031633146200016d5760405162461bcd60e51b815260206004820181905260248201527f4f776e61626c653a2063616c6c6572206973206e6f7420746865206f776e657260448201526064015b60405180910390fd5b62000188826001620001d060201b620004fd1790919060201c565b6001600160801b03198216600081815260036020526040808220849055518392917fddbd9c69ad18561fc7cf11ff7be612fea0c255ddacedce5a41dd21a65a24ae8591a35050565b620001dc82826200029c565b156200023e5760405162461bcd60e51b815260206004820152602a60248201527f427974657331365365743a206b657920616c726561647920657869737473206960448201526937103a34329039b2ba1760b11b606482015260840162000164565b600182810180546001600160801b0319841660009081526020958652604081208290558184018355918252939020600284040180546001600160801b03949092166010026101000a9384021990911660809290921c92909202179055565b6001820154600090620002b25750600062000317565b6001600160801b031982166000818152602085905260409020546001850180549091908110620002e657620002e662000483565b90600052602060002090600291828204019190066010029054906101000a900460801b6001600160801b0319161490505b92915050565b634e487b7160e01b600052604160045260246000fd5b604080519081016001600160401b03811182821017156200035857620003586200031d565b60405290565b604051601f8201601f191681016001600160401b03811182821017156200038957620003896200031d565b604052919050565b60006020808385031215620003a557600080fd5b82516001600160401b0380821115620003bd57600080fd5b818501915085601f830112620003d257600080fd5b815181811115620003e757620003e76200031d565b620003f7848260051b016200035e565b818152848101925060069190911b8301840190878211156200041857600080fd5b928401925b81841015620004785760408489031215620004385760008081fd5b6200044262000333565b84516001600160801b0319811681146200045c5760008081fd5b815284860151868201528352604090930192918401916200041d565b979650505050505050565b634e487b7160e01b600052603260045260246000fd5b6000600019821415620004bc57634e487b7160e01b600052601160045260246000fd5b5060010190565b610a1a80620004d36000396000f3fe608060405234801561001057600080fd5b50600436106100885760003560e01c80638da5cb5b1161005b5780638da5cb5b146100db578063b4112e40146100f6578063d6b7636314610124578063f2fde38b1461013757600080fd5b806338b7a7d51461008d5780633c3efab4146100a2578063702f1f5d146100c0578063715018a6146100d3575b600080fd5b6100a061009b366004610857565b61014a565b005b6100aa6101c5565b6040516100b79190610881565b60405180910390f35b6100a06100ce366004610857565b610334565b6100a06103b1565b6000546040516001600160a01b0390911681526020016100b7565b6101166101043660046108da565b60036020526000908152604090205481565b6040519081526020016100b7565b6100a06101323660046108da565b6103e7565b6100a06101453660046108fc565b610462565b6000546001600160a01b0316331461017d5760405162461bcd60e51b815260040161017490610925565b60405180910390fd5b6001600160801b03198216600081815260036020526040808220849055518392917f115c3e1d5164e8f7d3fc558e8a290f058c709114555eed7426c3c3b9d7d7318591a35050565b60025460609060009067ffffffffffffffff8111156101e6576101e661095a565b60405190808252806020026020018201604052801561022b57816020015b60408051808201909152600080825260208201528152602001906001900390816102045790505b50905060005b815181101561032e57600280548290811061024e5761024e610970565b90600052602060002090600291828204019190066010029054906101000a900460801b82828151811061028357610283610970565b60209081029190910101516001600160801b0319909116905260028054600391600091849081106102b6576102b6610970565b90600052602060002090600291828204019190066010029054906101000a900460801b6001600160801b0319166001600160801b03191681526020019081526020016000205482828151811061030e5761030e610970565b6020908102919091018101510152806103268161099c565b915050610231565b50919050565b6000546001600160a01b0316331461035e5760405162461bcd60e51b815260040161017490610925565b6103696001836104fd565b6001600160801b03198216600081815260036020526040808220849055518392917fddbd9c69ad18561fc7cf11ff7be612fea0c255ddacedce5a41dd21a65a24ae8591a35050565b6000546001600160a01b031633146103db5760405162461bcd60e51b815260040161017490610925565b6103e560006105c5565b565b6000546001600160a01b031633146104115760405162461bcd60e51b815260040161017490610925565b61041c600182610615565b6001600160801b031981166000818152600360205260408082205490519092917f0792080f73e0f4bd6ee184076e9f0924507e65f2aa6517aef7b6abd9bc45b96291a350565b6000546001600160a01b0316331461048c5760405162461bcd60e51b815260040161017490610925565b6001600160a01b0381166104f15760405162461bcd60e51b815260206004820152602660248201527f4f776e61626c653a206e6577206f776e657220697320746865207a65726f206160448201526564647265737360d01b6064820152608401610174565b6104fa816105c5565b50565b61050782826107be565b156105675760405162461bcd60e51b815260206004820152602a60248201527f427974657331365365743a206b657920616c726561647920657869737473206960448201526937103a34329039b2ba1760b11b6064820152608401610174565b600182810180546001600160801b0319841660009081526020958652604081208290558184018355918252939020600284040180546001600160801b03949092166010026101000a9384021990911660809290921c92909202179055565b600080546001600160a01b038381166001600160a01b0319831681178455604051919092169283917f8be0079c531659141344cd1fd0a4f28419497f9722a3daafe3b4186f6b6457e09190a35050565b61061f82826107be565b61067e5760405162461bcd60e51b815260206004820152602a60248201527f427974657331365365743a206b657920646f6573206e6f74206578697374206960448201526937103a34329039b2ba1760b11b6064820152608401610174565b6000600161068d846001015490565b61069791906109b7565b6001600160801b0319831660009081526020859052604090205490915080821461075a5760008460010183815481106106d2576106d2610970565b6000918252602080832060028304015460019283166010026101000a900460801b6001600160801b0319811684529088905260409092208490558601805491925082918490811061072557610725610970565b90600052602060002090600291828204019190066010026101000a8154816001600160801b03021916908360801c0217905550505b6001600160801b0319831660009081526020859052604081205560018401805480610787576107876109ce565b60008281526020902060026000199092019182040180546001600160801b03601060018516026101000a0219169055905550505050565b60018201546000906107d257506000610834565b6001600160801b03198216600081815260208590526040902054600185018054909190811061080357610803610970565b90600052602060002090600291828204019190066010029054906101000a900460801b6001600160801b0319161490505b92915050565b80356001600160801b03198116811461085257600080fd5b919050565b6000806040838503121561086a57600080fd5b6108738361083a565b946020939093013593505050565b602080825282518282018190526000919060409081850190868401855b828110156108cd57815180516001600160801b031916855286015186850152928401929085019060010161089e565b5091979650505050505050565b6000602082840312156108ec57600080fd5b6108f58261083a565b9392505050565b60006020828403121561090e57600080fd5b81356001600160a01b03811681146108f557600080fd5b6020808252818101527f4f776e61626c653a2063616c6c6572206973206e6f7420746865206f776e6572604082015260600190565b634e487b7160e01b600052604160045260246000fd5b634e487b7160e01b600052603260045260246000fd5b634e487b7160e01b600052601160045260246000fd5b60006000198214156109b0576109b0610986565b5060010190565b6000828210156109c9576109c9610986565b500390565b634e487b7160e01b600052603160045260246000fdfea2646970667358221220aed24f45cbfbb50aa3509fcd45da40c0c294c5231b612a09259e9456f1c2e37464736f6c634300080b0033",
  "devdoc": {
    "custom:security-contact": "security@golden.com",
    "kind": "dev",
    "methods": {
      "owner()": {
        "details": "Returns the address of the current owner."
      },
      "renounceOwnership()": {
        "details": "Leaves the contract without owner. It will not be possible to call `onlyOwner` functions anymore. Can only be called by the current owner. NOTE: Renouncing ownership will leave the contract without an owner, thereby removing any functionality that is only available to the owner."
      },
      "transferOwnership(address)": {
        "details": "Transfers ownership of the contract to a new account (`newOwner`). Can only be called by the current owner."
      }
    },
    "version": 1
  },
  "userdoc": {
    "kind": "user",
    "methods": {},
    "version": 1
  },
  "storageLayout": {
    "storage": [
      {
        "astId": 7,
        "contract": "contracts/GoldenSchema.sol:GoldenSchema",
        "label": "_owner",
        "offset": 0,
        "slot": "0",
        "type": "t_address"
      },
      {
        "astId": 4467,
        "contract": "contracts/GoldenSchema.sol:GoldenSchema",
        "label": "_predicateIDs",
        "offset": 0,
        "slot": "1",
        "type": "t_struct(Set)4766_storage"
      },
      {
        "astId": 4471,
        "contract": "contracts/GoldenSchema.sol:GoldenSchema",
        "label": "predicateIDToLatestCID",
        "offset": 0,
        "slot": "3",
        "type": "t_mapping(t_bytes16,t_bytes32)"
      }
    ],
    "types": {
      "t_address": {
        "encoding": "inplace",
        "label": "address",
        "numberOfBytes": "20"
      },
      "t_array(t_bytes16)dyn_storage": {
        "base": "t_bytes16",
        "encoding": "dynamic_array",
        "label": "bytes16[]",
        "numberOfBytes": "32"
      },
      "t_bytes16": {
        "encoding": "inplace",
        "label": "bytes16",
        "numberOfBytes": "16"
      },
      "t_bytes32": {
        "encoding": "inplace",
        "label": "bytes32",
        "numberOfBytes": "32"
      },
      "t_mapping(t_bytes16,t_bytes32)": {
        "encoding": "mapping",
        "key": "t_bytes16",
        "label": "mapping(bytes16 => bytes32)",
        "numberOfBytes": "32",
        "value": "t_bytes32"
      },
      "t_mapping(t_bytes16,t_uint256)": {
        "encoding": "mapping",
        "key": "t_bytes16",
        "label": "mapping(bytes16 => uint256)",
        "numberOfBytes": "32",
        "value": "t_uint256"
      },
      "t_struct(Set)4766_storage": {
        "encoding": "inplace",
        "label": "struct Bytes16Set.Set",
        "members": [
          {
            "astId": 4762,
            "contract": "contracts/GoldenSchema.sol:GoldenSchema",
            "label": "keyPointers",
            "offset": 0,
            "slot": "0",
            "type": "t_mapping(t_bytes16,t_uint256)"
          },
          {
            "astId": 4765,
            "contract": "contracts/GoldenSchema.sol:GoldenSchema",
            "label": "keyList",
            "offset": 0,
            "slot": "1",
            "type": "t_array(t_bytes16)dyn_storage"
          }
        ],
        "numberOfBytes": "64"
      },
      "t_uint256": {
        "encoding": "inplace",
        "label": "uint256",
        "numberOfBytes": "32"
      }
    }
  }
}