{
  "address": "0x66AC39EEd541272cd6ce16a4f5364A8C799e570D",
  "abi": [
    {
      "anonymous": false,
      "inputs": [
        {
          "indexed": true,
          "internalType": "uint256",
          "name": "tokenId",
          "type": "uint256"
        },
        {
          "indexed": false,
          "internalType": "string",
          "name": "ceramicId",
          "type": "string"
        }
      ],
      "name": "Burned",
      "type": "event"
    },
    {
      "anonymous": false,
      "inputs": [
        {
          "indexed": true,
          "internalType": "address",
          "name": "goldenTokenContractAddress",
          "type": "address"
        }
      ],
      "name": "GoldenTokenContractAddressChanged",
      "type": "event"
    },
    {
      "anonymous": false,
      "inputs": [
        {
          "indexed": false,
          "internalType": "uint8",
          "name": "version",
          "type": "uint8"
        }
      ],
      "name": "Initialized",
      "type": "event"
    },
    {
      "anonymous": false,
      "inputs": [
        {
          "indexed": true,
          "internalType": "uint256",
          "name": "tokenId",
          "type": "uint256"
        },
        {
          "indexed": false,
          "internalType": "string",
          "name": "ceramicId",
          "type": "string"
        }
      ],
      "name": "Minted",
      "type": "event"
    },
    {
      "anonymous": false,
      "inputs": [
        {
          "indexed": true,
          "internalType": "address",
          "name": "previousOwner",
          "type": "address"
        },
        {
          "indexed": true,
          "internalType": "address",
          "name": "newOwner",
          "type": "address"
        }
      ],
      "name": "OwnershipTransferred",
      "type": "event"
    },
    {
      "inputs": [],
      "name": "_goldenTokenContractAddress",
      "outputs": [
        {
          "internalType": "address",
          "name": "",
          "type": "address"
        }
      ],
      "stateMutability": "view",
      "type": "function"
    },
    {
      "inputs": [],
      "name": "_totalSupply",
      "outputs": [
        {
          "internalType": "uint256",
          "name": "",
          "type": "uint256"
        }
      ],
      "stateMutability": "view",
      "type": "function"
    },
    {
      "inputs": [
        {
          "internalType": "uint256[]",
          "name": "tokenIds",
          "type": "uint256[]"
        }
      ],
      "name": "bulkBurn",
      "outputs": [],
      "stateMutability": "nonpayable",
      "type": "function"
    },
    {
      "inputs": [
        {
          "internalType": "string[]",
          "name": "ceramicIds",
          "type": "string[]"
        }
      ],
      "name": "bulkMint",
      "outputs": [],
      "stateMutability": "nonpayable",
      "type": "function"
    },
    {
      "inputs": [
        {
          "internalType": "uint256",
          "name": "tokenId",
          "type": "uint256"
        }
      ],
      "name": "burn",
      "outputs": [],
      "stateMutability": "nonpayable",
      "type": "function"
    },
    {
      "inputs": [
        {
          "internalType": "uint256",
          "name": "tokenId",
          "type": "uint256"
        }
      ],
      "name": "ceramicIdByTokenId",
      "outputs": [
        {
          "internalType": "string",
          "name": "",
          "type": "string"
        }
      ],
      "stateMutability": "view",
      "type": "function"
    },
    {
      "inputs": [],
      "name": "getGoldenTokenContractAddress",
      "outputs": [
        {
          "internalType": "address",
          "name": "",
          "type": "address"
        }
      ],
      "stateMutability": "view",
      "type": "function"
    },
    {
      "inputs": [
        {
          "internalType": "address",
          "name": "goldenTokenContractAddress",
          "type": "address"
        }
      ],
      "name": "initialize",
      "outputs": [],
      "stateMutability": "nonpayable",
      "type": "function"
    },
    {
      "inputs": [
        {
          "internalType": "string",
          "name": "ceramicId",
          "type": "string"
        }
      ],
      "name": "mint",
      "outputs": [
        {
          "internalType": "uint256",
          "name": "",
          "type": "uint256"
        }
      ],
      "stateMutability": "nonpayable",
      "type": "function"
    },
    {
      "inputs": [],
      "name": "name",
      "outputs": [
        {
          "internalType": "string",
          "name": "",
          "type": "string"
        }
      ],
      "stateMutability": "view",
      "type": "function"
    },
    {
      "inputs": [],
      "name": "owner",
      "outputs": [
        {
          "internalType": "address",
          "name": "",
          "type": "address"
        }
      ],
      "stateMutability": "view",
      "type": "function"
    },
    {
      "inputs": [],
      "name": "renounceOwnership",
      "outputs": [],
      "stateMutability": "nonpayable",
      "type": "function"
    },
    {
      "inputs": [
        {
          "internalType": "address",
          "name": "newGoldenTokenContractAddress",
          "type": "address"
        }
      ],
      "name": "setGoldenTokenContractAddress",
      "outputs": [],
      "stateMutability": "nonpayable",
      "type": "function"
    },
    {
      "inputs": [],
      "name": "symbol",
      "outputs": [
        {
          "internalType": "string",
          "name": "",
          "type": "string"
        }
      ],
      "stateMutability": "view",
      "type": "function"
    },
    {
      "inputs": [
        {
          "internalType": "string",
          "name": "ceramicId",
          "type": "string"
        }
      ],
      "name": "tokenIdByCeramicId",
      "outputs": [
        {
          "internalType": "uint256",
          "name": "",
          "type": "uint256"
        }
      ],
      "stateMutability": "view",
      "type": "function"
    },
    {
      "inputs": [
        {
          "internalType": "uint256",
          "name": "tokenId",
          "type": "uint256"
        }
      ],
      "name": "tokenURI",
      "outputs": [
        {
          "internalType": "string",
          "name": "",
          "type": "string"
        }
      ],
      "stateMutability": "view",
      "type": "function"
    },
    {
      "inputs": [
        {
          "internalType": "address",
          "name": "newOwner",
          "type": "address"
        }
      ],
      "name": "transferOwnership",
      "outputs": [],
      "stateMutability": "nonpayable",
      "type": "function"
    }
  ],
  "transactionHash": "0x91db1660f924d1910a744379a5147e7aa3fd1f38566725074e70b410772d6b5f",
  "args": [],
  "numDeployments": 1,
  "solcInputHash": "e6679b111655e25a8ee5847ca7558a94",
  "bytecode": "0x608060405234801561001057600080fd5b5061121e806100206000396000f3fe608060405234801561001057600080fd5b506004361061010b5760003560e01c80637e3cdcb2116100a25780639e124d69116100715780639e124d69146101ff578063c4d66de814610212578063c87b56dd14610225578063d85d3d2714610238578063f2fde38b1461024b57600080fd5b80637e3cdcb2146101c057806389d94ff3146101d35780638da5cb5b146101e657806395d89b41146101f757600080fd5b80633eaaf86b116100de5780633eaaf86b1461018757806342966c68146101905780635f260332146101a5578063715018a6146101b857600080fd5b806306fdde03146101105780632a63b2921461012e5780632df283c51461015357806336ba6a8814610166575b600080fd5b61011861025e565b6040516101259190611044565b60405180910390f35b6066546001600160a01b03165b6040516001600160a01b039091168152602001610125565b610118610161366004611000565b6102f0565b610179610174366004610ee9565b610392565b604051908152602001610125565b61017960675481565b6101a361019e366004611000565b6103bd565b005b6101a36101b3366004610e53565b610556565b6101a36105f9565b6101a36101ce366004610e81565b61060d565b60665461013b906001600160a01b031681565b6033546001600160a01b031661013b565b61011861072d565b6101a361020d366004610ec1565b61073c565b6101a3610220366004610e53565b6107d5565b610118610233366004611000565b61099e565b610179610246366004610f56565b610a07565b6101a3610259366004610e53565b610b0d565b60606068805461026d90611166565b80601f016020809104026020016040519081016040528092919081815260200182805461029990611166565b80156102e65780601f106102bb576101008083540402835291602001916102e6565b820191906000526020600020905b8154815290600101906020018083116102c957829003601f168201915b5050505050905090565b6000818152606a6020526040902080546060919061030d90611166565b80601f016020809104026020016040519081016040528092919081815260200182805461033990611166565b80156103865780601f1061035b57610100808354040283529160200191610386565b820191906000526020600020905b81548152906001019060200180831161036957829003601f168201915b50505050509050919050565b6000606b83836040516103a6929190611018565b908152602001604051809103902054905092915050565b6103c5610b86565b6000818152606a6020526040902080546103de90611166565b1515905061042c5760405162461bcd60e51b8152602060048201526016602482015275313ab937103737b732bc34b9ba32b73a103a37b5b2b760511b60448201526064015b60405180910390fd5b6000818152606a60205260408120805461044590611166565b80601f016020809104026020016040519081016040528092919081815260200182805461047190611166565b80156104be5780601f10610493576101008083540402835291602001916104be565b820191906000526020600020905b8154815290600101906020018083116104a157829003601f168201915b50505050509050606b816040516104d59190611028565b908152602001604051809103902060009055606a600083815260200190815260200160002060006105069190610d36565b6001606754610515919061111f565b60675560405182907f807d972db6803e8ebfe2ba7ce23584b5fbd0ef70584ff004d2184d2ab1d2e0ad9061054a908490611044565b60405180910390a25050565b61055e610b86565b6001600160a01b0381166105af5760405162461bcd60e51b815260206004820152601860248201527716995c9bc81859191c995cdcc81b9bdd08185b1b1bddd95960421b6044820152606401610423565b606680546001600160a01b0319166001600160a01b0383169081179091556040517fe2c34fba7a16caa93431a35c2f08f7f67264f0175978b111d35dbd9e014bb51690600090a250565b610601610b86565b61060b6000610be0565b565b610615610b86565b806106545760405162461bcd60e51b815260206004820152600f60248201526e62756c6b4d696e742030204e46547360881b6044820152606401610423565b60005b8181101561072857600083838381811061068157634e487b7160e01b600052603260045260246000fd5b905060200281019061069391906110c2565b8080601f016020809104026020016040519081016040528093929190818152602001838380828437600092019190915250508251929350505061070a5760405162461bcd60e51b815260206004820152600f60248201526e195b5c1d1e4818d95c985b5a58d259608a1b6044820152606401610423565b61071381610a07565b50508080610720906111a1565b915050610657565b505050565b60606069805461026d90611166565b610744610b86565b806107835760405162461bcd60e51b815260206004820152600f60248201526e62756c6b4275726e2030204e46547360881b6044820152606401610423565b60005b818110156107285760008383838181106107b057634e487b7160e01b600052603260045260246000fd5b9050602002013590506107c2816103bd565b50806107cd816111a1565b915050610786565b600054610100900460ff16158080156107f55750600054600160ff909116105b8061080f5750303b15801561080f575060005460ff166001145b6108725760405162461bcd60e51b815260206004820152602e60248201527f496e697469616c697a61626c653a20636f6e747261637420697320616c72656160448201526d191e481a5b9a5d1a585b1a5e995960921b6064820152608401610423565b6000805460ff191660011790558015610895576000805461ff0019166101001790555b6001600160a01b0382166108e65760405162461bcd60e51b815260206004820152601860248201527716995c9bc81859191c995cdcc81b9bdd08185b1b1bddd95960421b6044820152606401610423565b6108ee610c32565b6109396040518060400160405280600d81526020016c476f6c64656e20456e7469747960981b81525060405180604001604052806004815260200163474c444560e01b815250610c61565b606680546001600160a01b0319166001600160a01b038416179055801561099a576000805461ff0019169055604051600181527f7f26b83ff96e1f2b6a682f133852f6798a09c465da95921460cefb38474024989060200160405180910390a15b5050565b60606109a982610c92565b6109ee5760405162461bcd60e51b81526020600482015260166024820152751d1bdad95b925908191bd95cc81b9bdd08195e1a5cdd60521b6044820152606401610423565b6000828152606a60205260409020805461030d90611166565b6000610a11610b86565b8151610a5f5760405162461bcd60e51b815260206004820152601960248201527f636572616d696349642063616e6e6f7420626520656d707479000000000000006044820152606401610423565b6000610a6a60655490565b905080606b84604051610a7d9190611028565b9081526040805160209281900383019020929092556000838152606a8252919091208451610aad92860190610d70565b50610abc606580546001019055565b606754610aca906001611107565b60675560405181907fadef11a3979b8ceb0573eb6ef0678134a09c23a0d94e5ea47cd18ac3a9fc019490610aff908690611044565b60405180910390a292915050565b610b15610b86565b6001600160a01b038116610b7a5760405162461bcd60e51b815260206004820152602660248201527f4f776e61626c653a206e6577206f776e657220697320746865207a65726f206160448201526564647265737360d01b6064820152608401610423565b610b8381610be0565b50565b6033546001600160a01b0316331461060b5760405162461bcd60e51b815260206004820181905260248201527f4f776e61626c653a2063616c6c6572206973206e6f7420746865206f776e65726044820152606401610423565b603380546001600160a01b038381166001600160a01b0319831681179093556040519116919082907f8be0079c531659141344cd1fd0a4f28419497f9722a3daafe3b4186f6b6457e090600090a35050565b600054610100900460ff16610c595760405162461bcd60e51b815260040161042390611077565b61060b610cb8565b600054610100900460ff16610c885760405162461bcd60e51b815260040161042390611077565b61099a8282610ce8565b6000818152606a602052604081208054829190610cae90611166565b9050119050919050565b600054610100900460ff16610cdf5760405162461bcd60e51b815260040161042390611077565b61060b33610be0565b600054610100900460ff16610d0f5760405162461bcd60e51b815260040161042390611077565b8151610d22906068906020850190610d70565b508051610728906069906020840190610d70565b508054610d4290611166565b6000825580601f10610d52575050565b601f016020900490600052602060002090810190610b839190610df4565b828054610d7c90611166565b90600052602060002090601f016020900481019282610d9e5760008555610de4565b82601f10610db757805160ff1916838001178555610de4565b82800160010185558215610de4579182015b82811115610de4578251825591602001919060010190610dc9565b50610df0929150610df4565b5090565b5b80821115610df05760008155600101610df5565b60008083601f840112610e1a578081fd5b50813567ffffffffffffffff811115610e31578182fd5b6020830191508360208260051b8501011115610e4c57600080fd5b9250929050565b600060208284031215610e64578081fd5b81356001600160a01b0381168114610e7a578182fd5b9392505050565b60008060208385031215610e93578081fd5b823567ffffffffffffffff811115610ea9578182fd5b610eb585828601610e09565b90969095509350505050565b60008060208385031215610ed3578182fd5b823567ffffffffffffffff811115610ea9578283fd5b60008060208385031215610efb578182fd5b823567ffffffffffffffff80821115610f12578384fd5b818501915085601f830112610f25578384fd5b813581811115610f33578485fd5b866020828501011115610f44578485fd5b60209290920196919550909350505050565b600060208284031215610f67578081fd5b813567ffffffffffffffff80821115610f7e578283fd5b818401915084601f830112610f91578283fd5b813581811115610fa357610fa36111d2565b604051601f8201601f19908116603f01168101908382118183101715610fcb57610fcb6111d2565b81604052828152876020848701011115610fe3578586fd5b826020860160208301379182016020019490945295945050505050565b600060208284031215611011578081fd5b5035919050565b8183823760009101908152919050565b6000825161103a818460208701611136565b9190910192915050565b6020815260008251806020840152611063816040850160208701611136565b601f01601f19169190910160400192915050565b6020808252602b908201527f496e697469616c697a61626c653a20636f6e7472616374206973206e6f74206960408201526a6e697469616c697a696e6760a81b606082015260800190565b6000808335601e198436030181126110d8578283fd5b83018035915067ffffffffffffffff8211156110f2578283fd5b602001915036819003821315610e4c57600080fd5b6000821982111561111a5761111a6111bc565b500190565b600082821015611131576111316111bc565b500390565b60005b83811015611151578181015183820152602001611139565b83811115611160576000848401525b50505050565b600181811c9082168061117a57607f821691505b6020821081141561119b57634e487b7160e01b600052602260045260246000fd5b50919050565b60006000198214156111b5576111b56111bc565b5060010190565b634e487b7160e01b600052601160045260246000fd5b634e487b7160e01b600052604160045260246000fdfea26469706673582212207557e676abc605288130eb4e2acdba567d639529274d9647fa35709ad4478eb664736f6c63430008040033",
  "devdoc": {
    "kind": "dev",
    "methods": {
      "initialize(address)": {
        "details": "Upgradeable initializer"
      },
      "owner()": {
        "details": "Returns the address of the current owner."
      },
      "renounceOwnership()": {
        "details": "Leaves the contract without owner. It will not be possible to call `onlyOwner` functions anymore. Can only be called by the current owner. NOTE: Renouncing ownership will leave the contract without an owner, thereby removing any functionality that is only available to the owner."
      },
      "tokenURI(uint256)": {
        "details": "See {IERC721Metadata-tokenURI}."
      },
      "transferOwnership(address)": {
        "details": "Transfers ownership of the contract to a new account (`newOwner`). Can only be called by the current owner."
      }
    },
    "stateVariables": {
      "__gap": {
        "details": "This empty reserved space is put in place to allow future versions to add new variables without shifting down storage in the inheritance chain. See https://docs.openzeppelin.com/contracts/4.x/upgradeable#storage_gaps"
      }
    },
    "version": 1
  },
  "userdoc": {
    "kind": "user",
    "methods": {
      "bulkBurn(uint256[])": {
        "notice": "bulk burn users' NFT."
      },
      "bulkMint(string[])": {
        "notice": "bulk mint users' NFT."
      }
    },
    "version": 1
  },
  "storageLayout": {
    "storage": [
      {
        "astId": 216,
        "contract": "contracts/nft/GoldenNFTv1.sol:GoldenNFTv1",
        "label": "_initialized",
        "offset": 0,
        "slot": "0",
        "type": "t_uint8"
      },
      {
        "astId": 219,
        "contract": "contracts/nft/GoldenNFTv1.sol:GoldenNFTv1",
        "label": "_initializing",
        "offset": 1,
        "slot": "0",
        "type": "t_bool"
      },
      {
        "astId": 3422,
        "contract": "contracts/nft/GoldenNFTv1.sol:GoldenNFTv1",
        "label": "__gap",
        "offset": 0,
        "slot": "1",
        "type": "t_array(t_uint256)50_storage"
      },
      {
        "astId": 10,
        "contract": "contracts/nft/GoldenNFTv1.sol:GoldenNFTv1",
        "label": "_owner",
        "offset": 0,
        "slot": "51",
        "type": "t_address"
      },
      {
        "astId": 130,
        "contract": "contracts/nft/GoldenNFTv1.sol:GoldenNFTv1",
        "label": "__gap",
        "offset": 0,
        "slot": "52",
        "type": "t_array(t_uint256)49_storage"
      },
      {
        "astId": 7844,
        "contract": "contracts/nft/GoldenNFTv1.sol:GoldenNFTv1",
        "label": "_tokenIds",
        "offset": 0,
        "slot": "101",
        "type": "t_struct(Counter)6678_storage"
      },
      {
        "astId": 7846,
        "contract": "contracts/nft/GoldenNFTv1.sol:GoldenNFTv1",
        "label": "_goldenTokenContractAddress",
        "offset": 0,
        "slot": "102",
        "type": "t_address"
      },
      {
        "astId": 7848,
        "contract": "contracts/nft/GoldenNFTv1.sol:GoldenNFTv1",
        "label": "_totalSupply",
        "offset": 0,
        "slot": "103",
        "type": "t_uint256"
      },
      {
        "astId": 7850,
        "contract": "contracts/nft/GoldenNFTv1.sol:GoldenNFTv1",
        "label": "_name",
        "offset": 0,
        "slot": "104",
        "type": "t_string_storage"
      },
      {
        "astId": 7852,
        "contract": "contracts/nft/GoldenNFTv1.sol:GoldenNFTv1",
        "label": "_symbol",
        "offset": 0,
        "slot": "105",
        "type": "t_string_storage"
      },
      {
        "astId": 7856,
        "contract": "contracts/nft/GoldenNFTv1.sol:GoldenNFTv1",
        "label": "_tokenToCeramic",
        "offset": 0,
        "slot": "106",
        "type": "t_mapping(t_uint256,t_string_storage)"
      },
      {
        "astId": 7860,
        "contract": "contracts/nft/GoldenNFTv1.sol:GoldenNFTv1",
        "label": "_ceramicToToken",
        "offset": 0,
        "slot": "107",
        "type": "t_mapping(t_string_memory_ptr,t_uint256)"
      },
      {
        "astId": 8290,
        "contract": "contracts/nft/GoldenNFTv1.sol:GoldenNFTv1",
        "label": "__gap",
        "offset": 0,
        "slot": "108",
        "type": "t_array(t_uint256)44_storage"
      }
    ],
    "types": {
      "t_address": {
        "encoding": "inplace",
        "label": "address",
        "numberOfBytes": "20"
      },
      "t_array(t_uint256)44_storage": {
        "base": "t_uint256",
        "encoding": "inplace",
        "label": "uint256[44]",
        "numberOfBytes": "1408"
      },
      "t_array(t_uint256)49_storage": {
        "base": "t_uint256",
        "encoding": "inplace",
        "label": "uint256[49]",
        "numberOfBytes": "1568"
      },
      "t_array(t_uint256)50_storage": {
        "base": "t_uint256",
        "encoding": "inplace",
        "label": "uint256[50]",
        "numberOfBytes": "1600"
      },
      "t_bool": {
        "encoding": "inplace",
        "label": "bool",
        "numberOfBytes": "1"
      },
      "t_mapping(t_string_memory_ptr,t_uint256)": {
        "encoding": "mapping",
        "key": "t_string_memory_ptr",
        "label": "mapping(string => uint256)",
        "numberOfBytes": "32",
        "value": "t_uint256"
      },
      "t_mapping(t_uint256,t_string_storage)": {
        "encoding": "mapping",
        "key": "t_uint256",
        "label": "mapping(uint256 => string)",
        "numberOfBytes": "32",
        "value": "t_string_storage"
      },
      "t_string_memory_ptr": {
        "encoding": "bytes",
        "label": "string",
        "numberOfBytes": "32"
      },
      "t_string_storage": {
        "encoding": "bytes",
        "label": "string",
        "numberOfBytes": "32"
      },
      "t_struct(Counter)6678_storage": {
        "encoding": "inplace",
        "label": "struct Counters.Counter",
        "members": [
          {
            "astId": 6677,
            "contract": "contracts/nft/GoldenNFTv1.sol:GoldenNFTv1",
            "label": "_value",
            "offset": 0,
            "slot": "0",
            "type": "t_uint256"
          }
        ],
        "numberOfBytes": "32"
      },
      "t_uint256": {
        "encoding": "inplace",
        "label": "uint256",
        "numberOfBytes": "32"
      },
      "t_uint8": {
        "encoding": "inplace",
        "label": "uint8",
        "numberOfBytes": "1"
      }
    }
  }
}