{
  "address": "0x8F73Eb8cAdC48D453af9ECda9cDe0C30c874f12A",
  "abi": [
    {
      "anonymous": false,
      "inputs": [
        {
          "indexed": true,
          "internalType": "bytes16",
          "name": "entityTypeID",
          "type": "bytes16"
        },
        {
          "indexed": true,
          "internalType": "bytes32",
          "name": "latestCID",
          "type": "bytes32"
        }
      ],
      "name": "EntityTypeAdded",
      "type": "event"
    },
    {
      "anonymous": false,
      "inputs": [
        {
          "indexed": true,
          "internalType": "bytes16",
          "name": "entityTypeID",
          "type": "bytes16"
        },
        {
          "indexed": true,
          "internalType": "bytes32",
          "name": "latestCID",
          "type": "bytes32"
        }
      ],
      "name": "EntityTypeRemoved",
      "type": "event"
    },
    {
      "anonymous": false,
      "inputs": [
        {
          "indexed": true,
          "internalType": "bytes16",
          "name": "entityTypeID",
          "type": "bytes16"
        },
        {
          "indexed": true,
          "internalType": "bytes32",
          "name": "latestCID",
          "type": "bytes32"
        }
      ],
      "name": "EntityTypeUpdated",
      "type": "event"
    },
    {
      "anonymous": false,
      "inputs": [
        {
          "indexed": false,
          "internalType": "uint8",
          "name": "version",
          "type": "uint8"
        }
      ],
      "name": "Initialized",
      "type": "event"
    },
    {
      "anonymous": false,
      "inputs": [
        {
          "indexed": true,
          "internalType": "address",
          "name": "previousOwner",
          "type": "address"
        },
        {
          "indexed": true,
          "internalType": "address",
          "name": "newOwner",
          "type": "address"
        }
      ],
      "name": "OwnershipTransferred",
      "type": "event"
    },
    {
      "anonymous": false,
      "inputs": [
        {
          "indexed": true,
          "internalType": "bytes16",
          "name": "predicateID",
          "type": "bytes16"
        },
        {
          "indexed": true,
          "internalType": "bytes32",
          "name": "latestCID",
          "type": "bytes32"
        }
      ],
      "name": "PredicateAdded",
      "type": "event"
    },
    {
      "anonymous": false,
      "inputs": [
        {
          "indexed": true,
          "internalType": "bytes16",
          "name": "predicateID",
          "type": "bytes16"
        },
        {
          "indexed": true,
          "internalType": "bytes32",
          "name": "latestCID",
          "type": "bytes32"
        }
      ],
      "name": "PredicateRemoved",
      "type": "event"
    },
    {
      "anonymous": false,
      "inputs": [
        {
          "indexed": true,
          "internalType": "bytes16",
          "name": "predicateID",
          "type": "bytes16"
        },
        {
          "indexed": true,
          "internalType": "bytes32",
          "name": "latestCID",
          "type": "bytes32"
        }
      ],
      "name": "PredicateUpdated",
      "type": "event"
    },
    {
      "inputs": [
        {
          "internalType": "bytes16",
          "name": "entityTypeID",
          "type": "bytes16"
        },
        {
          "internalType": "bytes32",
          "name": "entityTypeCID",
          "type": "bytes32"
        }
      ],
      "name": "addEntityType",
      "outputs": [],
      "stateMutability": "nonpayable",
      "type": "function"
    },
    {
      "inputs": [
        {
          "internalType": "bytes16",
          "name": "predicateID",
          "type": "bytes16"
        },
        {
          "internalType": "bytes32",
          "name": "predicateCID",
          "type": "bytes32"
        }
      ],
      "name": "addPredicate",
      "outputs": [],
      "stateMutability": "nonpayable",
      "type": "function"
    },
    {
      "inputs": [
        {
          "internalType": "bytes16",
          "name": "",
          "type": "bytes16"
        }
      ],
      "name": "entityTypeIDToLatestCID",
      "outputs": [
        {
          "internalType": "bytes32",
          "name": "",
          "type": "bytes32"
        }
      ],
      "stateMutability": "view",
      "type": "function"
    },
    {
      "inputs": [],
      "name": "entityTypes",
      "outputs": [
        {
          "components": [
            {
              "internalType": "bytes16",
              "name": "entityTypeID",
              "type": "bytes16"
            },
            {
              "internalType": "bytes32",
              "name": "latestCID",
              "type": "bytes32"
            }
          ],
          "internalType": "struct GoldenSchema.EntityType[]",
          "name": "",
          "type": "tuple[]"
        }
      ],
      "stateMutability": "view",
      "type": "function"
    },
    {
      "inputs": [
        {
          "components": [
            {
              "internalType": "bytes16",
              "name": "predicateID",
              "type": "bytes16"
            },
            {
              "internalType": "bytes32",
              "name": "latestCID",
              "type": "bytes32"
            }
          ],
          "internalType": "struct GoldenSchema.Predicate[]",
          "name": "initialPredicates",
          "type": "tuple[]"
        },
        {
          "components": [
            {
              "internalType": "bytes16",
              "name": "entityTypeID",
              "type": "bytes16"
            },
            {
              "internalType": "bytes32",
              "name": "latestCID",
              "type": "bytes32"
            }
          ],
          "internalType": "struct GoldenSchema.EntityType[]",
          "name": "initialEntityTypes",
          "type": "tuple[]"
        }
      ],
      "name": "initialize",
      "outputs": [],
      "stateMutability": "nonpayable",
      "type": "function"
    },
    {
      "inputs": [],
      "name": "owner",
      "outputs": [
        {
          "internalType": "address",
          "name": "",
          "type": "address"
        }
      ],
      "stateMutability": "view",
      "type": "function"
    },
    {
      "inputs": [
        {
          "internalType": "bytes16",
          "name": "",
          "type": "bytes16"
        }
      ],
      "name": "predicateIDToLatestCID",
      "outputs": [
        {
          "internalType": "bytes32",
          "name": "",
          "type": "bytes32"
        }
      ],
      "stateMutability": "view",
      "type": "function"
    },
    {
      "inputs": [],
      "name": "predicates",
      "outputs": [
        {
          "components": [
            {
              "internalType": "bytes16",
              "name": "predicateID",
              "type": "bytes16"
            },
            {
              "internalType": "bytes32",
              "name": "latestCID",
              "type": "bytes32"
            }
          ],
          "internalType": "struct GoldenSchema.Predicate[]",
          "name": "",
          "type": "tuple[]"
        }
      ],
      "stateMutability": "view",
      "type": "function"
    },
    {
      "inputs": [
        {
          "internalType": "bytes16",
          "name": "entityTypeID",
          "type": "bytes16"
        }
      ],
      "name": "removeEntityType",
      "outputs": [],
      "stateMutability": "nonpayable",
      "type": "function"
    },
    {
      "inputs": [
        {
          "internalType": "bytes16",
          "name": "predicateID",
          "type": "bytes16"
        }
      ],
      "name": "removePredicate",
      "outputs": [],
      "stateMutability": "nonpayable",
      "type": "function"
    },
    {
      "inputs": [],
      "name": "renounceOwnership",
      "outputs": [],
      "stateMutability": "nonpayable",
      "type": "function"
    },
    {
      "inputs": [
        {
          "internalType": "address",
          "name": "newOwner",
          "type": "address"
        }
      ],
      "name": "transferOwnership",
      "outputs": [],
      "stateMutability": "nonpayable",
      "type": "function"
    },
    {
      "inputs": [
        {
          "internalType": "bytes16",
          "name": "entityTypeID",
          "type": "bytes16"
        },
        {
          "internalType": "bytes32",
          "name": "entityTypeCID",
          "type": "bytes32"
        }
      ],
      "name": "updateEntityType",
      "outputs": [],
      "stateMutability": "nonpayable",
      "type": "function"
    },
    {
      "inputs": [
        {
          "internalType": "bytes16",
          "name": "predicateID",
          "type": "bytes16"
        },
        {
          "internalType": "bytes32",
          "name": "predicateCID",
          "type": "bytes32"
        }
      ],
      "name": "updatePredicate",
      "outputs": [],
      "stateMutability": "nonpayable",
      "type": "function"
    }
  ],
  "transactionHash": "0x16e5ac379ea18ae02f11f516df0ff51f70b2262ae26b0bfa82a9515ab7593b0b",
  "args": [],
  "numDeployments": 1,
  "solcInputHash": "6c201d772fa9e2ed5f85e206c6a77cd7",
  "bytecode": "0x608060405234801561001057600080fd5b5061109f806100206000396000f3fe608060405234801561001057600080fd5b50600436106100ea5760003560e01c8063715018a61161008c578063b988eb1211610066578063b988eb12146101e1578063c99f941c146101f4578063d6b7636314610207578063f2fde38b1461021a57600080fd5b8063715018a61461019e5780638da5cb5b146101a6578063b4112e40146101c157600080fd5b80633c3efab4116100c85780633c3efab414610135578063457401d31461014a5780634c019d2114610178578063702f1f5d1461018b57600080fd5b80632514704c146100ef5780632562e43b1461010457806338b7a7d514610122575b600080fd5b6101026100fd366004610d1e565b61022d565b005b61010c610286565b6040516101199190610d40565b60405180910390f35b610102610130366004610da1565b61039b565b61013d6103eb565b6040516101199190610dcb565b61016a610158366004610d1e565b606a6020526000908152604090205481565b604051908152602001610119565b610102610186366004610da1565b6104fa565b610102610199366004610da1565b610555565b6101026105b0565b6033546040516001600160a01b039091168152602001610119565b61016a6101cf366004610d1e565b60676020526000908152604090205481565b6101026101ef366004610da1565b6105c4565b610102610202366004610ef8565b610614565b610102610215366004610d1e565b6107f6565b610102610228366004610f87565b61084f565b6102356108c8565b610240606882610922565b6001600160801b031981166000818152606a60205260408082205490519092917f5529e55acb20a6fcca4dbfdd33eeecebc71fbf8f6eeb050ba1a50b66511c48a891a350565b60695460609060009067ffffffffffffffff8111156102a7576102a7610e1f565b6040519080825280602002602001820160405280156102ec57816020015b60408051808201909152600080825260208201528152602001906001900390816102c55790505b50905060005b815181101561039557610306606882610acb565b82828151811061031857610318610fb0565b60209081029190910101516001600160801b03199091169052606a6000610340606884610acb565b6001600160801b0319166001600160801b03191681526020019081526020016000205482828151811061037557610375610fb0565b60209081029190910181015101528061038d81610fdc565b9150506102f2565b50919050565b6103a36108c8565b6001600160801b03198216600081815260676020526040808220849055518392917f115c3e1d5164e8f7d3fc558e8a290f058c709114555eed7426c3c3b9d7d7318591a35050565b60665460609060009067ffffffffffffffff81111561040c5761040c610e1f565b60405190808252806020026020018201604052801561045157816020015b604080518082019091526000808252602082015281526020019060019003908161042a5790505b50905060005b81518110156103955761046b606582610acb565b82828151811061047d5761047d610fb0565b60209081029190910101516001600160801b03199091169052606760006104a5606584610acb565b6001600160801b0319166001600160801b0319168152602001908152602001600020548282815181106104da576104da610fb0565b6020908102919091018101510152806104f281610fdc565b915050610457565b6105026108c8565b61050d606883610b0e565b6001600160801b031982166000818152606a6020526040808220849055518392917f2f872f7622fa2463de842fdb296dcd8b04e8d9a4c74f9d1bd7fc394e9bbbbc5d91a35050565b61055d6108c8565b610568606583610b0e565b6001600160801b03198216600081815260676020526040808220849055518392917fddbd9c69ad18561fc7cf11ff7be612fea0c255ddacedce5a41dd21a65a24ae8591a35050565b6105b86108c8565b6105c26000610bd6565b565b6105cc6108c8565b6001600160801b031982166000818152606a6020526040808220849055518392917fbeabbc887e1b032117e8c1eb4816b60ee38c9678b75138255a0fb0c505badb5891a35050565b600054610100900460ff16158080156106345750600054600160ff909116105b8061064e5750303b15801561064e575060005460ff166001145b6106b65760405162461bcd60e51b815260206004820152602e60248201527f496e697469616c697a61626c653a20636f6e747261637420697320616c72656160448201526d191e481a5b9a5d1a585b1a5e995960921b60648201526084015b60405180910390fd5b6000805460ff1916600117905580156106d9576000805461ff0019166101001790555b6106e1610c28565b825160005b818110156107445761073285828151811061070357610703610fb0565b60200260200101516000015186838151811061072157610721610fb0565b602002602001015160200151610555565b8061073c81610fdc565b9150506106e6565b50825160005b818110156107a85761079685828151811061076757610767610fb0565b60200260200101516000015186838151811061078557610785610fb0565b6020026020010151602001516104fa565b806107a081610fdc565b91505061074a565b50505080156107f1576000805461ff0019169055604051600181527f7f26b83ff96e1f2b6a682f133852f6798a09c465da95921460cefb38474024989060200160405180910390a15b505050565b6107fe6108c8565b610809606582610922565b6001600160801b031981166000818152606760205260408082205490519092917f0792080f73e0f4bd6ee184076e9f0924507e65f2aa6517aef7b6abd9bc45b96291a350565b6108576108c8565b6001600160a01b0381166108bc5760405162461bcd60e51b815260206004820152602660248201527f4f776e61626c653a206e6577206f776e657220697320746865207a65726f206160448201526564647265737360d01b60648201526084016106ad565b6108c581610bd6565b50565b6033546001600160a01b031633146105c25760405162461bcd60e51b815260206004820181905260248201527f4f776e61626c653a2063616c6c6572206973206e6f7420746865206f776e657260448201526064016106ad565b61092c8282610c57565b61098b5760405162461bcd60e51b815260206004820152602a60248201527f427974657331365365743a206b657920646f6573206e6f74206578697374206960448201526937103a34329039b2ba1760b11b60648201526084016106ad565b6000600161099a846001015490565b6109a49190610ff5565b6001600160801b03198316600090815260208590526040902054909150808214610a675760008460010183815481106109df576109df610fb0565b6000918252602080832060028304015460019283166010026101000a900460801b6001600160801b03198116845290889052604090922084905586018054919250829184908110610a3257610a32610fb0565b90600052602060002090600291828204019190066010026101000a8154816001600160801b03021916908360801c0217905550505b6001600160801b0319831660009081526020859052604081205560018401805480610a9457610a94611008565b60008281526020902060026000199092019182040180546001600160801b03601060018516026101000a0219169055905550505050565b6000826001018281548110610ae257610ae2610fb0565b90600052602060002090600291828204019190066010029054906101000a900460801b90505b92915050565b610b188282610c57565b15610b785760405162461bcd60e51b815260206004820152602a60248201527f427974657331365365743a206b657920616c726561647920657869737473206960448201526937103a34329039b2ba1760b11b60648201526084016106ad565b600182810180546001600160801b0319841660009081526020958652604081208290558184018355918252939020600284040180546001600160801b03949092166010026101000a9384021990911660809290921c92909202179055565b603380546001600160a01b038381166001600160a01b0319831681179093556040519116919082907f8be0079c531659141344cd1fd0a4f28419497f9722a3daafe3b4186f6b6457e090600090a35050565b600054610100900460ff16610c4f5760405162461bcd60e51b81526004016106ad9061101e565b6105c2610cd1565b60018201546000908103610c6d57506000610b08565b6001600160801b031982166000818152602085905260409020546001850180549091908110610c9e57610c9e610fb0565b6000918252602090912060028204015460019091166010026101000a900460801b6001600160801b031916149392505050565b600054610100900460ff16610cf85760405162461bcd60e51b81526004016106ad9061101e565b6105c233610bd6565b80356001600160801b031981168114610d1957600080fd5b919050565b600060208284031215610d3057600080fd5b610d3982610d01565b9392505050565b602080825282518282018190526000919060409081850190868401855b82811015610d9457610d8484835180516001600160801b0319168252602090810151910152565b9284019290850190600101610d5d565b5091979650505050505050565b60008060408385031215610db457600080fd5b610dbd83610d01565b946020939093013593505050565b602080825282518282018190526000919060409081850190868401855b82811015610d9457610e0f84835180516001600160801b0319168252602090810151910152565b9284019290850190600101610de8565b634e487b7160e01b600052604160045260246000fd5b600067ffffffffffffffff80841115610e5057610e50610e1f565b60408051601f19603f8760051b011681018181108482111715610e7557610e75610e1f565b82528581529250600685901b840160208085019088831115610e9657600080fd5b865b83811015610eeb5784818b031215610eb05760008081fd5b84518581018181108882111715610ec957610ec9610e1f565b8652610ed482610d01565b815281830135838201528352918101918401610e98565b5050505050509392505050565b60008060408385031215610f0b57600080fd5b823567ffffffffffffffff80821115610f2357600080fd5b818501915085601f830112610f3757600080fd5b610f4686833560208501610e35565b93506020850135915080821115610f5c57600080fd5b508301601f81018513610f6e57600080fd5b610f7d85823560208401610e35565b9150509250929050565b600060208284031215610f9957600080fd5b81356001600160a01b0381168114610d3957600080fd5b634e487b7160e01b600052603260045260246000fd5b634e487b7160e01b600052601160045260246000fd5b600060018201610fee57610fee610fc6565b5060010190565b81810381811115610b0857610b08610fc6565b634e487b7160e01b600052603160045260246000fd5b6020808252602b908201527f496e697469616c697a61626c653a20636f6e7472616374206973206e6f74206960408201526a6e697469616c697a696e6760a81b60608201526080019056fea26469706673582212207ad3e941b9b9d9f9eaa78484cad2937f9bfb1e9e504780ae94a23cac02a17ddb64736f6c63430008100033",
  "devdoc": {
    "custom:security-contact": "security@golden.com",
    "kind": "dev",
    "methods": {
      "initialize((bytes16,bytes32)[],(bytes16,bytes32)[])": {
        "details": "Upgradeable initializer"
      },
      "owner()": {
        "details": "Returns the address of the current owner."
      },
      "renounceOwnership()": {
        "details": "Leaves the contract without owner. It will not be possible to call `onlyOwner` functions anymore. Can only be called by the current owner. NOTE: Renouncing ownership will leave the contract without an owner, thereby removing any functionality that is only available to the owner."
      },
      "transferOwnership(address)": {
        "details": "Transfers ownership of the contract to a new account (`newOwner`). Can only be called by the current owner."
      }
    },
    "version": 1
  },
  "userdoc": {
    "kind": "user",
    "methods": {},
    "version": 1
  },
  "storageLayout": {
    "storage": [
      {
        "astId": 138,
        "contract": "contracts/GoldenSchema.sol:GoldenSchema",
        "label": "_initialized",
        "offset": 0,
        "slot": "0",
        "type": "t_uint8"
      },
      {
        "astId": 141,
        "contract": "contracts/GoldenSchema.sol:GoldenSchema",
        "label": "_initializing",
        "offset": 1,
        "slot": "0",
        "type": "t_bool"
      },
      {
        "astId": 566,
        "contract": "contracts/GoldenSchema.sol:GoldenSchema",
        "label": "__gap",
        "offset": 0,
        "slot": "1",
        "type": "t_array(t_uint256)50_storage"
      },
      {
        "astId": 10,
        "contract": "contracts/GoldenSchema.sol:GoldenSchema",
        "label": "_owner",
        "offset": 0,
        "slot": "51",
        "type": "t_address"
      },
      {
        "astId": 130,
        "contract": "contracts/GoldenSchema.sol:GoldenSchema",
        "label": "__gap",
        "offset": 0,
        "slot": "52",
        "type": "t_array(t_uint256)49_storage"
      },
      {
        "astId": 581,
        "contract": "contracts/GoldenSchema.sol:GoldenSchema",
        "label": "_predicateIDs",
        "offset": 0,
        "slot": "101",
        "type": "t_struct(Set)979_storage"
      },
      {
        "astId": 585,
        "contract": "contracts/GoldenSchema.sol:GoldenSchema",
        "label": "predicateIDToLatestCID",
        "offset": 0,
        "slot": "103",
        "type": "t_mapping(t_bytes16,t_bytes32)"
      },
      {
        "astId": 588,
        "contract": "contracts/GoldenSchema.sol:GoldenSchema",
        "label": "_entityTypeIDs",
        "offset": 0,
        "slot": "104",
        "type": "t_struct(Set)979_storage"
      },
      {
        "astId": 592,
        "contract": "contracts/GoldenSchema.sol:GoldenSchema",
        "label": "entityTypeIDToLatestCID",
        "offset": 0,
        "slot": "106",
        "type": "t_mapping(t_bytes16,t_bytes32)"
      }
    ],
    "types": {
      "t_address": {
        "encoding": "inplace",
        "label": "address",
        "numberOfBytes": "20"
      },
      "t_array(t_bytes16)dyn_storage": {
        "base": "t_bytes16",
        "encoding": "dynamic_array",
        "label": "bytes16[]",
        "numberOfBytes": "32"
      },
      "t_array(t_uint256)49_storage": {
        "base": "t_uint256",
        "encoding": "inplace",
        "label": "uint256[49]",
        "numberOfBytes": "1568"
      },
      "t_array(t_uint256)50_storage": {
        "base": "t_uint256",
        "encoding": "inplace",
        "label": "uint256[50]",
        "numberOfBytes": "1600"
      },
      "t_bool": {
        "encoding": "inplace",
        "label": "bool",
        "numberOfBytes": "1"
      },
      "t_bytes16": {
        "encoding": "inplace",
        "label": "bytes16",
        "numberOfBytes": "16"
      },
      "t_bytes32": {
        "encoding": "inplace",
        "label": "bytes32",
        "numberOfBytes": "32"
      },
      "t_mapping(t_bytes16,t_bytes32)": {
        "encoding": "mapping",
        "key": "t_bytes16",
        "label": "mapping(bytes16 => bytes32)",
        "numberOfBytes": "32",
        "value": "t_bytes32"
      },
      "t_mapping(t_bytes16,t_uint256)": {
        "encoding": "mapping",
        "key": "t_bytes16",
        "label": "mapping(bytes16 => uint256)",
        "numberOfBytes": "32",
        "value": "t_uint256"
      },
      "t_struct(Set)979_storage": {
        "encoding": "inplace",
        "label": "struct Bytes16Set.Set",
        "members": [
          {
            "astId": 975,
            "contract": "contracts/GoldenSchema.sol:GoldenSchema",
            "label": "keyPointers",
            "offset": 0,
            "slot": "0",
            "type": "t_mapping(t_bytes16,t_uint256)"
          },
          {
            "astId": 978,
            "contract": "contracts/GoldenSchema.sol:GoldenSchema",
            "label": "keyList",
            "offset": 0,
            "slot": "1",
            "type": "t_array(t_bytes16)dyn_storage"
          }
        ],
        "numberOfBytes": "64"
      },
      "t_uint256": {
        "encoding": "inplace",
        "label": "uint256",
        "numberOfBytes": "32"
      },
      "t_uint8": {
        "encoding": "inplace",
        "label": "uint8",
        "numberOfBytes": "1"
      }
    }
  }
}